{
	"Arnacon/AyalaShop.sol": {
		"AyalaShop": {
			"abi": [
				{
					"inputs": [],
					"stateMutability": "nonpayable",
					"type": "constructor"
				},
				{
					"anonymous": false,
					"inputs": [
						{
							"indexed": true,
							"internalType": "address",
							"name": "previousOwner",
							"type": "address"
						},
						{
							"indexed": true,
							"internalType": "address",
							"name": "newOwner",
							"type": "address"
						}
					],
					"name": "OwnershipTransferred",
					"type": "event"
				},
				{
					"inputs": [
						{
							"internalType": "address",
							"name": "",
							"type": "address"
						}
					],
					"name": "addressToID",
					"outputs": [
						{
							"internalType": "string",
							"name": "",
							"type": "string"
						}
					],
					"stateMutability": "view",
					"type": "function"
				},
				{
					"inputs": [
						{
							"internalType": "address",
							"name": "_addressOfShop",
							"type": "address"
						},
						{
							"internalType": "string",
							"name": "_userID",
							"type": "string"
						}
					],
					"name": "createShop",
					"outputs": [],
					"stateMutability": "nonpayable",
					"type": "function"
				},
				{
					"inputs": [],
					"name": "owner",
					"outputs": [
						{
							"internalType": "address",
							"name": "",
							"type": "address"
						}
					],
					"stateMutability": "view",
					"type": "function"
				},
				{
					"inputs": [
						{
							"internalType": "string",
							"name": "_a",
							"type": "string"
						}
					],
					"name": "parseAddr",
					"outputs": [
						{
							"internalType": "address",
							"name": "_parsedAddress",
							"type": "address"
						}
					],
					"stateMutability": "pure",
					"type": "function"
				},
				{
					"inputs": [],
					"name": "renounceOwnership",
					"outputs": [],
					"stateMutability": "nonpayable",
					"type": "function"
				},
				{
					"inputs": [
						{
							"internalType": "string",
							"name": "s",
							"type": "string"
						}
					],
					"name": "stringToUint",
					"outputs": [
						{
							"internalType": "uint256",
							"name": "result",
							"type": "uint256"
						}
					],
					"stateMutability": "pure",
					"type": "function"
				},
				{
					"inputs": [
						{
							"internalType": "string",
							"name": "str",
							"type": "string"
						},
						{
							"internalType": "uint256",
							"name": "startIndex",
							"type": "uint256"
						},
						{
							"internalType": "uint256",
							"name": "endIndex",
							"type": "uint256"
						}
					],
					"name": "substring",
					"outputs": [
						{
							"internalType": "string",
							"name": "",
							"type": "string"
						}
					],
					"stateMutability": "pure",
					"type": "function"
				},
				{
					"inputs": [
						{
							"internalType": "string",
							"name": "str",
							"type": "string"
						}
					],
					"name": "toLowerCase",
					"outputs": [
						{
							"internalType": "string",
							"name": "",
							"type": "string"
						}
					],
					"stateMutability": "pure",
					"type": "function"
				},
				{
					"inputs": [
						{
							"internalType": "address",
							"name": "newOwner",
							"type": "address"
						}
					],
					"name": "transferOwnership",
					"outputs": [],
					"stateMutability": "nonpayable",
					"type": "function"
				}
			],
			"devdoc": {
				"kind": "dev",
				"methods": {
					"owner()": {
						"details": "Returns the address of the current owner."
					},
					"renounceOwnership()": {
						"details": "Leaves the contract without owner. It will not be possible to call `onlyOwner` functions. Can only be called by the current owner. NOTE: Renouncing ownership will leave the contract without an owner, thereby disabling any functionality that is only available to the owner."
					},
					"transferOwnership(address)": {
						"details": "Transfers ownership of the contract to a new account (`newOwner`). Can only be called by the current owner."
					}
				},
				"version": 1
			},
			"evm": {
				"assembly": "    /* \"Arnacon/AyalaShop.sol\":245:3395  contract AyalaShop is Ownable {... */\n  mstore(0x40, 0x80)\n    /* \"Arnacon/AyalaShop.sol\":284:300  constructor() {} */\n  callvalue\n  dup1\n  iszero\n  tag_1\n  jumpi\n  0x00\n  dup1\n  revert\ntag_1:\n  pop\n    /* \"@openzeppelin/contracts@4.9.3/access/Ownable.sol\":936:968  _transferOwnership(_msgSender()) */\n  tag_5\n    /* \"@openzeppelin/contracts@4.9.3/access/Ownable.sol\":955:967  _msgSender() */\n  tag_6\n    /* \"@openzeppelin/contracts@4.9.3/access/Ownable.sol\":955:965  _msgSender */\n  shl(0x20, tag_7)\n    /* \"@openzeppelin/contracts@4.9.3/access/Ownable.sol\":955:967  _msgSender() */\n  0x20\n  shr\n  jump\t// in\ntag_6:\n    /* \"@openzeppelin/contracts@4.9.3/access/Ownable.sol\":936:954  _transferOwnership */\n  shl(0x20, tag_8)\n    /* \"@openzeppelin/contracts@4.9.3/access/Ownable.sol\":936:968  _transferOwnership(_msgSender()) */\n  0x20\n  shr\n  jump\t// in\ntag_5:\n    /* \"Arnacon/AyalaShop.sol\":245:3395  contract AyalaShop is Ownable {... */\n  jump(tag_10)\n    /* \"@openzeppelin/contracts@4.9.3/utils/Context.sol\":640:736  function _msgSender() internal view virtual returns (address) {... */\ntag_7:\n    /* \"@openzeppelin/contracts@4.9.3/utils/Context.sol\":693:700  address */\n  0x00\n    /* \"@openzeppelin/contracts@4.9.3/utils/Context.sol\":719:729  msg.sender */\n  caller\n    /* \"@openzeppelin/contracts@4.9.3/utils/Context.sol\":712:729  return msg.sender */\n  swap1\n  pop\n    /* \"@openzeppelin/contracts@4.9.3/utils/Context.sol\":640:736  function _msgSender() internal view virtual returns (address) {... */\n  swap1\n  jump\t// out\n    /* \"@openzeppelin/contracts@4.9.3/access/Ownable.sol\":2426:2613  function _transferOwnership(address newOwner) internal virtual {... */\ntag_8:\n    /* \"@openzeppelin/contracts@4.9.3/access/Ownable.sol\":2499:2515  address oldOwner */\n  0x00\n    /* \"@openzeppelin/contracts@4.9.3/access/Ownable.sol\":2518:2524  _owner */\n  dup1\n  0x00\n  swap1\n  sload\n  swap1\n  0x0100\n  exp\n  swap1\n  div\n  0xffffffffffffffffffffffffffffffffffffffff\n  and\n    /* \"@openzeppelin/contracts@4.9.3/access/Ownable.sol\":2499:2524  address oldOwner = _owner */\n  swap1\n  pop\n    /* \"@openzeppelin/contracts@4.9.3/access/Ownable.sol\":2543:2551  newOwner */\n  dup2\n    /* \"@openzeppelin/contracts@4.9.3/access/Ownable.sol\":2534:2540  _owner */\n  0x00\n  dup1\n    /* \"@openzeppelin/contracts@4.9.3/access/Ownable.sol\":2534:2551  _owner = newOwner */\n  0x0100\n  exp\n  dup2\n  sload\n  dup2\n  0xffffffffffffffffffffffffffffffffffffffff\n  mul\n  not\n  and\n  swap1\n  dup4\n  0xffffffffffffffffffffffffffffffffffffffff\n  and\n  mul\n  or\n  swap1\n  sstore\n  pop\n    /* \"@openzeppelin/contracts@4.9.3/access/Ownable.sol\":2597:2605  newOwner */\n  dup2\n    /* \"@openzeppelin/contracts@4.9.3/access/Ownable.sol\":2566:2606  OwnershipTransferred(oldOwner, newOwner) */\n  0xffffffffffffffffffffffffffffffffffffffff\n  and\n    /* \"@openzeppelin/contracts@4.9.3/access/Ownable.sol\":2587:2595  oldOwner */\n  dup2\n    /* \"@openzeppelin/contracts@4.9.3/access/Ownable.sol\":2566:2606  OwnershipTransferred(oldOwner, newOwner) */\n  0xffffffffffffffffffffffffffffffffffffffff\n  and\n  0x8be0079c531659141344cd1fd0a4f28419497f9722a3daafe3b4186f6b6457e0\n  mload(0x40)\n  mload(0x40)\n  dup1\n  swap2\n  sub\n  swap1\n  log3\n    /* \"@openzeppelin/contracts@4.9.3/access/Ownable.sol\":2489:2613  {... */\n  pop\n    /* \"@openzeppelin/contracts@4.9.3/access/Ownable.sol\":2426:2613  function _transferOwnership(address newOwner) internal virtual {... */\n  pop\n  jump\t// out\n    /* \"Arnacon/AyalaShop.sol\":245:3395  contract AyalaShop is Ownable {... */\ntag_10:\n  dataSize(sub_0)\n  dup1\n  dataOffset(sub_0)\n  0x00\n  codecopy\n  0x00\n  return\nstop\n\nsub_0: assembly {\n        /* \"Arnacon/AyalaShop.sol\":245:3395  contract AyalaShop is Ownable {... */\n      mstore(0x40, 0x80)\n      callvalue\n      dup1\n      iszero\n      tag_1\n      jumpi\n      0x00\n      dup1\n      revert\n    tag_1:\n      pop\n      jumpi(tag_2, lt(calldatasize, 0x04))\n      shr(0xe0, calldataload(0x00))\n      dup1\n      0x8694142b\n      gt\n      tag_12\n      jumpi\n      dup1\n      0x8694142b\n      eq\n      tag_7\n      jumpi\n      dup1\n      0x8da5cb5b\n      eq\n      tag_8\n      jumpi\n      dup1\n      0x97b21440\n      eq\n      tag_9\n      jumpi\n      dup1\n      0xa6823189\n      eq\n      tag_10\n      jumpi\n      dup1\n      0xf2fde38b\n      eq\n      tag_11\n      jumpi\n      jump(tag_2)\n    tag_12:\n      dup1\n      0x1bd95155\n      eq\n      tag_3\n      jumpi\n      dup1\n      0x1dcd9b55\n      eq\n      tag_4\n      jumpi\n      dup1\n      0x715018a6\n      eq\n      tag_5\n      jumpi\n      dup1\n      0x816bcee3\n      eq\n      tag_6\n      jumpi\n    tag_2:\n      0x00\n      dup1\n      revert\n        /* \"Arnacon/AyalaShop.sol\":1365:1730  function stringToUint(string memory s) public pure returns (uint256 result) {... */\n    tag_3:\n      tag_13\n      0x04\n      dup1\n      calldatasize\n      sub\n      dup2\n      add\n      swap1\n      tag_14\n      swap2\n      swap1\n      tag_15\n      jump\t// in\n    tag_14:\n      tag_16\n      jump\t// in\n    tag_13:\n      mload(0x40)\n      tag_17\n      swap2\n      swap1\n      tag_18\n      jump\t// in\n    tag_17:\n      mload(0x40)\n      dup1\n      swap2\n      sub\n      swap1\n      return\n        /* \"Arnacon/AyalaShop.sol\":933:1307  function substring(string memory str, uint startIndex, uint endIndex) public pure returns (string memory) {... */\n    tag_4:\n      tag_19\n      0x04\n      dup1\n      calldatasize\n      sub\n      dup2\n      add\n      swap1\n      tag_20\n      swap2\n      swap1\n      tag_21\n      jump\t// in\n    tag_20:\n      tag_22\n      jump\t// in\n    tag_19:\n      mload(0x40)\n      tag_23\n      swap2\n      swap1\n      tag_24\n      jump\t// in\n    tag_23:\n      mload(0x40)\n      dup1\n      swap2\n      sub\n      swap1\n      return\n        /* \"@openzeppelin/contracts@4.9.3/access/Ownable.sol\":1824:1925  function renounceOwnership() public virtual onlyOwner {... */\n    tag_5:\n      tag_25\n      tag_26\n      jump\t// in\n    tag_25:\n      stop\n        /* \"Arnacon/AyalaShop.sol\":385:925  function createShop(address _addressOfShop, string memory _userID) public {... */\n    tag_6:\n      tag_27\n      0x04\n      dup1\n      calldatasize\n      sub\n      dup2\n      add\n      swap1\n      tag_28\n      swap2\n      swap1\n      tag_29\n      jump\t// in\n    tag_28:\n      tag_30\n      jump\t// in\n    tag_27:\n      stop\n        /* \"Arnacon/AyalaShop.sol\":308:353  mapping(address => string) public addressToID */\n    tag_7:\n      tag_31\n      0x04\n      dup1\n      calldatasize\n      sub\n      dup2\n      add\n      swap1\n      tag_32\n      swap2\n      swap1\n      tag_33\n      jump\t// in\n    tag_32:\n      tag_34\n      jump\t// in\n    tag_31:\n      mload(0x40)\n      tag_35\n      swap2\n      swap1\n      tag_24\n      jump\t// in\n    tag_35:\n      mload(0x40)\n      dup1\n      swap2\n      sub\n      swap1\n      return\n        /* \"@openzeppelin/contracts@4.9.3/access/Ownable.sol\":1201:1286  function owner() public view virtual returns (address) {... */\n    tag_8:\n      tag_36\n      tag_37\n      jump\t// in\n    tag_36:\n      mload(0x40)\n      tag_38\n      swap2\n      swap1\n      tag_39\n      jump\t// in\n    tag_38:\n      mload(0x40)\n      dup1\n      swap2\n      sub\n      swap1\n      return\n        /* \"Arnacon/AyalaShop.sol\":2738:3390  function toLowerCase(string memory str) public pure returns (string memory) {... */\n    tag_9:\n      tag_40\n      0x04\n      dup1\n      calldatasize\n      sub\n      dup2\n      add\n      swap1\n      tag_41\n      swap2\n      swap1\n      tag_15\n      jump\t// in\n    tag_41:\n      tag_42\n      jump\t// in\n    tag_40:\n      mload(0x40)\n      tag_43\n      swap2\n      swap1\n      tag_24\n      jump\t// in\n    tag_43:\n      mload(0x40)\n      dup1\n      swap2\n      sub\n      swap1\n      return\n        /* \"Arnacon/AyalaShop.sol\":1791:2730  function parseAddr(string memory _a) public pure returns (address _parsedAddress) {... */\n    tag_10:\n      tag_44\n      0x04\n      dup1\n      calldatasize\n      sub\n      dup2\n      add\n      swap1\n      tag_45\n      swap2\n      swap1\n      tag_15\n      jump\t// in\n    tag_45:\n      tag_46\n      jump\t// in\n    tag_44:\n      mload(0x40)\n      tag_47\n      swap2\n      swap1\n      tag_39\n      jump\t// in\n    tag_47:\n      mload(0x40)\n      dup1\n      swap2\n      sub\n      swap1\n      return\n        /* \"@openzeppelin/contracts@4.9.3/access/Ownable.sol\":2074:2272  function transferOwnership(address newOwner) public virtual onlyOwner {... */\n    tag_11:\n      tag_48\n      0x04\n      dup1\n      calldatasize\n      sub\n      dup2\n      add\n      swap1\n      tag_49\n      swap2\n      swap1\n      tag_33\n      jump\t// in\n    tag_49:\n      tag_50\n      jump\t// in\n    tag_48:\n      stop\n        /* \"Arnacon/AyalaShop.sol\":1365:1730  function stringToUint(string memory s) public pure returns (uint256 result) {... */\n    tag_16:\n        /* \"Arnacon/AyalaShop.sol\":1425:1439  uint256 result */\n      0x00\n        /* \"Arnacon/AyalaShop.sol\":1452:1466  bytes memory b */\n      dup1\n        /* \"Arnacon/AyalaShop.sol\":1475:1476  s */\n      dup3\n        /* \"Arnacon/AyalaShop.sol\":1452:1477  bytes memory b = bytes(s) */\n      swap1\n      pop\n        /* \"Arnacon/AyalaShop.sol\":1488:1497  uint256 i */\n      0x00\n        /* \"Arnacon/AyalaShop.sol\":1517:1518  0 */\n      dup1\n        /* \"Arnacon/AyalaShop.sol\":1508:1518  result = 0 */\n      swap3\n      pop\n        /* \"Arnacon/AyalaShop.sol\":1538:1539  0 */\n      0x00\n        /* \"Arnacon/AyalaShop.sol\":1534:1539  i = 0 */\n      swap1\n      pop\n        /* \"Arnacon/AyalaShop.sol\":1529:1723  for (i = 0; i < b.length; i++) {... */\n    tag_52:\n        /* \"Arnacon/AyalaShop.sol\":1545:1546  b */\n      dup2\n        /* \"Arnacon/AyalaShop.sol\":1545:1553  b.length */\n      mload\n        /* \"Arnacon/AyalaShop.sol\":1541:1542  i */\n      dup2\n        /* \"Arnacon/AyalaShop.sol\":1541:1553  i < b.length */\n      lt\n        /* \"Arnacon/AyalaShop.sol\":1529:1723  for (i = 0; i < b.length; i++) {... */\n      iszero\n      tag_53\n      jumpi\n        /* \"Arnacon/AyalaShop.sol\":1575:1584  uint256 c */\n      0x00\n        /* \"Arnacon/AyalaShop.sol\":1601:1602  b */\n      dup3\n        /* \"Arnacon/AyalaShop.sol\":1603:1604  i */\n      dup3\n        /* \"Arnacon/AyalaShop.sol\":1601:1605  b[i] */\n      dup2\n      mload\n      dup2\n      lt\n      tag_55\n      jumpi\n      tag_56\n      tag_57\n      jump\t// in\n    tag_56:\n    tag_55:\n      0x20\n      add\n      add\n      mload\n      0xf8\n      shr\n      0xf8\n      shl\n        /* \"Arnacon/AyalaShop.sol\":1595:1606  uint8(b[i]) */\n      0xf8\n      shr\n        /* \"Arnacon/AyalaShop.sol\":1587:1607  uint256(uint8(b[i])) */\n      0xff\n      and\n        /* \"Arnacon/AyalaShop.sol\":1575:1607  uint256 c = uint256(uint8(b[i])) */\n      swap1\n      pop\n        /* \"Arnacon/AyalaShop.sol\":1631:1633  48 */\n      0x30\n        /* \"Arnacon/AyalaShop.sol\":1626:1627  c */\n      dup2\n        /* \"Arnacon/AyalaShop.sol\":1626:1633  c >= 48 */\n      lt\n      iszero\n        /* \"Arnacon/AyalaShop.sol\":1626:1644  c >= 48 && c <= 57 */\n      dup1\n      iszero\n      tag_58\n      jumpi\n      pop\n        /* \"Arnacon/AyalaShop.sol\":1642:1644  57 */\n      0x39\n        /* \"Arnacon/AyalaShop.sol\":1637:1638  c */\n      dup2\n        /* \"Arnacon/AyalaShop.sol\":1637:1644  c <= 57 */\n      gt\n      iszero\n        /* \"Arnacon/AyalaShop.sol\":1626:1644  c >= 48 && c <= 57 */\n    tag_58:\n        /* \"Arnacon/AyalaShop.sol\":1622:1712  if (c >= 48 && c <= 57) {... */\n      iszero\n      tag_59\n      jumpi\n        /* \"Arnacon/AyalaShop.sol\":1693:1695  48 */\n      0x30\n        /* \"Arnacon/AyalaShop.sol\":1689:1690  c */\n      dup2\n        /* \"Arnacon/AyalaShop.sol\":1689:1695  c - 48 */\n      tag_60\n      swap2\n      swap1\n      tag_61\n      jump\t// in\n    tag_60:\n        /* \"Arnacon/AyalaShop.sol\":1683:1685  10 */\n      0x0a\n        /* \"Arnacon/AyalaShop.sol\":1674:1680  result */\n      dup6\n        /* \"Arnacon/AyalaShop.sol\":1674:1685  result * 10 */\n      tag_62\n      swap2\n      swap1\n      tag_63\n      jump\t// in\n    tag_62:\n        /* \"Arnacon/AyalaShop.sol\":1674:1696  result * 10 + (c - 48) */\n      tag_64\n      swap2\n      swap1\n      tag_65\n      jump\t// in\n    tag_64:\n        /* \"Arnacon/AyalaShop.sol\":1665:1696  result = result * 10 + (c - 48) */\n      swap4\n      pop\n        /* \"Arnacon/AyalaShop.sol\":1622:1712  if (c >= 48 && c <= 57) {... */\n    tag_59:\n        /* \"Arnacon/AyalaShop.sol\":1560:1723  {... */\n      pop\n        /* \"Arnacon/AyalaShop.sol\":1555:1558  i++ */\n      dup1\n      dup1\n      tag_66\n      swap1\n      tag_67\n      jump\t// in\n    tag_66:\n      swap2\n      pop\n      pop\n        /* \"Arnacon/AyalaShop.sol\":1529:1723  for (i = 0; i < b.length; i++) {... */\n      jump(tag_52)\n    tag_53:\n        /* \"Arnacon/AyalaShop.sol\":1441:1730  {... */\n      pop\n      pop\n        /* \"Arnacon/AyalaShop.sol\":1365:1730  function stringToUint(string memory s) public pure returns (uint256 result) {... */\n      swap2\n      swap1\n      pop\n      jump\t// out\n        /* \"Arnacon/AyalaShop.sol\":933:1307  function substring(string memory str, uint startIndex, uint endIndex) public pure returns (string memory) {... */\n    tag_22:\n        /* \"Arnacon/AyalaShop.sol\":1024:1037  string memory */\n      0x60\n        /* \"Arnacon/AyalaShop.sol\":1050:1071  bytes memory strBytes */\n      0x00\n        /* \"Arnacon/AyalaShop.sol\":1080:1083  str */\n      dup5\n        /* \"Arnacon/AyalaShop.sol\":1050:1084  bytes memory strBytes = bytes(str) */\n      swap1\n      pop\n        /* \"Arnacon/AyalaShop.sol\":1095:1114  bytes memory result */\n      0x00\n        /* \"Arnacon/AyalaShop.sol\":1138:1148  startIndex */\n      dup5\n        /* \"Arnacon/AyalaShop.sol\":1127:1135  endIndex */\n      dup5\n        /* \"Arnacon/AyalaShop.sol\":1127:1148  endIndex - startIndex */\n      tag_69\n      swap2\n      swap1\n      tag_61\n      jump\t// in\n    tag_69:\n        /* \"Arnacon/AyalaShop.sol\":1117:1149  new bytes(endIndex - startIndex) */\n      0xffffffffffffffff\n      dup2\n      gt\n      iszero\n      tag_70\n      jumpi\n      tag_71\n      tag_72\n      jump\t// in\n    tag_71:\n    tag_70:\n      mload(0x40)\n      swap1\n      dup1\n      dup3\n      mstore\n      dup1\n      0x1f\n      add\n      not(0x1f)\n      and\n      0x20\n      add\n      dup3\n      add\n      0x40\n      mstore\n      dup1\n      iszero\n      tag_73\n      jumpi\n      dup2\n      0x20\n      add\n      0x01\n      dup3\n      mul\n      dup1\n      calldatasize\n      dup4\n      calldatacopy\n      dup1\n      dup3\n      add\n      swap2\n      pop\n      pop\n      swap1\n      pop\n    tag_73:\n      pop\n        /* \"Arnacon/AyalaShop.sol\":1095:1149  bytes memory result = new bytes(endIndex - startIndex) */\n      swap1\n      pop\n        /* \"Arnacon/AyalaShop.sol\":1165:1171  uint i */\n      0x00\n        /* \"Arnacon/AyalaShop.sol\":1174:1184  startIndex */\n      dup6\n        /* \"Arnacon/AyalaShop.sol\":1165:1184  uint i = startIndex */\n      swap1\n      pop\n        /* \"Arnacon/AyalaShop.sol\":1160:1268  for (uint i = startIndex; i < endIndex; i++) {... */\n    tag_74:\n        /* \"Arnacon/AyalaShop.sol\":1190:1198  endIndex */\n      dup5\n        /* \"Arnacon/AyalaShop.sol\":1186:1187  i */\n      dup2\n        /* \"Arnacon/AyalaShop.sol\":1186:1198  i < endIndex */\n      lt\n        /* \"Arnacon/AyalaShop.sol\":1160:1268  for (uint i = startIndex; i < endIndex; i++) {... */\n      iszero\n      tag_75\n      jumpi\n        /* \"Arnacon/AyalaShop.sol\":1245:1253  strBytes */\n      dup3\n        /* \"Arnacon/AyalaShop.sol\":1254:1255  i */\n      dup2\n        /* \"Arnacon/AyalaShop.sol\":1245:1256  strBytes[i] */\n      dup2\n      mload\n      dup2\n      lt\n      tag_77\n      jumpi\n      tag_78\n      tag_57\n      jump\t// in\n    tag_78:\n    tag_77:\n      0x20\n      add\n      add\n      mload\n      0xf8\n      shr\n      0xf8\n      shl\n        /* \"Arnacon/AyalaShop.sol\":1220:1226  result */\n      dup3\n        /* \"Arnacon/AyalaShop.sol\":1231:1241  startIndex */\n      dup8\n        /* \"Arnacon/AyalaShop.sol\":1227:1228  i */\n      dup4\n        /* \"Arnacon/AyalaShop.sol\":1227:1241  i - startIndex */\n      tag_79\n      swap2\n      swap1\n      tag_61\n      jump\t// in\n    tag_79:\n        /* \"Arnacon/AyalaShop.sol\":1220:1242  result[i - startIndex] */\n      dup2\n      mload\n      dup2\n      lt\n      tag_80\n      jumpi\n      tag_81\n      tag_57\n      jump\t// in\n    tag_81:\n    tag_80:\n      0x20\n      add\n      add\n        /* \"Arnacon/AyalaShop.sol\":1220:1256  result[i - startIndex] = strBytes[i] */\n      swap1\n      not(0xffffffffffffffffffffffffffffffffffffffffffffffffffffffffffffff)\n      and\n      swap1\n      dup2\n      0x00\n      byte\n      swap1\n      mstore8\n      pop\n        /* \"Arnacon/AyalaShop.sol\":1200:1203  i++ */\n      dup1\n      dup1\n      tag_82\n      swap1\n      tag_67\n      jump\t// in\n    tag_82:\n      swap2\n      pop\n      pop\n        /* \"Arnacon/AyalaShop.sol\":1160:1268  for (uint i = startIndex; i < endIndex; i++) {... */\n      jump(tag_74)\n    tag_75:\n      pop\n        /* \"Arnacon/AyalaShop.sol\":1292:1298  result */\n      dup1\n        /* \"Arnacon/AyalaShop.sol\":1278:1299  return string(result) */\n      swap3\n      pop\n      pop\n      pop\n        /* \"Arnacon/AyalaShop.sol\":933:1307  function substring(string memory str, uint startIndex, uint endIndex) public pure returns (string memory) {... */\n      swap4\n      swap3\n      pop\n      pop\n      pop\n      jump\t// out\n        /* \"@openzeppelin/contracts@4.9.3/access/Ownable.sol\":1824:1925  function renounceOwnership() public virtual onlyOwner {... */\n    tag_26:\n        /* \"@openzeppelin/contracts@4.9.3/access/Ownable.sol\":1094:1107  _checkOwner() */\n      tag_84\n        /* \"@openzeppelin/contracts@4.9.3/access/Ownable.sol\":1094:1105  _checkOwner */\n      tag_85\n        /* \"@openzeppelin/contracts@4.9.3/access/Ownable.sol\":1094:1107  _checkOwner() */\n      jump\t// in\n    tag_84:\n        /* \"@openzeppelin/contracts@4.9.3/access/Ownable.sol\":1888:1918  _transferOwnership(address(0)) */\n      tag_87\n        /* \"@openzeppelin/contracts@4.9.3/access/Ownable.sol\":1915:1916  0 */\n      0x00\n        /* \"@openzeppelin/contracts@4.9.3/access/Ownable.sol\":1888:1906  _transferOwnership */\n      tag_88\n        /* \"@openzeppelin/contracts@4.9.3/access/Ownable.sol\":1888:1918  _transferOwnership(address(0)) */\n      jump\t// in\n    tag_87:\n        /* \"@openzeppelin/contracts@4.9.3/access/Ownable.sol\":1824:1925  function renounceOwnership() public virtual onlyOwner {... */\n      jump\t// out\n        /* \"Arnacon/AyalaShop.sol\":385:925  function createShop(address _addressOfShop, string memory _userID) public {... */\n    tag_30:\n        /* \"Arnacon/AyalaShop.sol\":472:497  string memory addressPart */\n      0x00\n        /* \"Arnacon/AyalaShop.sol\":500:525  substring(_userID, 0, 42) */\n      tag_90\n        /* \"Arnacon/AyalaShop.sol\":510:517  _userID */\n      dup3\n        /* \"Arnacon/AyalaShop.sol\":519:520  0 */\n      0x00\n        /* \"Arnacon/AyalaShop.sol\":522:524  42 */\n      0x2a\n        /* \"Arnacon/AyalaShop.sol\":500:509  substring */\n      tag_22\n        /* \"Arnacon/AyalaShop.sol\":500:525  substring(_userID, 0, 42) */\n      jump\t// in\n    tag_90:\n        /* \"Arnacon/AyalaShop.sol\":472:525  string memory addressPart = substring(_userID, 0, 42) */\n      swap1\n      pop\n        /* \"Arnacon/AyalaShop.sol\":536:561  string memory tokenIdPart */\n      0x00\n        /* \"Arnacon/AyalaShop.sol\":564:609  substring(_userID, 42, bytes(_userID).length) */\n      tag_91\n        /* \"Arnacon/AyalaShop.sol\":574:581  _userID */\n      dup4\n        /* \"Arnacon/AyalaShop.sol\":583:585  42 */\n      0x2a\n        /* \"Arnacon/AyalaShop.sol\":593:600  _userID */\n      dup6\n        /* \"Arnacon/AyalaShop.sol\":587:608  bytes(_userID).length */\n      mload\n        /* \"Arnacon/AyalaShop.sol\":564:573  substring */\n      tag_22\n        /* \"Arnacon/AyalaShop.sol\":564:609  substring(_userID, 42, bytes(_userID).length) */\n      jump\t// in\n    tag_91:\n        /* \"Arnacon/AyalaShop.sol\":536:609  string memory tokenIdPart = substring(_userID, 42, bytes(_userID).length) */\n      swap1\n      pop\n        /* \"Arnacon/AyalaShop.sol\":620:638  address nftAddress */\n      0x00\n        /* \"Arnacon/AyalaShop.sol\":641:663  parseAddr(addressPart) */\n      tag_92\n        /* \"Arnacon/AyalaShop.sol\":651:662  addressPart */\n      dup4\n        /* \"Arnacon/AyalaShop.sol\":641:650  parseAddr */\n      tag_46\n        /* \"Arnacon/AyalaShop.sol\":641:663  parseAddr(addressPart) */\n      jump\t// in\n    tag_92:\n        /* \"Arnacon/AyalaShop.sol\":620:663  address nftAddress = parseAddr(addressPart) */\n      swap1\n      pop\n        /* \"Arnacon/AyalaShop.sol\":674:689  uint256 tokenId */\n      0x00\n        /* \"Arnacon/AyalaShop.sol\":692:717  stringToUint(tokenIdPart) */\n      tag_93\n        /* \"Arnacon/AyalaShop.sol\":705:716  tokenIdPart */\n      dup4\n        /* \"Arnacon/AyalaShop.sol\":692:704  stringToUint */\n      tag_16\n        /* \"Arnacon/AyalaShop.sol\":692:717  stringToUint(tokenIdPart) */\n      jump\t// in\n    tag_93:\n        /* \"Arnacon/AyalaShop.sol\":674:717  uint256 tokenId = stringToUint(tokenIdPart) */\n      swap1\n      pop\n        /* \"Arnacon/AyalaShop.sol\":728:741  address owner */\n      0x00\n        /* \"Arnacon/AyalaShop.sol\":752:762  nftAddress */\n      dup3\n        /* \"Arnacon/AyalaShop.sol\":744:771  IERC721(nftAddress).ownerOf */\n      0xffffffffffffffffffffffffffffffffffffffff\n      and\n      0x6352211e\n        /* \"Arnacon/AyalaShop.sol\":772:779  tokenId */\n      dup4\n        /* \"Arnacon/AyalaShop.sol\":744:780  IERC721(nftAddress).ownerOf(tokenId) */\n      mload(0x40)\n      dup3\n      0xffffffff\n      and\n      0xe0\n      shl\n      dup2\n      mstore\n      0x04\n      add\n      tag_94\n      swap2\n      swap1\n      tag_18\n      jump\t// in\n    tag_94:\n      0x20\n      mload(0x40)\n      dup1\n      dup4\n      sub\n      dup2\n      dup7\n      gas\n      staticcall\n      iszero\n      dup1\n      iszero\n      tag_96\n      jumpi\n      returndatasize\n      0x00\n      dup1\n      returndatacopy\n      revert(0x00, returndatasize)\n    tag_96:\n      pop\n      pop\n      pop\n      pop\n      mload(0x40)\n      returndatasize\n      not(0x1f)\n      0x1f\n      dup3\n      add\n      and\n      dup3\n      add\n      dup1\n      0x40\n      mstore\n      pop\n      dup2\n      add\n      swap1\n      tag_97\n      swap2\n      swap1\n      tag_98\n      jump\t// in\n    tag_97:\n        /* \"Arnacon/AyalaShop.sol\":728:780  address owner = IERC721(nftAddress).ownerOf(tokenId) */\n      swap1\n      pop\n        /* \"Arnacon/AyalaShop.sol\":810:820  msg.sender */\n      caller\n        /* \"Arnacon/AyalaShop.sol\":801:820  owner == msg.sender */\n      0xffffffffffffffffffffffffffffffffffffffff\n      and\n        /* \"Arnacon/AyalaShop.sol\":801:806  owner */\n      dup2\n        /* \"Arnacon/AyalaShop.sol\":801:820  owner == msg.sender */\n      0xffffffffffffffffffffffffffffffffffffffff\n      and\n      eq\n        /* \"Arnacon/AyalaShop.sol\":793:854  require(owner == msg.sender, \"only the identity owner can  \") */\n      tag_99\n      jumpi\n      mload(0x40)\n      0x08c379a000000000000000000000000000000000000000000000000000000000\n      dup2\n      mstore\n      0x04\n      add\n      tag_100\n      swap1\n      tag_101\n      jump\t// in\n    tag_100:\n      mload(0x40)\n      dup1\n      swap2\n      sub\n      swap1\n      revert\n    tag_99:\n        /* \"Arnacon/AyalaShop.sol\":897:917  toLowerCase(_userID) */\n      tag_102\n        /* \"Arnacon/AyalaShop.sol\":909:916  _userID */\n      dup7\n        /* \"Arnacon/AyalaShop.sol\":897:908  toLowerCase */\n      tag_42\n        /* \"Arnacon/AyalaShop.sol\":897:917  toLowerCase(_userID) */\n      jump\t// in\n    tag_102:\n        /* \"Arnacon/AyalaShop.sol\":867:878  addressToID */\n      0x01\n        /* \"Arnacon/AyalaShop.sol\":867:894  addressToID[_addressOfShop] */\n      0x00\n        /* \"Arnacon/AyalaShop.sol\":879:893  _addressOfShop */\n      dup10\n        /* \"Arnacon/AyalaShop.sol\":867:894  addressToID[_addressOfShop] */\n      0xffffffffffffffffffffffffffffffffffffffff\n      and\n      0xffffffffffffffffffffffffffffffffffffffff\n      and\n      dup2\n      mstore\n      0x20\n      add\n      swap1\n      dup2\n      mstore\n      0x20\n      add\n      0x00\n      keccak256\n        /* \"Arnacon/AyalaShop.sol\":867:917  addressToID[_addressOfShop] = toLowerCase(_userID) */\n      swap1\n      dup2\n      tag_103\n      swap2\n      swap1\n      tag_104\n      jump\t// in\n    tag_103:\n      pop\n        /* \"Arnacon/AyalaShop.sol\":459:925  {... */\n      pop\n      pop\n      pop\n      pop\n      pop\n        /* \"Arnacon/AyalaShop.sol\":385:925  function createShop(address _addressOfShop, string memory _userID) public {... */\n      pop\n      pop\n      jump\t// out\n        /* \"Arnacon/AyalaShop.sol\":308:353  mapping(address => string) public addressToID */\n    tag_34:\n      mstore(0x20, 0x01)\n      dup1\n      0x00\n      mstore\n      keccak256(0x00, 0x40)\n      0x00\n      swap2\n      pop\n      swap1\n      pop\n      dup1\n      sload\n      tag_105\n      swap1\n      tag_106\n      jump\t// in\n    tag_105:\n      dup1\n      0x1f\n      add\n      0x20\n      dup1\n      swap2\n      div\n      mul\n      0x20\n      add\n      mload(0x40)\n      swap1\n      dup2\n      add\n      0x40\n      mstore\n      dup1\n      swap3\n      swap2\n      swap1\n      dup2\n      dup2\n      mstore\n      0x20\n      add\n      dup3\n      dup1\n      sload\n      tag_107\n      swap1\n      tag_106\n      jump\t// in\n    tag_107:\n      dup1\n      iszero\n      tag_108\n      jumpi\n      dup1\n      0x1f\n      lt\n      tag_109\n      jumpi\n      0x0100\n      dup1\n      dup4\n      sload\n      div\n      mul\n      dup4\n      mstore\n      swap2\n      0x20\n      add\n      swap2\n      jump(tag_108)\n    tag_109:\n      dup3\n      add\n      swap2\n      swap1\n      0x00\n      mstore\n      keccak256(0x00, 0x20)\n      swap1\n    tag_110:\n      dup2\n      sload\n      dup2\n      mstore\n      swap1\n      0x01\n      add\n      swap1\n      0x20\n      add\n      dup1\n      dup4\n      gt\n      tag_110\n      jumpi\n      dup3\n      swap1\n      sub\n      0x1f\n      and\n      dup3\n      add\n      swap2\n    tag_108:\n      pop\n      pop\n      pop\n      pop\n      pop\n      dup2\n      jump\t// out\n        /* \"@openzeppelin/contracts@4.9.3/access/Ownable.sol\":1201:1286  function owner() public view virtual returns (address) {... */\n    tag_37:\n        /* \"@openzeppelin/contracts@4.9.3/access/Ownable.sol\":1247:1254  address */\n      0x00\n        /* \"@openzeppelin/contracts@4.9.3/access/Ownable.sol\":1273:1279  _owner */\n      dup1\n      0x00\n      swap1\n      sload\n      swap1\n      0x0100\n      exp\n      swap1\n      div\n      0xffffffffffffffffffffffffffffffffffffffff\n      and\n        /* \"@openzeppelin/contracts@4.9.3/access/Ownable.sol\":1266:1279  return _owner */\n      swap1\n      pop\n        /* \"@openzeppelin/contracts@4.9.3/access/Ownable.sol\":1201:1286  function owner() public view virtual returns (address) {... */\n      swap1\n      jump\t// out\n        /* \"Arnacon/AyalaShop.sol\":2738:3390  function toLowerCase(string memory str) public pure returns (string memory) {... */\n    tag_42:\n        /* \"Arnacon/AyalaShop.sol\":2799:2812  string memory */\n      0x60\n        /* \"Arnacon/AyalaShop.sol\":2825:2842  bytes memory bStr */\n      0x00\n        /* \"Arnacon/AyalaShop.sol\":2851:2854  str */\n      dup3\n        /* \"Arnacon/AyalaShop.sol\":2825:2855  bytes memory bStr = bytes(str) */\n      swap1\n      pop\n        /* \"Arnacon/AyalaShop.sol\":2866:2885  bytes memory bLower */\n      0x00\n        /* \"Arnacon/AyalaShop.sol\":2898:2902  bStr */\n      dup2\n        /* \"Arnacon/AyalaShop.sol\":2898:2909  bStr.length */\n      mload\n        /* \"Arnacon/AyalaShop.sol\":2888:2910  new bytes(bStr.length) */\n      0xffffffffffffffff\n      dup2\n      gt\n      iszero\n      tag_113\n      jumpi\n      tag_114\n      tag_72\n      jump\t// in\n    tag_114:\n    tag_113:\n      mload(0x40)\n      swap1\n      dup1\n      dup3\n      mstore\n      dup1\n      0x1f\n      add\n      not(0x1f)\n      and\n      0x20\n      add\n      dup3\n      add\n      0x40\n      mstore\n      dup1\n      iszero\n      tag_115\n      jumpi\n      dup2\n      0x20\n      add\n      0x01\n      dup3\n      mul\n      dup1\n      calldatasize\n      dup4\n      calldatacopy\n      dup1\n      dup3\n      add\n      swap2\n      pop\n      pop\n      swap1\n      pop\n    tag_115:\n      pop\n        /* \"Arnacon/AyalaShop.sol\":2866:2910  bytes memory bLower = new bytes(bStr.length) */\n      swap1\n      pop\n        /* \"Arnacon/AyalaShop.sol\":2926:2932  uint i */\n      0x00\n        /* \"Arnacon/AyalaShop.sol\":2921:3351  for (uint i = 0; i < bStr.length; i++) {... */\n    tag_116:\n        /* \"Arnacon/AyalaShop.sol\":2942:2946  bStr */\n      dup3\n        /* \"Arnacon/AyalaShop.sol\":2942:2953  bStr.length */\n      mload\n        /* \"Arnacon/AyalaShop.sol\":2938:2939  i */\n      dup2\n        /* \"Arnacon/AyalaShop.sol\":2938:2953  i < bStr.length */\n      lt\n        /* \"Arnacon/AyalaShop.sol\":2921:3351  for (uint i = 0; i < bStr.length; i++) {... */\n      iszero\n      tag_117\n      jumpi\n        /* \"Arnacon/AyalaShop.sol\":3069:3071  65 */\n      0x41\n        /* \"Arnacon/AyalaShop.sol\":3057:3061  bStr */\n      dup4\n        /* \"Arnacon/AyalaShop.sol\":3062:3063  i */\n      dup3\n        /* \"Arnacon/AyalaShop.sol\":3057:3064  bStr[i] */\n      dup2\n      mload\n      dup2\n      lt\n      tag_119\n      jumpi\n      tag_120\n      tag_57\n      jump\t// in\n    tag_120:\n    tag_119:\n      0x20\n      add\n      add\n      mload\n      0xf8\n      shr\n      0xf8\n      shl\n        /* \"Arnacon/AyalaShop.sol\":3051:3065  uint8(bStr[i]) */\n      0xf8\n      shr\n        /* \"Arnacon/AyalaShop.sol\":3051:3071  uint8(bStr[i]) >= 65 */\n      0xff\n      and\n      lt\n      iszero\n        /* \"Arnacon/AyalaShop.sol\":3050:3098  (uint8(bStr[i]) >= 65) && (uint8(bStr[i]) <= 90) */\n      dup1\n      iszero\n      tag_121\n      jumpi\n      pop\n        /* \"Arnacon/AyalaShop.sol\":3095:3097  90 */\n      0x5a\n        /* \"Arnacon/AyalaShop.sol\":3083:3087  bStr */\n      dup4\n        /* \"Arnacon/AyalaShop.sol\":3088:3089  i */\n      dup3\n        /* \"Arnacon/AyalaShop.sol\":3083:3090  bStr[i] */\n      dup2\n      mload\n      dup2\n      lt\n      tag_122\n      jumpi\n      tag_123\n      tag_57\n      jump\t// in\n    tag_123:\n    tag_122:\n      0x20\n      add\n      add\n      mload\n      0xf8\n      shr\n      0xf8\n      shl\n        /* \"Arnacon/AyalaShop.sol\":3077:3091  uint8(bStr[i]) */\n      0xf8\n      shr\n        /* \"Arnacon/AyalaShop.sol\":3077:3097  uint8(bStr[i]) <= 90 */\n      0xff\n      and\n      gt\n      iszero\n        /* \"Arnacon/AyalaShop.sol\":3050:3098  (uint8(bStr[i]) >= 65) && (uint8(bStr[i]) <= 90) */\n    tag_121:\n        /* \"Arnacon/AyalaShop.sol\":3046:3340  if ((uint8(bStr[i]) >= 65) && (uint8(bStr[i]) <= 90)) {... */\n      iszero\n      tag_124\n      jumpi\n        /* \"Arnacon/AyalaShop.sol\":3206:3208  32 */\n      0x20\n        /* \"Arnacon/AyalaShop.sol\":3195:3199  bStr */\n      dup4\n        /* \"Arnacon/AyalaShop.sol\":3200:3201  i */\n      dup3\n        /* \"Arnacon/AyalaShop.sol\":3195:3202  bStr[i] */\n      dup2\n      mload\n      dup2\n      lt\n      tag_125\n      jumpi\n      tag_126\n      tag_57\n      jump\t// in\n    tag_126:\n    tag_125:\n      0x20\n      add\n      add\n      mload\n      0xf8\n      shr\n      0xf8\n      shl\n        /* \"Arnacon/AyalaShop.sol\":3189:3203  uint8(bStr[i]) */\n      0xf8\n      shr\n        /* \"Arnacon/AyalaShop.sol\":3189:3208  uint8(bStr[i]) + 32 */\n      tag_127\n      swap2\n      swap1\n      tag_128\n      jump\t// in\n    tag_127:\n        /* \"Arnacon/AyalaShop.sol\":3182:3209  bytes1(uint8(bStr[i]) + 32) */\n      0xf8\n      shl\n        /* \"Arnacon/AyalaShop.sol\":3170:3176  bLower */\n      dup3\n        /* \"Arnacon/AyalaShop.sol\":3177:3178  i */\n      dup3\n        /* \"Arnacon/AyalaShop.sol\":3170:3179  bLower[i] */\n      dup2\n      mload\n      dup2\n      lt\n      tag_129\n      jumpi\n      tag_130\n      tag_57\n      jump\t// in\n    tag_130:\n    tag_129:\n      0x20\n      add\n      add\n        /* \"Arnacon/AyalaShop.sol\":3170:3209  bLower[i] = bytes1(uint8(bStr[i]) + 32) */\n      swap1\n      not(0xffffffffffffffffffffffffffffffffffffffffffffffffffffffffffffff)\n      and\n      swap1\n      dup2\n      0x00\n      byte\n      swap1\n      mstore8\n      pop\n        /* \"Arnacon/AyalaShop.sol\":3046:3340  if ((uint8(bStr[i]) >= 65) && (uint8(bStr[i]) <= 90)) {... */\n      jump(tag_131)\n    tag_124:\n        /* \"Arnacon/AyalaShop.sol\":3317:3321  bStr */\n      dup3\n        /* \"Arnacon/AyalaShop.sol\":3322:3323  i */\n      dup2\n        /* \"Arnacon/AyalaShop.sol\":3317:3324  bStr[i] */\n      dup2\n      mload\n      dup2\n      lt\n      tag_132\n      jumpi\n      tag_133\n      tag_57\n      jump\t// in\n    tag_133:\n    tag_132:\n      0x20\n      add\n      add\n      mload\n      0xf8\n      shr\n      0xf8\n      shl\n        /* \"Arnacon/AyalaShop.sol\":3305:3311  bLower */\n      dup3\n        /* \"Arnacon/AyalaShop.sol\":3312:3313  i */\n      dup3\n        /* \"Arnacon/AyalaShop.sol\":3305:3314  bLower[i] */\n      dup2\n      mload\n      dup2\n      lt\n      tag_134\n      jumpi\n      tag_135\n      tag_57\n      jump\t// in\n    tag_135:\n    tag_134:\n      0x20\n      add\n      add\n        /* \"Arnacon/AyalaShop.sol\":3305:3324  bLower[i] = bStr[i] */\n      swap1\n      not(0xffffffffffffffffffffffffffffffffffffffffffffffffffffffffffffff)\n      and\n      swap1\n      dup2\n      0x00\n      byte\n      swap1\n      mstore8\n      pop\n        /* \"Arnacon/AyalaShop.sol\":3046:3340  if ((uint8(bStr[i]) >= 65) && (uint8(bStr[i]) <= 90)) {... */\n    tag_131:\n        /* \"Arnacon/AyalaShop.sol\":2955:2958  i++ */\n      dup1\n      dup1\n      tag_136\n      swap1\n      tag_67\n      jump\t// in\n    tag_136:\n      swap2\n      pop\n      pop\n        /* \"Arnacon/AyalaShop.sol\":2921:3351  for (uint i = 0; i < bStr.length; i++) {... */\n      jump(tag_116)\n    tag_117:\n      pop\n        /* \"Arnacon/AyalaShop.sol\":3375:3381  bLower */\n      dup1\n        /* \"Arnacon/AyalaShop.sol\":3361:3382  return string(bLower) */\n      swap3\n      pop\n      pop\n      pop\n        /* \"Arnacon/AyalaShop.sol\":2738:3390  function toLowerCase(string memory str) public pure returns (string memory) {... */\n      swap2\n      swap1\n      pop\n      jump\t// out\n        /* \"Arnacon/AyalaShop.sol\":1791:2730  function parseAddr(string memory _a) public pure returns (address _parsedAddress) {... */\n    tag_46:\n        /* \"Arnacon/AyalaShop.sol\":1849:1871  address _parsedAddress */\n      0x00\n        /* \"Arnacon/AyalaShop.sol\":1884:1900  bytes memory tmp */\n      dup1\n        /* \"Arnacon/AyalaShop.sol\":1909:1911  _a */\n      dup3\n        /* \"Arnacon/AyalaShop.sol\":1884:1912  bytes memory tmp = bytes(_a) */\n      swap1\n      pop\n        /* \"Arnacon/AyalaShop.sol\":1923:1936  uint160 iaddr */\n      0x00\n        /* \"Arnacon/AyalaShop.sol\":1951:1961  uint160 b1 */\n      dup1\n        /* \"Arnacon/AyalaShop.sol\":1972:1982  uint160 b2 */\n      dup1\n        /* \"Arnacon/AyalaShop.sol\":1998:2004  uint i */\n      0x00\n        /* \"Arnacon/AyalaShop.sol\":2007:2008  2 */\n      0x02\n        /* \"Arnacon/AyalaShop.sol\":1998:2008  uint i = 2 */\n      swap1\n      pop\n        /* \"Arnacon/AyalaShop.sol\":1993:2691  for (uint i = 2; i < 2 + 2 * 20; i += 2) {... */\n    tag_138:\n        /* \"Arnacon/AyalaShop.sol\":2014:2024  2 + 2 * 20 */\n      0x2a\n        /* \"Arnacon/AyalaShop.sol\":2010:2011  i */\n      dup2\n        /* \"Arnacon/AyalaShop.sol\":2010:2024  i < 2 + 2 * 20 */\n      lt\n        /* \"Arnacon/AyalaShop.sol\":1993:2691  for (uint i = 2; i < 2 + 2 * 20; i += 2) {... */\n      iszero\n      tag_139\n      jumpi\n        /* \"Arnacon/AyalaShop.sol\":2058:2061  256 */\n      0x0100\n        /* \"Arnacon/AyalaShop.sol\":2049:2061  iaddr *= 256 */\n      dup5\n      tag_141\n      swap2\n      swap1\n      tag_142\n      jump\t// in\n    tag_141:\n      swap4\n      pop\n        /* \"Arnacon/AyalaShop.sol\":2095:2098  tmp */\n      dup5\n        /* \"Arnacon/AyalaShop.sol\":2099:2100  i */\n      dup2\n        /* \"Arnacon/AyalaShop.sol\":2095:2101  tmp[i] */\n      dup2\n      mload\n      dup2\n      lt\n      tag_143\n      jumpi\n      tag_144\n      tag_57\n      jump\t// in\n    tag_144:\n    tag_143:\n      0x20\n      add\n      add\n      mload\n      0xf8\n      shr\n      0xf8\n      shl\n        /* \"Arnacon/AyalaShop.sol\":2089:2102  uint8(tmp[i]) */\n      0xf8\n      shr\n        /* \"Arnacon/AyalaShop.sol\":2081:2103  uint160(uint8(tmp[i])) */\n      0xff\n      and\n        /* \"Arnacon/AyalaShop.sol\":2076:2103  b1 = uint160(uint8(tmp[i])) */\n      swap3\n      pop\n        /* \"Arnacon/AyalaShop.sol\":2137:2140  tmp */\n      dup5\n        /* \"Arnacon/AyalaShop.sol\":2145:2146  1 */\n      0x01\n        /* \"Arnacon/AyalaShop.sol\":2141:2142  i */\n      dup3\n        /* \"Arnacon/AyalaShop.sol\":2141:2146  i + 1 */\n      tag_145\n      swap2\n      swap1\n      tag_65\n      jump\t// in\n    tag_145:\n        /* \"Arnacon/AyalaShop.sol\":2137:2147  tmp[i + 1] */\n      dup2\n      mload\n      dup2\n      lt\n      tag_146\n      jumpi\n      tag_147\n      tag_57\n      jump\t// in\n    tag_147:\n    tag_146:\n      0x20\n      add\n      add\n      mload\n      0xf8\n      shr\n      0xf8\n      shl\n        /* \"Arnacon/AyalaShop.sol\":2131:2148  uint8(tmp[i + 1]) */\n      0xf8\n      shr\n        /* \"Arnacon/AyalaShop.sol\":2123:2149  uint160(uint8(tmp[i + 1])) */\n      0xff\n      and\n        /* \"Arnacon/AyalaShop.sol\":2118:2149  b2 = uint160(uint8(tmp[i + 1])) */\n      swap2\n      pop\n        /* \"Arnacon/AyalaShop.sol\":2175:2177  97 */\n      0x61\n        /* \"Arnacon/AyalaShop.sol\":2169:2171  b1 */\n      dup4\n        /* \"Arnacon/AyalaShop.sol\":2169:2177  b1 >= 97 */\n      0xffffffffffffffffffffffffffffffffffffffff\n      and\n      lt\n      iszero\n        /* \"Arnacon/AyalaShop.sol\":2168:2193  (b1 >= 97) && (b1 <= 102) */\n      dup1\n      iszero\n      tag_148\n      jumpi\n      pop\n        /* \"Arnacon/AyalaShop.sol\":2189:2192  102 */\n      0x66\n        /* \"Arnacon/AyalaShop.sol\":2183:2185  b1 */\n      dup4\n        /* \"Arnacon/AyalaShop.sol\":2183:2192  b1 <= 102 */\n      0xffffffffffffffffffffffffffffffffffffffff\n      and\n      gt\n      iszero\n        /* \"Arnacon/AyalaShop.sol\":2168:2193  (b1 >= 97) && (b1 <= 102) */\n    tag_148:\n        /* \"Arnacon/AyalaShop.sol\":2164:2396  if ((b1 >= 97) && (b1 <= 102)) {... */\n      iszero\n      tag_149\n      jumpi\n        /* \"Arnacon/AyalaShop.sol\":2220:2222  87 */\n      0x57\n        /* \"Arnacon/AyalaShop.sol\":2214:2222  b1 -= 87 */\n      dup4\n      tag_150\n      swap2\n      swap1\n      tag_151\n      jump\t// in\n    tag_150:\n      swap3\n      pop\n        /* \"Arnacon/AyalaShop.sol\":2164:2396  if ((b1 >= 97) && (b1 <= 102)) {... */\n      jump(tag_152)\n    tag_149:\n        /* \"Arnacon/AyalaShop.sol\":2255:2257  65 */\n      0x41\n        /* \"Arnacon/AyalaShop.sol\":2249:2251  b1 */\n      dup4\n        /* \"Arnacon/AyalaShop.sol\":2249:2257  b1 >= 65 */\n      0xffffffffffffffffffffffffffffffffffffffff\n      and\n      lt\n      iszero\n        /* \"Arnacon/AyalaShop.sol\":2248:2272  (b1 >= 65) && (b1 <= 70) */\n      dup1\n      iszero\n      tag_153\n      jumpi\n      pop\n        /* \"Arnacon/AyalaShop.sol\":2269:2271  70 */\n      0x46\n        /* \"Arnacon/AyalaShop.sol\":2263:2265  b1 */\n      dup4\n        /* \"Arnacon/AyalaShop.sol\":2263:2271  b1 <= 70 */\n      0xffffffffffffffffffffffffffffffffffffffff\n      and\n      gt\n      iszero\n        /* \"Arnacon/AyalaShop.sol\":2248:2272  (b1 >= 65) && (b1 <= 70) */\n    tag_153:\n        /* \"Arnacon/AyalaShop.sol\":2244:2396  if ((b1 >= 65) && (b1 <= 70)) {... */\n      iszero\n      tag_154\n      jumpi\n        /* \"Arnacon/AyalaShop.sol\":2299:2301  55 */\n      0x37\n        /* \"Arnacon/AyalaShop.sol\":2293:2301  b1 -= 55 */\n      dup4\n      tag_155\n      swap2\n      swap1\n      tag_151\n      jump\t// in\n    tag_155:\n      swap3\n      pop\n        /* \"Arnacon/AyalaShop.sol\":2244:2396  if ((b1 >= 65) && (b1 <= 70)) {... */\n      jump(tag_156)\n    tag_154:\n        /* \"Arnacon/AyalaShop.sol\":2334:2336  48 */\n      0x30\n        /* \"Arnacon/AyalaShop.sol\":2328:2330  b1 */\n      dup4\n        /* \"Arnacon/AyalaShop.sol\":2328:2336  b1 >= 48 */\n      0xffffffffffffffffffffffffffffffffffffffff\n      and\n      lt\n      iszero\n        /* \"Arnacon/AyalaShop.sol\":2327:2351  (b1 >= 48) && (b1 <= 57) */\n      dup1\n      iszero\n      tag_157\n      jumpi\n      pop\n        /* \"Arnacon/AyalaShop.sol\":2348:2350  57 */\n      0x39\n        /* \"Arnacon/AyalaShop.sol\":2342:2344  b1 */\n      dup4\n        /* \"Arnacon/AyalaShop.sol\":2342:2350  b1 <= 57 */\n      0xffffffffffffffffffffffffffffffffffffffff\n      and\n      gt\n      iszero\n        /* \"Arnacon/AyalaShop.sol\":2327:2351  (b1 >= 48) && (b1 <= 57) */\n    tag_157:\n        /* \"Arnacon/AyalaShop.sol\":2323:2396  if ((b1 >= 48) && (b1 <= 57)) {... */\n      iszero\n      tag_158\n      jumpi\n        /* \"Arnacon/AyalaShop.sol\":2378:2380  48 */\n      0x30\n        /* \"Arnacon/AyalaShop.sol\":2372:2380  b1 -= 48 */\n      dup4\n      tag_159\n      swap2\n      swap1\n      tag_151\n      jump\t// in\n    tag_159:\n      swap3\n      pop\n        /* \"Arnacon/AyalaShop.sol\":2323:2396  if ((b1 >= 48) && (b1 <= 57)) {... */\n    tag_158:\n        /* \"Arnacon/AyalaShop.sol\":2244:2396  if ((b1 >= 65) && (b1 <= 70)) {... */\n    tag_156:\n        /* \"Arnacon/AyalaShop.sol\":2164:2396  if ((b1 >= 97) && (b1 <= 102)) {... */\n    tag_152:\n        /* \"Arnacon/AyalaShop.sol\":2421:2423  97 */\n      0x61\n        /* \"Arnacon/AyalaShop.sol\":2415:2417  b2 */\n      dup3\n        /* \"Arnacon/AyalaShop.sol\":2415:2423  b2 >= 97 */\n      0xffffffffffffffffffffffffffffffffffffffff\n      and\n      lt\n      iszero\n        /* \"Arnacon/AyalaShop.sol\":2414:2439  (b2 >= 97) && (b2 <= 102) */\n      dup1\n      iszero\n      tag_160\n      jumpi\n      pop\n        /* \"Arnacon/AyalaShop.sol\":2435:2438  102 */\n      0x66\n        /* \"Arnacon/AyalaShop.sol\":2429:2431  b2 */\n      dup3\n        /* \"Arnacon/AyalaShop.sol\":2429:2438  b2 <= 102 */\n      0xffffffffffffffffffffffffffffffffffffffff\n      and\n      gt\n      iszero\n        /* \"Arnacon/AyalaShop.sol\":2414:2439  (b2 >= 97) && (b2 <= 102) */\n    tag_160:\n        /* \"Arnacon/AyalaShop.sol\":2410:2642  if ((b2 >= 97) && (b2 <= 102)) {... */\n      iszero\n      tag_161\n      jumpi\n        /* \"Arnacon/AyalaShop.sol\":2466:2468  87 */\n      0x57\n        /* \"Arnacon/AyalaShop.sol\":2460:2468  b2 -= 87 */\n      dup3\n      tag_162\n      swap2\n      swap1\n      tag_151\n      jump\t// in\n    tag_162:\n      swap2\n      pop\n        /* \"Arnacon/AyalaShop.sol\":2410:2642  if ((b2 >= 97) && (b2 <= 102)) {... */\n      jump(tag_163)\n    tag_161:\n        /* \"Arnacon/AyalaShop.sol\":2501:2503  65 */\n      0x41\n        /* \"Arnacon/AyalaShop.sol\":2495:2497  b2 */\n      dup3\n        /* \"Arnacon/AyalaShop.sol\":2495:2503  b2 >= 65 */\n      0xffffffffffffffffffffffffffffffffffffffff\n      and\n      lt\n      iszero\n        /* \"Arnacon/AyalaShop.sol\":2494:2518  (b2 >= 65) && (b2 <= 70) */\n      dup1\n      iszero\n      tag_164\n      jumpi\n      pop\n        /* \"Arnacon/AyalaShop.sol\":2515:2517  70 */\n      0x46\n        /* \"Arnacon/AyalaShop.sol\":2509:2511  b2 */\n      dup3\n        /* \"Arnacon/AyalaShop.sol\":2509:2517  b2 <= 70 */\n      0xffffffffffffffffffffffffffffffffffffffff\n      and\n      gt\n      iszero\n        /* \"Arnacon/AyalaShop.sol\":2494:2518  (b2 >= 65) && (b2 <= 70) */\n    tag_164:\n        /* \"Arnacon/AyalaShop.sol\":2490:2642  if ((b2 >= 65) && (b2 <= 70)) {... */\n      iszero\n      tag_165\n      jumpi\n        /* \"Arnacon/AyalaShop.sol\":2545:2547  55 */\n      0x37\n        /* \"Arnacon/AyalaShop.sol\":2539:2547  b2 -= 55 */\n      dup3\n      tag_166\n      swap2\n      swap1\n      tag_151\n      jump\t// in\n    tag_166:\n      swap2\n      pop\n        /* \"Arnacon/AyalaShop.sol\":2490:2642  if ((b2 >= 65) && (b2 <= 70)) {... */\n      jump(tag_167)\n    tag_165:\n        /* \"Arnacon/AyalaShop.sol\":2580:2582  48 */\n      0x30\n        /* \"Arnacon/AyalaShop.sol\":2574:2576  b2 */\n      dup3\n        /* \"Arnacon/AyalaShop.sol\":2574:2582  b2 >= 48 */\n      0xffffffffffffffffffffffffffffffffffffffff\n      and\n      lt\n      iszero\n        /* \"Arnacon/AyalaShop.sol\":2573:2597  (b2 >= 48) && (b2 <= 57) */\n      dup1\n      iszero\n      tag_168\n      jumpi\n      pop\n        /* \"Arnacon/AyalaShop.sol\":2594:2596  57 */\n      0x39\n        /* \"Arnacon/AyalaShop.sol\":2588:2590  b2 */\n      dup3\n        /* \"Arnacon/AyalaShop.sol\":2588:2596  b2 <= 57 */\n      0xffffffffffffffffffffffffffffffffffffffff\n      and\n      gt\n      iszero\n        /* \"Arnacon/AyalaShop.sol\":2573:2597  (b2 >= 48) && (b2 <= 57) */\n    tag_168:\n        /* \"Arnacon/AyalaShop.sol\":2569:2642  if ((b2 >= 48) && (b2 <= 57)) {... */\n      iszero\n      tag_169\n      jumpi\n        /* \"Arnacon/AyalaShop.sol\":2624:2626  48 */\n      0x30\n        /* \"Arnacon/AyalaShop.sol\":2618:2626  b2 -= 48 */\n      dup3\n      tag_170\n      swap2\n      swap1\n      tag_151\n      jump\t// in\n    tag_170:\n      swap2\n      pop\n        /* \"Arnacon/AyalaShop.sol\":2569:2642  if ((b2 >= 48) && (b2 <= 57)) {... */\n    tag_169:\n        /* \"Arnacon/AyalaShop.sol\":2490:2642  if ((b2 >= 65) && (b2 <= 70)) {... */\n    tag_167:\n        /* \"Arnacon/AyalaShop.sol\":2410:2642  if ((b2 >= 97) && (b2 <= 102)) {... */\n    tag_163:\n        /* \"Arnacon/AyalaShop.sol\":2676:2678  b2 */\n      dup2\n        /* \"Arnacon/AyalaShop.sol\":2671:2673  16 */\n      0x10\n        /* \"Arnacon/AyalaShop.sol\":2666:2668  b1 */\n      dup5\n        /* \"Arnacon/AyalaShop.sol\":2666:2673  b1 * 16 */\n      tag_171\n      swap2\n      swap1\n      tag_142\n      jump\t// in\n    tag_171:\n        /* \"Arnacon/AyalaShop.sol\":2666:2678  b1 * 16 + b2 */\n      tag_172\n      swap2\n      swap1\n      tag_173\n      jump\t// in\n    tag_172:\n        /* \"Arnacon/AyalaShop.sol\":2656:2679  iaddr += (b1 * 16 + b2) */\n      dup5\n      tag_174\n      swap2\n      swap1\n      tag_173\n      jump\t// in\n    tag_174:\n      swap4\n      pop\n        /* \"Arnacon/AyalaShop.sol\":2031:2032  2 */\n      0x02\n        /* \"Arnacon/AyalaShop.sol\":2026:2032  i += 2 */\n      dup2\n      tag_175\n      swap2\n      swap1\n      tag_65\n      jump\t// in\n    tag_175:\n      swap1\n      pop\n        /* \"Arnacon/AyalaShop.sol\":1993:2691  for (uint i = 2; i < 2 + 2 * 20; i += 2) {... */\n      jump(tag_138)\n    tag_139:\n      pop\n        /* \"Arnacon/AyalaShop.sol\":2716:2721  iaddr */\n      dup3\n        /* \"Arnacon/AyalaShop.sol\":2701:2722  return address(iaddr) */\n      swap5\n      pop\n      pop\n      pop\n      pop\n      pop\n        /* \"Arnacon/AyalaShop.sol\":1791:2730  function parseAddr(string memory _a) public pure returns (address _parsedAddress) {... */\n      swap2\n      swap1\n      pop\n      jump\t// out\n        /* \"@openzeppelin/contracts@4.9.3/access/Ownable.sol\":2074:2272  function transferOwnership(address newOwner) public virtual onlyOwner {... */\n    tag_50:\n        /* \"@openzeppelin/contracts@4.9.3/access/Ownable.sol\":1094:1107  _checkOwner() */\n      tag_177\n        /* \"@openzeppelin/contracts@4.9.3/access/Ownable.sol\":1094:1105  _checkOwner */\n      tag_85\n        /* \"@openzeppelin/contracts@4.9.3/access/Ownable.sol\":1094:1107  _checkOwner() */\n      jump\t// in\n    tag_177:\n        /* \"@openzeppelin/contracts@4.9.3/access/Ownable.sol\":2182:2183  0 */\n      0x00\n        /* \"@openzeppelin/contracts@4.9.3/access/Ownable.sol\":2162:2184  newOwner != address(0) */\n      0xffffffffffffffffffffffffffffffffffffffff\n      and\n        /* \"@openzeppelin/contracts@4.9.3/access/Ownable.sol\":2162:2170  newOwner */\n      dup2\n        /* \"@openzeppelin/contracts@4.9.3/access/Ownable.sol\":2162:2184  newOwner != address(0) */\n      0xffffffffffffffffffffffffffffffffffffffff\n      and\n      sub\n        /* \"@openzeppelin/contracts@4.9.3/access/Ownable.sol\":2154:2227  require(newOwner != address(0), \"Ownable: new owner is the zero address\") */\n      tag_179\n      jumpi\n      mload(0x40)\n      0x08c379a000000000000000000000000000000000000000000000000000000000\n      dup2\n      mstore\n      0x04\n      add\n      tag_180\n      swap1\n      tag_181\n      jump\t// in\n    tag_180:\n      mload(0x40)\n      dup1\n      swap2\n      sub\n      swap1\n      revert\n    tag_179:\n        /* \"@openzeppelin/contracts@4.9.3/access/Ownable.sol\":2237:2265  _transferOwnership(newOwner) */\n      tag_182\n        /* \"@openzeppelin/contracts@4.9.3/access/Ownable.sol\":2256:2264  newOwner */\n      dup2\n        /* \"@openzeppelin/contracts@4.9.3/access/Ownable.sol\":2237:2255  _transferOwnership */\n      tag_88\n        /* \"@openzeppelin/contracts@4.9.3/access/Ownable.sol\":2237:2265  _transferOwnership(newOwner) */\n      jump\t// in\n    tag_182:\n        /* \"@openzeppelin/contracts@4.9.3/access/Ownable.sol\":2074:2272  function transferOwnership(address newOwner) public virtual onlyOwner {... */\n      pop\n      jump\t// out\n        /* \"@openzeppelin/contracts@4.9.3/access/Ownable.sol\":1359:1489  function _checkOwner() internal view virtual {... */\n    tag_85:\n        /* \"@openzeppelin/contracts@4.9.3/access/Ownable.sol\":1433:1445  _msgSender() */\n      tag_184\n        /* \"@openzeppelin/contracts@4.9.3/access/Ownable.sol\":1433:1443  _msgSender */\n      tag_185\n        /* \"@openzeppelin/contracts@4.9.3/access/Ownable.sol\":1433:1445  _msgSender() */\n      jump\t// in\n    tag_184:\n        /* \"@openzeppelin/contracts@4.9.3/access/Ownable.sol\":1422:1445  owner() == _msgSender() */\n      0xffffffffffffffffffffffffffffffffffffffff\n      and\n        /* \"@openzeppelin/contracts@4.9.3/access/Ownable.sol\":1422:1429  owner() */\n      tag_186\n        /* \"@openzeppelin/contracts@4.9.3/access/Ownable.sol\":1422:1427  owner */\n      tag_37\n        /* \"@openzeppelin/contracts@4.9.3/access/Ownable.sol\":1422:1429  owner() */\n      jump\t// in\n    tag_186:\n        /* \"@openzeppelin/contracts@4.9.3/access/Ownable.sol\":1422:1445  owner() == _msgSender() */\n      0xffffffffffffffffffffffffffffffffffffffff\n      and\n      eq\n        /* \"@openzeppelin/contracts@4.9.3/access/Ownable.sol\":1414:1482  require(owner() == _msgSender(), \"Ownable: caller is not the owner\") */\n      tag_187\n      jumpi\n      mload(0x40)\n      0x08c379a000000000000000000000000000000000000000000000000000000000\n      dup2\n      mstore\n      0x04\n      add\n      tag_188\n      swap1\n      tag_189\n      jump\t// in\n    tag_188:\n      mload(0x40)\n      dup1\n      swap2\n      sub\n      swap1\n      revert\n    tag_187:\n        /* \"@openzeppelin/contracts@4.9.3/access/Ownable.sol\":1359:1489  function _checkOwner() internal view virtual {... */\n      jump\t// out\n        /* \"@openzeppelin/contracts@4.9.3/access/Ownable.sol\":2426:2613  function _transferOwnership(address newOwner) internal virtual {... */\n    tag_88:\n        /* \"@openzeppelin/contracts@4.9.3/access/Ownable.sol\":2499:2515  address oldOwner */\n      0x00\n        /* \"@openzeppelin/contracts@4.9.3/access/Ownable.sol\":2518:2524  _owner */\n      dup1\n      0x00\n      swap1\n      sload\n      swap1\n      0x0100\n      exp\n      swap1\n      div\n      0xffffffffffffffffffffffffffffffffffffffff\n      and\n        /* \"@openzeppelin/contracts@4.9.3/access/Ownable.sol\":2499:2524  address oldOwner = _owner */\n      swap1\n      pop\n        /* \"@openzeppelin/contracts@4.9.3/access/Ownable.sol\":2543:2551  newOwner */\n      dup2\n        /* \"@openzeppelin/contracts@4.9.3/access/Ownable.sol\":2534:2540  _owner */\n      0x00\n      dup1\n        /* \"@openzeppelin/contracts@4.9.3/access/Ownable.sol\":2534:2551  _owner = newOwner */\n      0x0100\n      exp\n      dup2\n      sload\n      dup2\n      0xffffffffffffffffffffffffffffffffffffffff\n      mul\n      not\n      and\n      swap1\n      dup4\n      0xffffffffffffffffffffffffffffffffffffffff\n      and\n      mul\n      or\n      swap1\n      sstore\n      pop\n        /* \"@openzeppelin/contracts@4.9.3/access/Ownable.sol\":2597:2605  newOwner */\n      dup2\n        /* \"@openzeppelin/contracts@4.9.3/access/Ownable.sol\":2566:2606  OwnershipTransferred(oldOwner, newOwner) */\n      0xffffffffffffffffffffffffffffffffffffffff\n      and\n        /* \"@openzeppelin/contracts@4.9.3/access/Ownable.sol\":2587:2595  oldOwner */\n      dup2\n        /* \"@openzeppelin/contracts@4.9.3/access/Ownable.sol\":2566:2606  OwnershipTransferred(oldOwner, newOwner) */\n      0xffffffffffffffffffffffffffffffffffffffff\n      and\n      0x8be0079c531659141344cd1fd0a4f28419497f9722a3daafe3b4186f6b6457e0\n      mload(0x40)\n      mload(0x40)\n      dup1\n      swap2\n      sub\n      swap1\n      log3\n        /* \"@openzeppelin/contracts@4.9.3/access/Ownable.sol\":2489:2613  {... */\n      pop\n        /* \"@openzeppelin/contracts@4.9.3/access/Ownable.sol\":2426:2613  function _transferOwnership(address newOwner) internal virtual {... */\n      pop\n      jump\t// out\n        /* \"@openzeppelin/contracts@4.9.3/utils/Context.sol\":640:736  function _msgSender() internal view virtual returns (address) {... */\n    tag_185:\n        /* \"@openzeppelin/contracts@4.9.3/utils/Context.sol\":693:700  address */\n      0x00\n        /* \"@openzeppelin/contracts@4.9.3/utils/Context.sol\":719:729  msg.sender */\n      caller\n        /* \"@openzeppelin/contracts@4.9.3/utils/Context.sol\":712:729  return msg.sender */\n      swap1\n      pop\n        /* \"@openzeppelin/contracts@4.9.3/utils/Context.sol\":640:736  function _msgSender() internal view virtual returns (address) {... */\n      swap1\n      jump\t// out\n        /* \"#utility.yul\":7:82   */\n    tag_192:\n        /* \"#utility.yul\":40:46   */\n      0x00\n        /* \"#utility.yul\":73:75   */\n      0x40\n        /* \"#utility.yul\":67:76   */\n      mload\n        /* \"#utility.yul\":57:76   */\n      swap1\n      pop\n        /* \"#utility.yul\":7:82   */\n      swap1\n      jump\t// out\n        /* \"#utility.yul\":88:205   */\n    tag_193:\n        /* \"#utility.yul\":197:198   */\n      0x00\n        /* \"#utility.yul\":194:195   */\n      dup1\n        /* \"#utility.yul\":187:199   */\n      revert\n        /* \"#utility.yul\":211:328   */\n    tag_194:\n        /* \"#utility.yul\":320:321   */\n      0x00\n        /* \"#utility.yul\":317:318   */\n      dup1\n        /* \"#utility.yul\":310:322   */\n      revert\n        /* \"#utility.yul\":334:451   */\n    tag_195:\n        /* \"#utility.yul\":443:444   */\n      0x00\n        /* \"#utility.yul\":440:441   */\n      dup1\n        /* \"#utility.yul\":433:445   */\n      revert\n        /* \"#utility.yul\":457:574   */\n    tag_196:\n        /* \"#utility.yul\":566:567   */\n      0x00\n        /* \"#utility.yul\":563:564   */\n      dup1\n        /* \"#utility.yul\":556:568   */\n      revert\n        /* \"#utility.yul\":580:682   */\n    tag_197:\n        /* \"#utility.yul\":621:627   */\n      0x00\n        /* \"#utility.yul\":672:674   */\n      0x1f\n        /* \"#utility.yul\":668:675   */\n      not\n        /* \"#utility.yul\":663:665   */\n      0x1f\n        /* \"#utility.yul\":656:661   */\n      dup4\n        /* \"#utility.yul\":652:666   */\n      add\n        /* \"#utility.yul\":648:676   */\n      and\n        /* \"#utility.yul\":638:676   */\n      swap1\n      pop\n        /* \"#utility.yul\":580:682   */\n      swap2\n      swap1\n      pop\n      jump\t// out\n        /* \"#utility.yul\":688:868   */\n    tag_72:\n        /* \"#utility.yul\":736:813   */\n      0x4e487b7100000000000000000000000000000000000000000000000000000000\n        /* \"#utility.yul\":733:734   */\n      0x00\n        /* \"#utility.yul\":726:814   */\n      mstore\n        /* \"#utility.yul\":833:837   */\n      0x41\n        /* \"#utility.yul\":830:831   */\n      0x04\n        /* \"#utility.yul\":823:838   */\n      mstore\n        /* \"#utility.yul\":857:861   */\n      0x24\n        /* \"#utility.yul\":854:855   */\n      0x00\n        /* \"#utility.yul\":847:862   */\n      revert\n        /* \"#utility.yul\":874:1155   */\n    tag_198:\n        /* \"#utility.yul\":957:984   */\n      tag_251\n        /* \"#utility.yul\":979:983   */\n      dup3\n        /* \"#utility.yul\":957:984   */\n      tag_197\n      jump\t// in\n    tag_251:\n        /* \"#utility.yul\":949:955   */\n      dup2\n        /* \"#utility.yul\":945:985   */\n      add\n        /* \"#utility.yul\":1087:1093   */\n      dup2\n        /* \"#utility.yul\":1075:1085   */\n      dup2\n        /* \"#utility.yul\":1072:1094   */\n      lt\n        /* \"#utility.yul\":1051:1069   */\n      0xffffffffffffffff\n        /* \"#utility.yul\":1039:1049   */\n      dup3\n        /* \"#utility.yul\":1036:1070   */\n      gt\n        /* \"#utility.yul\":1033:1095   */\n      or\n        /* \"#utility.yul\":1030:1118   */\n      iszero\n      tag_252\n      jumpi\n        /* \"#utility.yul\":1098:1116   */\n      tag_253\n      tag_72\n      jump\t// in\n    tag_253:\n        /* \"#utility.yul\":1030:1118   */\n    tag_252:\n        /* \"#utility.yul\":1138:1148   */\n      dup1\n        /* \"#utility.yul\":1134:1136   */\n      0x40\n        /* \"#utility.yul\":1127:1149   */\n      mstore\n        /* \"#utility.yul\":917:1155   */\n      pop\n        /* \"#utility.yul\":874:1155   */\n      pop\n      pop\n      jump\t// out\n        /* \"#utility.yul\":1161:1290   */\n    tag_199:\n        /* \"#utility.yul\":1195:1201   */\n      0x00\n        /* \"#utility.yul\":1222:1242   */\n      tag_255\n      tag_192\n      jump\t// in\n    tag_255:\n        /* \"#utility.yul\":1212:1242   */\n      swap1\n      pop\n        /* \"#utility.yul\":1251:1284   */\n      tag_256\n        /* \"#utility.yul\":1279:1283   */\n      dup3\n        /* \"#utility.yul\":1271:1277   */\n      dup3\n        /* \"#utility.yul\":1251:1284   */\n      tag_198\n      jump\t// in\n    tag_256:\n        /* \"#utility.yul\":1161:1290   */\n      swap2\n      swap1\n      pop\n      jump\t// out\n        /* \"#utility.yul\":1296:1604   */\n    tag_200:\n        /* \"#utility.yul\":1358:1362   */\n      0x00\n        /* \"#utility.yul\":1448:1466   */\n      0xffffffffffffffff\n        /* \"#utility.yul\":1440:1446   */\n      dup3\n        /* \"#utility.yul\":1437:1467   */\n      gt\n        /* \"#utility.yul\":1434:1490   */\n      iszero\n      tag_258\n      jumpi\n        /* \"#utility.yul\":1470:1488   */\n      tag_259\n      tag_72\n      jump\t// in\n    tag_259:\n        /* \"#utility.yul\":1434:1490   */\n    tag_258:\n        /* \"#utility.yul\":1508:1537   */\n      tag_260\n        /* \"#utility.yul\":1530:1536   */\n      dup3\n        /* \"#utility.yul\":1508:1537   */\n      tag_197\n      jump\t// in\n    tag_260:\n        /* \"#utility.yul\":1500:1537   */\n      swap1\n      pop\n        /* \"#utility.yul\":1592:1596   */\n      0x20\n        /* \"#utility.yul\":1586:1590   */\n      dup2\n        /* \"#utility.yul\":1582:1597   */\n      add\n        /* \"#utility.yul\":1574:1597   */\n      swap1\n      pop\n        /* \"#utility.yul\":1296:1604   */\n      swap2\n      swap1\n      pop\n      jump\t// out\n        /* \"#utility.yul\":1610:1756   */\n    tag_201:\n        /* \"#utility.yul\":1707:1713   */\n      dup3\n        /* \"#utility.yul\":1702:1705   */\n      dup2\n        /* \"#utility.yul\":1697:1700   */\n      dup4\n        /* \"#utility.yul\":1684:1714   */\n      calldatacopy\n        /* \"#utility.yul\":1748:1749   */\n      0x00\n        /* \"#utility.yul\":1739:1745   */\n      dup4\n        /* \"#utility.yul\":1734:1737   */\n      dup4\n        /* \"#utility.yul\":1730:1746   */\n      add\n        /* \"#utility.yul\":1723:1750   */\n      mstore\n        /* \"#utility.yul\":1610:1756   */\n      pop\n      pop\n      pop\n      jump\t// out\n        /* \"#utility.yul\":1762:2187   */\n    tag_202:\n        /* \"#utility.yul\":1840:1845   */\n      0x00\n        /* \"#utility.yul\":1865:1931   */\n      tag_263\n        /* \"#utility.yul\":1881:1930   */\n      tag_264\n        /* \"#utility.yul\":1923:1929   */\n      dup5\n        /* \"#utility.yul\":1881:1930   */\n      tag_200\n      jump\t// in\n    tag_264:\n        /* \"#utility.yul\":1865:1931   */\n      tag_199\n      jump\t// in\n    tag_263:\n        /* \"#utility.yul\":1856:1931   */\n      swap1\n      pop\n        /* \"#utility.yul\":1954:1960   */\n      dup3\n        /* \"#utility.yul\":1947:1952   */\n      dup2\n        /* \"#utility.yul\":1940:1961   */\n      mstore\n        /* \"#utility.yul\":1992:1996   */\n      0x20\n        /* \"#utility.yul\":1985:1990   */\n      dup2\n        /* \"#utility.yul\":1981:1997   */\n      add\n        /* \"#utility.yul\":2030:2033   */\n      dup5\n        /* \"#utility.yul\":2021:2027   */\n      dup5\n        /* \"#utility.yul\":2016:2019   */\n      dup5\n        /* \"#utility.yul\":2012:2028   */\n      add\n        /* \"#utility.yul\":2009:2034   */\n      gt\n        /* \"#utility.yul\":2006:2118   */\n      iszero\n      tag_265\n      jumpi\n        /* \"#utility.yul\":2037:2116   */\n      tag_266\n      tag_196\n      jump\t// in\n    tag_266:\n        /* \"#utility.yul\":2006:2118   */\n    tag_265:\n        /* \"#utility.yul\":2127:2181   */\n      tag_267\n        /* \"#utility.yul\":2174:2180   */\n      dup5\n        /* \"#utility.yul\":2169:2172   */\n      dup3\n        /* \"#utility.yul\":2164:2167   */\n      dup6\n        /* \"#utility.yul\":2127:2181   */\n      tag_201\n      jump\t// in\n    tag_267:\n        /* \"#utility.yul\":1846:2187   */\n      pop\n        /* \"#utility.yul\":1762:2187   */\n      swap4\n      swap3\n      pop\n      pop\n      pop\n      jump\t// out\n        /* \"#utility.yul\":2207:2547   */\n    tag_203:\n        /* \"#utility.yul\":2263:2268   */\n      0x00\n        /* \"#utility.yul\":2312:2315   */\n      dup3\n        /* \"#utility.yul\":2305:2309   */\n      0x1f\n        /* \"#utility.yul\":2297:2303   */\n      dup4\n        /* \"#utility.yul\":2293:2310   */\n      add\n        /* \"#utility.yul\":2289:2316   */\n      slt\n        /* \"#utility.yul\":2279:2401   */\n      tag_269\n      jumpi\n        /* \"#utility.yul\":2320:2399   */\n      tag_270\n      tag_195\n      jump\t// in\n    tag_270:\n        /* \"#utility.yul\":2279:2401   */\n    tag_269:\n        /* \"#utility.yul\":2437:2443   */\n      dup2\n        /* \"#utility.yul\":2424:2444   */\n      calldataload\n        /* \"#utility.yul\":2462:2541   */\n      tag_271\n        /* \"#utility.yul\":2537:2540   */\n      dup5\n        /* \"#utility.yul\":2529:2535   */\n      dup3\n        /* \"#utility.yul\":2522:2526   */\n      0x20\n        /* \"#utility.yul\":2514:2520   */\n      dup7\n        /* \"#utility.yul\":2510:2527   */\n      add\n        /* \"#utility.yul\":2462:2541   */\n      tag_202\n      jump\t// in\n    tag_271:\n        /* \"#utility.yul\":2453:2541   */\n      swap2\n      pop\n        /* \"#utility.yul\":2269:2547   */\n      pop\n        /* \"#utility.yul\":2207:2547   */\n      swap3\n      swap2\n      pop\n      pop\n      jump\t// out\n        /* \"#utility.yul\":2553:3062   */\n    tag_15:\n        /* \"#utility.yul\":2622:2628   */\n      0x00\n        /* \"#utility.yul\":2671:2673   */\n      0x20\n        /* \"#utility.yul\":2659:2668   */\n      dup3\n        /* \"#utility.yul\":2650:2657   */\n      dup5\n        /* \"#utility.yul\":2646:2669   */\n      sub\n        /* \"#utility.yul\":2642:2674   */\n      slt\n        /* \"#utility.yul\":2639:2758   */\n      iszero\n      tag_273\n      jumpi\n        /* \"#utility.yul\":2677:2756   */\n      tag_274\n      tag_193\n      jump\t// in\n    tag_274:\n        /* \"#utility.yul\":2639:2758   */\n    tag_273:\n        /* \"#utility.yul\":2825:2826   */\n      0x00\n        /* \"#utility.yul\":2814:2823   */\n      dup3\n        /* \"#utility.yul\":2810:2827   */\n      add\n        /* \"#utility.yul\":2797:2828   */\n      calldataload\n        /* \"#utility.yul\":2855:2873   */\n      0xffffffffffffffff\n        /* \"#utility.yul\":2847:2853   */\n      dup2\n        /* \"#utility.yul\":2844:2874   */\n      gt\n        /* \"#utility.yul\":2841:2958   */\n      iszero\n      tag_275\n      jumpi\n        /* \"#utility.yul\":2877:2956   */\n      tag_276\n      tag_194\n      jump\t// in\n    tag_276:\n        /* \"#utility.yul\":2841:2958   */\n    tag_275:\n        /* \"#utility.yul\":2982:3045   */\n      tag_277\n        /* \"#utility.yul\":3037:3044   */\n      dup5\n        /* \"#utility.yul\":3028:3034   */\n      dup3\n        /* \"#utility.yul\":3017:3026   */\n      dup6\n        /* \"#utility.yul\":3013:3035   */\n      add\n        /* \"#utility.yul\":2982:3045   */\n      tag_203\n      jump\t// in\n    tag_277:\n        /* \"#utility.yul\":2972:3045   */\n      swap2\n      pop\n        /* \"#utility.yul\":2768:3055   */\n      pop\n        /* \"#utility.yul\":2553:3062   */\n      swap3\n      swap2\n      pop\n      pop\n      jump\t// out\n        /* \"#utility.yul\":3068:3145   */\n    tag_204:\n        /* \"#utility.yul\":3105:3112   */\n      0x00\n        /* \"#utility.yul\":3134:3139   */\n      dup2\n        /* \"#utility.yul\":3123:3139   */\n      swap1\n      pop\n        /* \"#utility.yul\":3068:3145   */\n      swap2\n      swap1\n      pop\n      jump\t// out\n        /* \"#utility.yul\":3151:3269   */\n    tag_205:\n        /* \"#utility.yul\":3238:3262   */\n      tag_280\n        /* \"#utility.yul\":3256:3261   */\n      dup2\n        /* \"#utility.yul\":3238:3262   */\n      tag_204\n      jump\t// in\n    tag_280:\n        /* \"#utility.yul\":3233:3236   */\n      dup3\n        /* \"#utility.yul\":3226:3263   */\n      mstore\n        /* \"#utility.yul\":3151:3269   */\n      pop\n      pop\n      jump\t// out\n        /* \"#utility.yul\":3275:3497   */\n    tag_18:\n        /* \"#utility.yul\":3368:3372   */\n      0x00\n        /* \"#utility.yul\":3406:3408   */\n      0x20\n        /* \"#utility.yul\":3395:3404   */\n      dup3\n        /* \"#utility.yul\":3391:3409   */\n      add\n        /* \"#utility.yul\":3383:3409   */\n      swap1\n      pop\n        /* \"#utility.yul\":3419:3490   */\n      tag_282\n        /* \"#utility.yul\":3487:3488   */\n      0x00\n        /* \"#utility.yul\":3476:3485   */\n      dup4\n        /* \"#utility.yul\":3472:3489   */\n      add\n        /* \"#utility.yul\":3463:3469   */\n      dup5\n        /* \"#utility.yul\":3419:3490   */\n      tag_205\n      jump\t// in\n    tag_282:\n        /* \"#utility.yul\":3275:3497   */\n      swap3\n      swap2\n      pop\n      pop\n      jump\t// out\n        /* \"#utility.yul\":3503:3625   */\n    tag_206:\n        /* \"#utility.yul\":3576:3600   */\n      tag_284\n        /* \"#utility.yul\":3594:3599   */\n      dup2\n        /* \"#utility.yul\":3576:3600   */\n      tag_204\n      jump\t// in\n    tag_284:\n        /* \"#utility.yul\":3569:3574   */\n      dup2\n        /* \"#utility.yul\":3566:3601   */\n      eq\n        /* \"#utility.yul\":3556:3619   */\n      tag_285\n      jumpi\n        /* \"#utility.yul\":3615:3616   */\n      0x00\n        /* \"#utility.yul\":3612:3613   */\n      dup1\n        /* \"#utility.yul\":3605:3617   */\n      revert\n        /* \"#utility.yul\":3556:3619   */\n    tag_285:\n        /* \"#utility.yul\":3503:3625   */\n      pop\n      jump\t// out\n        /* \"#utility.yul\":3631:3770   */\n    tag_207:\n        /* \"#utility.yul\":3677:3682   */\n      0x00\n        /* \"#utility.yul\":3715:3721   */\n      dup2\n        /* \"#utility.yul\":3702:3722   */\n      calldataload\n        /* \"#utility.yul\":3693:3722   */\n      swap1\n      pop\n        /* \"#utility.yul\":3731:3764   */\n      tag_287\n        /* \"#utility.yul\":3758:3763   */\n      dup2\n        /* \"#utility.yul\":3731:3764   */\n      tag_206\n      jump\t// in\n    tag_287:\n        /* \"#utility.yul\":3631:3770   */\n      swap3\n      swap2\n      pop\n      pop\n      jump\t// out\n        /* \"#utility.yul\":3776:4575   */\n    tag_21:\n        /* \"#utility.yul\":3863:3869   */\n      0x00\n        /* \"#utility.yul\":3871:3877   */\n      dup1\n        /* \"#utility.yul\":3879:3885   */\n      0x00\n        /* \"#utility.yul\":3928:3930   */\n      0x60\n        /* \"#utility.yul\":3916:3925   */\n      dup5\n        /* \"#utility.yul\":3907:3914   */\n      dup7\n        /* \"#utility.yul\":3903:3926   */\n      sub\n        /* \"#utility.yul\":3899:3931   */\n      slt\n        /* \"#utility.yul\":3896:4015   */\n      iszero\n      tag_289\n      jumpi\n        /* \"#utility.yul\":3934:4013   */\n      tag_290\n      tag_193\n      jump\t// in\n    tag_290:\n        /* \"#utility.yul\":3896:4015   */\n    tag_289:\n        /* \"#utility.yul\":4082:4083   */\n      0x00\n        /* \"#utility.yul\":4071:4080   */\n      dup5\n        /* \"#utility.yul\":4067:4084   */\n      add\n        /* \"#utility.yul\":4054:4085   */\n      calldataload\n        /* \"#utility.yul\":4112:4130   */\n      0xffffffffffffffff\n        /* \"#utility.yul\":4104:4110   */\n      dup2\n        /* \"#utility.yul\":4101:4131   */\n      gt\n        /* \"#utility.yul\":4098:4215   */\n      iszero\n      tag_291\n      jumpi\n        /* \"#utility.yul\":4134:4213   */\n      tag_292\n      tag_194\n      jump\t// in\n    tag_292:\n        /* \"#utility.yul\":4098:4215   */\n    tag_291:\n        /* \"#utility.yul\":4239:4302   */\n      tag_293\n        /* \"#utility.yul\":4294:4301   */\n      dup7\n        /* \"#utility.yul\":4285:4291   */\n      dup3\n        /* \"#utility.yul\":4274:4283   */\n      dup8\n        /* \"#utility.yul\":4270:4292   */\n      add\n        /* \"#utility.yul\":4239:4302   */\n      tag_203\n      jump\t// in\n    tag_293:\n        /* \"#utility.yul\":4229:4302   */\n      swap4\n      pop\n        /* \"#utility.yul\":4025:4312   */\n      pop\n        /* \"#utility.yul\":4351:4353   */\n      0x20\n        /* \"#utility.yul\":4377:4430   */\n      tag_294\n        /* \"#utility.yul\":4422:4429   */\n      dup7\n        /* \"#utility.yul\":4413:4419   */\n      dup3\n        /* \"#utility.yul\":4402:4411   */\n      dup8\n        /* \"#utility.yul\":4398:4420   */\n      add\n        /* \"#utility.yul\":4377:4430   */\n      tag_207\n      jump\t// in\n    tag_294:\n        /* \"#utility.yul\":4367:4430   */\n      swap3\n      pop\n        /* \"#utility.yul\":4322:4440   */\n      pop\n        /* \"#utility.yul\":4479:4481   */\n      0x40\n        /* \"#utility.yul\":4505:4558   */\n      tag_295\n        /* \"#utility.yul\":4550:4557   */\n      dup7\n        /* \"#utility.yul\":4541:4547   */\n      dup3\n        /* \"#utility.yul\":4530:4539   */\n      dup8\n        /* \"#utility.yul\":4526:4548   */\n      add\n        /* \"#utility.yul\":4505:4558   */\n      tag_207\n      jump\t// in\n    tag_295:\n        /* \"#utility.yul\":4495:4558   */\n      swap2\n      pop\n        /* \"#utility.yul\":4450:4568   */\n      pop\n        /* \"#utility.yul\":3776:4575   */\n      swap3\n      pop\n      swap3\n      pop\n      swap3\n      jump\t// out\n        /* \"#utility.yul\":4581:4680   */\n    tag_208:\n        /* \"#utility.yul\":4633:4639   */\n      0x00\n        /* \"#utility.yul\":4667:4672   */\n      dup2\n        /* \"#utility.yul\":4661:4673   */\n      mload\n        /* \"#utility.yul\":4651:4673   */\n      swap1\n      pop\n        /* \"#utility.yul\":4581:4680   */\n      swap2\n      swap1\n      pop\n      jump\t// out\n        /* \"#utility.yul\":4686:4855   */\n    tag_209:\n        /* \"#utility.yul\":4770:4781   */\n      0x00\n        /* \"#utility.yul\":4804:4810   */\n      dup3\n        /* \"#utility.yul\":4799:4802   */\n      dup3\n        /* \"#utility.yul\":4792:4811   */\n      mstore\n        /* \"#utility.yul\":4844:4848   */\n      0x20\n        /* \"#utility.yul\":4839:4842   */\n      dup3\n        /* \"#utility.yul\":4835:4849   */\n      add\n        /* \"#utility.yul\":4820:4849   */\n      swap1\n      pop\n        /* \"#utility.yul\":4686:4855   */\n      swap3\n      swap2\n      pop\n      pop\n      jump\t// out\n        /* \"#utility.yul\":4861:5107   */\n    tag_210:\n        /* \"#utility.yul\":4942:4943   */\n      0x00\n        /* \"#utility.yul\":4952:5065   */\n    tag_299:\n        /* \"#utility.yul\":4966:4972   */\n      dup4\n        /* \"#utility.yul\":4963:4964   */\n      dup2\n        /* \"#utility.yul\":4960:4973   */\n      lt\n        /* \"#utility.yul\":4952:5065   */\n      iszero\n      tag_301\n      jumpi\n        /* \"#utility.yul\":5051:5052   */\n      dup1\n        /* \"#utility.yul\":5046:5049   */\n      dup3\n        /* \"#utility.yul\":5042:5053   */\n      add\n        /* \"#utility.yul\":5036:5054   */\n      mload\n        /* \"#utility.yul\":5032:5033   */\n      dup2\n        /* \"#utility.yul\":5027:5030   */\n      dup5\n        /* \"#utility.yul\":5023:5034   */\n      add\n        /* \"#utility.yul\":5016:5055   */\n      mstore\n        /* \"#utility.yul\":4988:4990   */\n      0x20\n        /* \"#utility.yul\":4985:4986   */\n      dup2\n        /* \"#utility.yul\":4981:4991   */\n      add\n        /* \"#utility.yul\":4976:4991   */\n      swap1\n      pop\n        /* \"#utility.yul\":4952:5065   */\n      jump(tag_299)\n    tag_301:\n        /* \"#utility.yul\":5099:5100   */\n      0x00\n        /* \"#utility.yul\":5090:5096   */\n      dup5\n        /* \"#utility.yul\":5085:5088   */\n      dup5\n        /* \"#utility.yul\":5081:5097   */\n      add\n        /* \"#utility.yul\":5074:5101   */\n      mstore\n        /* \"#utility.yul\":4923:5107   */\n      pop\n        /* \"#utility.yul\":4861:5107   */\n      pop\n      pop\n      pop\n      jump\t// out\n        /* \"#utility.yul\":5113:5490   */\n    tag_211:\n        /* \"#utility.yul\":5201:5204   */\n      0x00\n        /* \"#utility.yul\":5229:5268   */\n      tag_303\n        /* \"#utility.yul\":5262:5267   */\n      dup3\n        /* \"#utility.yul\":5229:5268   */\n      tag_208\n      jump\t// in\n    tag_303:\n        /* \"#utility.yul\":5284:5355   */\n      tag_304\n        /* \"#utility.yul\":5348:5354   */\n      dup2\n        /* \"#utility.yul\":5343:5346   */\n      dup6\n        /* \"#utility.yul\":5284:5355   */\n      tag_209\n      jump\t// in\n    tag_304:\n        /* \"#utility.yul\":5277:5355   */\n      swap4\n      pop\n        /* \"#utility.yul\":5364:5429   */\n      tag_305\n        /* \"#utility.yul\":5422:5428   */\n      dup2\n        /* \"#utility.yul\":5417:5420   */\n      dup6\n        /* \"#utility.yul\":5410:5414   */\n      0x20\n        /* \"#utility.yul\":5403:5408   */\n      dup7\n        /* \"#utility.yul\":5399:5415   */\n      add\n        /* \"#utility.yul\":5364:5429   */\n      tag_210\n      jump\t// in\n    tag_305:\n        /* \"#utility.yul\":5454:5483   */\n      tag_306\n        /* \"#utility.yul\":5476:5482   */\n      dup2\n        /* \"#utility.yul\":5454:5483   */\n      tag_197\n      jump\t// in\n    tag_306:\n        /* \"#utility.yul\":5449:5452   */\n      dup5\n        /* \"#utility.yul\":5445:5484   */\n      add\n        /* \"#utility.yul\":5438:5484   */\n      swap2\n      pop\n        /* \"#utility.yul\":5205:5490   */\n      pop\n        /* \"#utility.yul\":5113:5490   */\n      swap3\n      swap2\n      pop\n      pop\n      jump\t// out\n        /* \"#utility.yul\":5496:5809   */\n    tag_24:\n        /* \"#utility.yul\":5609:5613   */\n      0x00\n        /* \"#utility.yul\":5647:5649   */\n      0x20\n        /* \"#utility.yul\":5636:5645   */\n      dup3\n        /* \"#utility.yul\":5632:5650   */\n      add\n        /* \"#utility.yul\":5624:5650   */\n      swap1\n      pop\n        /* \"#utility.yul\":5696:5705   */\n      dup2\n        /* \"#utility.yul\":5690:5694   */\n      dup2\n        /* \"#utility.yul\":5686:5706   */\n      sub\n        /* \"#utility.yul\":5682:5683   */\n      0x00\n        /* \"#utility.yul\":5671:5680   */\n      dup4\n        /* \"#utility.yul\":5667:5684   */\n      add\n        /* \"#utility.yul\":5660:5707   */\n      mstore\n        /* \"#utility.yul\":5724:5802   */\n      tag_308\n        /* \"#utility.yul\":5797:5801   */\n      dup2\n        /* \"#utility.yul\":5788:5794   */\n      dup5\n        /* \"#utility.yul\":5724:5802   */\n      tag_211\n      jump\t// in\n    tag_308:\n        /* \"#utility.yul\":5716:5802   */\n      swap1\n      pop\n        /* \"#utility.yul\":5496:5809   */\n      swap3\n      swap2\n      pop\n      pop\n      jump\t// out\n        /* \"#utility.yul\":5815:5941   */\n    tag_212:\n        /* \"#utility.yul\":5852:5859   */\n      0x00\n        /* \"#utility.yul\":5892:5934   */\n      0xffffffffffffffffffffffffffffffffffffffff\n        /* \"#utility.yul\":5885:5890   */\n      dup3\n        /* \"#utility.yul\":5881:5935   */\n      and\n        /* \"#utility.yul\":5870:5935   */\n      swap1\n      pop\n        /* \"#utility.yul\":5815:5941   */\n      swap2\n      swap1\n      pop\n      jump\t// out\n        /* \"#utility.yul\":5947:6043   */\n    tag_213:\n        /* \"#utility.yul\":5984:5991   */\n      0x00\n        /* \"#utility.yul\":6013:6037   */\n      tag_311\n        /* \"#utility.yul\":6031:6036   */\n      dup3\n        /* \"#utility.yul\":6013:6037   */\n      tag_212\n      jump\t// in\n    tag_311:\n        /* \"#utility.yul\":6002:6037   */\n      swap1\n      pop\n        /* \"#utility.yul\":5947:6043   */\n      swap2\n      swap1\n      pop\n      jump\t// out\n        /* \"#utility.yul\":6049:6171   */\n    tag_214:\n        /* \"#utility.yul\":6122:6146   */\n      tag_313\n        /* \"#utility.yul\":6140:6145   */\n      dup2\n        /* \"#utility.yul\":6122:6146   */\n      tag_213\n      jump\t// in\n    tag_313:\n        /* \"#utility.yul\":6115:6120   */\n      dup2\n        /* \"#utility.yul\":6112:6147   */\n      eq\n        /* \"#utility.yul\":6102:6165   */\n      tag_314\n      jumpi\n        /* \"#utility.yul\":6161:6162   */\n      0x00\n        /* \"#utility.yul\":6158:6159   */\n      dup1\n        /* \"#utility.yul\":6151:6163   */\n      revert\n        /* \"#utility.yul\":6102:6165   */\n    tag_314:\n        /* \"#utility.yul\":6049:6171   */\n      pop\n      jump\t// out\n        /* \"#utility.yul\":6177:6316   */\n    tag_215:\n        /* \"#utility.yul\":6223:6228   */\n      0x00\n        /* \"#utility.yul\":6261:6267   */\n      dup2\n        /* \"#utility.yul\":6248:6268   */\n      calldataload\n        /* \"#utility.yul\":6239:6268   */\n      swap1\n      pop\n        /* \"#utility.yul\":6277:6310   */\n      tag_316\n        /* \"#utility.yul\":6304:6309   */\n      dup2\n        /* \"#utility.yul\":6277:6310   */\n      tag_214\n      jump\t// in\n    tag_316:\n        /* \"#utility.yul\":6177:6316   */\n      swap3\n      swap2\n      pop\n      pop\n      jump\t// out\n        /* \"#utility.yul\":6322:6976   */\n    tag_29:\n        /* \"#utility.yul\":6400:6406   */\n      0x00\n        /* \"#utility.yul\":6408:6414   */\n      dup1\n        /* \"#utility.yul\":6457:6459   */\n      0x40\n        /* \"#utility.yul\":6445:6454   */\n      dup4\n        /* \"#utility.yul\":6436:6443   */\n      dup6\n        /* \"#utility.yul\":6432:6455   */\n      sub\n        /* \"#utility.yul\":6428:6460   */\n      slt\n        /* \"#utility.yul\":6425:6544   */\n      iszero\n      tag_318\n      jumpi\n        /* \"#utility.yul\":6463:6542   */\n      tag_319\n      tag_193\n      jump\t// in\n    tag_319:\n        /* \"#utility.yul\":6425:6544   */\n    tag_318:\n        /* \"#utility.yul\":6583:6584   */\n      0x00\n        /* \"#utility.yul\":6608:6661   */\n      tag_320\n        /* \"#utility.yul\":6653:6660   */\n      dup6\n        /* \"#utility.yul\":6644:6650   */\n      dup3\n        /* \"#utility.yul\":6633:6642   */\n      dup7\n        /* \"#utility.yul\":6629:6651   */\n      add\n        /* \"#utility.yul\":6608:6661   */\n      tag_215\n      jump\t// in\n    tag_320:\n        /* \"#utility.yul\":6598:6661   */\n      swap3\n      pop\n        /* \"#utility.yul\":6554:6671   */\n      pop\n        /* \"#utility.yul\":6738:6740   */\n      0x20\n        /* \"#utility.yul\":6727:6736   */\n      dup4\n        /* \"#utility.yul\":6723:6741   */\n      add\n        /* \"#utility.yul\":6710:6742   */\n      calldataload\n        /* \"#utility.yul\":6769:6787   */\n      0xffffffffffffffff\n        /* \"#utility.yul\":6761:6767   */\n      dup2\n        /* \"#utility.yul\":6758:6788   */\n      gt\n        /* \"#utility.yul\":6755:6872   */\n      iszero\n      tag_321\n      jumpi\n        /* \"#utility.yul\":6791:6870   */\n      tag_322\n      tag_194\n      jump\t// in\n    tag_322:\n        /* \"#utility.yul\":6755:6872   */\n    tag_321:\n        /* \"#utility.yul\":6896:6959   */\n      tag_323\n        /* \"#utility.yul\":6951:6958   */\n      dup6\n        /* \"#utility.yul\":6942:6948   */\n      dup3\n        /* \"#utility.yul\":6931:6940   */\n      dup7\n        /* \"#utility.yul\":6927:6949   */\n      add\n        /* \"#utility.yul\":6896:6959   */\n      tag_203\n      jump\t// in\n    tag_323:\n        /* \"#utility.yul\":6886:6959   */\n      swap2\n      pop\n        /* \"#utility.yul\":6681:6969   */\n      pop\n        /* \"#utility.yul\":6322:6976   */\n      swap3\n      pop\n      swap3\n      swap1\n      pop\n      jump\t// out\n        /* \"#utility.yul\":6982:7311   */\n    tag_33:\n        /* \"#utility.yul\":7041:7047   */\n      0x00\n        /* \"#utility.yul\":7090:7092   */\n      0x20\n        /* \"#utility.yul\":7078:7087   */\n      dup3\n        /* \"#utility.yul\":7069:7076   */\n      dup5\n        /* \"#utility.yul\":7065:7088   */\n      sub\n        /* \"#utility.yul\":7061:7093   */\n      slt\n        /* \"#utility.yul\":7058:7177   */\n      iszero\n      tag_325\n      jumpi\n        /* \"#utility.yul\":7096:7175   */\n      tag_326\n      tag_193\n      jump\t// in\n    tag_326:\n        /* \"#utility.yul\":7058:7177   */\n    tag_325:\n        /* \"#utility.yul\":7216:7217   */\n      0x00\n        /* \"#utility.yul\":7241:7294   */\n      tag_327\n        /* \"#utility.yul\":7286:7293   */\n      dup5\n        /* \"#utility.yul\":7277:7283   */\n      dup3\n        /* \"#utility.yul\":7266:7275   */\n      dup6\n        /* \"#utility.yul\":7262:7284   */\n      add\n        /* \"#utility.yul\":7241:7294   */\n      tag_215\n      jump\t// in\n    tag_327:\n        /* \"#utility.yul\":7231:7294   */\n      swap2\n      pop\n        /* \"#utility.yul\":7187:7304   */\n      pop\n        /* \"#utility.yul\":6982:7311   */\n      swap3\n      swap2\n      pop\n      pop\n      jump\t// out\n        /* \"#utility.yul\":7317:7435   */\n    tag_216:\n        /* \"#utility.yul\":7404:7428   */\n      tag_329\n        /* \"#utility.yul\":7422:7427   */\n      dup2\n        /* \"#utility.yul\":7404:7428   */\n      tag_213\n      jump\t// in\n    tag_329:\n        /* \"#utility.yul\":7399:7402   */\n      dup3\n        /* \"#utility.yul\":7392:7429   */\n      mstore\n        /* \"#utility.yul\":7317:7435   */\n      pop\n      pop\n      jump\t// out\n        /* \"#utility.yul\":7441:7663   */\n    tag_39:\n        /* \"#utility.yul\":7534:7538   */\n      0x00\n        /* \"#utility.yul\":7572:7574   */\n      0x20\n        /* \"#utility.yul\":7561:7570   */\n      dup3\n        /* \"#utility.yul\":7557:7575   */\n      add\n        /* \"#utility.yul\":7549:7575   */\n      swap1\n      pop\n        /* \"#utility.yul\":7585:7656   */\n      tag_331\n        /* \"#utility.yul\":7653:7654   */\n      0x00\n        /* \"#utility.yul\":7642:7651   */\n      dup4\n        /* \"#utility.yul\":7638:7655   */\n      add\n        /* \"#utility.yul\":7629:7635   */\n      dup5\n        /* \"#utility.yul\":7585:7656   */\n      tag_216\n      jump\t// in\n    tag_331:\n        /* \"#utility.yul\":7441:7663   */\n      swap3\n      swap2\n      pop\n      pop\n      jump\t// out\n        /* \"#utility.yul\":7669:7849   */\n    tag_57:\n        /* \"#utility.yul\":7717:7794   */\n      0x4e487b7100000000000000000000000000000000000000000000000000000000\n        /* \"#utility.yul\":7714:7715   */\n      0x00\n        /* \"#utility.yul\":7707:7795   */\n      mstore\n        /* \"#utility.yul\":7814:7818   */\n      0x32\n        /* \"#utility.yul\":7811:7812   */\n      0x04\n        /* \"#utility.yul\":7804:7819   */\n      mstore\n        /* \"#utility.yul\":7838:7842   */\n      0x24\n        /* \"#utility.yul\":7835:7836   */\n      0x00\n        /* \"#utility.yul\":7828:7843   */\n      revert\n        /* \"#utility.yul\":7855:8035   */\n    tag_217:\n        /* \"#utility.yul\":7903:7980   */\n      0x4e487b7100000000000000000000000000000000000000000000000000000000\n        /* \"#utility.yul\":7900:7901   */\n      0x00\n        /* \"#utility.yul\":7893:7981   */\n      mstore\n        /* \"#utility.yul\":8000:8004   */\n      0x11\n        /* \"#utility.yul\":7997:7998   */\n      0x04\n        /* \"#utility.yul\":7990:8005   */\n      mstore\n        /* \"#utility.yul\":8024:8028   */\n      0x24\n        /* \"#utility.yul\":8021:8022   */\n      0x00\n        /* \"#utility.yul\":8014:8029   */\n      revert\n        /* \"#utility.yul\":8041:8235   */\n    tag_61:\n        /* \"#utility.yul\":8081:8085   */\n      0x00\n        /* \"#utility.yul\":8101:8121   */\n      tag_335\n        /* \"#utility.yul\":8119:8120   */\n      dup3\n        /* \"#utility.yul\":8101:8121   */\n      tag_204\n      jump\t// in\n    tag_335:\n        /* \"#utility.yul\":8096:8121   */\n      swap2\n      pop\n        /* \"#utility.yul\":8135:8155   */\n      tag_336\n        /* \"#utility.yul\":8153:8154   */\n      dup4\n        /* \"#utility.yul\":8135:8155   */\n      tag_204\n      jump\t// in\n    tag_336:\n        /* \"#utility.yul\":8130:8155   */\n      swap3\n      pop\n        /* \"#utility.yul\":8179:8180   */\n      dup3\n        /* \"#utility.yul\":8176:8177   */\n      dup3\n        /* \"#utility.yul\":8172:8181   */\n      sub\n        /* \"#utility.yul\":8164:8181   */\n      swap1\n      pop\n        /* \"#utility.yul\":8203:8204   */\n      dup2\n        /* \"#utility.yul\":8197:8201   */\n      dup2\n        /* \"#utility.yul\":8194:8205   */\n      gt\n        /* \"#utility.yul\":8191:8228   */\n      iszero\n      tag_337\n      jumpi\n        /* \"#utility.yul\":8208:8226   */\n      tag_338\n      tag_217\n      jump\t// in\n    tag_338:\n        /* \"#utility.yul\":8191:8228   */\n    tag_337:\n        /* \"#utility.yul\":8041:8235   */\n      swap3\n      swap2\n      pop\n      pop\n      jump\t// out\n        /* \"#utility.yul\":8241:8651   */\n    tag_63:\n        /* \"#utility.yul\":8281:8288   */\n      0x00\n        /* \"#utility.yul\":8304:8324   */\n      tag_340\n        /* \"#utility.yul\":8322:8323   */\n      dup3\n        /* \"#utility.yul\":8304:8324   */\n      tag_204\n      jump\t// in\n    tag_340:\n        /* \"#utility.yul\":8299:8324   */\n      swap2\n      pop\n        /* \"#utility.yul\":8338:8358   */\n      tag_341\n        /* \"#utility.yul\":8356:8357   */\n      dup4\n        /* \"#utility.yul\":8338:8358   */\n      tag_204\n      jump\t// in\n    tag_341:\n        /* \"#utility.yul\":8333:8358   */\n      swap3\n      pop\n        /* \"#utility.yul\":8393:8394   */\n      dup3\n        /* \"#utility.yul\":8390:8391   */\n      dup3\n        /* \"#utility.yul\":8386:8395   */\n      mul\n        /* \"#utility.yul\":8415:8445   */\n      tag_342\n        /* \"#utility.yul\":8433:8444   */\n      dup2\n        /* \"#utility.yul\":8415:8445   */\n      tag_204\n      jump\t// in\n    tag_342:\n        /* \"#utility.yul\":8404:8445   */\n      swap2\n      pop\n        /* \"#utility.yul\":8594:8595   */\n      dup3\n        /* \"#utility.yul\":8585:8592   */\n      dup3\n        /* \"#utility.yul\":8581:8596   */\n      div\n        /* \"#utility.yul\":8578:8579   */\n      dup5\n        /* \"#utility.yul\":8575:8597   */\n      eq\n        /* \"#utility.yul\":8555:8556   */\n      dup4\n        /* \"#utility.yul\":8548:8557   */\n      iszero\n        /* \"#utility.yul\":8528:8611   */\n      or\n        /* \"#utility.yul\":8505:8644   */\n      tag_343\n      jumpi\n        /* \"#utility.yul\":8624:8642   */\n      tag_344\n      tag_217\n      jump\t// in\n    tag_344:\n        /* \"#utility.yul\":8505:8644   */\n    tag_343:\n        /* \"#utility.yul\":8289:8651   */\n      pop\n        /* \"#utility.yul\":8241:8651   */\n      swap3\n      swap2\n      pop\n      pop\n      jump\t// out\n        /* \"#utility.yul\":8657:8848   */\n    tag_65:\n        /* \"#utility.yul\":8697:8700   */\n      0x00\n        /* \"#utility.yul\":8716:8736   */\n      tag_346\n        /* \"#utility.yul\":8734:8735   */\n      dup3\n        /* \"#utility.yul\":8716:8736   */\n      tag_204\n      jump\t// in\n    tag_346:\n        /* \"#utility.yul\":8711:8736   */\n      swap2\n      pop\n        /* \"#utility.yul\":8750:8770   */\n      tag_347\n        /* \"#utility.yul\":8768:8769   */\n      dup4\n        /* \"#utility.yul\":8750:8770   */\n      tag_204\n      jump\t// in\n    tag_347:\n        /* \"#utility.yul\":8745:8770   */\n      swap3\n      pop\n        /* \"#utility.yul\":8793:8794   */\n      dup3\n        /* \"#utility.yul\":8790:8791   */\n      dup3\n        /* \"#utility.yul\":8786:8795   */\n      add\n        /* \"#utility.yul\":8779:8795   */\n      swap1\n      pop\n        /* \"#utility.yul\":8814:8817   */\n      dup1\n        /* \"#utility.yul\":8811:8812   */\n      dup3\n        /* \"#utility.yul\":8808:8818   */\n      gt\n        /* \"#utility.yul\":8805:8841   */\n      iszero\n      tag_348\n      jumpi\n        /* \"#utility.yul\":8821:8839   */\n      tag_349\n      tag_217\n      jump\t// in\n    tag_349:\n        /* \"#utility.yul\":8805:8841   */\n    tag_348:\n        /* \"#utility.yul\":8657:8848   */\n      swap3\n      swap2\n      pop\n      pop\n      jump\t// out\n        /* \"#utility.yul\":8854:9087   */\n    tag_67:\n        /* \"#utility.yul\":8893:8896   */\n      0x00\n        /* \"#utility.yul\":8916:8940   */\n      tag_351\n        /* \"#utility.yul\":8934:8939   */\n      dup3\n        /* \"#utility.yul\":8916:8940   */\n      tag_204\n      jump\t// in\n    tag_351:\n        /* \"#utility.yul\":8907:8940   */\n      swap2\n      pop\n        /* \"#utility.yul\":8962:9028   */\n      0xffffffffffffffffffffffffffffffffffffffffffffffffffffffffffffffff\n        /* \"#utility.yul\":8955:8960   */\n      dup3\n        /* \"#utility.yul\":8952:9029   */\n      sub\n        /* \"#utility.yul\":8949:9052   */\n      tag_352\n      jumpi\n        /* \"#utility.yul\":9032:9050   */\n      tag_353\n      tag_217\n      jump\t// in\n    tag_353:\n        /* \"#utility.yul\":8949:9052   */\n    tag_352:\n        /* \"#utility.yul\":9079:9080   */\n      0x01\n        /* \"#utility.yul\":9072:9077   */\n      dup3\n        /* \"#utility.yul\":9068:9081   */\n      add\n        /* \"#utility.yul\":9061:9081   */\n      swap1\n      pop\n        /* \"#utility.yul\":8854:9087   */\n      swap2\n      swap1\n      pop\n      jump\t// out\n        /* \"#utility.yul\":9093:9236   */\n    tag_218:\n        /* \"#utility.yul\":9150:9155   */\n      0x00\n        /* \"#utility.yul\":9181:9187   */\n      dup2\n        /* \"#utility.yul\":9175:9188   */\n      mload\n        /* \"#utility.yul\":9166:9188   */\n      swap1\n      pop\n        /* \"#utility.yul\":9197:9230   */\n      tag_355\n        /* \"#utility.yul\":9224:9229   */\n      dup2\n        /* \"#utility.yul\":9197:9230   */\n      tag_214\n      jump\t// in\n    tag_355:\n        /* \"#utility.yul\":9093:9236   */\n      swap3\n      swap2\n      pop\n      pop\n      jump\t// out\n        /* \"#utility.yul\":9242:9593   */\n    tag_98:\n        /* \"#utility.yul\":9312:9318   */\n      0x00\n        /* \"#utility.yul\":9361:9363   */\n      0x20\n        /* \"#utility.yul\":9349:9358   */\n      dup3\n        /* \"#utility.yul\":9340:9347   */\n      dup5\n        /* \"#utility.yul\":9336:9359   */\n      sub\n        /* \"#utility.yul\":9332:9364   */\n      slt\n        /* \"#utility.yul\":9329:9448   */\n      iszero\n      tag_357\n      jumpi\n        /* \"#utility.yul\":9367:9446   */\n      tag_358\n      tag_193\n      jump\t// in\n    tag_358:\n        /* \"#utility.yul\":9329:9448   */\n    tag_357:\n        /* \"#utility.yul\":9487:9488   */\n      0x00\n        /* \"#utility.yul\":9512:9576   */\n      tag_359\n        /* \"#utility.yul\":9568:9575   */\n      dup5\n        /* \"#utility.yul\":9559:9565   */\n      dup3\n        /* \"#utility.yul\":9548:9557   */\n      dup6\n        /* \"#utility.yul\":9544:9566   */\n      add\n        /* \"#utility.yul\":9512:9576   */\n      tag_218\n      jump\t// in\n    tag_359:\n        /* \"#utility.yul\":9502:9576   */\n      swap2\n      pop\n        /* \"#utility.yul\":9458:9586   */\n      pop\n        /* \"#utility.yul\":9242:9593   */\n      swap3\n      swap2\n      pop\n      pop\n      jump\t// out\n        /* \"#utility.yul\":9599:9778   */\n    tag_219:\n        /* \"#utility.yul\":9739:9770   */\n      0x6f6e6c7920746865206964656e74697479206f776e65722063616e2020000000\n        /* \"#utility.yul\":9735:9736   */\n      0x00\n        /* \"#utility.yul\":9727:9733   */\n      dup3\n        /* \"#utility.yul\":9723:9737   */\n      add\n        /* \"#utility.yul\":9716:9771   */\n      mstore\n        /* \"#utility.yul\":9599:9778   */\n      pop\n      jump\t// out\n        /* \"#utility.yul\":9784:10150   */\n    tag_220:\n        /* \"#utility.yul\":9926:9929   */\n      0x00\n        /* \"#utility.yul\":9947:10014   */\n      tag_362\n        /* \"#utility.yul\":10011:10013   */\n      0x1d\n        /* \"#utility.yul\":10006:10009   */\n      dup4\n        /* \"#utility.yul\":9947:10014   */\n      tag_209\n      jump\t// in\n    tag_362:\n        /* \"#utility.yul\":9940:10014   */\n      swap2\n      pop\n        /* \"#utility.yul\":10023:10116   */\n      tag_363\n        /* \"#utility.yul\":10112:10115   */\n      dup3\n        /* \"#utility.yul\":10023:10116   */\n      tag_219\n      jump\t// in\n    tag_363:\n        /* \"#utility.yul\":10141:10143   */\n      0x20\n        /* \"#utility.yul\":10136:10139   */\n      dup3\n        /* \"#utility.yul\":10132:10144   */\n      add\n        /* \"#utility.yul\":10125:10144   */\n      swap1\n      pop\n        /* \"#utility.yul\":9784:10150   */\n      swap2\n      swap1\n      pop\n      jump\t// out\n        /* \"#utility.yul\":10156:10575   */\n    tag_101:\n        /* \"#utility.yul\":10322:10326   */\n      0x00\n        /* \"#utility.yul\":10360:10362   */\n      0x20\n        /* \"#utility.yul\":10349:10358   */\n      dup3\n        /* \"#utility.yul\":10345:10363   */\n      add\n        /* \"#utility.yul\":10337:10363   */\n      swap1\n      pop\n        /* \"#utility.yul\":10409:10418   */\n      dup2\n        /* \"#utility.yul\":10403:10407   */\n      dup2\n        /* \"#utility.yul\":10399:10419   */\n      sub\n        /* \"#utility.yul\":10395:10396   */\n      0x00\n        /* \"#utility.yul\":10384:10393   */\n      dup4\n        /* \"#utility.yul\":10380:10397   */\n      add\n        /* \"#utility.yul\":10373:10420   */\n      mstore\n        /* \"#utility.yul\":10437:10568   */\n      tag_365\n        /* \"#utility.yul\":10563:10567   */\n      dup2\n        /* \"#utility.yul\":10437:10568   */\n      tag_220\n      jump\t// in\n    tag_365:\n        /* \"#utility.yul\":10429:10568   */\n      swap1\n      pop\n        /* \"#utility.yul\":10156:10575   */\n      swap2\n      swap1\n      pop\n      jump\t// out\n        /* \"#utility.yul\":10581:10761   */\n    tag_221:\n        /* \"#utility.yul\":10629:10706   */\n      0x4e487b7100000000000000000000000000000000000000000000000000000000\n        /* \"#utility.yul\":10626:10627   */\n      0x00\n        /* \"#utility.yul\":10619:10707   */\n      mstore\n        /* \"#utility.yul\":10726:10730   */\n      0x22\n        /* \"#utility.yul\":10723:10724   */\n      0x04\n        /* \"#utility.yul\":10716:10731   */\n      mstore\n        /* \"#utility.yul\":10750:10754   */\n      0x24\n        /* \"#utility.yul\":10747:10748   */\n      0x00\n        /* \"#utility.yul\":10740:10755   */\n      revert\n        /* \"#utility.yul\":10767:11087   */\n    tag_106:\n        /* \"#utility.yul\":10811:10817   */\n      0x00\n        /* \"#utility.yul\":10848:10849   */\n      0x02\n        /* \"#utility.yul\":10842:10846   */\n      dup3\n        /* \"#utility.yul\":10838:10850   */\n      div\n        /* \"#utility.yul\":10828:10850   */\n      swap1\n      pop\n        /* \"#utility.yul\":10895:10896   */\n      0x01\n        /* \"#utility.yul\":10889:10893   */\n      dup3\n        /* \"#utility.yul\":10885:10897   */\n      and\n        /* \"#utility.yul\":10916:10934   */\n      dup1\n        /* \"#utility.yul\":10906:10987   */\n      tag_368\n      jumpi\n        /* \"#utility.yul\":10972:10976   */\n      0x7f\n        /* \"#utility.yul\":10964:10970   */\n      dup3\n        /* \"#utility.yul\":10960:10977   */\n      and\n        /* \"#utility.yul\":10950:10977   */\n      swap2\n      pop\n        /* \"#utility.yul\":10906:10987   */\n    tag_368:\n        /* \"#utility.yul\":11034:11036   */\n      0x20\n        /* \"#utility.yul\":11026:11032   */\n      dup3\n        /* \"#utility.yul\":11023:11037   */\n      lt\n        /* \"#utility.yul\":11003:11021   */\n      dup2\n        /* \"#utility.yul\":11000:11038   */\n      sub\n        /* \"#utility.yul\":10997:11081   */\n      tag_369\n      jumpi\n        /* \"#utility.yul\":11053:11071   */\n      tag_370\n      tag_221\n      jump\t// in\n    tag_370:\n        /* \"#utility.yul\":10997:11081   */\n    tag_369:\n        /* \"#utility.yul\":10818:11087   */\n      pop\n        /* \"#utility.yul\":10767:11087   */\n      swap2\n      swap1\n      pop\n      jump\t// out\n        /* \"#utility.yul\":11093:11234   */\n    tag_222:\n        /* \"#utility.yul\":11142:11146   */\n      0x00\n        /* \"#utility.yul\":11165:11168   */\n      dup2\n        /* \"#utility.yul\":11157:11168   */\n      swap1\n      pop\n        /* \"#utility.yul\":11188:11191   */\n      dup2\n        /* \"#utility.yul\":11185:11186   */\n      0x00\n        /* \"#utility.yul\":11178:11192   */\n      mstore\n        /* \"#utility.yul\":11222:11226   */\n      0x20\n        /* \"#utility.yul\":11219:11220   */\n      0x00\n        /* \"#utility.yul\":11209:11227   */\n      keccak256\n        /* \"#utility.yul\":11201:11227   */\n      swap1\n      pop\n        /* \"#utility.yul\":11093:11234   */\n      swap2\n      swap1\n      pop\n      jump\t// out\n        /* \"#utility.yul\":11240:11333   */\n    tag_223:\n        /* \"#utility.yul\":11277:11283   */\n      0x00\n        /* \"#utility.yul\":11324:11326   */\n      0x20\n        /* \"#utility.yul\":11319:11321   */\n      0x1f\n        /* \"#utility.yul\":11312:11317   */\n      dup4\n        /* \"#utility.yul\":11308:11322   */\n      add\n        /* \"#utility.yul\":11304:11327   */\n      div\n        /* \"#utility.yul\":11294:11327   */\n      swap1\n      pop\n        /* \"#utility.yul\":11240:11333   */\n      swap2\n      swap1\n      pop\n      jump\t// out\n        /* \"#utility.yul\":11339:11446   */\n    tag_224:\n        /* \"#utility.yul\":11383:11391   */\n      0x00\n        /* \"#utility.yul\":11433:11438   */\n      dup3\n        /* \"#utility.yul\":11427:11431   */\n      dup3\n        /* \"#utility.yul\":11423:11439   */\n      shl\n        /* \"#utility.yul\":11402:11439   */\n      swap1\n      pop\n        /* \"#utility.yul\":11339:11446   */\n      swap3\n      swap2\n      pop\n      pop\n      jump\t// out\n        /* \"#utility.yul\":11452:11845   */\n    tag_225:\n        /* \"#utility.yul\":11521:11527   */\n      0x00\n        /* \"#utility.yul\":11571:11572   */\n      0x08\n        /* \"#utility.yul\":11559:11569   */\n      dup4\n        /* \"#utility.yul\":11555:11573   */\n      mul\n        /* \"#utility.yul\":11594:11691   */\n      tag_375\n        /* \"#utility.yul\":11624:11690   */\n      0xffffffffffffffffffffffffffffffffffffffffffffffffffffffffffffffff\n        /* \"#utility.yul\":11613:11622   */\n      dup3\n        /* \"#utility.yul\":11594:11691   */\n      tag_224\n      jump\t// in\n    tag_375:\n        /* \"#utility.yul\":11712:11751   */\n      tag_376\n        /* \"#utility.yul\":11742:11750   */\n      dup7\n        /* \"#utility.yul\":11731:11740   */\n      dup4\n        /* \"#utility.yul\":11712:11751   */\n      tag_224\n      jump\t// in\n    tag_376:\n        /* \"#utility.yul\":11700:11751   */\n      swap6\n      pop\n        /* \"#utility.yul\":11784:11788   */\n      dup1\n        /* \"#utility.yul\":11780:11789   */\n      not\n        /* \"#utility.yul\":11773:11778   */\n      dup5\n        /* \"#utility.yul\":11769:11790   */\n      and\n        /* \"#utility.yul\":11760:11790   */\n      swap4\n      pop\n        /* \"#utility.yul\":11833:11837   */\n      dup1\n        /* \"#utility.yul\":11823:11831   */\n      dup7\n        /* \"#utility.yul\":11819:11838   */\n      and\n        /* \"#utility.yul\":11812:11817   */\n      dup5\n        /* \"#utility.yul\":11809:11839   */\n      or\n        /* \"#utility.yul\":11799:11839   */\n      swap3\n      pop\n        /* \"#utility.yul\":11528:11845   */\n      pop\n      pop\n        /* \"#utility.yul\":11452:11845   */\n      swap4\n      swap3\n      pop\n      pop\n      pop\n      jump\t// out\n        /* \"#utility.yul\":11851:11911   */\n    tag_226:\n        /* \"#utility.yul\":11879:11882   */\n      0x00\n        /* \"#utility.yul\":11900:11905   */\n      dup2\n        /* \"#utility.yul\":11893:11905   */\n      swap1\n      pop\n        /* \"#utility.yul\":11851:11911   */\n      swap2\n      swap1\n      pop\n      jump\t// out\n        /* \"#utility.yul\":11917:12059   */\n    tag_227:\n        /* \"#utility.yul\":11967:11976   */\n      0x00\n        /* \"#utility.yul\":12000:12053   */\n      tag_379\n        /* \"#utility.yul\":12018:12052   */\n      tag_380\n        /* \"#utility.yul\":12027:12051   */\n      tag_381\n        /* \"#utility.yul\":12045:12050   */\n      dup5\n        /* \"#utility.yul\":12027:12051   */\n      tag_204\n      jump\t// in\n    tag_381:\n        /* \"#utility.yul\":12018:12052   */\n      tag_226\n      jump\t// in\n    tag_380:\n        /* \"#utility.yul\":12000:12053   */\n      tag_204\n      jump\t// in\n    tag_379:\n        /* \"#utility.yul\":11987:12053   */\n      swap1\n      pop\n        /* \"#utility.yul\":11917:12059   */\n      swap2\n      swap1\n      pop\n      jump\t// out\n        /* \"#utility.yul\":12065:12140   */\n    tag_228:\n        /* \"#utility.yul\":12108:12111   */\n      0x00\n        /* \"#utility.yul\":12129:12134   */\n      dup2\n        /* \"#utility.yul\":12122:12134   */\n      swap1\n      pop\n        /* \"#utility.yul\":12065:12140   */\n      swap2\n      swap1\n      pop\n      jump\t// out\n        /* \"#utility.yul\":12146:12415   */\n    tag_229:\n        /* \"#utility.yul\":12256:12295   */\n      tag_384\n        /* \"#utility.yul\":12287:12294   */\n      dup4\n        /* \"#utility.yul\":12256:12295   */\n      tag_227\n      jump\t// in\n    tag_384:\n        /* \"#utility.yul\":12317:12408   */\n      tag_385\n        /* \"#utility.yul\":12366:12407   */\n      tag_386\n        /* \"#utility.yul\":12390:12406   */\n      dup3\n        /* \"#utility.yul\":12366:12407   */\n      tag_228\n      jump\t// in\n    tag_386:\n        /* \"#utility.yul\":12358:12364   */\n      dup5\n        /* \"#utility.yul\":12351:12355   */\n      dup5\n        /* \"#utility.yul\":12345:12356   */\n      sload\n        /* \"#utility.yul\":12317:12408   */\n      tag_225\n      jump\t// in\n    tag_385:\n        /* \"#utility.yul\":12311:12315   */\n      dup3\n        /* \"#utility.yul\":12304:12409   */\n      sstore\n        /* \"#utility.yul\":12222:12415   */\n      pop\n        /* \"#utility.yul\":12146:12415   */\n      pop\n      pop\n      pop\n      jump\t// out\n        /* \"#utility.yul\":12421:12494   */\n    tag_230:\n        /* \"#utility.yul\":12466:12469   */\n      0x00\n        /* \"#utility.yul\":12421:12494   */\n      swap1\n      jump\t// out\n        /* \"#utility.yul\":12500:12689   */\n    tag_231:\n        /* \"#utility.yul\":12577:12609   */\n      tag_389\n      tag_230\n      jump\t// in\n    tag_389:\n        /* \"#utility.yul\":12618:12683   */\n      tag_390\n        /* \"#utility.yul\":12676:12682   */\n      dup2\n        /* \"#utility.yul\":12668:12674   */\n      dup5\n        /* \"#utility.yul\":12662:12666   */\n      dup5\n        /* \"#utility.yul\":12618:12683   */\n      tag_229\n      jump\t// in\n    tag_390:\n        /* \"#utility.yul\":12553:12689   */\n      pop\n        /* \"#utility.yul\":12500:12689   */\n      pop\n      pop\n      jump\t// out\n        /* \"#utility.yul\":12695:12881   */\n    tag_232:\n        /* \"#utility.yul\":12755:12875   */\n    tag_392:\n        /* \"#utility.yul\":12772:12775   */\n      dup2\n        /* \"#utility.yul\":12765:12770   */\n      dup2\n        /* \"#utility.yul\":12762:12776   */\n      lt\n        /* \"#utility.yul\":12755:12875   */\n      iszero\n      tag_394\n      jumpi\n        /* \"#utility.yul\":12826:12865   */\n      tag_395\n        /* \"#utility.yul\":12863:12864   */\n      0x00\n        /* \"#utility.yul\":12856:12861   */\n      dup3\n        /* \"#utility.yul\":12826:12865   */\n      tag_231\n      jump\t// in\n    tag_395:\n        /* \"#utility.yul\":12799:12800   */\n      0x01\n        /* \"#utility.yul\":12792:12797   */\n      dup2\n        /* \"#utility.yul\":12788:12801   */\n      add\n        /* \"#utility.yul\":12779:12801   */\n      swap1\n      pop\n        /* \"#utility.yul\":12755:12875   */\n      jump(tag_392)\n    tag_394:\n        /* \"#utility.yul\":12695:12881   */\n      pop\n      pop\n      jump\t// out\n        /* \"#utility.yul\":12887:13430   */\n    tag_233:\n        /* \"#utility.yul\":12988:12990   */\n      0x1f\n        /* \"#utility.yul\":12983:12986   */\n      dup3\n        /* \"#utility.yul\":12980:12991   */\n      gt\n        /* \"#utility.yul\":12977:13423   */\n      iszero\n      tag_397\n      jumpi\n        /* \"#utility.yul\":13022:13060   */\n      tag_398\n        /* \"#utility.yul\":13054:13059   */\n      dup2\n        /* \"#utility.yul\":13022:13060   */\n      tag_222\n      jump\t// in\n    tag_398:\n        /* \"#utility.yul\":13106:13135   */\n      tag_399\n        /* \"#utility.yul\":13124:13134   */\n      dup5\n        /* \"#utility.yul\":13106:13135   */\n      tag_223\n      jump\t// in\n    tag_399:\n        /* \"#utility.yul\":13096:13104   */\n      dup2\n        /* \"#utility.yul\":13092:13136   */\n      add\n        /* \"#utility.yul\":13289:13291   */\n      0x20\n        /* \"#utility.yul\":13277:13287   */\n      dup6\n        /* \"#utility.yul\":13274:13292   */\n      lt\n        /* \"#utility.yul\":13271:13320   */\n      iszero\n      tag_400\n      jumpi\n        /* \"#utility.yul\":13310:13318   */\n      dup2\n        /* \"#utility.yul\":13295:13318   */\n      swap1\n      pop\n        /* \"#utility.yul\":13271:13320   */\n    tag_400:\n        /* \"#utility.yul\":13333:13413   */\n      tag_401\n        /* \"#utility.yul\":13389:13411   */\n      tag_402\n        /* \"#utility.yul\":13407:13410   */\n      dup6\n        /* \"#utility.yul\":13389:13411   */\n      tag_223\n      jump\t// in\n    tag_402:\n        /* \"#utility.yul\":13379:13387   */\n      dup4\n        /* \"#utility.yul\":13375:13412   */\n      add\n        /* \"#utility.yul\":13362:13373   */\n      dup3\n        /* \"#utility.yul\":13333:13413   */\n      tag_232\n      jump\t// in\n    tag_401:\n        /* \"#utility.yul\":12992:13423   */\n      pop\n      pop\n        /* \"#utility.yul\":12977:13423   */\n    tag_397:\n        /* \"#utility.yul\":12887:13430   */\n      pop\n      pop\n      pop\n      jump\t// out\n        /* \"#utility.yul\":13436:13553   */\n    tag_234:\n        /* \"#utility.yul\":13490:13498   */\n      0x00\n        /* \"#utility.yul\":13540:13545   */\n      dup3\n        /* \"#utility.yul\":13534:13538   */\n      dup3\n        /* \"#utility.yul\":13530:13546   */\n      shr\n        /* \"#utility.yul\":13509:13546   */\n      swap1\n      pop\n        /* \"#utility.yul\":13436:13553   */\n      swap3\n      swap2\n      pop\n      pop\n      jump\t// out\n        /* \"#utility.yul\":13559:13728   */\n    tag_235:\n        /* \"#utility.yul\":13603:13609   */\n      0x00\n        /* \"#utility.yul\":13636:13687   */\n      tag_405\n        /* \"#utility.yul\":13684:13685   */\n      0x00\n        /* \"#utility.yul\":13680:13686   */\n      not\n        /* \"#utility.yul\":13672:13677   */\n      dup5\n        /* \"#utility.yul\":13669:13670   */\n      0x08\n        /* \"#utility.yul\":13665:13678   */\n      mul\n        /* \"#utility.yul\":13636:13687   */\n      tag_234\n      jump\t// in\n    tag_405:\n        /* \"#utility.yul\":13632:13688   */\n      not\n        /* \"#utility.yul\":13717:13721   */\n      dup1\n        /* \"#utility.yul\":13711:13715   */\n      dup4\n        /* \"#utility.yul\":13707:13722   */\n      and\n        /* \"#utility.yul\":13697:13722   */\n      swap2\n      pop\n        /* \"#utility.yul\":13610:13728   */\n      pop\n        /* \"#utility.yul\":13559:13728   */\n      swap3\n      swap2\n      pop\n      pop\n      jump\t// out\n        /* \"#utility.yul\":13733:14028   */\n    tag_236:\n        /* \"#utility.yul\":13809:13813   */\n      0x00\n        /* \"#utility.yul\":13955:13984   */\n      tag_407\n        /* \"#utility.yul\":13980:13983   */\n      dup4\n        /* \"#utility.yul\":13974:13978   */\n      dup4\n        /* \"#utility.yul\":13955:13984   */\n      tag_235\n      jump\t// in\n    tag_407:\n        /* \"#utility.yul\":13947:13984   */\n      swap2\n      pop\n        /* \"#utility.yul\":14017:14020   */\n      dup3\n        /* \"#utility.yul\":14014:14015   */\n      0x02\n        /* \"#utility.yul\":14010:14021   */\n      mul\n        /* \"#utility.yul\":14004:14008   */\n      dup3\n        /* \"#utility.yul\":14001:14022   */\n      or\n        /* \"#utility.yul\":13993:14022   */\n      swap1\n      pop\n        /* \"#utility.yul\":13733:14028   */\n      swap3\n      swap2\n      pop\n      pop\n      jump\t// out\n        /* \"#utility.yul\":14033:15428   */\n    tag_104:\n        /* \"#utility.yul\":14150:14187   */\n      tag_409\n        /* \"#utility.yul\":14183:14186   */\n      dup3\n        /* \"#utility.yul\":14150:14187   */\n      tag_208\n      jump\t// in\n    tag_409:\n        /* \"#utility.yul\":14252:14270   */\n      0xffffffffffffffff\n        /* \"#utility.yul\":14244:14250   */\n      dup2\n        /* \"#utility.yul\":14241:14271   */\n      gt\n        /* \"#utility.yul\":14238:14294   */\n      iszero\n      tag_410\n      jumpi\n        /* \"#utility.yul\":14274:14292   */\n      tag_411\n      tag_72\n      jump\t// in\n    tag_411:\n        /* \"#utility.yul\":14238:14294   */\n    tag_410:\n        /* \"#utility.yul\":14318:14356   */\n      tag_412\n        /* \"#utility.yul\":14350:14354   */\n      dup3\n        /* \"#utility.yul\":14344:14355   */\n      sload\n        /* \"#utility.yul\":14318:14356   */\n      tag_106\n      jump\t// in\n    tag_412:\n        /* \"#utility.yul\":14403:14470   */\n      tag_413\n        /* \"#utility.yul\":14463:14469   */\n      dup3\n        /* \"#utility.yul\":14455:14461   */\n      dup3\n        /* \"#utility.yul\":14449:14453   */\n      dup6\n        /* \"#utility.yul\":14403:14470   */\n      tag_233\n      jump\t// in\n    tag_413:\n        /* \"#utility.yul\":14497:14498   */\n      0x00\n        /* \"#utility.yul\":14521:14525   */\n      0x20\n        /* \"#utility.yul\":14508:14525   */\n      swap1\n      pop\n        /* \"#utility.yul\":14553:14555   */\n      0x1f\n        /* \"#utility.yul\":14545:14551   */\n      dup4\n        /* \"#utility.yul\":14542:14556   */\n      gt\n        /* \"#utility.yul\":14570:14571   */\n      0x01\n        /* \"#utility.yul\":14565:15183   */\n      dup2\n      eq\n      tag_415\n      jumpi\n        /* \"#utility.yul\":15227:15228   */\n      0x00\n        /* \"#utility.yul\":15244:15250   */\n      dup5\n        /* \"#utility.yul\":15241:15318   */\n      iszero\n      tag_416\n      jumpi\n        /* \"#utility.yul\":15293:15302   */\n      dup3\n        /* \"#utility.yul\":15288:15291   */\n      dup8\n        /* \"#utility.yul\":15284:15303   */\n      add\n        /* \"#utility.yul\":15278:15304   */\n      mload\n        /* \"#utility.yul\":15269:15304   */\n      swap1\n      pop\n        /* \"#utility.yul\":15241:15318   */\n    tag_416:\n        /* \"#utility.yul\":15344:15411   */\n      tag_417\n        /* \"#utility.yul\":15404:15410   */\n      dup6\n        /* \"#utility.yul\":15397:15402   */\n      dup3\n        /* \"#utility.yul\":15344:15411   */\n      tag_236\n      jump\t// in\n    tag_417:\n        /* \"#utility.yul\":15338:15342   */\n      dup7\n        /* \"#utility.yul\":15331:15412   */\n      sstore\n        /* \"#utility.yul\":15200:15422   */\n      pop\n        /* \"#utility.yul\":14535:15422   */\n      jump(tag_414)\n        /* \"#utility.yul\":14565:15183   */\n    tag_415:\n        /* \"#utility.yul\":14617:14621   */\n      0x1f\n        /* \"#utility.yul\":14613:14622   */\n      not\n        /* \"#utility.yul\":14605:14611   */\n      dup5\n        /* \"#utility.yul\":14601:14623   */\n      and\n        /* \"#utility.yul\":14651:14688   */\n      tag_418\n        /* \"#utility.yul\":14683:14687   */\n      dup7\n        /* \"#utility.yul\":14651:14688   */\n      tag_222\n      jump\t// in\n    tag_418:\n        /* \"#utility.yul\":14710:14711   */\n      0x00\n        /* \"#utility.yul\":14724:14932   */\n    tag_419:\n        /* \"#utility.yul\":14738:14745   */\n      dup3\n        /* \"#utility.yul\":14735:14736   */\n      dup2\n        /* \"#utility.yul\":14732:14746   */\n      lt\n        /* \"#utility.yul\":14724:14932   */\n      iszero\n      tag_421\n      jumpi\n        /* \"#utility.yul\":14817:14826   */\n      dup5\n        /* \"#utility.yul\":14812:14815   */\n      dup10\n        /* \"#utility.yul\":14808:14827   */\n      add\n        /* \"#utility.yul\":14802:14828   */\n      mload\n        /* \"#utility.yul\":14794:14800   */\n      dup3\n        /* \"#utility.yul\":14787:14829   */\n      sstore\n        /* \"#utility.yul\":14868:14869   */\n      0x01\n        /* \"#utility.yul\":14860:14866   */\n      dup3\n        /* \"#utility.yul\":14856:14870   */\n      add\n        /* \"#utility.yul\":14846:14870   */\n      swap2\n      pop\n        /* \"#utility.yul\":14915:14917   */\n      0x20\n        /* \"#utility.yul\":14904:14913   */\n      dup6\n        /* \"#utility.yul\":14900:14918   */\n      add\n        /* \"#utility.yul\":14887:14918   */\n      swap5\n      pop\n        /* \"#utility.yul\":14761:14765   */\n      0x20\n        /* \"#utility.yul\":14758:14759   */\n      dup2\n        /* \"#utility.yul\":14754:14766   */\n      add\n        /* \"#utility.yul\":14749:14766   */\n      swap1\n      pop\n        /* \"#utility.yul\":14724:14932   */\n      jump(tag_419)\n    tag_421:\n        /* \"#utility.yul\":14960:14966   */\n      dup7\n        /* \"#utility.yul\":14951:14958   */\n      dup4\n        /* \"#utility.yul\":14948:14967   */\n      lt\n        /* \"#utility.yul\":14945:15124   */\n      iszero\n      tag_422\n      jumpi\n        /* \"#utility.yul\":15018:15027   */\n      dup5\n        /* \"#utility.yul\":15013:15016   */\n      dup10\n        /* \"#utility.yul\":15009:15028   */\n      add\n        /* \"#utility.yul\":15003:15029   */\n      mload\n        /* \"#utility.yul\":15061:15109   */\n      tag_423\n        /* \"#utility.yul\":15103:15107   */\n      0x1f\n        /* \"#utility.yul\":15095:15101   */\n      dup10\n        /* \"#utility.yul\":15091:15108   */\n      and\n        /* \"#utility.yul\":15080:15089   */\n      dup3\n        /* \"#utility.yul\":15061:15109   */\n      tag_235\n      jump\t// in\n    tag_423:\n        /* \"#utility.yul\":15053:15059   */\n      dup4\n        /* \"#utility.yul\":15046:15110   */\n      sstore\n        /* \"#utility.yul\":14968:15124   */\n      pop\n        /* \"#utility.yul\":14945:15124   */\n    tag_422:\n        /* \"#utility.yul\":15170:15171   */\n      0x01\n        /* \"#utility.yul\":15166:15167   */\n      0x02\n        /* \"#utility.yul\":15158:15164   */\n      dup9\n        /* \"#utility.yul\":15154:15168   */\n      mul\n        /* \"#utility.yul\":15150:15172   */\n      add\n        /* \"#utility.yul\":15144:15148   */\n      dup9\n        /* \"#utility.yul\":15137:15173   */\n      sstore\n        /* \"#utility.yul\":14572:15183   */\n      pop\n      pop\n      pop\n        /* \"#utility.yul\":14535:15422   */\n    tag_414:\n      pop\n        /* \"#utility.yul\":14125:15428   */\n      pop\n      pop\n      pop\n        /* \"#utility.yul\":14033:15428   */\n      pop\n      pop\n      jump\t// out\n        /* \"#utility.yul\":15434:15520   */\n    tag_237:\n        /* \"#utility.yul\":15469:15476   */\n      0x00\n        /* \"#utility.yul\":15509:15513   */\n      0xff\n        /* \"#utility.yul\":15502:15507   */\n      dup3\n        /* \"#utility.yul\":15498:15514   */\n      and\n        /* \"#utility.yul\":15487:15514   */\n      swap1\n      pop\n        /* \"#utility.yul\":15434:15520   */\n      swap2\n      swap1\n      pop\n      jump\t// out\n        /* \"#utility.yul\":15526:15714   */\n    tag_128:\n        /* \"#utility.yul\":15564:15567   */\n      0x00\n        /* \"#utility.yul\":15583:15601   */\n      tag_426\n        /* \"#utility.yul\":15599:15600   */\n      dup3\n        /* \"#utility.yul\":15583:15601   */\n      tag_237\n      jump\t// in\n    tag_426:\n        /* \"#utility.yul\":15578:15601   */\n      swap2\n      pop\n        /* \"#utility.yul\":15615:15633   */\n      tag_427\n        /* \"#utility.yul\":15631:15632   */\n      dup4\n        /* \"#utility.yul\":15615:15633   */\n      tag_237\n      jump\t// in\n    tag_427:\n        /* \"#utility.yul\":15610:15633   */\n      swap3\n      pop\n        /* \"#utility.yul\":15656:15657   */\n      dup3\n        /* \"#utility.yul\":15653:15654   */\n      dup3\n        /* \"#utility.yul\":15649:15658   */\n      add\n        /* \"#utility.yul\":15642:15658   */\n      swap1\n      pop\n        /* \"#utility.yul\":15679:15683   */\n      0xff\n        /* \"#utility.yul\":15674:15677   */\n      dup2\n        /* \"#utility.yul\":15671:15684   */\n      gt\n        /* \"#utility.yul\":15668:15707   */\n      iszero\n      tag_428\n      jumpi\n        /* \"#utility.yul\":15687:15705   */\n      tag_429\n      tag_217\n      jump\t// in\n    tag_429:\n        /* \"#utility.yul\":15668:15707   */\n    tag_428:\n        /* \"#utility.yul\":15526:15714   */\n      swap3\n      swap2\n      pop\n      pop\n      jump\t// out\n        /* \"#utility.yul\":15720:16130   */\n    tag_142:\n        /* \"#utility.yul\":15760:15767   */\n      0x00\n        /* \"#utility.yul\":15783:15803   */\n      tag_431\n        /* \"#utility.yul\":15801:15802   */\n      dup3\n        /* \"#utility.yul\":15783:15803   */\n      tag_212\n      jump\t// in\n    tag_431:\n        /* \"#utility.yul\":15778:15803   */\n      swap2\n      pop\n        /* \"#utility.yul\":15817:15837   */\n      tag_432\n        /* \"#utility.yul\":15835:15836   */\n      dup4\n        /* \"#utility.yul\":15817:15837   */\n      tag_212\n      jump\t// in\n    tag_432:\n        /* \"#utility.yul\":15812:15837   */\n      swap3\n      pop\n        /* \"#utility.yul\":15872:15873   */\n      dup3\n        /* \"#utility.yul\":15869:15870   */\n      dup3\n        /* \"#utility.yul\":15865:15874   */\n      mul\n        /* \"#utility.yul\":15894:15924   */\n      tag_433\n        /* \"#utility.yul\":15912:15923   */\n      dup2\n        /* \"#utility.yul\":15894:15924   */\n      tag_212\n      jump\t// in\n    tag_433:\n        /* \"#utility.yul\":15883:15924   */\n      swap2\n      pop\n        /* \"#utility.yul\":16073:16074   */\n      dup3\n        /* \"#utility.yul\":16064:16071   */\n      dup3\n        /* \"#utility.yul\":16060:16075   */\n      div\n        /* \"#utility.yul\":16057:16058   */\n      dup5\n        /* \"#utility.yul\":16054:16076   */\n      eq\n        /* \"#utility.yul\":16034:16035   */\n      dup4\n        /* \"#utility.yul\":16027:16036   */\n      iszero\n        /* \"#utility.yul\":16007:16090   */\n      or\n        /* \"#utility.yul\":15984:16123   */\n      tag_434\n      jumpi\n        /* \"#utility.yul\":16103:16121   */\n      tag_435\n      tag_217\n      jump\t// in\n    tag_435:\n        /* \"#utility.yul\":15984:16123   */\n    tag_434:\n        /* \"#utility.yul\":15768:16130   */\n      pop\n        /* \"#utility.yul\":15720:16130   */\n      swap3\n      swap2\n      pop\n      pop\n      jump\t// out\n        /* \"#utility.yul\":16136:16371   */\n    tag_151:\n        /* \"#utility.yul\":16176:16180   */\n      0x00\n        /* \"#utility.yul\":16196:16216   */\n      tag_437\n        /* \"#utility.yul\":16214:16215   */\n      dup3\n        /* \"#utility.yul\":16196:16216   */\n      tag_212\n      jump\t// in\n    tag_437:\n        /* \"#utility.yul\":16191:16216   */\n      swap2\n      pop\n        /* \"#utility.yul\":16230:16250   */\n      tag_438\n        /* \"#utility.yul\":16248:16249   */\n      dup4\n        /* \"#utility.yul\":16230:16250   */\n      tag_212\n      jump\t// in\n    tag_438:\n        /* \"#utility.yul\":16225:16250   */\n      swap3\n      pop\n        /* \"#utility.yul\":16274:16275   */\n      dup3\n        /* \"#utility.yul\":16271:16272   */\n      dup3\n        /* \"#utility.yul\":16267:16276   */\n      sub\n        /* \"#utility.yul\":16259:16276   */\n      swap1\n      pop\n        /* \"#utility.yul\":16298:16340   */\n      0xffffffffffffffffffffffffffffffffffffffff\n        /* \"#utility.yul\":16292:16296   */\n      dup2\n        /* \"#utility.yul\":16289:16341   */\n      gt\n        /* \"#utility.yul\":16286:16364   */\n      iszero\n      tag_439\n      jumpi\n        /* \"#utility.yul\":16344:16362   */\n      tag_440\n      tag_217\n      jump\t// in\n    tag_440:\n        /* \"#utility.yul\":16286:16364   */\n    tag_439:\n        /* \"#utility.yul\":16136:16371   */\n      swap3\n      swap2\n      pop\n      pop\n      jump\t// out\n        /* \"#utility.yul\":16377:16609   */\n    tag_173:\n        /* \"#utility.yul\":16417:16420   */\n      0x00\n        /* \"#utility.yul\":16436:16456   */\n      tag_442\n        /* \"#utility.yul\":16454:16455   */\n      dup3\n        /* \"#utility.yul\":16436:16456   */\n      tag_212\n      jump\t// in\n    tag_442:\n        /* \"#utility.yul\":16431:16456   */\n      swap2\n      pop\n        /* \"#utility.yul\":16470:16490   */\n      tag_443\n        /* \"#utility.yul\":16488:16489   */\n      dup4\n        /* \"#utility.yul\":16470:16490   */\n      tag_212\n      jump\t// in\n    tag_443:\n        /* \"#utility.yul\":16465:16490   */\n      swap3\n      pop\n        /* \"#utility.yul\":16513:16514   */\n      dup3\n        /* \"#utility.yul\":16510:16511   */\n      dup3\n        /* \"#utility.yul\":16506:16515   */\n      add\n        /* \"#utility.yul\":16499:16515   */\n      swap1\n      pop\n        /* \"#utility.yul\":16536:16578   */\n      0xffffffffffffffffffffffffffffffffffffffff\n        /* \"#utility.yul\":16531:16534   */\n      dup2\n        /* \"#utility.yul\":16528:16579   */\n      gt\n        /* \"#utility.yul\":16525:16602   */\n      iszero\n      tag_444\n      jumpi\n        /* \"#utility.yul\":16582:16600   */\n      tag_445\n      tag_217\n      jump\t// in\n    tag_445:\n        /* \"#utility.yul\":16525:16602   */\n    tag_444:\n        /* \"#utility.yul\":16377:16609   */\n      swap3\n      swap2\n      pop\n      pop\n      jump\t// out\n        /* \"#utility.yul\":16615:16840   */\n    tag_238:\n        /* \"#utility.yul\":16755:16789   */\n      0x4f776e61626c653a206e6577206f776e657220697320746865207a65726f2061\n        /* \"#utility.yul\":16751:16752   */\n      0x00\n        /* \"#utility.yul\":16743:16749   */\n      dup3\n        /* \"#utility.yul\":16739:16753   */\n      add\n        /* \"#utility.yul\":16732:16790   */\n      mstore\n        /* \"#utility.yul\":16824:16832   */\n      0x6464726573730000000000000000000000000000000000000000000000000000\n        /* \"#utility.yul\":16819:16821   */\n      0x20\n        /* \"#utility.yul\":16811:16817   */\n      dup3\n        /* \"#utility.yul\":16807:16822   */\n      add\n        /* \"#utility.yul\":16800:16833   */\n      mstore\n        /* \"#utility.yul\":16615:16840   */\n      pop\n      jump\t// out\n        /* \"#utility.yul\":16846:17212   */\n    tag_239:\n        /* \"#utility.yul\":16988:16991   */\n      0x00\n        /* \"#utility.yul\":17009:17076   */\n      tag_448\n        /* \"#utility.yul\":17073:17075   */\n      0x26\n        /* \"#utility.yul\":17068:17071   */\n      dup4\n        /* \"#utility.yul\":17009:17076   */\n      tag_209\n      jump\t// in\n    tag_448:\n        /* \"#utility.yul\":17002:17076   */\n      swap2\n      pop\n        /* \"#utility.yul\":17085:17178   */\n      tag_449\n        /* \"#utility.yul\":17174:17177   */\n      dup3\n        /* \"#utility.yul\":17085:17178   */\n      tag_238\n      jump\t// in\n    tag_449:\n        /* \"#utility.yul\":17203:17205   */\n      0x40\n        /* \"#utility.yul\":17198:17201   */\n      dup3\n        /* \"#utility.yul\":17194:17206   */\n      add\n        /* \"#utility.yul\":17187:17206   */\n      swap1\n      pop\n        /* \"#utility.yul\":16846:17212   */\n      swap2\n      swap1\n      pop\n      jump\t// out\n        /* \"#utility.yul\":17218:17637   */\n    tag_181:\n        /* \"#utility.yul\":17384:17388   */\n      0x00\n        /* \"#utility.yul\":17422:17424   */\n      0x20\n        /* \"#utility.yul\":17411:17420   */\n      dup3\n        /* \"#utility.yul\":17407:17425   */\n      add\n        /* \"#utility.yul\":17399:17425   */\n      swap1\n      pop\n        /* \"#utility.yul\":17471:17480   */\n      dup2\n        /* \"#utility.yul\":17465:17469   */\n      dup2\n        /* \"#utility.yul\":17461:17481   */\n      sub\n        /* \"#utility.yul\":17457:17458   */\n      0x00\n        /* \"#utility.yul\":17446:17455   */\n      dup4\n        /* \"#utility.yul\":17442:17459   */\n      add\n        /* \"#utility.yul\":17435:17482   */\n      mstore\n        /* \"#utility.yul\":17499:17630   */\n      tag_451\n        /* \"#utility.yul\":17625:17629   */\n      dup2\n        /* \"#utility.yul\":17499:17630   */\n      tag_239\n      jump\t// in\n    tag_451:\n        /* \"#utility.yul\":17491:17630   */\n      swap1\n      pop\n        /* \"#utility.yul\":17218:17637   */\n      swap2\n      swap1\n      pop\n      jump\t// out\n        /* \"#utility.yul\":17643:17825   */\n    tag_240:\n        /* \"#utility.yul\":17783:17817   */\n      0x4f776e61626c653a2063616c6c6572206973206e6f7420746865206f776e6572\n        /* \"#utility.yul\":17779:17780   */\n      0x00\n        /* \"#utility.yul\":17771:17777   */\n      dup3\n        /* \"#utility.yul\":17767:17781   */\n      add\n        /* \"#utility.yul\":17760:17818   */\n      mstore\n        /* \"#utility.yul\":17643:17825   */\n      pop\n      jump\t// out\n        /* \"#utility.yul\":17831:18197   */\n    tag_241:\n        /* \"#utility.yul\":17973:17976   */\n      0x00\n        /* \"#utility.yul\":17994:18061   */\n      tag_454\n        /* \"#utility.yul\":18058:18060   */\n      0x20\n        /* \"#utility.yul\":18053:18056   */\n      dup4\n        /* \"#utility.yul\":17994:18061   */\n      tag_209\n      jump\t// in\n    tag_454:\n        /* \"#utility.yul\":17987:18061   */\n      swap2\n      pop\n        /* \"#utility.yul\":18070:18163   */\n      tag_455\n        /* \"#utility.yul\":18159:18162   */\n      dup3\n        /* \"#utility.yul\":18070:18163   */\n      tag_240\n      jump\t// in\n    tag_455:\n        /* \"#utility.yul\":18188:18190   */\n      0x20\n        /* \"#utility.yul\":18183:18186   */\n      dup3\n        /* \"#utility.yul\":18179:18191   */\n      add\n        /* \"#utility.yul\":18172:18191   */\n      swap1\n      pop\n        /* \"#utility.yul\":17831:18197   */\n      swap2\n      swap1\n      pop\n      jump\t// out\n        /* \"#utility.yul\":18203:18622   */\n    tag_189:\n        /* \"#utility.yul\":18369:18373   */\n      0x00\n        /* \"#utility.yul\":18407:18409   */\n      0x20\n        /* \"#utility.yul\":18396:18405   */\n      dup3\n        /* \"#utility.yul\":18392:18410   */\n      add\n        /* \"#utility.yul\":18384:18410   */\n      swap1\n      pop\n        /* \"#utility.yul\":18456:18465   */\n      dup2\n        /* \"#utility.yul\":18450:18454   */\n      dup2\n        /* \"#utility.yul\":18446:18466   */\n      sub\n        /* \"#utility.yul\":18442:18443   */\n      0x00\n        /* \"#utility.yul\":18431:18440   */\n      dup4\n        /* \"#utility.yul\":18427:18444   */\n      add\n        /* \"#utility.yul\":18420:18467   */\n      mstore\n        /* \"#utility.yul\":18484:18615   */\n      tag_457\n        /* \"#utility.yul\":18610:18614   */\n      dup2\n        /* \"#utility.yul\":18484:18615   */\n      tag_241\n      jump\t// in\n    tag_457:\n        /* \"#utility.yul\":18476:18615   */\n      swap1\n      pop\n        /* \"#utility.yul\":18203:18622   */\n      swap2\n      swap1\n      pop\n      jump\t// out\n\n    auxdata: 0xa2646970667358221220c72b942fdade018c72df18e42ab6bf15e3f428ad0f2b83b7556fba85d2c27d0a64736f6c63430008120033\n}\n",
				"bytecode": {
					"linkReferences": {},
					"object": "608060405234801561001057600080fd5b5061002d61002261003260201b60201c565b61003a60201b60201c565b6100fe565b600033905090565b60008060009054906101000a900473ffffffffffffffffffffffffffffffffffffffff169050816000806101000a81548173ffffffffffffffffffffffffffffffffffffffff021916908373ffffffffffffffffffffffffffffffffffffffff1602179055508173ffffffffffffffffffffffffffffffffffffffff168173ffffffffffffffffffffffffffffffffffffffff167f8be0079c531659141344cd1fd0a4f28419497f9722a3daafe3b4186f6b6457e060405160405180910390a35050565b61177c8061010d6000396000f3fe608060405234801561001057600080fd5b50600436106100935760003560e01c80638694142b116100665780638694142b1461011e5780638da5cb5b1461014e57806397b214401461016c578063a68231891461019c578063f2fde38b146101cc57610093565b80631bd95155146100985780631dcd9b55146100c8578063715018a6146100f8578063816bcee314610102575b600080fd5b6100b260048036038101906100ad9190610d8e565b6101e8565b6040516100bf9190610df0565b60405180910390f35b6100e260048036038101906100dd9190610e37565b610282565b6040516100ef9190610f25565b60405180910390f35b61010061037e565b005b61011c60048036038101906101179190610fa5565b610392565b005b61013860048036038101906101339190611001565b610518565b6040516101459190610f25565b60405180910390f35b6101566105b8565b604051610163919061103d565b60405180910390f35b61018660048036038101906101819190610d8e565b6105e1565b6040516101939190610f25565b60405180910390f35b6101b660048036038101906101b19190610d8e565b610799565b6040516101c3919061103d565b60405180910390f35b6101e660048036038101906101e19190611001565b610a67565b005b6000808290506000809250600090505b815181101561027b57600082828151811061021657610215611058565b5b602001015160f81c60f81b60f81c60ff1690506030811015801561023b575060398111155b156102675760308161024d91906110b6565b600a8561025a91906110ea565b610264919061112c565b93505b50808061027390611160565b9150506101f8565b5050919050565b606060008490506000848461029791906110b6565b67ffffffffffffffff8111156102b0576102af610c63565b5b6040519080825280601f01601f1916602001820160405280156102e25781602001600182028036833780820191505090505b50905060008590505b848110156103715782818151811061030657610305611058565b5b602001015160f81c60f81b82878361031e91906110b6565b8151811061032f5761032e611058565b5b60200101907effffffffffffffffffffffffffffffffffffffffffffffffffffffffffffff1916908160001a905350808061036990611160565b9150506102eb565b5080925050509392505050565b610386610aea565b6103906000610b68565b565b60006103a1826000602a610282565b905060006103b283602a8551610282565b905060006103bf83610799565b905060006103cc836101e8565b905060008273ffffffffffffffffffffffffffffffffffffffff16636352211e836040518263ffffffff1660e01b81526004016104099190610df0565b602060405180830381865afa158015610426573d6000803e3d6000fd5b505050506040513d601f19601f8201168201806040525081019061044a91906111bd565b90503373ffffffffffffffffffffffffffffffffffffffff168173ffffffffffffffffffffffffffffffffffffffff16146104ba576040517f08c379a00000000000000000000000000000000000000000000000000000000081526004016104b190611236565b60405180910390fd5b6104c3866105e1565b600160008973ffffffffffffffffffffffffffffffffffffffff1673ffffffffffffffffffffffffffffffffffffffff168152602001908152602001600020908161050e9190611462565b5050505050505050565b6001602052806000526040600020600091509050805461053790611285565b80601f016020809104026020016040519081016040528092919081815260200182805461056390611285565b80156105b05780601f10610585576101008083540402835291602001916105b0565b820191906000526020600020905b81548152906001019060200180831161059357829003601f168201915b505050505081565b60008060009054906101000a900473ffffffffffffffffffffffffffffffffffffffff16905090565b606060008290506000815167ffffffffffffffff81111561060557610604610c63565b5b6040519080825280601f01601f1916602001820160405280156106375781602001600182028036833780820191505090505b50905060005b825181101561078e57604183828151811061065b5761065a611058565b5b602001015160f81c60f81b60f81c60ff161015801561069e5750605a83828151811061068a57610689611058565b5b602001015160f81c60f81b60f81c60ff1611155b1561071a5760208382815181106106b8576106b7611058565b5b602001015160f81c60f81b60f81c6106d09190611541565b60f81b8282815181106106e6576106e5611058565b5b60200101907effffffffffffffffffffffffffffffffffffffffffffffffffffffffffffff1916908160001a90535061077b565b82818151811061072d5761072c611058565b5b602001015160f81c60f81b82828151811061074b5761074a611058565b5b60200101907effffffffffffffffffffffffffffffffffffffffffffffffffffffffffffff1916908160001a9053505b808061078690611160565b91505061063d565b508092505050919050565b600080829050600080806000600290505b602a811015610a5a57610100846107c19190611576565b93508481815181106107d6576107d5611058565b5b602001015160f81c60f81b60f81c60ff169250846001826107f7919061112c565b8151811061080857610807611058565b5b602001015160f81c60f81b60f81c60ff16915060618373ffffffffffffffffffffffffffffffffffffffff1610158015610859575060668373ffffffffffffffffffffffffffffffffffffffff1611155b156108725760578361086b91906115b8565b925061091e565b60418373ffffffffffffffffffffffffffffffffffffffff16101580156108b0575060468373ffffffffffffffffffffffffffffffffffffffff1611155b156108c9576037836108c291906115b8565b925061091d565b60308373ffffffffffffffffffffffffffffffffffffffff1610158015610907575060398373ffffffffffffffffffffffffffffffffffffffff1611155b1561091c5760308361091991906115b8565b92505b5b5b60618273ffffffffffffffffffffffffffffffffffffffff161015801561095c575060668273ffffffffffffffffffffffffffffffffffffffff1611155b156109755760578261096e91906115b8565b9150610a21565b60418273ffffffffffffffffffffffffffffffffffffffff16101580156109b3575060468273ffffffffffffffffffffffffffffffffffffffff1611155b156109cc576037826109c591906115b8565b9150610a20565b60308273ffffffffffffffffffffffffffffffffffffffff1610158015610a0a575060398273ffffffffffffffffffffffffffffffffffffffff1611155b15610a1f57603082610a1c91906115b8565b91505b5b5b81601084610a2f9190611576565b610a399190611600565b84610a449190611600565b9350600281610a53919061112c565b90506107aa565b5082945050505050919050565b610a6f610aea565b600073ffffffffffffffffffffffffffffffffffffffff168173ffffffffffffffffffffffffffffffffffffffff1603610ade576040517f08c379a0000000000000000000000000000000000000000000000000000000008152600401610ad5906116ba565b60405180910390fd5b610ae781610b68565b50565b610af2610c2c565b73ffffffffffffffffffffffffffffffffffffffff16610b106105b8565b73ffffffffffffffffffffffffffffffffffffffff1614610b66576040517f08c379a0000000000000000000000000000000000000000000000000000000008152600401610b5d90611726565b60405180910390fd5b565b60008060009054906101000a900473ffffffffffffffffffffffffffffffffffffffff169050816000806101000a81548173ffffffffffffffffffffffffffffffffffffffff021916908373ffffffffffffffffffffffffffffffffffffffff1602179055508173ffffffffffffffffffffffffffffffffffffffff168173ffffffffffffffffffffffffffffffffffffffff167f8be0079c531659141344cd1fd0a4f28419497f9722a3daafe3b4186f6b6457e060405160405180910390a35050565b600033905090565b6000604051905090565b600080fd5b600080fd5b600080fd5b600080fd5b6000601f19601f8301169050919050565b7f4e487b7100000000000000000000000000000000000000000000000000000000600052604160045260246000fd5b610c9b82610c52565b810181811067ffffffffffffffff82111715610cba57610cb9610c63565b5b80604052505050565b6000610ccd610c34565b9050610cd98282610c92565b919050565b600067ffffffffffffffff821115610cf957610cf8610c63565b5b610d0282610c52565b9050602081019050919050565b82818337600083830152505050565b6000610d31610d2c84610cde565b610cc3565b905082815260208101848484011115610d4d57610d4c610c4d565b5b610d58848285610d0f565b509392505050565b600082601f830112610d7557610d74610c48565b5b8135610d85848260208601610d1e565b91505092915050565b600060208284031215610da457610da3610c3e565b5b600082013567ffffffffffffffff811115610dc257610dc1610c43565b5b610dce84828501610d60565b91505092915050565b6000819050919050565b610dea81610dd7565b82525050565b6000602082019050610e056000830184610de1565b92915050565b610e1481610dd7565b8114610e1f57600080fd5b50565b600081359050610e3181610e0b565b92915050565b600080600060608486031215610e5057610e4f610c3e565b5b600084013567ffffffffffffffff811115610e6e57610e6d610c43565b5b610e7a86828701610d60565b9350506020610e8b86828701610e22565b9250506040610e9c86828701610e22565b9150509250925092565b600081519050919050565b600082825260208201905092915050565b60005b83811015610ee0578082015181840152602081019050610ec5565b60008484015250505050565b6000610ef782610ea6565b610f018185610eb1565b9350610f11818560208601610ec2565b610f1a81610c52565b840191505092915050565b60006020820190508181036000830152610f3f8184610eec565b905092915050565b600073ffffffffffffffffffffffffffffffffffffffff82169050919050565b6000610f7282610f47565b9050919050565b610f8281610f67565b8114610f8d57600080fd5b50565b600081359050610f9f81610f79565b92915050565b60008060408385031215610fbc57610fbb610c3e565b5b6000610fca85828601610f90565b925050602083013567ffffffffffffffff811115610feb57610fea610c43565b5b610ff785828601610d60565b9150509250929050565b60006020828403121561101757611016610c3e565b5b600061102584828501610f90565b91505092915050565b61103781610f67565b82525050565b6000602082019050611052600083018461102e565b92915050565b7f4e487b7100000000000000000000000000000000000000000000000000000000600052603260045260246000fd5b7f4e487b7100000000000000000000000000000000000000000000000000000000600052601160045260246000fd5b60006110c182610dd7565b91506110cc83610dd7565b92508282039050818111156110e4576110e3611087565b5b92915050565b60006110f582610dd7565b915061110083610dd7565b925082820261110e81610dd7565b9150828204841483151761112557611124611087565b5b5092915050565b600061113782610dd7565b915061114283610dd7565b925082820190508082111561115a57611159611087565b5b92915050565b600061116b82610dd7565b91507fffffffffffffffffffffffffffffffffffffffffffffffffffffffffffffffff820361119d5761119c611087565b5b600182019050919050565b6000815190506111b781610f79565b92915050565b6000602082840312156111d3576111d2610c3e565b5b60006111e1848285016111a8565b91505092915050565b7f6f6e6c7920746865206964656e74697479206f776e65722063616e2020000000600082015250565b6000611220601d83610eb1565b915061122b826111ea565b602082019050919050565b6000602082019050818103600083015261124f81611213565b9050919050565b7f4e487b7100000000000000000000000000000000000000000000000000000000600052602260045260246000fd5b6000600282049050600182168061129d57607f821691505b6020821081036112b0576112af611256565b5b50919050565b60008190508160005260206000209050919050565b60006020601f8301049050919050565b600082821b905092915050565b6000600883026113187fffffffffffffffffffffffffffffffffffffffffffffffffffffffffffffffff826112db565b61132286836112db565b95508019841693508086168417925050509392505050565b6000819050919050565b600061135f61135a61135584610dd7565b61133a565b610dd7565b9050919050565b6000819050919050565b61137983611344565b61138d61138582611366565b8484546112e8565b825550505050565b600090565b6113a2611395565b6113ad818484611370565b505050565b5b818110156113d1576113c660008261139a565b6001810190506113b3565b5050565b601f821115611416576113e7816112b6565b6113f0846112cb565b810160208510156113ff578190505b61141361140b856112cb565b8301826113b2565b50505b505050565b600082821c905092915050565b60006114396000198460080261141b565b1980831691505092915050565b60006114528383611428565b9150826002028217905092915050565b61146b82610ea6565b67ffffffffffffffff81111561148457611483610c63565b5b61148e8254611285565b6114998282856113d5565b600060209050601f8311600181146114cc57600084156114ba578287015190505b6114c48582611446565b86555061152c565b601f1984166114da866112b6565b60005b82811015611502578489015182556001820191506020850194506020810190506114dd565b8683101561151f578489015161151b601f891682611428565b8355505b6001600288020188555050505b505050505050565b600060ff82169050919050565b600061154c82611534565b915061155783611534565b9250828201905060ff8111156115705761156f611087565b5b92915050565b600061158182610f47565b915061158c83610f47565b925082820261159a81610f47565b915082820484148315176115b1576115b0611087565b5b5092915050565b60006115c382610f47565b91506115ce83610f47565b9250828203905073ffffffffffffffffffffffffffffffffffffffff8111156115fa576115f9611087565b5b92915050565b600061160b82610f47565b915061161683610f47565b9250828201905073ffffffffffffffffffffffffffffffffffffffff81111561164257611641611087565b5b92915050565b7f4f776e61626c653a206e6577206f776e657220697320746865207a65726f206160008201527f6464726573730000000000000000000000000000000000000000000000000000602082015250565b60006116a4602683610eb1565b91506116af82611648565b604082019050919050565b600060208201905081810360008301526116d381611697565b9050919050565b7f4f776e61626c653a2063616c6c6572206973206e6f7420746865206f776e6572600082015250565b6000611710602083610eb1565b915061171b826116da565b602082019050919050565b6000602082019050818103600083015261173f81611703565b905091905056fea2646970667358221220c72b942fdade018c72df18e42ab6bf15e3f428ad0f2b83b7556fba85d2c27d0a64736f6c63430008120033",
					"opcodes": "PUSH1 0x80 PUSH1 0x40 MSTORE CALLVALUE DUP1 ISZERO PUSH2 0x10 JUMPI PUSH1 0x0 DUP1 REVERT JUMPDEST POP PUSH2 0x2D PUSH2 0x22 PUSH2 0x32 PUSH1 0x20 SHL PUSH1 0x20 SHR JUMP JUMPDEST PUSH2 0x3A PUSH1 0x20 SHL PUSH1 0x20 SHR JUMP JUMPDEST PUSH2 0xFE JUMP JUMPDEST PUSH1 0x0 CALLER SWAP1 POP SWAP1 JUMP JUMPDEST PUSH1 0x0 DUP1 PUSH1 0x0 SWAP1 SLOAD SWAP1 PUSH2 0x100 EXP SWAP1 DIV PUSH20 0xFFFFFFFFFFFFFFFFFFFFFFFFFFFFFFFFFFFFFFFF AND SWAP1 POP DUP2 PUSH1 0x0 DUP1 PUSH2 0x100 EXP DUP2 SLOAD DUP2 PUSH20 0xFFFFFFFFFFFFFFFFFFFFFFFFFFFFFFFFFFFFFFFF MUL NOT AND SWAP1 DUP4 PUSH20 0xFFFFFFFFFFFFFFFFFFFFFFFFFFFFFFFFFFFFFFFF AND MUL OR SWAP1 SSTORE POP DUP2 PUSH20 0xFFFFFFFFFFFFFFFFFFFFFFFFFFFFFFFFFFFFFFFF AND DUP2 PUSH20 0xFFFFFFFFFFFFFFFFFFFFFFFFFFFFFFFFFFFFFFFF AND PUSH32 0x8BE0079C531659141344CD1FD0A4F28419497F9722A3DAAFE3B4186F6B6457E0 PUSH1 0x40 MLOAD PUSH1 0x40 MLOAD DUP1 SWAP2 SUB SWAP1 LOG3 POP POP JUMP JUMPDEST PUSH2 0x177C DUP1 PUSH2 0x10D PUSH1 0x0 CODECOPY PUSH1 0x0 RETURN INVALID PUSH1 0x80 PUSH1 0x40 MSTORE CALLVALUE DUP1 ISZERO PUSH2 0x10 JUMPI PUSH1 0x0 DUP1 REVERT JUMPDEST POP PUSH1 0x4 CALLDATASIZE LT PUSH2 0x93 JUMPI PUSH1 0x0 CALLDATALOAD PUSH1 0xE0 SHR DUP1 PUSH4 0x8694142B GT PUSH2 0x66 JUMPI DUP1 PUSH4 0x8694142B EQ PUSH2 0x11E JUMPI DUP1 PUSH4 0x8DA5CB5B EQ PUSH2 0x14E JUMPI DUP1 PUSH4 0x97B21440 EQ PUSH2 0x16C JUMPI DUP1 PUSH4 0xA6823189 EQ PUSH2 0x19C JUMPI DUP1 PUSH4 0xF2FDE38B EQ PUSH2 0x1CC JUMPI PUSH2 0x93 JUMP JUMPDEST DUP1 PUSH4 0x1BD95155 EQ PUSH2 0x98 JUMPI DUP1 PUSH4 0x1DCD9B55 EQ PUSH2 0xC8 JUMPI DUP1 PUSH4 0x715018A6 EQ PUSH2 0xF8 JUMPI DUP1 PUSH4 0x816BCEE3 EQ PUSH2 0x102 JUMPI JUMPDEST PUSH1 0x0 DUP1 REVERT JUMPDEST PUSH2 0xB2 PUSH1 0x4 DUP1 CALLDATASIZE SUB DUP2 ADD SWAP1 PUSH2 0xAD SWAP2 SWAP1 PUSH2 0xD8E JUMP JUMPDEST PUSH2 0x1E8 JUMP JUMPDEST PUSH1 0x40 MLOAD PUSH2 0xBF SWAP2 SWAP1 PUSH2 0xDF0 JUMP JUMPDEST PUSH1 0x40 MLOAD DUP1 SWAP2 SUB SWAP1 RETURN JUMPDEST PUSH2 0xE2 PUSH1 0x4 DUP1 CALLDATASIZE SUB DUP2 ADD SWAP1 PUSH2 0xDD SWAP2 SWAP1 PUSH2 0xE37 JUMP JUMPDEST PUSH2 0x282 JUMP JUMPDEST PUSH1 0x40 MLOAD PUSH2 0xEF SWAP2 SWAP1 PUSH2 0xF25 JUMP JUMPDEST PUSH1 0x40 MLOAD DUP1 SWAP2 SUB SWAP1 RETURN JUMPDEST PUSH2 0x100 PUSH2 0x37E JUMP JUMPDEST STOP JUMPDEST PUSH2 0x11C PUSH1 0x4 DUP1 CALLDATASIZE SUB DUP2 ADD SWAP1 PUSH2 0x117 SWAP2 SWAP1 PUSH2 0xFA5 JUMP JUMPDEST PUSH2 0x392 JUMP JUMPDEST STOP JUMPDEST PUSH2 0x138 PUSH1 0x4 DUP1 CALLDATASIZE SUB DUP2 ADD SWAP1 PUSH2 0x133 SWAP2 SWAP1 PUSH2 0x1001 JUMP JUMPDEST PUSH2 0x518 JUMP JUMPDEST PUSH1 0x40 MLOAD PUSH2 0x145 SWAP2 SWAP1 PUSH2 0xF25 JUMP JUMPDEST PUSH1 0x40 MLOAD DUP1 SWAP2 SUB SWAP1 RETURN JUMPDEST PUSH2 0x156 PUSH2 0x5B8 JUMP JUMPDEST PUSH1 0x40 MLOAD PUSH2 0x163 SWAP2 SWAP1 PUSH2 0x103D JUMP JUMPDEST PUSH1 0x40 MLOAD DUP1 SWAP2 SUB SWAP1 RETURN JUMPDEST PUSH2 0x186 PUSH1 0x4 DUP1 CALLDATASIZE SUB DUP2 ADD SWAP1 PUSH2 0x181 SWAP2 SWAP1 PUSH2 0xD8E JUMP JUMPDEST PUSH2 0x5E1 JUMP JUMPDEST PUSH1 0x40 MLOAD PUSH2 0x193 SWAP2 SWAP1 PUSH2 0xF25 JUMP JUMPDEST PUSH1 0x40 MLOAD DUP1 SWAP2 SUB SWAP1 RETURN JUMPDEST PUSH2 0x1B6 PUSH1 0x4 DUP1 CALLDATASIZE SUB DUP2 ADD SWAP1 PUSH2 0x1B1 SWAP2 SWAP1 PUSH2 0xD8E JUMP JUMPDEST PUSH2 0x799 JUMP JUMPDEST PUSH1 0x40 MLOAD PUSH2 0x1C3 SWAP2 SWAP1 PUSH2 0x103D JUMP JUMPDEST PUSH1 0x40 MLOAD DUP1 SWAP2 SUB SWAP1 RETURN JUMPDEST PUSH2 0x1E6 PUSH1 0x4 DUP1 CALLDATASIZE SUB DUP2 ADD SWAP1 PUSH2 0x1E1 SWAP2 SWAP1 PUSH2 0x1001 JUMP JUMPDEST PUSH2 0xA67 JUMP JUMPDEST STOP JUMPDEST PUSH1 0x0 DUP1 DUP3 SWAP1 POP PUSH1 0x0 DUP1 SWAP3 POP PUSH1 0x0 SWAP1 POP JUMPDEST DUP2 MLOAD DUP2 LT ISZERO PUSH2 0x27B JUMPI PUSH1 0x0 DUP3 DUP3 DUP2 MLOAD DUP2 LT PUSH2 0x216 JUMPI PUSH2 0x215 PUSH2 0x1058 JUMP JUMPDEST JUMPDEST PUSH1 0x20 ADD ADD MLOAD PUSH1 0xF8 SHR PUSH1 0xF8 SHL PUSH1 0xF8 SHR PUSH1 0xFF AND SWAP1 POP PUSH1 0x30 DUP2 LT ISZERO DUP1 ISZERO PUSH2 0x23B JUMPI POP PUSH1 0x39 DUP2 GT ISZERO JUMPDEST ISZERO PUSH2 0x267 JUMPI PUSH1 0x30 DUP2 PUSH2 0x24D SWAP2 SWAP1 PUSH2 0x10B6 JUMP JUMPDEST PUSH1 0xA DUP6 PUSH2 0x25A SWAP2 SWAP1 PUSH2 0x10EA JUMP JUMPDEST PUSH2 0x264 SWAP2 SWAP1 PUSH2 0x112C JUMP JUMPDEST SWAP4 POP JUMPDEST POP DUP1 DUP1 PUSH2 0x273 SWAP1 PUSH2 0x1160 JUMP JUMPDEST SWAP2 POP POP PUSH2 0x1F8 JUMP JUMPDEST POP POP SWAP2 SWAP1 POP JUMP JUMPDEST PUSH1 0x60 PUSH1 0x0 DUP5 SWAP1 POP PUSH1 0x0 DUP5 DUP5 PUSH2 0x297 SWAP2 SWAP1 PUSH2 0x10B6 JUMP JUMPDEST PUSH8 0xFFFFFFFFFFFFFFFF DUP2 GT ISZERO PUSH2 0x2B0 JUMPI PUSH2 0x2AF PUSH2 0xC63 JUMP JUMPDEST JUMPDEST PUSH1 0x40 MLOAD SWAP1 DUP1 DUP3 MSTORE DUP1 PUSH1 0x1F ADD PUSH1 0x1F NOT AND PUSH1 0x20 ADD DUP3 ADD PUSH1 0x40 MSTORE DUP1 ISZERO PUSH2 0x2E2 JUMPI DUP2 PUSH1 0x20 ADD PUSH1 0x1 DUP3 MUL DUP1 CALLDATASIZE DUP4 CALLDATACOPY DUP1 DUP3 ADD SWAP2 POP POP SWAP1 POP JUMPDEST POP SWAP1 POP PUSH1 0x0 DUP6 SWAP1 POP JUMPDEST DUP5 DUP2 LT ISZERO PUSH2 0x371 JUMPI DUP3 DUP2 DUP2 MLOAD DUP2 LT PUSH2 0x306 JUMPI PUSH2 0x305 PUSH2 0x1058 JUMP JUMPDEST JUMPDEST PUSH1 0x20 ADD ADD MLOAD PUSH1 0xF8 SHR PUSH1 0xF8 SHL DUP3 DUP8 DUP4 PUSH2 0x31E SWAP2 SWAP1 PUSH2 0x10B6 JUMP JUMPDEST DUP2 MLOAD DUP2 LT PUSH2 0x32F JUMPI PUSH2 0x32E PUSH2 0x1058 JUMP JUMPDEST JUMPDEST PUSH1 0x20 ADD ADD SWAP1 PUSH31 0xFFFFFFFFFFFFFFFFFFFFFFFFFFFFFFFFFFFFFFFFFFFFFFFFFFFFFFFFFFFFFF NOT AND SWAP1 DUP2 PUSH1 0x0 BYTE SWAP1 MSTORE8 POP DUP1 DUP1 PUSH2 0x369 SWAP1 PUSH2 0x1160 JUMP JUMPDEST SWAP2 POP POP PUSH2 0x2EB JUMP JUMPDEST POP DUP1 SWAP3 POP POP POP SWAP4 SWAP3 POP POP POP JUMP JUMPDEST PUSH2 0x386 PUSH2 0xAEA JUMP JUMPDEST PUSH2 0x390 PUSH1 0x0 PUSH2 0xB68 JUMP JUMPDEST JUMP JUMPDEST PUSH1 0x0 PUSH2 0x3A1 DUP3 PUSH1 0x0 PUSH1 0x2A PUSH2 0x282 JUMP JUMPDEST SWAP1 POP PUSH1 0x0 PUSH2 0x3B2 DUP4 PUSH1 0x2A DUP6 MLOAD PUSH2 0x282 JUMP JUMPDEST SWAP1 POP PUSH1 0x0 PUSH2 0x3BF DUP4 PUSH2 0x799 JUMP JUMPDEST SWAP1 POP PUSH1 0x0 PUSH2 0x3CC DUP4 PUSH2 0x1E8 JUMP JUMPDEST SWAP1 POP PUSH1 0x0 DUP3 PUSH20 0xFFFFFFFFFFFFFFFFFFFFFFFFFFFFFFFFFFFFFFFF AND PUSH4 0x6352211E DUP4 PUSH1 0x40 MLOAD DUP3 PUSH4 0xFFFFFFFF AND PUSH1 0xE0 SHL DUP2 MSTORE PUSH1 0x4 ADD PUSH2 0x409 SWAP2 SWAP1 PUSH2 0xDF0 JUMP JUMPDEST PUSH1 0x20 PUSH1 0x40 MLOAD DUP1 DUP4 SUB DUP2 DUP7 GAS STATICCALL ISZERO DUP1 ISZERO PUSH2 0x426 JUMPI RETURNDATASIZE PUSH1 0x0 DUP1 RETURNDATACOPY RETURNDATASIZE PUSH1 0x0 REVERT JUMPDEST POP POP POP POP PUSH1 0x40 MLOAD RETURNDATASIZE PUSH1 0x1F NOT PUSH1 0x1F DUP3 ADD AND DUP3 ADD DUP1 PUSH1 0x40 MSTORE POP DUP2 ADD SWAP1 PUSH2 0x44A SWAP2 SWAP1 PUSH2 0x11BD JUMP JUMPDEST SWAP1 POP CALLER PUSH20 0xFFFFFFFFFFFFFFFFFFFFFFFFFFFFFFFFFFFFFFFF AND DUP2 PUSH20 0xFFFFFFFFFFFFFFFFFFFFFFFFFFFFFFFFFFFFFFFF AND EQ PUSH2 0x4BA JUMPI PUSH1 0x40 MLOAD PUSH32 0x8C379A000000000000000000000000000000000000000000000000000000000 DUP2 MSTORE PUSH1 0x4 ADD PUSH2 0x4B1 SWAP1 PUSH2 0x1236 JUMP JUMPDEST PUSH1 0x40 MLOAD DUP1 SWAP2 SUB SWAP1 REVERT JUMPDEST PUSH2 0x4C3 DUP7 PUSH2 0x5E1 JUMP JUMPDEST PUSH1 0x1 PUSH1 0x0 DUP10 PUSH20 0xFFFFFFFFFFFFFFFFFFFFFFFFFFFFFFFFFFFFFFFF AND PUSH20 0xFFFFFFFFFFFFFFFFFFFFFFFFFFFFFFFFFFFFFFFF AND DUP2 MSTORE PUSH1 0x20 ADD SWAP1 DUP2 MSTORE PUSH1 0x20 ADD PUSH1 0x0 KECCAK256 SWAP1 DUP2 PUSH2 0x50E SWAP2 SWAP1 PUSH2 0x1462 JUMP JUMPDEST POP POP POP POP POP POP POP POP JUMP JUMPDEST PUSH1 0x1 PUSH1 0x20 MSTORE DUP1 PUSH1 0x0 MSTORE PUSH1 0x40 PUSH1 0x0 KECCAK256 PUSH1 0x0 SWAP2 POP SWAP1 POP DUP1 SLOAD PUSH2 0x537 SWAP1 PUSH2 0x1285 JUMP JUMPDEST DUP1 PUSH1 0x1F ADD PUSH1 0x20 DUP1 SWAP2 DIV MUL PUSH1 0x20 ADD PUSH1 0x40 MLOAD SWAP1 DUP2 ADD PUSH1 0x40 MSTORE DUP1 SWAP3 SWAP2 SWAP1 DUP2 DUP2 MSTORE PUSH1 0x20 ADD DUP3 DUP1 SLOAD PUSH2 0x563 SWAP1 PUSH2 0x1285 JUMP JUMPDEST DUP1 ISZERO PUSH2 0x5B0 JUMPI DUP1 PUSH1 0x1F LT PUSH2 0x585 JUMPI PUSH2 0x100 DUP1 DUP4 SLOAD DIV MUL DUP4 MSTORE SWAP2 PUSH1 0x20 ADD SWAP2 PUSH2 0x5B0 JUMP JUMPDEST DUP3 ADD SWAP2 SWAP1 PUSH1 0x0 MSTORE PUSH1 0x20 PUSH1 0x0 KECCAK256 SWAP1 JUMPDEST DUP2 SLOAD DUP2 MSTORE SWAP1 PUSH1 0x1 ADD SWAP1 PUSH1 0x20 ADD DUP1 DUP4 GT PUSH2 0x593 JUMPI DUP3 SWAP1 SUB PUSH1 0x1F AND DUP3 ADD SWAP2 JUMPDEST POP POP POP POP POP DUP2 JUMP JUMPDEST PUSH1 0x0 DUP1 PUSH1 0x0 SWAP1 SLOAD SWAP1 PUSH2 0x100 EXP SWAP1 DIV PUSH20 0xFFFFFFFFFFFFFFFFFFFFFFFFFFFFFFFFFFFFFFFF AND SWAP1 POP SWAP1 JUMP JUMPDEST PUSH1 0x60 PUSH1 0x0 DUP3 SWAP1 POP PUSH1 0x0 DUP2 MLOAD PUSH8 0xFFFFFFFFFFFFFFFF DUP2 GT ISZERO PUSH2 0x605 JUMPI PUSH2 0x604 PUSH2 0xC63 JUMP JUMPDEST JUMPDEST PUSH1 0x40 MLOAD SWAP1 DUP1 DUP3 MSTORE DUP1 PUSH1 0x1F ADD PUSH1 0x1F NOT AND PUSH1 0x20 ADD DUP3 ADD PUSH1 0x40 MSTORE DUP1 ISZERO PUSH2 0x637 JUMPI DUP2 PUSH1 0x20 ADD PUSH1 0x1 DUP3 MUL DUP1 CALLDATASIZE DUP4 CALLDATACOPY DUP1 DUP3 ADD SWAP2 POP POP SWAP1 POP JUMPDEST POP SWAP1 POP PUSH1 0x0 JUMPDEST DUP3 MLOAD DUP2 LT ISZERO PUSH2 0x78E JUMPI PUSH1 0x41 DUP4 DUP3 DUP2 MLOAD DUP2 LT PUSH2 0x65B JUMPI PUSH2 0x65A PUSH2 0x1058 JUMP JUMPDEST JUMPDEST PUSH1 0x20 ADD ADD MLOAD PUSH1 0xF8 SHR PUSH1 0xF8 SHL PUSH1 0xF8 SHR PUSH1 0xFF AND LT ISZERO DUP1 ISZERO PUSH2 0x69E JUMPI POP PUSH1 0x5A DUP4 DUP3 DUP2 MLOAD DUP2 LT PUSH2 0x68A JUMPI PUSH2 0x689 PUSH2 0x1058 JUMP JUMPDEST JUMPDEST PUSH1 0x20 ADD ADD MLOAD PUSH1 0xF8 SHR PUSH1 0xF8 SHL PUSH1 0xF8 SHR PUSH1 0xFF AND GT ISZERO JUMPDEST ISZERO PUSH2 0x71A JUMPI PUSH1 0x20 DUP4 DUP3 DUP2 MLOAD DUP2 LT PUSH2 0x6B8 JUMPI PUSH2 0x6B7 PUSH2 0x1058 JUMP JUMPDEST JUMPDEST PUSH1 0x20 ADD ADD MLOAD PUSH1 0xF8 SHR PUSH1 0xF8 SHL PUSH1 0xF8 SHR PUSH2 0x6D0 SWAP2 SWAP1 PUSH2 0x1541 JUMP JUMPDEST PUSH1 0xF8 SHL DUP3 DUP3 DUP2 MLOAD DUP2 LT PUSH2 0x6E6 JUMPI PUSH2 0x6E5 PUSH2 0x1058 JUMP JUMPDEST JUMPDEST PUSH1 0x20 ADD ADD SWAP1 PUSH31 0xFFFFFFFFFFFFFFFFFFFFFFFFFFFFFFFFFFFFFFFFFFFFFFFFFFFFFFFFFFFFFF NOT AND SWAP1 DUP2 PUSH1 0x0 BYTE SWAP1 MSTORE8 POP PUSH2 0x77B JUMP JUMPDEST DUP3 DUP2 DUP2 MLOAD DUP2 LT PUSH2 0x72D JUMPI PUSH2 0x72C PUSH2 0x1058 JUMP JUMPDEST JUMPDEST PUSH1 0x20 ADD ADD MLOAD PUSH1 0xF8 SHR PUSH1 0xF8 SHL DUP3 DUP3 DUP2 MLOAD DUP2 LT PUSH2 0x74B JUMPI PUSH2 0x74A PUSH2 0x1058 JUMP JUMPDEST JUMPDEST PUSH1 0x20 ADD ADD SWAP1 PUSH31 0xFFFFFFFFFFFFFFFFFFFFFFFFFFFFFFFFFFFFFFFFFFFFFFFFFFFFFFFFFFFFFF NOT AND SWAP1 DUP2 PUSH1 0x0 BYTE SWAP1 MSTORE8 POP JUMPDEST DUP1 DUP1 PUSH2 0x786 SWAP1 PUSH2 0x1160 JUMP JUMPDEST SWAP2 POP POP PUSH2 0x63D JUMP JUMPDEST POP DUP1 SWAP3 POP POP POP SWAP2 SWAP1 POP JUMP JUMPDEST PUSH1 0x0 DUP1 DUP3 SWAP1 POP PUSH1 0x0 DUP1 DUP1 PUSH1 0x0 PUSH1 0x2 SWAP1 POP JUMPDEST PUSH1 0x2A DUP2 LT ISZERO PUSH2 0xA5A JUMPI PUSH2 0x100 DUP5 PUSH2 0x7C1 SWAP2 SWAP1 PUSH2 0x1576 JUMP JUMPDEST SWAP4 POP DUP5 DUP2 DUP2 MLOAD DUP2 LT PUSH2 0x7D6 JUMPI PUSH2 0x7D5 PUSH2 0x1058 JUMP JUMPDEST JUMPDEST PUSH1 0x20 ADD ADD MLOAD PUSH1 0xF8 SHR PUSH1 0xF8 SHL PUSH1 0xF8 SHR PUSH1 0xFF AND SWAP3 POP DUP5 PUSH1 0x1 DUP3 PUSH2 0x7F7 SWAP2 SWAP1 PUSH2 0x112C JUMP JUMPDEST DUP2 MLOAD DUP2 LT PUSH2 0x808 JUMPI PUSH2 0x807 PUSH2 0x1058 JUMP JUMPDEST JUMPDEST PUSH1 0x20 ADD ADD MLOAD PUSH1 0xF8 SHR PUSH1 0xF8 SHL PUSH1 0xF8 SHR PUSH1 0xFF AND SWAP2 POP PUSH1 0x61 DUP4 PUSH20 0xFFFFFFFFFFFFFFFFFFFFFFFFFFFFFFFFFFFFFFFF AND LT ISZERO DUP1 ISZERO PUSH2 0x859 JUMPI POP PUSH1 0x66 DUP4 PUSH20 0xFFFFFFFFFFFFFFFFFFFFFFFFFFFFFFFFFFFFFFFF AND GT ISZERO JUMPDEST ISZERO PUSH2 0x872 JUMPI PUSH1 0x57 DUP4 PUSH2 0x86B SWAP2 SWAP1 PUSH2 0x15B8 JUMP JUMPDEST SWAP3 POP PUSH2 0x91E JUMP JUMPDEST PUSH1 0x41 DUP4 PUSH20 0xFFFFFFFFFFFFFFFFFFFFFFFFFFFFFFFFFFFFFFFF AND LT ISZERO DUP1 ISZERO PUSH2 0x8B0 JUMPI POP PUSH1 0x46 DUP4 PUSH20 0xFFFFFFFFFFFFFFFFFFFFFFFFFFFFFFFFFFFFFFFF AND GT ISZERO JUMPDEST ISZERO PUSH2 0x8C9 JUMPI PUSH1 0x37 DUP4 PUSH2 0x8C2 SWAP2 SWAP1 PUSH2 0x15B8 JUMP JUMPDEST SWAP3 POP PUSH2 0x91D JUMP JUMPDEST PUSH1 0x30 DUP4 PUSH20 0xFFFFFFFFFFFFFFFFFFFFFFFFFFFFFFFFFFFFFFFF AND LT ISZERO DUP1 ISZERO PUSH2 0x907 JUMPI POP PUSH1 0x39 DUP4 PUSH20 0xFFFFFFFFFFFFFFFFFFFFFFFFFFFFFFFFFFFFFFFF AND GT ISZERO JUMPDEST ISZERO PUSH2 0x91C JUMPI PUSH1 0x30 DUP4 PUSH2 0x919 SWAP2 SWAP1 PUSH2 0x15B8 JUMP JUMPDEST SWAP3 POP JUMPDEST JUMPDEST JUMPDEST PUSH1 0x61 DUP3 PUSH20 0xFFFFFFFFFFFFFFFFFFFFFFFFFFFFFFFFFFFFFFFF AND LT ISZERO DUP1 ISZERO PUSH2 0x95C JUMPI POP PUSH1 0x66 DUP3 PUSH20 0xFFFFFFFFFFFFFFFFFFFFFFFFFFFFFFFFFFFFFFFF AND GT ISZERO JUMPDEST ISZERO PUSH2 0x975 JUMPI PUSH1 0x57 DUP3 PUSH2 0x96E SWAP2 SWAP1 PUSH2 0x15B8 JUMP JUMPDEST SWAP2 POP PUSH2 0xA21 JUMP JUMPDEST PUSH1 0x41 DUP3 PUSH20 0xFFFFFFFFFFFFFFFFFFFFFFFFFFFFFFFFFFFFFFFF AND LT ISZERO DUP1 ISZERO PUSH2 0x9B3 JUMPI POP PUSH1 0x46 DUP3 PUSH20 0xFFFFFFFFFFFFFFFFFFFFFFFFFFFFFFFFFFFFFFFF AND GT ISZERO JUMPDEST ISZERO PUSH2 0x9CC JUMPI PUSH1 0x37 DUP3 PUSH2 0x9C5 SWAP2 SWAP1 PUSH2 0x15B8 JUMP JUMPDEST SWAP2 POP PUSH2 0xA20 JUMP JUMPDEST PUSH1 0x30 DUP3 PUSH20 0xFFFFFFFFFFFFFFFFFFFFFFFFFFFFFFFFFFFFFFFF AND LT ISZERO DUP1 ISZERO PUSH2 0xA0A JUMPI POP PUSH1 0x39 DUP3 PUSH20 0xFFFFFFFFFFFFFFFFFFFFFFFFFFFFFFFFFFFFFFFF AND GT ISZERO JUMPDEST ISZERO PUSH2 0xA1F JUMPI PUSH1 0x30 DUP3 PUSH2 0xA1C SWAP2 SWAP1 PUSH2 0x15B8 JUMP JUMPDEST SWAP2 POP JUMPDEST JUMPDEST JUMPDEST DUP2 PUSH1 0x10 DUP5 PUSH2 0xA2F SWAP2 SWAP1 PUSH2 0x1576 JUMP JUMPDEST PUSH2 0xA39 SWAP2 SWAP1 PUSH2 0x1600 JUMP JUMPDEST DUP5 PUSH2 0xA44 SWAP2 SWAP1 PUSH2 0x1600 JUMP JUMPDEST SWAP4 POP PUSH1 0x2 DUP2 PUSH2 0xA53 SWAP2 SWAP1 PUSH2 0x112C JUMP JUMPDEST SWAP1 POP PUSH2 0x7AA JUMP JUMPDEST POP DUP3 SWAP5 POP POP POP POP POP SWAP2 SWAP1 POP JUMP JUMPDEST PUSH2 0xA6F PUSH2 0xAEA JUMP JUMPDEST PUSH1 0x0 PUSH20 0xFFFFFFFFFFFFFFFFFFFFFFFFFFFFFFFFFFFFFFFF AND DUP2 PUSH20 0xFFFFFFFFFFFFFFFFFFFFFFFFFFFFFFFFFFFFFFFF AND SUB PUSH2 0xADE JUMPI PUSH1 0x40 MLOAD PUSH32 0x8C379A000000000000000000000000000000000000000000000000000000000 DUP2 MSTORE PUSH1 0x4 ADD PUSH2 0xAD5 SWAP1 PUSH2 0x16BA JUMP JUMPDEST PUSH1 0x40 MLOAD DUP1 SWAP2 SUB SWAP1 REVERT JUMPDEST PUSH2 0xAE7 DUP2 PUSH2 0xB68 JUMP JUMPDEST POP JUMP JUMPDEST PUSH2 0xAF2 PUSH2 0xC2C JUMP JUMPDEST PUSH20 0xFFFFFFFFFFFFFFFFFFFFFFFFFFFFFFFFFFFFFFFF AND PUSH2 0xB10 PUSH2 0x5B8 JUMP JUMPDEST PUSH20 0xFFFFFFFFFFFFFFFFFFFFFFFFFFFFFFFFFFFFFFFF AND EQ PUSH2 0xB66 JUMPI PUSH1 0x40 MLOAD PUSH32 0x8C379A000000000000000000000000000000000000000000000000000000000 DUP2 MSTORE PUSH1 0x4 ADD PUSH2 0xB5D SWAP1 PUSH2 0x1726 JUMP JUMPDEST PUSH1 0x40 MLOAD DUP1 SWAP2 SUB SWAP1 REVERT JUMPDEST JUMP JUMPDEST PUSH1 0x0 DUP1 PUSH1 0x0 SWAP1 SLOAD SWAP1 PUSH2 0x100 EXP SWAP1 DIV PUSH20 0xFFFFFFFFFFFFFFFFFFFFFFFFFFFFFFFFFFFFFFFF AND SWAP1 POP DUP2 PUSH1 0x0 DUP1 PUSH2 0x100 EXP DUP2 SLOAD DUP2 PUSH20 0xFFFFFFFFFFFFFFFFFFFFFFFFFFFFFFFFFFFFFFFF MUL NOT AND SWAP1 DUP4 PUSH20 0xFFFFFFFFFFFFFFFFFFFFFFFFFFFFFFFFFFFFFFFF AND MUL OR SWAP1 SSTORE POP DUP2 PUSH20 0xFFFFFFFFFFFFFFFFFFFFFFFFFFFFFFFFFFFFFFFF AND DUP2 PUSH20 0xFFFFFFFFFFFFFFFFFFFFFFFFFFFFFFFFFFFFFFFF AND PUSH32 0x8BE0079C531659141344CD1FD0A4F28419497F9722A3DAAFE3B4186F6B6457E0 PUSH1 0x40 MLOAD PUSH1 0x40 MLOAD DUP1 SWAP2 SUB SWAP1 LOG3 POP POP JUMP JUMPDEST PUSH1 0x0 CALLER SWAP1 POP SWAP1 JUMP JUMPDEST PUSH1 0x0 PUSH1 0x40 MLOAD SWAP1 POP SWAP1 JUMP JUMPDEST PUSH1 0x0 DUP1 REVERT JUMPDEST PUSH1 0x0 DUP1 REVERT JUMPDEST PUSH1 0x0 DUP1 REVERT JUMPDEST PUSH1 0x0 DUP1 REVERT JUMPDEST PUSH1 0x0 PUSH1 0x1F NOT PUSH1 0x1F DUP4 ADD AND SWAP1 POP SWAP2 SWAP1 POP JUMP JUMPDEST PUSH32 0x4E487B7100000000000000000000000000000000000000000000000000000000 PUSH1 0x0 MSTORE PUSH1 0x41 PUSH1 0x4 MSTORE PUSH1 0x24 PUSH1 0x0 REVERT JUMPDEST PUSH2 0xC9B DUP3 PUSH2 0xC52 JUMP JUMPDEST DUP2 ADD DUP2 DUP2 LT PUSH8 0xFFFFFFFFFFFFFFFF DUP3 GT OR ISZERO PUSH2 0xCBA JUMPI PUSH2 0xCB9 PUSH2 0xC63 JUMP JUMPDEST JUMPDEST DUP1 PUSH1 0x40 MSTORE POP POP POP JUMP JUMPDEST PUSH1 0x0 PUSH2 0xCCD PUSH2 0xC34 JUMP JUMPDEST SWAP1 POP PUSH2 0xCD9 DUP3 DUP3 PUSH2 0xC92 JUMP JUMPDEST SWAP2 SWAP1 POP JUMP JUMPDEST PUSH1 0x0 PUSH8 0xFFFFFFFFFFFFFFFF DUP3 GT ISZERO PUSH2 0xCF9 JUMPI PUSH2 0xCF8 PUSH2 0xC63 JUMP JUMPDEST JUMPDEST PUSH2 0xD02 DUP3 PUSH2 0xC52 JUMP JUMPDEST SWAP1 POP PUSH1 0x20 DUP2 ADD SWAP1 POP SWAP2 SWAP1 POP JUMP JUMPDEST DUP3 DUP2 DUP4 CALLDATACOPY PUSH1 0x0 DUP4 DUP4 ADD MSTORE POP POP POP JUMP JUMPDEST PUSH1 0x0 PUSH2 0xD31 PUSH2 0xD2C DUP5 PUSH2 0xCDE JUMP JUMPDEST PUSH2 0xCC3 JUMP JUMPDEST SWAP1 POP DUP3 DUP2 MSTORE PUSH1 0x20 DUP2 ADD DUP5 DUP5 DUP5 ADD GT ISZERO PUSH2 0xD4D JUMPI PUSH2 0xD4C PUSH2 0xC4D JUMP JUMPDEST JUMPDEST PUSH2 0xD58 DUP5 DUP3 DUP6 PUSH2 0xD0F JUMP JUMPDEST POP SWAP4 SWAP3 POP POP POP JUMP JUMPDEST PUSH1 0x0 DUP3 PUSH1 0x1F DUP4 ADD SLT PUSH2 0xD75 JUMPI PUSH2 0xD74 PUSH2 0xC48 JUMP JUMPDEST JUMPDEST DUP2 CALLDATALOAD PUSH2 0xD85 DUP5 DUP3 PUSH1 0x20 DUP7 ADD PUSH2 0xD1E JUMP JUMPDEST SWAP2 POP POP SWAP3 SWAP2 POP POP JUMP JUMPDEST PUSH1 0x0 PUSH1 0x20 DUP3 DUP5 SUB SLT ISZERO PUSH2 0xDA4 JUMPI PUSH2 0xDA3 PUSH2 0xC3E JUMP JUMPDEST JUMPDEST PUSH1 0x0 DUP3 ADD CALLDATALOAD PUSH8 0xFFFFFFFFFFFFFFFF DUP2 GT ISZERO PUSH2 0xDC2 JUMPI PUSH2 0xDC1 PUSH2 0xC43 JUMP JUMPDEST JUMPDEST PUSH2 0xDCE DUP5 DUP3 DUP6 ADD PUSH2 0xD60 JUMP JUMPDEST SWAP2 POP POP SWAP3 SWAP2 POP POP JUMP JUMPDEST PUSH1 0x0 DUP2 SWAP1 POP SWAP2 SWAP1 POP JUMP JUMPDEST PUSH2 0xDEA DUP2 PUSH2 0xDD7 JUMP JUMPDEST DUP3 MSTORE POP POP JUMP JUMPDEST PUSH1 0x0 PUSH1 0x20 DUP3 ADD SWAP1 POP PUSH2 0xE05 PUSH1 0x0 DUP4 ADD DUP5 PUSH2 0xDE1 JUMP JUMPDEST SWAP3 SWAP2 POP POP JUMP JUMPDEST PUSH2 0xE14 DUP2 PUSH2 0xDD7 JUMP JUMPDEST DUP2 EQ PUSH2 0xE1F JUMPI PUSH1 0x0 DUP1 REVERT JUMPDEST POP JUMP JUMPDEST PUSH1 0x0 DUP2 CALLDATALOAD SWAP1 POP PUSH2 0xE31 DUP2 PUSH2 0xE0B JUMP JUMPDEST SWAP3 SWAP2 POP POP JUMP JUMPDEST PUSH1 0x0 DUP1 PUSH1 0x0 PUSH1 0x60 DUP5 DUP7 SUB SLT ISZERO PUSH2 0xE50 JUMPI PUSH2 0xE4F PUSH2 0xC3E JUMP JUMPDEST JUMPDEST PUSH1 0x0 DUP5 ADD CALLDATALOAD PUSH8 0xFFFFFFFFFFFFFFFF DUP2 GT ISZERO PUSH2 0xE6E JUMPI PUSH2 0xE6D PUSH2 0xC43 JUMP JUMPDEST JUMPDEST PUSH2 0xE7A DUP7 DUP3 DUP8 ADD PUSH2 0xD60 JUMP JUMPDEST SWAP4 POP POP PUSH1 0x20 PUSH2 0xE8B DUP7 DUP3 DUP8 ADD PUSH2 0xE22 JUMP JUMPDEST SWAP3 POP POP PUSH1 0x40 PUSH2 0xE9C DUP7 DUP3 DUP8 ADD PUSH2 0xE22 JUMP JUMPDEST SWAP2 POP POP SWAP3 POP SWAP3 POP SWAP3 JUMP JUMPDEST PUSH1 0x0 DUP2 MLOAD SWAP1 POP SWAP2 SWAP1 POP JUMP JUMPDEST PUSH1 0x0 DUP3 DUP3 MSTORE PUSH1 0x20 DUP3 ADD SWAP1 POP SWAP3 SWAP2 POP POP JUMP JUMPDEST PUSH1 0x0 JUMPDEST DUP4 DUP2 LT ISZERO PUSH2 0xEE0 JUMPI DUP1 DUP3 ADD MLOAD DUP2 DUP5 ADD MSTORE PUSH1 0x20 DUP2 ADD SWAP1 POP PUSH2 0xEC5 JUMP JUMPDEST PUSH1 0x0 DUP5 DUP5 ADD MSTORE POP POP POP POP JUMP JUMPDEST PUSH1 0x0 PUSH2 0xEF7 DUP3 PUSH2 0xEA6 JUMP JUMPDEST PUSH2 0xF01 DUP2 DUP6 PUSH2 0xEB1 JUMP JUMPDEST SWAP4 POP PUSH2 0xF11 DUP2 DUP6 PUSH1 0x20 DUP7 ADD PUSH2 0xEC2 JUMP JUMPDEST PUSH2 0xF1A DUP2 PUSH2 0xC52 JUMP JUMPDEST DUP5 ADD SWAP2 POP POP SWAP3 SWAP2 POP POP JUMP JUMPDEST PUSH1 0x0 PUSH1 0x20 DUP3 ADD SWAP1 POP DUP2 DUP2 SUB PUSH1 0x0 DUP4 ADD MSTORE PUSH2 0xF3F DUP2 DUP5 PUSH2 0xEEC JUMP JUMPDEST SWAP1 POP SWAP3 SWAP2 POP POP JUMP JUMPDEST PUSH1 0x0 PUSH20 0xFFFFFFFFFFFFFFFFFFFFFFFFFFFFFFFFFFFFFFFF DUP3 AND SWAP1 POP SWAP2 SWAP1 POP JUMP JUMPDEST PUSH1 0x0 PUSH2 0xF72 DUP3 PUSH2 0xF47 JUMP JUMPDEST SWAP1 POP SWAP2 SWAP1 POP JUMP JUMPDEST PUSH2 0xF82 DUP2 PUSH2 0xF67 JUMP JUMPDEST DUP2 EQ PUSH2 0xF8D JUMPI PUSH1 0x0 DUP1 REVERT JUMPDEST POP JUMP JUMPDEST PUSH1 0x0 DUP2 CALLDATALOAD SWAP1 POP PUSH2 0xF9F DUP2 PUSH2 0xF79 JUMP JUMPDEST SWAP3 SWAP2 POP POP JUMP JUMPDEST PUSH1 0x0 DUP1 PUSH1 0x40 DUP4 DUP6 SUB SLT ISZERO PUSH2 0xFBC JUMPI PUSH2 0xFBB PUSH2 0xC3E JUMP JUMPDEST JUMPDEST PUSH1 0x0 PUSH2 0xFCA DUP6 DUP3 DUP7 ADD PUSH2 0xF90 JUMP JUMPDEST SWAP3 POP POP PUSH1 0x20 DUP4 ADD CALLDATALOAD PUSH8 0xFFFFFFFFFFFFFFFF DUP2 GT ISZERO PUSH2 0xFEB JUMPI PUSH2 0xFEA PUSH2 0xC43 JUMP JUMPDEST JUMPDEST PUSH2 0xFF7 DUP6 DUP3 DUP7 ADD PUSH2 0xD60 JUMP JUMPDEST SWAP2 POP POP SWAP3 POP SWAP3 SWAP1 POP JUMP JUMPDEST PUSH1 0x0 PUSH1 0x20 DUP3 DUP5 SUB SLT ISZERO PUSH2 0x1017 JUMPI PUSH2 0x1016 PUSH2 0xC3E JUMP JUMPDEST JUMPDEST PUSH1 0x0 PUSH2 0x1025 DUP5 DUP3 DUP6 ADD PUSH2 0xF90 JUMP JUMPDEST SWAP2 POP POP SWAP3 SWAP2 POP POP JUMP JUMPDEST PUSH2 0x1037 DUP2 PUSH2 0xF67 JUMP JUMPDEST DUP3 MSTORE POP POP JUMP JUMPDEST PUSH1 0x0 PUSH1 0x20 DUP3 ADD SWAP1 POP PUSH2 0x1052 PUSH1 0x0 DUP4 ADD DUP5 PUSH2 0x102E JUMP JUMPDEST SWAP3 SWAP2 POP POP JUMP JUMPDEST PUSH32 0x4E487B7100000000000000000000000000000000000000000000000000000000 PUSH1 0x0 MSTORE PUSH1 0x32 PUSH1 0x4 MSTORE PUSH1 0x24 PUSH1 0x0 REVERT JUMPDEST PUSH32 0x4E487B7100000000000000000000000000000000000000000000000000000000 PUSH1 0x0 MSTORE PUSH1 0x11 PUSH1 0x4 MSTORE PUSH1 0x24 PUSH1 0x0 REVERT JUMPDEST PUSH1 0x0 PUSH2 0x10C1 DUP3 PUSH2 0xDD7 JUMP JUMPDEST SWAP2 POP PUSH2 0x10CC DUP4 PUSH2 0xDD7 JUMP JUMPDEST SWAP3 POP DUP3 DUP3 SUB SWAP1 POP DUP2 DUP2 GT ISZERO PUSH2 0x10E4 JUMPI PUSH2 0x10E3 PUSH2 0x1087 JUMP JUMPDEST JUMPDEST SWAP3 SWAP2 POP POP JUMP JUMPDEST PUSH1 0x0 PUSH2 0x10F5 DUP3 PUSH2 0xDD7 JUMP JUMPDEST SWAP2 POP PUSH2 0x1100 DUP4 PUSH2 0xDD7 JUMP JUMPDEST SWAP3 POP DUP3 DUP3 MUL PUSH2 0x110E DUP2 PUSH2 0xDD7 JUMP JUMPDEST SWAP2 POP DUP3 DUP3 DIV DUP5 EQ DUP4 ISZERO OR PUSH2 0x1125 JUMPI PUSH2 0x1124 PUSH2 0x1087 JUMP JUMPDEST JUMPDEST POP SWAP3 SWAP2 POP POP JUMP JUMPDEST PUSH1 0x0 PUSH2 0x1137 DUP3 PUSH2 0xDD7 JUMP JUMPDEST SWAP2 POP PUSH2 0x1142 DUP4 PUSH2 0xDD7 JUMP JUMPDEST SWAP3 POP DUP3 DUP3 ADD SWAP1 POP DUP1 DUP3 GT ISZERO PUSH2 0x115A JUMPI PUSH2 0x1159 PUSH2 0x1087 JUMP JUMPDEST JUMPDEST SWAP3 SWAP2 POP POP JUMP JUMPDEST PUSH1 0x0 PUSH2 0x116B DUP3 PUSH2 0xDD7 JUMP JUMPDEST SWAP2 POP PUSH32 0xFFFFFFFFFFFFFFFFFFFFFFFFFFFFFFFFFFFFFFFFFFFFFFFFFFFFFFFFFFFFFFFF DUP3 SUB PUSH2 0x119D JUMPI PUSH2 0x119C PUSH2 0x1087 JUMP JUMPDEST JUMPDEST PUSH1 0x1 DUP3 ADD SWAP1 POP SWAP2 SWAP1 POP JUMP JUMPDEST PUSH1 0x0 DUP2 MLOAD SWAP1 POP PUSH2 0x11B7 DUP2 PUSH2 0xF79 JUMP JUMPDEST SWAP3 SWAP2 POP POP JUMP JUMPDEST PUSH1 0x0 PUSH1 0x20 DUP3 DUP5 SUB SLT ISZERO PUSH2 0x11D3 JUMPI PUSH2 0x11D2 PUSH2 0xC3E JUMP JUMPDEST JUMPDEST PUSH1 0x0 PUSH2 0x11E1 DUP5 DUP3 DUP6 ADD PUSH2 0x11A8 JUMP JUMPDEST SWAP2 POP POP SWAP3 SWAP2 POP POP JUMP JUMPDEST PUSH32 0x6F6E6C7920746865206964656E74697479206F776E65722063616E2020000000 PUSH1 0x0 DUP3 ADD MSTORE POP JUMP JUMPDEST PUSH1 0x0 PUSH2 0x1220 PUSH1 0x1D DUP4 PUSH2 0xEB1 JUMP JUMPDEST SWAP2 POP PUSH2 0x122B DUP3 PUSH2 0x11EA JUMP JUMPDEST PUSH1 0x20 DUP3 ADD SWAP1 POP SWAP2 SWAP1 POP JUMP JUMPDEST PUSH1 0x0 PUSH1 0x20 DUP3 ADD SWAP1 POP DUP2 DUP2 SUB PUSH1 0x0 DUP4 ADD MSTORE PUSH2 0x124F DUP2 PUSH2 0x1213 JUMP JUMPDEST SWAP1 POP SWAP2 SWAP1 POP JUMP JUMPDEST PUSH32 0x4E487B7100000000000000000000000000000000000000000000000000000000 PUSH1 0x0 MSTORE PUSH1 0x22 PUSH1 0x4 MSTORE PUSH1 0x24 PUSH1 0x0 REVERT JUMPDEST PUSH1 0x0 PUSH1 0x2 DUP3 DIV SWAP1 POP PUSH1 0x1 DUP3 AND DUP1 PUSH2 0x129D JUMPI PUSH1 0x7F DUP3 AND SWAP2 POP JUMPDEST PUSH1 0x20 DUP3 LT DUP2 SUB PUSH2 0x12B0 JUMPI PUSH2 0x12AF PUSH2 0x1256 JUMP JUMPDEST JUMPDEST POP SWAP2 SWAP1 POP JUMP JUMPDEST PUSH1 0x0 DUP2 SWAP1 POP DUP2 PUSH1 0x0 MSTORE PUSH1 0x20 PUSH1 0x0 KECCAK256 SWAP1 POP SWAP2 SWAP1 POP JUMP JUMPDEST PUSH1 0x0 PUSH1 0x20 PUSH1 0x1F DUP4 ADD DIV SWAP1 POP SWAP2 SWAP1 POP JUMP JUMPDEST PUSH1 0x0 DUP3 DUP3 SHL SWAP1 POP SWAP3 SWAP2 POP POP JUMP JUMPDEST PUSH1 0x0 PUSH1 0x8 DUP4 MUL PUSH2 0x1318 PUSH32 0xFFFFFFFFFFFFFFFFFFFFFFFFFFFFFFFFFFFFFFFFFFFFFFFFFFFFFFFFFFFFFFFF DUP3 PUSH2 0x12DB JUMP JUMPDEST PUSH2 0x1322 DUP7 DUP4 PUSH2 0x12DB JUMP JUMPDEST SWAP6 POP DUP1 NOT DUP5 AND SWAP4 POP DUP1 DUP7 AND DUP5 OR SWAP3 POP POP POP SWAP4 SWAP3 POP POP POP JUMP JUMPDEST PUSH1 0x0 DUP2 SWAP1 POP SWAP2 SWAP1 POP JUMP JUMPDEST PUSH1 0x0 PUSH2 0x135F PUSH2 0x135A PUSH2 0x1355 DUP5 PUSH2 0xDD7 JUMP JUMPDEST PUSH2 0x133A JUMP JUMPDEST PUSH2 0xDD7 JUMP JUMPDEST SWAP1 POP SWAP2 SWAP1 POP JUMP JUMPDEST PUSH1 0x0 DUP2 SWAP1 POP SWAP2 SWAP1 POP JUMP JUMPDEST PUSH2 0x1379 DUP4 PUSH2 0x1344 JUMP JUMPDEST PUSH2 0x138D PUSH2 0x1385 DUP3 PUSH2 0x1366 JUMP JUMPDEST DUP5 DUP5 SLOAD PUSH2 0x12E8 JUMP JUMPDEST DUP3 SSTORE POP POP POP POP JUMP JUMPDEST PUSH1 0x0 SWAP1 JUMP JUMPDEST PUSH2 0x13A2 PUSH2 0x1395 JUMP JUMPDEST PUSH2 0x13AD DUP2 DUP5 DUP5 PUSH2 0x1370 JUMP JUMPDEST POP POP POP JUMP JUMPDEST JUMPDEST DUP2 DUP2 LT ISZERO PUSH2 0x13D1 JUMPI PUSH2 0x13C6 PUSH1 0x0 DUP3 PUSH2 0x139A JUMP JUMPDEST PUSH1 0x1 DUP2 ADD SWAP1 POP PUSH2 0x13B3 JUMP JUMPDEST POP POP JUMP JUMPDEST PUSH1 0x1F DUP3 GT ISZERO PUSH2 0x1416 JUMPI PUSH2 0x13E7 DUP2 PUSH2 0x12B6 JUMP JUMPDEST PUSH2 0x13F0 DUP5 PUSH2 0x12CB JUMP JUMPDEST DUP2 ADD PUSH1 0x20 DUP6 LT ISZERO PUSH2 0x13FF JUMPI DUP2 SWAP1 POP JUMPDEST PUSH2 0x1413 PUSH2 0x140B DUP6 PUSH2 0x12CB JUMP JUMPDEST DUP4 ADD DUP3 PUSH2 0x13B2 JUMP JUMPDEST POP POP JUMPDEST POP POP POP JUMP JUMPDEST PUSH1 0x0 DUP3 DUP3 SHR SWAP1 POP SWAP3 SWAP2 POP POP JUMP JUMPDEST PUSH1 0x0 PUSH2 0x1439 PUSH1 0x0 NOT DUP5 PUSH1 0x8 MUL PUSH2 0x141B JUMP JUMPDEST NOT DUP1 DUP4 AND SWAP2 POP POP SWAP3 SWAP2 POP POP JUMP JUMPDEST PUSH1 0x0 PUSH2 0x1452 DUP4 DUP4 PUSH2 0x1428 JUMP JUMPDEST SWAP2 POP DUP3 PUSH1 0x2 MUL DUP3 OR SWAP1 POP SWAP3 SWAP2 POP POP JUMP JUMPDEST PUSH2 0x146B DUP3 PUSH2 0xEA6 JUMP JUMPDEST PUSH8 0xFFFFFFFFFFFFFFFF DUP2 GT ISZERO PUSH2 0x1484 JUMPI PUSH2 0x1483 PUSH2 0xC63 JUMP JUMPDEST JUMPDEST PUSH2 0x148E DUP3 SLOAD PUSH2 0x1285 JUMP JUMPDEST PUSH2 0x1499 DUP3 DUP3 DUP6 PUSH2 0x13D5 JUMP JUMPDEST PUSH1 0x0 PUSH1 0x20 SWAP1 POP PUSH1 0x1F DUP4 GT PUSH1 0x1 DUP2 EQ PUSH2 0x14CC JUMPI PUSH1 0x0 DUP5 ISZERO PUSH2 0x14BA JUMPI DUP3 DUP8 ADD MLOAD SWAP1 POP JUMPDEST PUSH2 0x14C4 DUP6 DUP3 PUSH2 0x1446 JUMP JUMPDEST DUP7 SSTORE POP PUSH2 0x152C JUMP JUMPDEST PUSH1 0x1F NOT DUP5 AND PUSH2 0x14DA DUP7 PUSH2 0x12B6 JUMP JUMPDEST PUSH1 0x0 JUMPDEST DUP3 DUP2 LT ISZERO PUSH2 0x1502 JUMPI DUP5 DUP10 ADD MLOAD DUP3 SSTORE PUSH1 0x1 DUP3 ADD SWAP2 POP PUSH1 0x20 DUP6 ADD SWAP5 POP PUSH1 0x20 DUP2 ADD SWAP1 POP PUSH2 0x14DD JUMP JUMPDEST DUP7 DUP4 LT ISZERO PUSH2 0x151F JUMPI DUP5 DUP10 ADD MLOAD PUSH2 0x151B PUSH1 0x1F DUP10 AND DUP3 PUSH2 0x1428 JUMP JUMPDEST DUP4 SSTORE POP JUMPDEST PUSH1 0x1 PUSH1 0x2 DUP9 MUL ADD DUP9 SSTORE POP POP POP JUMPDEST POP POP POP POP POP POP JUMP JUMPDEST PUSH1 0x0 PUSH1 0xFF DUP3 AND SWAP1 POP SWAP2 SWAP1 POP JUMP JUMPDEST PUSH1 0x0 PUSH2 0x154C DUP3 PUSH2 0x1534 JUMP JUMPDEST SWAP2 POP PUSH2 0x1557 DUP4 PUSH2 0x1534 JUMP JUMPDEST SWAP3 POP DUP3 DUP3 ADD SWAP1 POP PUSH1 0xFF DUP2 GT ISZERO PUSH2 0x1570 JUMPI PUSH2 0x156F PUSH2 0x1087 JUMP JUMPDEST JUMPDEST SWAP3 SWAP2 POP POP JUMP JUMPDEST PUSH1 0x0 PUSH2 0x1581 DUP3 PUSH2 0xF47 JUMP JUMPDEST SWAP2 POP PUSH2 0x158C DUP4 PUSH2 0xF47 JUMP JUMPDEST SWAP3 POP DUP3 DUP3 MUL PUSH2 0x159A DUP2 PUSH2 0xF47 JUMP JUMPDEST SWAP2 POP DUP3 DUP3 DIV DUP5 EQ DUP4 ISZERO OR PUSH2 0x15B1 JUMPI PUSH2 0x15B0 PUSH2 0x1087 JUMP JUMPDEST JUMPDEST POP SWAP3 SWAP2 POP POP JUMP JUMPDEST PUSH1 0x0 PUSH2 0x15C3 DUP3 PUSH2 0xF47 JUMP JUMPDEST SWAP2 POP PUSH2 0x15CE DUP4 PUSH2 0xF47 JUMP JUMPDEST SWAP3 POP DUP3 DUP3 SUB SWAP1 POP PUSH20 0xFFFFFFFFFFFFFFFFFFFFFFFFFFFFFFFFFFFFFFFF DUP2 GT ISZERO PUSH2 0x15FA JUMPI PUSH2 0x15F9 PUSH2 0x1087 JUMP JUMPDEST JUMPDEST SWAP3 SWAP2 POP POP JUMP JUMPDEST PUSH1 0x0 PUSH2 0x160B DUP3 PUSH2 0xF47 JUMP JUMPDEST SWAP2 POP PUSH2 0x1616 DUP4 PUSH2 0xF47 JUMP JUMPDEST SWAP3 POP DUP3 DUP3 ADD SWAP1 POP PUSH20 0xFFFFFFFFFFFFFFFFFFFFFFFFFFFFFFFFFFFFFFFF DUP2 GT ISZERO PUSH2 0x1642 JUMPI PUSH2 0x1641 PUSH2 0x1087 JUMP JUMPDEST JUMPDEST SWAP3 SWAP2 POP POP JUMP JUMPDEST PUSH32 0x4F776E61626C653A206E6577206F776E657220697320746865207A65726F2061 PUSH1 0x0 DUP3 ADD MSTORE PUSH32 0x6464726573730000000000000000000000000000000000000000000000000000 PUSH1 0x20 DUP3 ADD MSTORE POP JUMP JUMPDEST PUSH1 0x0 PUSH2 0x16A4 PUSH1 0x26 DUP4 PUSH2 0xEB1 JUMP JUMPDEST SWAP2 POP PUSH2 0x16AF DUP3 PUSH2 0x1648 JUMP JUMPDEST PUSH1 0x40 DUP3 ADD SWAP1 POP SWAP2 SWAP1 POP JUMP JUMPDEST PUSH1 0x0 PUSH1 0x20 DUP3 ADD SWAP1 POP DUP2 DUP2 SUB PUSH1 0x0 DUP4 ADD MSTORE PUSH2 0x16D3 DUP2 PUSH2 0x1697 JUMP JUMPDEST SWAP1 POP SWAP2 SWAP1 POP JUMP JUMPDEST PUSH32 0x4F776E61626C653A2063616C6C6572206973206E6F7420746865206F776E6572 PUSH1 0x0 DUP3 ADD MSTORE POP JUMP JUMPDEST PUSH1 0x0 PUSH2 0x1710 PUSH1 0x20 DUP4 PUSH2 0xEB1 JUMP JUMPDEST SWAP2 POP PUSH2 0x171B DUP3 PUSH2 0x16DA JUMP JUMPDEST PUSH1 0x20 DUP3 ADD SWAP1 POP SWAP2 SWAP1 POP JUMP JUMPDEST PUSH1 0x0 PUSH1 0x20 DUP3 ADD SWAP1 POP DUP2 DUP2 SUB PUSH1 0x0 DUP4 ADD MSTORE PUSH2 0x173F DUP2 PUSH2 0x1703 JUMP JUMPDEST SWAP1 POP SWAP2 SWAP1 POP JUMP INVALID LOG2 PUSH5 0x6970667358 0x22 SLT KECCAK256 0xC7 0x2B SWAP5 0x2F 0xDA 0xDE ADD DUP13 PUSH19 0xDF18E42AB6BF15E3F428AD0F2B83B7556FBA85 0xD2 0xC2 PUSH30 0xA64736F6C63430008120033000000000000000000000000000000000000 "
				},
				"gasEstimates": {
					"creation": {
						"codeDepositCost": "1202400",
						"executionCost": "infinite",
						"totalCost": "infinite"
					},
					"external": {
						"addressToID(address)": "infinite",
						"createShop(address,string)": "infinite",
						"owner()": "2544",
						"parseAddr(string)": "infinite",
						"renounceOwnership()": "30443",
						"stringToUint(string)": "infinite",
						"substring(string,uint256,uint256)": "infinite",
						"toLowerCase(string)": "infinite",
						"transferOwnership(address)": "30832"
					}
				},
				"methodIdentifiers": {
					"addressToID(address)": "8694142b",
					"createShop(address,string)": "816bcee3",
					"owner()": "8da5cb5b",
					"parseAddr(string)": "a6823189",
					"renounceOwnership()": "715018a6",
					"stringToUint(string)": "1bd95155",
					"substring(string,uint256,uint256)": "1dcd9b55",
					"toLowerCase(string)": "97b21440",
					"transferOwnership(address)": "f2fde38b"
				}
			},
			"storageLayout": {
				"storage": [
					{
						"astId": 2314,
						"contract": "Arnacon/AyalaShop.sol:AyalaShop",
						"label": "_owner",
						"offset": 0,
						"slot": "0",
						"type": "t_address"
					},
					{
						"astId": 2456,
						"contract": "Arnacon/AyalaShop.sol:AyalaShop",
						"label": "addressToID",
						"offset": 0,
						"slot": "1",
						"type": "t_mapping(t_address,t_string_storage)"
					}
				],
				"types": {
					"t_address": {
						"encoding": "inplace",
						"label": "address",
						"numberOfBytes": "20"
					},
					"t_mapping(t_address,t_string_storage)": {
						"encoding": "mapping",
						"key": "t_address",
						"label": "mapping(address => string)",
						"numberOfBytes": "32",
						"value": "t_string_storage"
					},
					"t_string_storage": {
						"encoding": "bytes",
						"label": "string",
						"numberOfBytes": "32"
					}
				}
			},
			"userdoc": {
				"kind": "user",
				"methods": {},
				"version": 1
			}
		}
	}
}