{
	"Arnacon/AyalaKamailio.sol": {
		"AyalaKamailio": {
			"abi": [
				{
					"inputs": [],
					"stateMutability": "nonpayable",
					"type": "constructor"
				},
				{
					"anonymous": false,
					"inputs": [
						{
							"indexed": true,
							"internalType": "address",
							"name": "previousOwner",
							"type": "address"
						},
						{
							"indexed": true,
							"internalType": "address",
							"name": "newOwner",
							"type": "address"
						}
					],
					"name": "OwnershipTransferred",
					"type": "event"
				},
				{
					"inputs": [
						{
							"internalType": "string",
							"name": "concatenated",
							"type": "string"
						}
					],
					"name": "checkOwnership",
					"outputs": [
						{
							"internalType": "address",
							"name": "",
							"type": "address"
						}
					],
					"stateMutability": "view",
					"type": "function"
				},
				{
					"inputs": [
						{
							"internalType": "string",
							"name": "",
							"type": "string"
						}
					],
					"name": "kamaToID",
					"outputs": [
						{
							"internalType": "string",
							"name": "",
							"type": "string"
						}
					],
					"stateMutability": "view",
					"type": "function"
				},
				{
					"inputs": [],
					"name": "owner",
					"outputs": [
						{
							"internalType": "address",
							"name": "",
							"type": "address"
						}
					],
					"stateMutability": "view",
					"type": "function"
				},
				{
					"inputs": [
						{
							"internalType": "string",
							"name": "_a",
							"type": "string"
						}
					],
					"name": "parseAddr",
					"outputs": [
						{
							"internalType": "address",
							"name": "_parsedAddress",
							"type": "address"
						}
					],
					"stateMutability": "pure",
					"type": "function"
				},
				{
					"inputs": [],
					"name": "renounceOwnership",
					"outputs": [],
					"stateMutability": "nonpayable",
					"type": "function"
				},
				{
					"inputs": [
						{
							"internalType": "string",
							"name": "s",
							"type": "string"
						}
					],
					"name": "stringToUint",
					"outputs": [
						{
							"internalType": "uint256",
							"name": "result",
							"type": "uint256"
						}
					],
					"stateMutability": "pure",
					"type": "function"
				},
				{
					"inputs": [
						{
							"internalType": "string",
							"name": "str",
							"type": "string"
						},
						{
							"internalType": "uint256",
							"name": "startIndex",
							"type": "uint256"
						},
						{
							"internalType": "uint256",
							"name": "endIndex",
							"type": "uint256"
						}
					],
					"name": "substring",
					"outputs": [
						{
							"internalType": "string",
							"name": "",
							"type": "string"
						}
					],
					"stateMutability": "pure",
					"type": "function"
				},
				{
					"inputs": [
						{
							"internalType": "address",
							"name": "newOwner",
							"type": "address"
						}
					],
					"name": "transferOwnership",
					"outputs": [],
					"stateMutability": "nonpayable",
					"type": "function"
				},
				{
					"inputs": [
						{
							"internalType": "string",
							"name": "_identityNumber",
							"type": "string"
						},
						{
							"internalType": "string",
							"name": "_usernameOfKamailio",
							"type": "string"
						}
					],
					"name": "updateUsername",
					"outputs": [],
					"stateMutability": "nonpayable",
					"type": "function"
				}
			],
			"devdoc": {
				"kind": "dev",
				"methods": {
					"owner()": {
						"details": "Returns the address of the current owner."
					},
					"renounceOwnership()": {
						"details": "Leaves the contract without owner. It will not be possible to call `onlyOwner` functions. Can only be called by the current owner. NOTE: Renouncing ownership will leave the contract without an owner, thereby disabling any functionality that is only available to the owner."
					},
					"transferOwnership(address)": {
						"details": "Transfers ownership of the contract to a new account (`newOwner`). Can only be called by the current owner."
					}
				},
				"version": 1
			},
			"evm": {
				"assembly": "    /* \"Arnacon/AyalaKamailio.sol\":245:3459  contract AyalaKamailio is Ownable {... */\n  mstore(0x40, 0x80)\n    /* \"Arnacon/AyalaKamailio.sol\":288:304  constructor() {} */\n  callvalue\n  dup1\n  iszero\n  tag_1\n  jumpi\n  0x00\n  dup1\n  revert\ntag_1:\n  pop\n    /* \"@openzeppelin/contracts@4.9.3/access/Ownable.sol\":936:968  _transferOwnership(_msgSender()) */\n  tag_5\n    /* \"@openzeppelin/contracts@4.9.3/access/Ownable.sol\":955:967  _msgSender() */\n  tag_6\n    /* \"@openzeppelin/contracts@4.9.3/access/Ownable.sol\":955:965  _msgSender */\n  shl(0x20, tag_7)\n    /* \"@openzeppelin/contracts@4.9.3/access/Ownable.sol\":955:967  _msgSender() */\n  0x20\n  shr\n  jump\t// in\ntag_6:\n    /* \"@openzeppelin/contracts@4.9.3/access/Ownable.sol\":936:954  _transferOwnership */\n  shl(0x20, tag_8)\n    /* \"@openzeppelin/contracts@4.9.3/access/Ownable.sol\":936:968  _transferOwnership(_msgSender()) */\n  0x20\n  shr\n  jump\t// in\ntag_5:\n    /* \"Arnacon/AyalaKamailio.sol\":245:3459  contract AyalaKamailio is Ownable {... */\n  jump(tag_10)\n    /* \"@openzeppelin/contracts@4.9.3/utils/Context.sol\":640:736  function _msgSender() internal view virtual returns (address) {... */\ntag_7:\n    /* \"@openzeppelin/contracts@4.9.3/utils/Context.sol\":693:700  address */\n  0x00\n    /* \"@openzeppelin/contracts@4.9.3/utils/Context.sol\":719:729  msg.sender */\n  caller\n    /* \"@openzeppelin/contracts@4.9.3/utils/Context.sol\":712:729  return msg.sender */\n  swap1\n  pop\n    /* \"@openzeppelin/contracts@4.9.3/utils/Context.sol\":640:736  function _msgSender() internal view virtual returns (address) {... */\n  swap1\n  jump\t// out\n    /* \"@openzeppelin/contracts@4.9.3/access/Ownable.sol\":2426:2613  function _transferOwnership(address newOwner) internal virtual {... */\ntag_8:\n    /* \"@openzeppelin/contracts@4.9.3/access/Ownable.sol\":2499:2515  address oldOwner */\n  0x00\n    /* \"@openzeppelin/contracts@4.9.3/access/Ownable.sol\":2518:2524  _owner */\n  dup1\n  0x00\n  swap1\n  sload\n  swap1\n  0x0100\n  exp\n  swap1\n  div\n  0xffffffffffffffffffffffffffffffffffffffff\n  and\n    /* \"@openzeppelin/contracts@4.9.3/access/Ownable.sol\":2499:2524  address oldOwner = _owner */\n  swap1\n  pop\n    /* \"@openzeppelin/contracts@4.9.3/access/Ownable.sol\":2543:2551  newOwner */\n  dup2\n    /* \"@openzeppelin/contracts@4.9.3/access/Ownable.sol\":2534:2540  _owner */\n  0x00\n  dup1\n    /* \"@openzeppelin/contracts@4.9.3/access/Ownable.sol\":2534:2551  _owner = newOwner */\n  0x0100\n  exp\n  dup2\n  sload\n  dup2\n  0xffffffffffffffffffffffffffffffffffffffff\n  mul\n  not\n  and\n  swap1\n  dup4\n  0xffffffffffffffffffffffffffffffffffffffff\n  and\n  mul\n  or\n  swap1\n  sstore\n  pop\n    /* \"@openzeppelin/contracts@4.9.3/access/Ownable.sol\":2597:2605  newOwner */\n  dup2\n    /* \"@openzeppelin/contracts@4.9.3/access/Ownable.sol\":2566:2606  OwnershipTransferred(oldOwner, newOwner) */\n  0xffffffffffffffffffffffffffffffffffffffff\n  and\n    /* \"@openzeppelin/contracts@4.9.3/access/Ownable.sol\":2587:2595  oldOwner */\n  dup2\n    /* \"@openzeppelin/contracts@4.9.3/access/Ownable.sol\":2566:2606  OwnershipTransferred(oldOwner, newOwner) */\n  0xffffffffffffffffffffffffffffffffffffffff\n  and\n  0x8be0079c531659141344cd1fd0a4f28419497f9722a3daafe3b4186f6b6457e0\n  mload(0x40)\n  mload(0x40)\n  dup1\n  swap2\n  sub\n  swap1\n  log3\n    /* \"@openzeppelin/contracts@4.9.3/access/Ownable.sol\":2489:2613  {... */\n  pop\n    /* \"@openzeppelin/contracts@4.9.3/access/Ownable.sol\":2426:2613  function _transferOwnership(address newOwner) internal virtual {... */\n  pop\n  jump\t// out\n    /* \"Arnacon/AyalaKamailio.sol\":245:3459  contract AyalaKamailio is Ownable {... */\ntag_10:\n  dataSize(sub_0)\n  dup1\n  dataOffset(sub_0)\n  0x00\n  codecopy\n  0x00\n  return\nstop\n\nsub_0: assembly {\n        /* \"Arnacon/AyalaKamailio.sol\":245:3459  contract AyalaKamailio is Ownable {... */\n      mstore(0x40, 0x80)\n      callvalue\n      dup1\n      iszero\n      tag_1\n      jumpi\n      0x00\n      dup1\n      revert\n    tag_1:\n      pop\n      jumpi(tag_2, lt(calldatasize, 0x04))\n      shr(0xe0, calldataload(0x00))\n      dup1\n      0x892d069c\n      gt\n      tag_12\n      jumpi\n      dup1\n      0x892d069c\n      eq\n      tag_7\n      jumpi\n      dup1\n      0x8da5cb5b\n      eq\n      tag_8\n      jumpi\n      dup1\n      0xa6823189\n      eq\n      tag_9\n      jumpi\n      dup1\n      0xbffd1ea9\n      eq\n      tag_10\n      jumpi\n      dup1\n      0xf2fde38b\n      eq\n      tag_11\n      jumpi\n      jump(tag_2)\n    tag_12:\n      dup1\n      0x1bd95155\n      eq\n      tag_3\n      jumpi\n      dup1\n      0x1dcd9b55\n      eq\n      tag_4\n      jumpi\n      dup1\n      0x715018a6\n      eq\n      tag_5\n      jumpi\n      dup1\n      0x72390d13\n      eq\n      tag_6\n      jumpi\n    tag_2:\n      0x00\n      dup1\n      revert\n        /* \"Arnacon/AyalaKamailio.sol\":2656:3021  function stringToUint(string memory s) public pure returns (uint256 result) {... */\n    tag_3:\n      tag_13\n      0x04\n      dup1\n      calldatasize\n      sub\n      dup2\n      add\n      swap1\n      tag_14\n      swap2\n      swap1\n      tag_15\n      jump\t// in\n    tag_14:\n      tag_16\n      jump\t// in\n    tag_13:\n      mload(0x40)\n      tag_17\n      swap2\n      swap1\n      tag_18\n      jump\t// in\n    tag_17:\n      mload(0x40)\n      dup1\n      swap2\n      sub\n      swap1\n      return\n        /* \"Arnacon/AyalaKamailio.sol\":3076:3450  function substring(string memory str, uint startIndex, uint endIndex) public pure returns (string memory) {... */\n    tag_4:\n      tag_19\n      0x04\n      dup1\n      calldatasize\n      sub\n      dup2\n      add\n      swap1\n      tag_20\n      swap2\n      swap1\n      tag_21\n      jump\t// in\n    tag_20:\n      tag_22\n      jump\t// in\n    tag_19:\n      mload(0x40)\n      tag_23\n      swap2\n      swap1\n      tag_24\n      jump\t// in\n    tag_23:\n      mload(0x40)\n      dup1\n      swap2\n      sub\n      swap1\n      return\n        /* \"@openzeppelin/contracts@4.9.3/access/Ownable.sol\":1824:1925  function renounceOwnership() public virtual onlyOwner {... */\n    tag_5:\n      tag_25\n      tag_26\n      jump\t// in\n    tag_25:\n      stop\n        /* \"Arnacon/AyalaKamailio.sol\":312:353  mapping(string => string) public kamaToID */\n    tag_6:\n      tag_27\n      0x04\n      dup1\n      calldatasize\n      sub\n      dup2\n      add\n      swap1\n      tag_28\n      swap2\n      swap1\n      tag_15\n      jump\t// in\n    tag_28:\n      tag_29\n      jump\t// in\n    tag_27:\n      mload(0x40)\n      tag_30\n      swap2\n      swap1\n      tag_24\n      jump\t// in\n    tag_30:\n      mload(0x40)\n      dup1\n      swap2\n      sub\n      swap1\n      return\n        /* \"Arnacon/AyalaKamailio.sol\":399:803  function updateUsername(string memory _identityNumber, string memory _usernameOfKamailio) public {... */\n    tag_7:\n      tag_31\n      0x04\n      dup1\n      calldatasize\n      sub\n      dup2\n      add\n      swap1\n      tag_32\n      swap2\n      swap1\n      tag_33\n      jump\t// in\n    tag_32:\n      tag_34\n      jump\t// in\n    tag_31:\n      stop\n        /* \"@openzeppelin/contracts@4.9.3/access/Ownable.sol\":1201:1286  function owner() public view virtual returns (address) {... */\n    tag_8:\n      tag_35\n      tag_36\n      jump\t// in\n    tag_35:\n      mload(0x40)\n      tag_37\n      swap2\n      swap1\n      tag_38\n      jump\t// in\n    tag_37:\n      mload(0x40)\n      dup1\n      swap2\n      sub\n      swap1\n      return\n        /* \"Arnacon/AyalaKamailio.sol\":1655:2594  function parseAddr(string memory _a) public pure returns (address _parsedAddress) {... */\n    tag_9:\n      tag_39\n      0x04\n      dup1\n      calldatasize\n      sub\n      dup2\n      add\n      swap1\n      tag_40\n      swap2\n      swap1\n      tag_15\n      jump\t// in\n    tag_40:\n      tag_41\n      jump\t// in\n    tag_39:\n      mload(0x40)\n      tag_42\n      swap2\n      swap1\n      tag_38\n      jump\t// in\n    tag_42:\n      mload(0x40)\n      dup1\n      swap2\n      sub\n      swap1\n      return\n        /* \"Arnacon/AyalaKamailio.sol\":883:1590  function checkOwnership(string memory concatenated) public view returns (address) {... */\n    tag_10:\n      tag_43\n      0x04\n      dup1\n      calldatasize\n      sub\n      dup2\n      add\n      swap1\n      tag_44\n      swap2\n      swap1\n      tag_15\n      jump\t// in\n    tag_44:\n      tag_45\n      jump\t// in\n    tag_43:\n      mload(0x40)\n      tag_46\n      swap2\n      swap1\n      tag_38\n      jump\t// in\n    tag_46:\n      mload(0x40)\n      dup1\n      swap2\n      sub\n      swap1\n      return\n        /* \"@openzeppelin/contracts@4.9.3/access/Ownable.sol\":2074:2272  function transferOwnership(address newOwner) public virtual onlyOwner {... */\n    tag_11:\n      tag_47\n      0x04\n      dup1\n      calldatasize\n      sub\n      dup2\n      add\n      swap1\n      tag_48\n      swap2\n      swap1\n      tag_49\n      jump\t// in\n    tag_48:\n      tag_50\n      jump\t// in\n    tag_47:\n      stop\n        /* \"Arnacon/AyalaKamailio.sol\":2656:3021  function stringToUint(string memory s) public pure returns (uint256 result) {... */\n    tag_16:\n        /* \"Arnacon/AyalaKamailio.sol\":2716:2730  uint256 result */\n      0x00\n        /* \"Arnacon/AyalaKamailio.sol\":2743:2757  bytes memory b */\n      dup1\n        /* \"Arnacon/AyalaKamailio.sol\":2766:2767  s */\n      dup3\n        /* \"Arnacon/AyalaKamailio.sol\":2743:2768  bytes memory b = bytes(s) */\n      swap1\n      pop\n        /* \"Arnacon/AyalaKamailio.sol\":2779:2788  uint256 i */\n      0x00\n        /* \"Arnacon/AyalaKamailio.sol\":2808:2809  0 */\n      dup1\n        /* \"Arnacon/AyalaKamailio.sol\":2799:2809  result = 0 */\n      swap3\n      pop\n        /* \"Arnacon/AyalaKamailio.sol\":2829:2830  0 */\n      0x00\n        /* \"Arnacon/AyalaKamailio.sol\":2825:2830  i = 0 */\n      swap1\n      pop\n        /* \"Arnacon/AyalaKamailio.sol\":2820:3014  for (i = 0; i < b.length; i++) {... */\n    tag_52:\n        /* \"Arnacon/AyalaKamailio.sol\":2836:2837  b */\n      dup2\n        /* \"Arnacon/AyalaKamailio.sol\":2836:2844  b.length */\n      mload\n        /* \"Arnacon/AyalaKamailio.sol\":2832:2833  i */\n      dup2\n        /* \"Arnacon/AyalaKamailio.sol\":2832:2844  i < b.length */\n      lt\n        /* \"Arnacon/AyalaKamailio.sol\":2820:3014  for (i = 0; i < b.length; i++) {... */\n      iszero\n      tag_53\n      jumpi\n        /* \"Arnacon/AyalaKamailio.sol\":2866:2875  uint256 c */\n      0x00\n        /* \"Arnacon/AyalaKamailio.sol\":2892:2893  b */\n      dup3\n        /* \"Arnacon/AyalaKamailio.sol\":2894:2895  i */\n      dup3\n        /* \"Arnacon/AyalaKamailio.sol\":2892:2896  b[i] */\n      dup2\n      mload\n      dup2\n      lt\n      tag_55\n      jumpi\n      tag_56\n      tag_57\n      jump\t// in\n    tag_56:\n    tag_55:\n      0x20\n      add\n      add\n      mload\n      0xf8\n      shr\n      0xf8\n      shl\n        /* \"Arnacon/AyalaKamailio.sol\":2886:2897  uint8(b[i]) */\n      0xf8\n      shr\n        /* \"Arnacon/AyalaKamailio.sol\":2878:2898  uint256(uint8(b[i])) */\n      0xff\n      and\n        /* \"Arnacon/AyalaKamailio.sol\":2866:2898  uint256 c = uint256(uint8(b[i])) */\n      swap1\n      pop\n        /* \"Arnacon/AyalaKamailio.sol\":2922:2924  48 */\n      0x30\n        /* \"Arnacon/AyalaKamailio.sol\":2917:2918  c */\n      dup2\n        /* \"Arnacon/AyalaKamailio.sol\":2917:2924  c >= 48 */\n      lt\n      iszero\n        /* \"Arnacon/AyalaKamailio.sol\":2917:2935  c >= 48 && c <= 57 */\n      dup1\n      iszero\n      tag_58\n      jumpi\n      pop\n        /* \"Arnacon/AyalaKamailio.sol\":2933:2935  57 */\n      0x39\n        /* \"Arnacon/AyalaKamailio.sol\":2928:2929  c */\n      dup2\n        /* \"Arnacon/AyalaKamailio.sol\":2928:2935  c <= 57 */\n      gt\n      iszero\n        /* \"Arnacon/AyalaKamailio.sol\":2917:2935  c >= 48 && c <= 57 */\n    tag_58:\n        /* \"Arnacon/AyalaKamailio.sol\":2913:3003  if (c >= 48 && c <= 57) {... */\n      iszero\n      tag_59\n      jumpi\n        /* \"Arnacon/AyalaKamailio.sol\":2984:2986  48 */\n      0x30\n        /* \"Arnacon/AyalaKamailio.sol\":2980:2981  c */\n      dup2\n        /* \"Arnacon/AyalaKamailio.sol\":2980:2986  c - 48 */\n      tag_60\n      swap2\n      swap1\n      tag_61\n      jump\t// in\n    tag_60:\n        /* \"Arnacon/AyalaKamailio.sol\":2974:2976  10 */\n      0x0a\n        /* \"Arnacon/AyalaKamailio.sol\":2965:2971  result */\n      dup6\n        /* \"Arnacon/AyalaKamailio.sol\":2965:2976  result * 10 */\n      tag_62\n      swap2\n      swap1\n      tag_63\n      jump\t// in\n    tag_62:\n        /* \"Arnacon/AyalaKamailio.sol\":2965:2987  result * 10 + (c - 48) */\n      tag_64\n      swap2\n      swap1\n      tag_65\n      jump\t// in\n    tag_64:\n        /* \"Arnacon/AyalaKamailio.sol\":2956:2987  result = result * 10 + (c - 48) */\n      swap4\n      pop\n        /* \"Arnacon/AyalaKamailio.sol\":2913:3003  if (c >= 48 && c <= 57) {... */\n    tag_59:\n        /* \"Arnacon/AyalaKamailio.sol\":2851:3014  {... */\n      pop\n        /* \"Arnacon/AyalaKamailio.sol\":2846:2849  i++ */\n      dup1\n      dup1\n      tag_66\n      swap1\n      tag_67\n      jump\t// in\n    tag_66:\n      swap2\n      pop\n      pop\n        /* \"Arnacon/AyalaKamailio.sol\":2820:3014  for (i = 0; i < b.length; i++) {... */\n      jump(tag_52)\n    tag_53:\n        /* \"Arnacon/AyalaKamailio.sol\":2732:3021  {... */\n      pop\n      pop\n        /* \"Arnacon/AyalaKamailio.sol\":2656:3021  function stringToUint(string memory s) public pure returns (uint256 result) {... */\n      swap2\n      swap1\n      pop\n      jump\t// out\n        /* \"Arnacon/AyalaKamailio.sol\":3076:3450  function substring(string memory str, uint startIndex, uint endIndex) public pure returns (string memory) {... */\n    tag_22:\n        /* \"Arnacon/AyalaKamailio.sol\":3167:3180  string memory */\n      0x60\n        /* \"Arnacon/AyalaKamailio.sol\":3193:3214  bytes memory strBytes */\n      0x00\n        /* \"Arnacon/AyalaKamailio.sol\":3223:3226  str */\n      dup5\n        /* \"Arnacon/AyalaKamailio.sol\":3193:3227  bytes memory strBytes = bytes(str) */\n      swap1\n      pop\n        /* \"Arnacon/AyalaKamailio.sol\":3238:3257  bytes memory result */\n      0x00\n        /* \"Arnacon/AyalaKamailio.sol\":3281:3291  startIndex */\n      dup5\n        /* \"Arnacon/AyalaKamailio.sol\":3270:3278  endIndex */\n      dup5\n        /* \"Arnacon/AyalaKamailio.sol\":3270:3291  endIndex - startIndex */\n      tag_69\n      swap2\n      swap1\n      tag_61\n      jump\t// in\n    tag_69:\n        /* \"Arnacon/AyalaKamailio.sol\":3260:3292  new bytes(endIndex - startIndex) */\n      0xffffffffffffffff\n      dup2\n      gt\n      iszero\n      tag_70\n      jumpi\n      tag_71\n      tag_72\n      jump\t// in\n    tag_71:\n    tag_70:\n      mload(0x40)\n      swap1\n      dup1\n      dup3\n      mstore\n      dup1\n      0x1f\n      add\n      not(0x1f)\n      and\n      0x20\n      add\n      dup3\n      add\n      0x40\n      mstore\n      dup1\n      iszero\n      tag_73\n      jumpi\n      dup2\n      0x20\n      add\n      0x01\n      dup3\n      mul\n      dup1\n      calldatasize\n      dup4\n      calldatacopy\n      dup1\n      dup3\n      add\n      swap2\n      pop\n      pop\n      swap1\n      pop\n    tag_73:\n      pop\n        /* \"Arnacon/AyalaKamailio.sol\":3238:3292  bytes memory result = new bytes(endIndex - startIndex) */\n      swap1\n      pop\n        /* \"Arnacon/AyalaKamailio.sol\":3308:3314  uint i */\n      0x00\n        /* \"Arnacon/AyalaKamailio.sol\":3317:3327  startIndex */\n      dup6\n        /* \"Arnacon/AyalaKamailio.sol\":3308:3327  uint i = startIndex */\n      swap1\n      pop\n        /* \"Arnacon/AyalaKamailio.sol\":3303:3411  for (uint i = startIndex; i < endIndex; i++) {... */\n    tag_74:\n        /* \"Arnacon/AyalaKamailio.sol\":3333:3341  endIndex */\n      dup5\n        /* \"Arnacon/AyalaKamailio.sol\":3329:3330  i */\n      dup2\n        /* \"Arnacon/AyalaKamailio.sol\":3329:3341  i < endIndex */\n      lt\n        /* \"Arnacon/AyalaKamailio.sol\":3303:3411  for (uint i = startIndex; i < endIndex; i++) {... */\n      iszero\n      tag_75\n      jumpi\n        /* \"Arnacon/AyalaKamailio.sol\":3388:3396  strBytes */\n      dup3\n        /* \"Arnacon/AyalaKamailio.sol\":3397:3398  i */\n      dup2\n        /* \"Arnacon/AyalaKamailio.sol\":3388:3399  strBytes[i] */\n      dup2\n      mload\n      dup2\n      lt\n      tag_77\n      jumpi\n      tag_78\n      tag_57\n      jump\t// in\n    tag_78:\n    tag_77:\n      0x20\n      add\n      add\n      mload\n      0xf8\n      shr\n      0xf8\n      shl\n        /* \"Arnacon/AyalaKamailio.sol\":3363:3369  result */\n      dup3\n        /* \"Arnacon/AyalaKamailio.sol\":3374:3384  startIndex */\n      dup8\n        /* \"Arnacon/AyalaKamailio.sol\":3370:3371  i */\n      dup4\n        /* \"Arnacon/AyalaKamailio.sol\":3370:3384  i - startIndex */\n      tag_79\n      swap2\n      swap1\n      tag_61\n      jump\t// in\n    tag_79:\n        /* \"Arnacon/AyalaKamailio.sol\":3363:3385  result[i - startIndex] */\n      dup2\n      mload\n      dup2\n      lt\n      tag_80\n      jumpi\n      tag_81\n      tag_57\n      jump\t// in\n    tag_81:\n    tag_80:\n      0x20\n      add\n      add\n        /* \"Arnacon/AyalaKamailio.sol\":3363:3399  result[i - startIndex] = strBytes[i] */\n      swap1\n      not(0xffffffffffffffffffffffffffffffffffffffffffffffffffffffffffffff)\n      and\n      swap1\n      dup2\n      0x00\n      byte\n      swap1\n      mstore8\n      pop\n        /* \"Arnacon/AyalaKamailio.sol\":3343:3346  i++ */\n      dup1\n      dup1\n      tag_82\n      swap1\n      tag_67\n      jump\t// in\n    tag_82:\n      swap2\n      pop\n      pop\n        /* \"Arnacon/AyalaKamailio.sol\":3303:3411  for (uint i = startIndex; i < endIndex; i++) {... */\n      jump(tag_74)\n    tag_75:\n      pop\n        /* \"Arnacon/AyalaKamailio.sol\":3435:3441  result */\n      dup1\n        /* \"Arnacon/AyalaKamailio.sol\":3421:3442  return string(result) */\n      swap3\n      pop\n      pop\n      pop\n        /* \"Arnacon/AyalaKamailio.sol\":3076:3450  function substring(string memory str, uint startIndex, uint endIndex) public pure returns (string memory) {... */\n      swap4\n      swap3\n      pop\n      pop\n      pop\n      jump\t// out\n        /* \"@openzeppelin/contracts@4.9.3/access/Ownable.sol\":1824:1925  function renounceOwnership() public virtual onlyOwner {... */\n    tag_26:\n        /* \"@openzeppelin/contracts@4.9.3/access/Ownable.sol\":1094:1107  _checkOwner() */\n      tag_84\n        /* \"@openzeppelin/contracts@4.9.3/access/Ownable.sol\":1094:1105  _checkOwner */\n      tag_85\n        /* \"@openzeppelin/contracts@4.9.3/access/Ownable.sol\":1094:1107  _checkOwner() */\n      jump\t// in\n    tag_84:\n        /* \"@openzeppelin/contracts@4.9.3/access/Ownable.sol\":1888:1918  _transferOwnership(address(0)) */\n      tag_87\n        /* \"@openzeppelin/contracts@4.9.3/access/Ownable.sol\":1915:1916  0 */\n      0x00\n        /* \"@openzeppelin/contracts@4.9.3/access/Ownable.sol\":1888:1906  _transferOwnership */\n      tag_88\n        /* \"@openzeppelin/contracts@4.9.3/access/Ownable.sol\":1888:1918  _transferOwnership(address(0)) */\n      jump\t// in\n    tag_87:\n        /* \"@openzeppelin/contracts@4.9.3/access/Ownable.sol\":1824:1925  function renounceOwnership() public virtual onlyOwner {... */\n      jump\t// out\n        /* \"Arnacon/AyalaKamailio.sol\":312:353  mapping(string => string) public kamaToID */\n    tag_29:\n      0x01\n      dup2\n      dup1\n      mload\n      0x20\n      dup2\n      add\n      dup3\n      add\n      dup1\n      mload\n      dup5\n      dup3\n      mstore\n      0x20\n      dup4\n      add\n      0x20\n      dup6\n      add\n      keccak256\n      dup2\n      dup4\n      mstore\n      dup1\n      swap6\n      pop\n      pop\n      pop\n      pop\n      pop\n      pop\n      0x00\n      swap2\n      pop\n      swap1\n      pop\n      dup1\n      sload\n      tag_89\n      swap1\n      tag_90\n      jump\t// in\n    tag_89:\n      dup1\n      0x1f\n      add\n      0x20\n      dup1\n      swap2\n      div\n      mul\n      0x20\n      add\n      mload(0x40)\n      swap1\n      dup2\n      add\n      0x40\n      mstore\n      dup1\n      swap3\n      swap2\n      swap1\n      dup2\n      dup2\n      mstore\n      0x20\n      add\n      dup3\n      dup1\n      sload\n      tag_91\n      swap1\n      tag_90\n      jump\t// in\n    tag_91:\n      dup1\n      iszero\n      tag_92\n      jumpi\n      dup1\n      0x1f\n      lt\n      tag_93\n      jumpi\n      0x0100\n      dup1\n      dup4\n      sload\n      div\n      mul\n      dup4\n      mstore\n      swap2\n      0x20\n      add\n      swap2\n      jump(tag_92)\n    tag_93:\n      dup3\n      add\n      swap2\n      swap1\n      0x00\n      mstore\n      keccak256(0x00, 0x20)\n      swap1\n    tag_94:\n      dup2\n      sload\n      dup2\n      mstore\n      swap1\n      0x01\n      add\n      swap1\n      0x20\n      add\n      dup1\n      dup4\n      gt\n      tag_94\n      jumpi\n      dup3\n      swap1\n      sub\n      0x1f\n      and\n      dup3\n      add\n      swap2\n    tag_92:\n      pop\n      pop\n      pop\n      pop\n      pop\n      dup2\n      jump\t// out\n        /* \"Arnacon/AyalaKamailio.sol\":399:803  function updateUsername(string memory _identityNumber, string memory _usernameOfKamailio) public {... */\n    tag_34:\n        /* \"Arnacon/AyalaKamailio.sol\":562:563  0 */\n      0x00\n        /* \"Arnacon/AyalaKamailio.sol\":521:529  kamaToID */\n      0x01\n        /* \"Arnacon/AyalaKamailio.sol\":530:549  _usernameOfKamailio */\n      dup3\n        /* \"Arnacon/AyalaKamailio.sol\":521:550  kamaToID[_usernameOfKamailio] */\n      mload(0x40)\n      tag_96\n      swap2\n      swap1\n      tag_97\n      jump\t// in\n    tag_96:\n      swap1\n      dup2\n      mstore\n      0x20\n      add\n      mload(0x40)\n      dup1\n      swap2\n      sub\n      swap1\n      keccak256\n        /* \"Arnacon/AyalaKamailio.sol\":515:558  bytes(kamaToID[_usernameOfKamailio]).length */\n      dup1\n      sload\n      tag_98\n      swap1\n      tag_90\n      jump\t// in\n    tag_98:\n      swap1\n      pop\n        /* \"Arnacon/AyalaKamailio.sol\":515:563  bytes(kamaToID[_usernameOfKamailio]).length == 0 */\n      eq\n        /* \"Arnacon/AyalaKamailio.sol\":507:589  require(bytes(kamaToID[_usernameOfKamailio]).length == 0, \"Name is already taken\") */\n      tag_99\n      jumpi\n      mload(0x40)\n      0x08c379a000000000000000000000000000000000000000000000000000000000\n      dup2\n      mstore\n      0x04\n      add\n      tag_100\n      swap1\n      tag_101\n      jump\t// in\n    tag_100:\n      mload(0x40)\n      dup1\n      swap2\n      sub\n      swap1\n      revert\n    tag_99:\n        /* \"Arnacon/AyalaKamailio.sol\":676:686  msg.sender */\n      caller\n        /* \"Arnacon/AyalaKamailio.sol\":641:686  checkOwnership(_identityNumber) == msg.sender */\n      0xffffffffffffffffffffffffffffffffffffffff\n      and\n        /* \"Arnacon/AyalaKamailio.sol\":641:672  checkOwnership(_identityNumber) */\n      tag_102\n        /* \"Arnacon/AyalaKamailio.sol\":656:671  _identityNumber */\n      dup4\n        /* \"Arnacon/AyalaKamailio.sol\":641:655  checkOwnership */\n      tag_45\n        /* \"Arnacon/AyalaKamailio.sol\":641:672  checkOwnership(_identityNumber) */\n      jump\t// in\n    tag_102:\n        /* \"Arnacon/AyalaKamailio.sol\":641:686  checkOwnership(_identityNumber) == msg.sender */\n      0xffffffffffffffffffffffffffffffffffffffff\n      and\n      eq\n        /* \"Arnacon/AyalaKamailio.sol\":633:708  require(checkOwnership(_identityNumber) == msg.sender, \"Not a valid owner\") */\n      tag_103\n      jumpi\n      mload(0x40)\n      0x08c379a000000000000000000000000000000000000000000000000000000000\n      dup2\n      mstore\n      0x04\n      add\n      tag_104\n      swap1\n      tag_105\n      jump\t// in\n    tag_104:\n      mload(0x40)\n      dup1\n      swap2\n      sub\n      swap1\n      revert\n    tag_103:\n        /* \"Arnacon/AyalaKamailio.sol\":780:795  _identityNumber */\n      dup2\n        /* \"Arnacon/AyalaKamailio.sol\":748:756  kamaToID */\n      0x01\n        /* \"Arnacon/AyalaKamailio.sol\":757:776  _usernameOfKamailio */\n      dup3\n        /* \"Arnacon/AyalaKamailio.sol\":748:777  kamaToID[_usernameOfKamailio] */\n      mload(0x40)\n      tag_106\n      swap2\n      swap1\n      tag_97\n      jump\t// in\n    tag_106:\n      swap1\n      dup2\n      mstore\n      0x20\n      add\n      mload(0x40)\n      dup1\n      swap2\n      sub\n      swap1\n      keccak256\n        /* \"Arnacon/AyalaKamailio.sol\":748:795  kamaToID[_usernameOfKamailio] = _identityNumber */\n      swap1\n      dup2\n      tag_107\n      swap2\n      swap1\n      tag_108\n      jump\t// in\n    tag_107:\n      pop\n        /* \"Arnacon/AyalaKamailio.sol\":399:803  function updateUsername(string memory _identityNumber, string memory _usernameOfKamailio) public {... */\n      pop\n      pop\n      jump\t// out\n        /* \"@openzeppelin/contracts@4.9.3/access/Ownable.sol\":1201:1286  function owner() public view virtual returns (address) {... */\n    tag_36:\n        /* \"@openzeppelin/contracts@4.9.3/access/Ownable.sol\":1247:1254  address */\n      0x00\n        /* \"@openzeppelin/contracts@4.9.3/access/Ownable.sol\":1273:1279  _owner */\n      dup1\n      0x00\n      swap1\n      sload\n      swap1\n      0x0100\n      exp\n      swap1\n      div\n      0xffffffffffffffffffffffffffffffffffffffff\n      and\n        /* \"@openzeppelin/contracts@4.9.3/access/Ownable.sol\":1266:1279  return _owner */\n      swap1\n      pop\n        /* \"@openzeppelin/contracts@4.9.3/access/Ownable.sol\":1201:1286  function owner() public view virtual returns (address) {... */\n      swap1\n      jump\t// out\n        /* \"Arnacon/AyalaKamailio.sol\":1655:2594  function parseAddr(string memory _a) public pure returns (address _parsedAddress) {... */\n    tag_41:\n        /* \"Arnacon/AyalaKamailio.sol\":1713:1735  address _parsedAddress */\n      0x00\n        /* \"Arnacon/AyalaKamailio.sol\":1748:1764  bytes memory tmp */\n      dup1\n        /* \"Arnacon/AyalaKamailio.sol\":1773:1775  _a */\n      dup3\n        /* \"Arnacon/AyalaKamailio.sol\":1748:1776  bytes memory tmp = bytes(_a) */\n      swap1\n      pop\n        /* \"Arnacon/AyalaKamailio.sol\":1787:1800  uint160 iaddr */\n      0x00\n        /* \"Arnacon/AyalaKamailio.sol\":1815:1825  uint160 b1 */\n      dup1\n        /* \"Arnacon/AyalaKamailio.sol\":1836:1846  uint160 b2 */\n      dup1\n        /* \"Arnacon/AyalaKamailio.sol\":1862:1868  uint i */\n      0x00\n        /* \"Arnacon/AyalaKamailio.sol\":1871:1872  2 */\n      0x02\n        /* \"Arnacon/AyalaKamailio.sol\":1862:1872  uint i = 2 */\n      swap1\n      pop\n        /* \"Arnacon/AyalaKamailio.sol\":1857:2555  for (uint i = 2; i < 2 + 2 * 20; i += 2) {... */\n    tag_111:\n        /* \"Arnacon/AyalaKamailio.sol\":1878:1888  2 + 2 * 20 */\n      0x2a\n        /* \"Arnacon/AyalaKamailio.sol\":1874:1875  i */\n      dup2\n        /* \"Arnacon/AyalaKamailio.sol\":1874:1888  i < 2 + 2 * 20 */\n      lt\n        /* \"Arnacon/AyalaKamailio.sol\":1857:2555  for (uint i = 2; i < 2 + 2 * 20; i += 2) {... */\n      iszero\n      tag_112\n      jumpi\n        /* \"Arnacon/AyalaKamailio.sol\":1922:1925  256 */\n      0x0100\n        /* \"Arnacon/AyalaKamailio.sol\":1913:1925  iaddr *= 256 */\n      dup5\n      tag_114\n      swap2\n      swap1\n      tag_115\n      jump\t// in\n    tag_114:\n      swap4\n      pop\n        /* \"Arnacon/AyalaKamailio.sol\":1959:1962  tmp */\n      dup5\n        /* \"Arnacon/AyalaKamailio.sol\":1963:1964  i */\n      dup2\n        /* \"Arnacon/AyalaKamailio.sol\":1959:1965  tmp[i] */\n      dup2\n      mload\n      dup2\n      lt\n      tag_116\n      jumpi\n      tag_117\n      tag_57\n      jump\t// in\n    tag_117:\n    tag_116:\n      0x20\n      add\n      add\n      mload\n      0xf8\n      shr\n      0xf8\n      shl\n        /* \"Arnacon/AyalaKamailio.sol\":1953:1966  uint8(tmp[i]) */\n      0xf8\n      shr\n        /* \"Arnacon/AyalaKamailio.sol\":1945:1967  uint160(uint8(tmp[i])) */\n      0xff\n      and\n        /* \"Arnacon/AyalaKamailio.sol\":1940:1967  b1 = uint160(uint8(tmp[i])) */\n      swap3\n      pop\n        /* \"Arnacon/AyalaKamailio.sol\":2001:2004  tmp */\n      dup5\n        /* \"Arnacon/AyalaKamailio.sol\":2009:2010  1 */\n      0x01\n        /* \"Arnacon/AyalaKamailio.sol\":2005:2006  i */\n      dup3\n        /* \"Arnacon/AyalaKamailio.sol\":2005:2010  i + 1 */\n      tag_118\n      swap2\n      swap1\n      tag_65\n      jump\t// in\n    tag_118:\n        /* \"Arnacon/AyalaKamailio.sol\":2001:2011  tmp[i + 1] */\n      dup2\n      mload\n      dup2\n      lt\n      tag_119\n      jumpi\n      tag_120\n      tag_57\n      jump\t// in\n    tag_120:\n    tag_119:\n      0x20\n      add\n      add\n      mload\n      0xf8\n      shr\n      0xf8\n      shl\n        /* \"Arnacon/AyalaKamailio.sol\":1995:2012  uint8(tmp[i + 1]) */\n      0xf8\n      shr\n        /* \"Arnacon/AyalaKamailio.sol\":1987:2013  uint160(uint8(tmp[i + 1])) */\n      0xff\n      and\n        /* \"Arnacon/AyalaKamailio.sol\":1982:2013  b2 = uint160(uint8(tmp[i + 1])) */\n      swap2\n      pop\n        /* \"Arnacon/AyalaKamailio.sol\":2039:2041  97 */\n      0x61\n        /* \"Arnacon/AyalaKamailio.sol\":2033:2035  b1 */\n      dup4\n        /* \"Arnacon/AyalaKamailio.sol\":2033:2041  b1 >= 97 */\n      0xffffffffffffffffffffffffffffffffffffffff\n      and\n      lt\n      iszero\n        /* \"Arnacon/AyalaKamailio.sol\":2032:2057  (b1 >= 97) && (b1 <= 102) */\n      dup1\n      iszero\n      tag_121\n      jumpi\n      pop\n        /* \"Arnacon/AyalaKamailio.sol\":2053:2056  102 */\n      0x66\n        /* \"Arnacon/AyalaKamailio.sol\":2047:2049  b1 */\n      dup4\n        /* \"Arnacon/AyalaKamailio.sol\":2047:2056  b1 <= 102 */\n      0xffffffffffffffffffffffffffffffffffffffff\n      and\n      gt\n      iszero\n        /* \"Arnacon/AyalaKamailio.sol\":2032:2057  (b1 >= 97) && (b1 <= 102) */\n    tag_121:\n        /* \"Arnacon/AyalaKamailio.sol\":2028:2260  if ((b1 >= 97) && (b1 <= 102)) {... */\n      iszero\n      tag_122\n      jumpi\n        /* \"Arnacon/AyalaKamailio.sol\":2084:2086  87 */\n      0x57\n        /* \"Arnacon/AyalaKamailio.sol\":2078:2086  b1 -= 87 */\n      dup4\n      tag_123\n      swap2\n      swap1\n      tag_124\n      jump\t// in\n    tag_123:\n      swap3\n      pop\n        /* \"Arnacon/AyalaKamailio.sol\":2028:2260  if ((b1 >= 97) && (b1 <= 102)) {... */\n      jump(tag_125)\n    tag_122:\n        /* \"Arnacon/AyalaKamailio.sol\":2119:2121  65 */\n      0x41\n        /* \"Arnacon/AyalaKamailio.sol\":2113:2115  b1 */\n      dup4\n        /* \"Arnacon/AyalaKamailio.sol\":2113:2121  b1 >= 65 */\n      0xffffffffffffffffffffffffffffffffffffffff\n      and\n      lt\n      iszero\n        /* \"Arnacon/AyalaKamailio.sol\":2112:2136  (b1 >= 65) && (b1 <= 70) */\n      dup1\n      iszero\n      tag_126\n      jumpi\n      pop\n        /* \"Arnacon/AyalaKamailio.sol\":2133:2135  70 */\n      0x46\n        /* \"Arnacon/AyalaKamailio.sol\":2127:2129  b1 */\n      dup4\n        /* \"Arnacon/AyalaKamailio.sol\":2127:2135  b1 <= 70 */\n      0xffffffffffffffffffffffffffffffffffffffff\n      and\n      gt\n      iszero\n        /* \"Arnacon/AyalaKamailio.sol\":2112:2136  (b1 >= 65) && (b1 <= 70) */\n    tag_126:\n        /* \"Arnacon/AyalaKamailio.sol\":2108:2260  if ((b1 >= 65) && (b1 <= 70)) {... */\n      iszero\n      tag_127\n      jumpi\n        /* \"Arnacon/AyalaKamailio.sol\":2163:2165  55 */\n      0x37\n        /* \"Arnacon/AyalaKamailio.sol\":2157:2165  b1 -= 55 */\n      dup4\n      tag_128\n      swap2\n      swap1\n      tag_124\n      jump\t// in\n    tag_128:\n      swap3\n      pop\n        /* \"Arnacon/AyalaKamailio.sol\":2108:2260  if ((b1 >= 65) && (b1 <= 70)) {... */\n      jump(tag_129)\n    tag_127:\n        /* \"Arnacon/AyalaKamailio.sol\":2198:2200  48 */\n      0x30\n        /* \"Arnacon/AyalaKamailio.sol\":2192:2194  b1 */\n      dup4\n        /* \"Arnacon/AyalaKamailio.sol\":2192:2200  b1 >= 48 */\n      0xffffffffffffffffffffffffffffffffffffffff\n      and\n      lt\n      iszero\n        /* \"Arnacon/AyalaKamailio.sol\":2191:2215  (b1 >= 48) && (b1 <= 57) */\n      dup1\n      iszero\n      tag_130\n      jumpi\n      pop\n        /* \"Arnacon/AyalaKamailio.sol\":2212:2214  57 */\n      0x39\n        /* \"Arnacon/AyalaKamailio.sol\":2206:2208  b1 */\n      dup4\n        /* \"Arnacon/AyalaKamailio.sol\":2206:2214  b1 <= 57 */\n      0xffffffffffffffffffffffffffffffffffffffff\n      and\n      gt\n      iszero\n        /* \"Arnacon/AyalaKamailio.sol\":2191:2215  (b1 >= 48) && (b1 <= 57) */\n    tag_130:\n        /* \"Arnacon/AyalaKamailio.sol\":2187:2260  if ((b1 >= 48) && (b1 <= 57)) {... */\n      iszero\n      tag_131\n      jumpi\n        /* \"Arnacon/AyalaKamailio.sol\":2242:2244  48 */\n      0x30\n        /* \"Arnacon/AyalaKamailio.sol\":2236:2244  b1 -= 48 */\n      dup4\n      tag_132\n      swap2\n      swap1\n      tag_124\n      jump\t// in\n    tag_132:\n      swap3\n      pop\n        /* \"Arnacon/AyalaKamailio.sol\":2187:2260  if ((b1 >= 48) && (b1 <= 57)) {... */\n    tag_131:\n        /* \"Arnacon/AyalaKamailio.sol\":2108:2260  if ((b1 >= 65) && (b1 <= 70)) {... */\n    tag_129:\n        /* \"Arnacon/AyalaKamailio.sol\":2028:2260  if ((b1 >= 97) && (b1 <= 102)) {... */\n    tag_125:\n        /* \"Arnacon/AyalaKamailio.sol\":2285:2287  97 */\n      0x61\n        /* \"Arnacon/AyalaKamailio.sol\":2279:2281  b2 */\n      dup3\n        /* \"Arnacon/AyalaKamailio.sol\":2279:2287  b2 >= 97 */\n      0xffffffffffffffffffffffffffffffffffffffff\n      and\n      lt\n      iszero\n        /* \"Arnacon/AyalaKamailio.sol\":2278:2303  (b2 >= 97) && (b2 <= 102) */\n      dup1\n      iszero\n      tag_133\n      jumpi\n      pop\n        /* \"Arnacon/AyalaKamailio.sol\":2299:2302  102 */\n      0x66\n        /* \"Arnacon/AyalaKamailio.sol\":2293:2295  b2 */\n      dup3\n        /* \"Arnacon/AyalaKamailio.sol\":2293:2302  b2 <= 102 */\n      0xffffffffffffffffffffffffffffffffffffffff\n      and\n      gt\n      iszero\n        /* \"Arnacon/AyalaKamailio.sol\":2278:2303  (b2 >= 97) && (b2 <= 102) */\n    tag_133:\n        /* \"Arnacon/AyalaKamailio.sol\":2274:2506  if ((b2 >= 97) && (b2 <= 102)) {... */\n      iszero\n      tag_134\n      jumpi\n        /* \"Arnacon/AyalaKamailio.sol\":2330:2332  87 */\n      0x57\n        /* \"Arnacon/AyalaKamailio.sol\":2324:2332  b2 -= 87 */\n      dup3\n      tag_135\n      swap2\n      swap1\n      tag_124\n      jump\t// in\n    tag_135:\n      swap2\n      pop\n        /* \"Arnacon/AyalaKamailio.sol\":2274:2506  if ((b2 >= 97) && (b2 <= 102)) {... */\n      jump(tag_136)\n    tag_134:\n        /* \"Arnacon/AyalaKamailio.sol\":2365:2367  65 */\n      0x41\n        /* \"Arnacon/AyalaKamailio.sol\":2359:2361  b2 */\n      dup3\n        /* \"Arnacon/AyalaKamailio.sol\":2359:2367  b2 >= 65 */\n      0xffffffffffffffffffffffffffffffffffffffff\n      and\n      lt\n      iszero\n        /* \"Arnacon/AyalaKamailio.sol\":2358:2382  (b2 >= 65) && (b2 <= 70) */\n      dup1\n      iszero\n      tag_137\n      jumpi\n      pop\n        /* \"Arnacon/AyalaKamailio.sol\":2379:2381  70 */\n      0x46\n        /* \"Arnacon/AyalaKamailio.sol\":2373:2375  b2 */\n      dup3\n        /* \"Arnacon/AyalaKamailio.sol\":2373:2381  b2 <= 70 */\n      0xffffffffffffffffffffffffffffffffffffffff\n      and\n      gt\n      iszero\n        /* \"Arnacon/AyalaKamailio.sol\":2358:2382  (b2 >= 65) && (b2 <= 70) */\n    tag_137:\n        /* \"Arnacon/AyalaKamailio.sol\":2354:2506  if ((b2 >= 65) && (b2 <= 70)) {... */\n      iszero\n      tag_138\n      jumpi\n        /* \"Arnacon/AyalaKamailio.sol\":2409:2411  55 */\n      0x37\n        /* \"Arnacon/AyalaKamailio.sol\":2403:2411  b2 -= 55 */\n      dup3\n      tag_139\n      swap2\n      swap1\n      tag_124\n      jump\t// in\n    tag_139:\n      swap2\n      pop\n        /* \"Arnacon/AyalaKamailio.sol\":2354:2506  if ((b2 >= 65) && (b2 <= 70)) {... */\n      jump(tag_140)\n    tag_138:\n        /* \"Arnacon/AyalaKamailio.sol\":2444:2446  48 */\n      0x30\n        /* \"Arnacon/AyalaKamailio.sol\":2438:2440  b2 */\n      dup3\n        /* \"Arnacon/AyalaKamailio.sol\":2438:2446  b2 >= 48 */\n      0xffffffffffffffffffffffffffffffffffffffff\n      and\n      lt\n      iszero\n        /* \"Arnacon/AyalaKamailio.sol\":2437:2461  (b2 >= 48) && (b2 <= 57) */\n      dup1\n      iszero\n      tag_141\n      jumpi\n      pop\n        /* \"Arnacon/AyalaKamailio.sol\":2458:2460  57 */\n      0x39\n        /* \"Arnacon/AyalaKamailio.sol\":2452:2454  b2 */\n      dup3\n        /* \"Arnacon/AyalaKamailio.sol\":2452:2460  b2 <= 57 */\n      0xffffffffffffffffffffffffffffffffffffffff\n      and\n      gt\n      iszero\n        /* \"Arnacon/AyalaKamailio.sol\":2437:2461  (b2 >= 48) && (b2 <= 57) */\n    tag_141:\n        /* \"Arnacon/AyalaKamailio.sol\":2433:2506  if ((b2 >= 48) && (b2 <= 57)) {... */\n      iszero\n      tag_142\n      jumpi\n        /* \"Arnacon/AyalaKamailio.sol\":2488:2490  48 */\n      0x30\n        /* \"Arnacon/AyalaKamailio.sol\":2482:2490  b2 -= 48 */\n      dup3\n      tag_143\n      swap2\n      swap1\n      tag_124\n      jump\t// in\n    tag_143:\n      swap2\n      pop\n        /* \"Arnacon/AyalaKamailio.sol\":2433:2506  if ((b2 >= 48) && (b2 <= 57)) {... */\n    tag_142:\n        /* \"Arnacon/AyalaKamailio.sol\":2354:2506  if ((b2 >= 65) && (b2 <= 70)) {... */\n    tag_140:\n        /* \"Arnacon/AyalaKamailio.sol\":2274:2506  if ((b2 >= 97) && (b2 <= 102)) {... */\n    tag_136:\n        /* \"Arnacon/AyalaKamailio.sol\":2540:2542  b2 */\n      dup2\n        /* \"Arnacon/AyalaKamailio.sol\":2535:2537  16 */\n      0x10\n        /* \"Arnacon/AyalaKamailio.sol\":2530:2532  b1 */\n      dup5\n        /* \"Arnacon/AyalaKamailio.sol\":2530:2537  b1 * 16 */\n      tag_144\n      swap2\n      swap1\n      tag_115\n      jump\t// in\n    tag_144:\n        /* \"Arnacon/AyalaKamailio.sol\":2530:2542  b1 * 16 + b2 */\n      tag_145\n      swap2\n      swap1\n      tag_146\n      jump\t// in\n    tag_145:\n        /* \"Arnacon/AyalaKamailio.sol\":2520:2543  iaddr += (b1 * 16 + b2) */\n      dup5\n      tag_147\n      swap2\n      swap1\n      tag_146\n      jump\t// in\n    tag_147:\n      swap4\n      pop\n        /* \"Arnacon/AyalaKamailio.sol\":1895:1896  2 */\n      0x02\n        /* \"Arnacon/AyalaKamailio.sol\":1890:1896  i += 2 */\n      dup2\n      tag_148\n      swap2\n      swap1\n      tag_65\n      jump\t// in\n    tag_148:\n      swap1\n      pop\n        /* \"Arnacon/AyalaKamailio.sol\":1857:2555  for (uint i = 2; i < 2 + 2 * 20; i += 2) {... */\n      jump(tag_111)\n    tag_112:\n      pop\n        /* \"Arnacon/AyalaKamailio.sol\":2580:2585  iaddr */\n      dup3\n        /* \"Arnacon/AyalaKamailio.sol\":2565:2586  return address(iaddr) */\n      swap5\n      pop\n      pop\n      pop\n      pop\n      pop\n        /* \"Arnacon/AyalaKamailio.sol\":1655:2594  function parseAddr(string memory _a) public pure returns (address _parsedAddress) {... */\n      swap2\n      swap1\n      pop\n      jump\t// out\n        /* \"Arnacon/AyalaKamailio.sol\":883:1590  function checkOwnership(string memory concatenated) public view returns (address) {... */\n    tag_45:\n        /* \"Arnacon/AyalaKamailio.sol\":956:963  address */\n      0x00\n        /* \"Arnacon/AyalaKamailio.sol\":1125:1150  string memory addressPart */\n      dup1\n        /* \"Arnacon/AyalaKamailio.sol\":1153:1183  substring(concatenated, 0, 42) */\n      tag_150\n        /* \"Arnacon/AyalaKamailio.sol\":1163:1175  concatenated */\n      dup4\n        /* \"Arnacon/AyalaKamailio.sol\":1177:1178  0 */\n      0x00\n        /* \"Arnacon/AyalaKamailio.sol\":1180:1182  42 */\n      0x2a\n        /* \"Arnacon/AyalaKamailio.sol\":1153:1162  substring */\n      tag_22\n        /* \"Arnacon/AyalaKamailio.sol\":1153:1183  substring(concatenated, 0, 42) */\n      jump\t// in\n    tag_150:\n        /* \"Arnacon/AyalaKamailio.sol\":1125:1183  string memory addressPart = substring(concatenated, 0, 42) */\n      swap1\n      pop\n        /* \"Arnacon/AyalaKamailio.sol\":1194:1219  string memory tokenIdPart */\n      0x00\n        /* \"Arnacon/AyalaKamailio.sol\":1222:1277  substring(concatenated, 42, bytes(concatenated).length) */\n      tag_151\n        /* \"Arnacon/AyalaKamailio.sol\":1232:1244  concatenated */\n      dup5\n        /* \"Arnacon/AyalaKamailio.sol\":1246:1248  42 */\n      0x2a\n        /* \"Arnacon/AyalaKamailio.sol\":1256:1268  concatenated */\n      dup7\n        /* \"Arnacon/AyalaKamailio.sol\":1250:1276  bytes(concatenated).length */\n      mload\n        /* \"Arnacon/AyalaKamailio.sol\":1222:1231  substring */\n      tag_22\n        /* \"Arnacon/AyalaKamailio.sol\":1222:1277  substring(concatenated, 42, bytes(concatenated).length) */\n      jump\t// in\n    tag_151:\n        /* \"Arnacon/AyalaKamailio.sol\":1194:1277  string memory tokenIdPart = substring(concatenated, 42, bytes(concatenated).length) */\n      swap1\n      pop\n        /* \"Arnacon/AyalaKamailio.sol\":1348:1366  address nftAddress */\n      0x00\n        /* \"Arnacon/AyalaKamailio.sol\":1369:1391  parseAddr(addressPart) */\n      tag_152\n        /* \"Arnacon/AyalaKamailio.sol\":1379:1390  addressPart */\n      dup4\n        /* \"Arnacon/AyalaKamailio.sol\":1369:1378  parseAddr */\n      tag_41\n        /* \"Arnacon/AyalaKamailio.sol\":1369:1391  parseAddr(addressPart) */\n      jump\t// in\n    tag_152:\n        /* \"Arnacon/AyalaKamailio.sol\":1348:1391  address nftAddress = parseAddr(addressPart) */\n      swap1\n      pop\n        /* \"Arnacon/AyalaKamailio.sol\":1402:1417  uint256 tokenId */\n      0x00\n        /* \"Arnacon/AyalaKamailio.sol\":1420:1445  stringToUint(tokenIdPart) */\n      tag_153\n        /* \"Arnacon/AyalaKamailio.sol\":1433:1444  tokenIdPart */\n      dup4\n        /* \"Arnacon/AyalaKamailio.sol\":1420:1432  stringToUint */\n      tag_16\n        /* \"Arnacon/AyalaKamailio.sol\":1420:1445  stringToUint(tokenIdPart) */\n      jump\t// in\n    tag_153:\n        /* \"Arnacon/AyalaKamailio.sol\":1402:1445  uint256 tokenId = stringToUint(tokenIdPart) */\n      swap1\n      pop\n        /* \"Arnacon/AyalaKamailio.sol\":1497:1510  address owner */\n      0x00\n        /* \"Arnacon/AyalaKamailio.sol\":1521:1531  nftAddress */\n      dup3\n        /* \"Arnacon/AyalaKamailio.sol\":1513:1540  IERC721(nftAddress).ownerOf */\n      0xffffffffffffffffffffffffffffffffffffffff\n      and\n      0x6352211e\n        /* \"Arnacon/AyalaKamailio.sol\":1541:1548  tokenId */\n      dup4\n        /* \"Arnacon/AyalaKamailio.sol\":1513:1549  IERC721(nftAddress).ownerOf(tokenId) */\n      mload(0x40)\n      dup3\n      0xffffffff\n      and\n      0xe0\n      shl\n      dup2\n      mstore\n      0x04\n      add\n      tag_154\n      swap2\n      swap1\n      tag_18\n      jump\t// in\n    tag_154:\n      0x20\n      mload(0x40)\n      dup1\n      dup4\n      sub\n      dup2\n      dup7\n      gas\n      staticcall\n      iszero\n      dup1\n      iszero\n      tag_156\n      jumpi\n      returndatasize\n      0x00\n      dup1\n      returndatacopy\n      revert(0x00, returndatasize)\n    tag_156:\n      pop\n      pop\n      pop\n      pop\n      mload(0x40)\n      returndatasize\n      not(0x1f)\n      0x1f\n      dup3\n      add\n      and\n      dup3\n      add\n      dup1\n      0x40\n      mstore\n      pop\n      dup2\n      add\n      swap1\n      tag_157\n      swap2\n      swap1\n      tag_158\n      jump\t// in\n    tag_157:\n        /* \"Arnacon/AyalaKamailio.sol\":1497:1549  address owner = IERC721(nftAddress).ownerOf(tokenId) */\n      swap1\n      pop\n        /* \"Arnacon/AyalaKamailio.sol\":1577:1582  owner */\n      dup1\n        /* \"Arnacon/AyalaKamailio.sol\":1570:1582  return owner */\n      swap6\n      pop\n      pop\n      pop\n      pop\n      pop\n      pop\n        /* \"Arnacon/AyalaKamailio.sol\":883:1590  function checkOwnership(string memory concatenated) public view returns (address) {... */\n      swap2\n      swap1\n      pop\n      jump\t// out\n        /* \"@openzeppelin/contracts@4.9.3/access/Ownable.sol\":2074:2272  function transferOwnership(address newOwner) public virtual onlyOwner {... */\n    tag_50:\n        /* \"@openzeppelin/contracts@4.9.3/access/Ownable.sol\":1094:1107  _checkOwner() */\n      tag_160\n        /* \"@openzeppelin/contracts@4.9.3/access/Ownable.sol\":1094:1105  _checkOwner */\n      tag_85\n        /* \"@openzeppelin/contracts@4.9.3/access/Ownable.sol\":1094:1107  _checkOwner() */\n      jump\t// in\n    tag_160:\n        /* \"@openzeppelin/contracts@4.9.3/access/Ownable.sol\":2182:2183  0 */\n      0x00\n        /* \"@openzeppelin/contracts@4.9.3/access/Ownable.sol\":2162:2184  newOwner != address(0) */\n      0xffffffffffffffffffffffffffffffffffffffff\n      and\n        /* \"@openzeppelin/contracts@4.9.3/access/Ownable.sol\":2162:2170  newOwner */\n      dup2\n        /* \"@openzeppelin/contracts@4.9.3/access/Ownable.sol\":2162:2184  newOwner != address(0) */\n      0xffffffffffffffffffffffffffffffffffffffff\n      and\n      sub\n        /* \"@openzeppelin/contracts@4.9.3/access/Ownable.sol\":2154:2227  require(newOwner != address(0), \"Ownable: new owner is the zero address\") */\n      tag_162\n      jumpi\n      mload(0x40)\n      0x08c379a000000000000000000000000000000000000000000000000000000000\n      dup2\n      mstore\n      0x04\n      add\n      tag_163\n      swap1\n      tag_164\n      jump\t// in\n    tag_163:\n      mload(0x40)\n      dup1\n      swap2\n      sub\n      swap1\n      revert\n    tag_162:\n        /* \"@openzeppelin/contracts@4.9.3/access/Ownable.sol\":2237:2265  _transferOwnership(newOwner) */\n      tag_165\n        /* \"@openzeppelin/contracts@4.9.3/access/Ownable.sol\":2256:2264  newOwner */\n      dup2\n        /* \"@openzeppelin/contracts@4.9.3/access/Ownable.sol\":2237:2255  _transferOwnership */\n      tag_88\n        /* \"@openzeppelin/contracts@4.9.3/access/Ownable.sol\":2237:2265  _transferOwnership(newOwner) */\n      jump\t// in\n    tag_165:\n        /* \"@openzeppelin/contracts@4.9.3/access/Ownable.sol\":2074:2272  function transferOwnership(address newOwner) public virtual onlyOwner {... */\n      pop\n      jump\t// out\n        /* \"@openzeppelin/contracts@4.9.3/access/Ownable.sol\":1359:1489  function _checkOwner() internal view virtual {... */\n    tag_85:\n        /* \"@openzeppelin/contracts@4.9.3/access/Ownable.sol\":1433:1445  _msgSender() */\n      tag_167\n        /* \"@openzeppelin/contracts@4.9.3/access/Ownable.sol\":1433:1443  _msgSender */\n      tag_168\n        /* \"@openzeppelin/contracts@4.9.3/access/Ownable.sol\":1433:1445  _msgSender() */\n      jump\t// in\n    tag_167:\n        /* \"@openzeppelin/contracts@4.9.3/access/Ownable.sol\":1422:1445  owner() == _msgSender() */\n      0xffffffffffffffffffffffffffffffffffffffff\n      and\n        /* \"@openzeppelin/contracts@4.9.3/access/Ownable.sol\":1422:1429  owner() */\n      tag_169\n        /* \"@openzeppelin/contracts@4.9.3/access/Ownable.sol\":1422:1427  owner */\n      tag_36\n        /* \"@openzeppelin/contracts@4.9.3/access/Ownable.sol\":1422:1429  owner() */\n      jump\t// in\n    tag_169:\n        /* \"@openzeppelin/contracts@4.9.3/access/Ownable.sol\":1422:1445  owner() == _msgSender() */\n      0xffffffffffffffffffffffffffffffffffffffff\n      and\n      eq\n        /* \"@openzeppelin/contracts@4.9.3/access/Ownable.sol\":1414:1482  require(owner() == _msgSender(), \"Ownable: caller is not the owner\") */\n      tag_170\n      jumpi\n      mload(0x40)\n      0x08c379a000000000000000000000000000000000000000000000000000000000\n      dup2\n      mstore\n      0x04\n      add\n      tag_171\n      swap1\n      tag_172\n      jump\t// in\n    tag_171:\n      mload(0x40)\n      dup1\n      swap2\n      sub\n      swap1\n      revert\n    tag_170:\n        /* \"@openzeppelin/contracts@4.9.3/access/Ownable.sol\":1359:1489  function _checkOwner() internal view virtual {... */\n      jump\t// out\n        /* \"@openzeppelin/contracts@4.9.3/access/Ownable.sol\":2426:2613  function _transferOwnership(address newOwner) internal virtual {... */\n    tag_88:\n        /* \"@openzeppelin/contracts@4.9.3/access/Ownable.sol\":2499:2515  address oldOwner */\n      0x00\n        /* \"@openzeppelin/contracts@4.9.3/access/Ownable.sol\":2518:2524  _owner */\n      dup1\n      0x00\n      swap1\n      sload\n      swap1\n      0x0100\n      exp\n      swap1\n      div\n      0xffffffffffffffffffffffffffffffffffffffff\n      and\n        /* \"@openzeppelin/contracts@4.9.3/access/Ownable.sol\":2499:2524  address oldOwner = _owner */\n      swap1\n      pop\n        /* \"@openzeppelin/contracts@4.9.3/access/Ownable.sol\":2543:2551  newOwner */\n      dup2\n        /* \"@openzeppelin/contracts@4.9.3/access/Ownable.sol\":2534:2540  _owner */\n      0x00\n      dup1\n        /* \"@openzeppelin/contracts@4.9.3/access/Ownable.sol\":2534:2551  _owner = newOwner */\n      0x0100\n      exp\n      dup2\n      sload\n      dup2\n      0xffffffffffffffffffffffffffffffffffffffff\n      mul\n      not\n      and\n      swap1\n      dup4\n      0xffffffffffffffffffffffffffffffffffffffff\n      and\n      mul\n      or\n      swap1\n      sstore\n      pop\n        /* \"@openzeppelin/contracts@4.9.3/access/Ownable.sol\":2597:2605  newOwner */\n      dup2\n        /* \"@openzeppelin/contracts@4.9.3/access/Ownable.sol\":2566:2606  OwnershipTransferred(oldOwner, newOwner) */\n      0xffffffffffffffffffffffffffffffffffffffff\n      and\n        /* \"@openzeppelin/contracts@4.9.3/access/Ownable.sol\":2587:2595  oldOwner */\n      dup2\n        /* \"@openzeppelin/contracts@4.9.3/access/Ownable.sol\":2566:2606  OwnershipTransferred(oldOwner, newOwner) */\n      0xffffffffffffffffffffffffffffffffffffffff\n      and\n      0x8be0079c531659141344cd1fd0a4f28419497f9722a3daafe3b4186f6b6457e0\n      mload(0x40)\n      mload(0x40)\n      dup1\n      swap2\n      sub\n      swap1\n      log3\n        /* \"@openzeppelin/contracts@4.9.3/access/Ownable.sol\":2489:2613  {... */\n      pop\n        /* \"@openzeppelin/contracts@4.9.3/access/Ownable.sol\":2426:2613  function _transferOwnership(address newOwner) internal virtual {... */\n      pop\n      jump\t// out\n        /* \"@openzeppelin/contracts@4.9.3/utils/Context.sol\":640:736  function _msgSender() internal view virtual returns (address) {... */\n    tag_168:\n        /* \"@openzeppelin/contracts@4.9.3/utils/Context.sol\":693:700  address */\n      0x00\n        /* \"@openzeppelin/contracts@4.9.3/utils/Context.sol\":719:729  msg.sender */\n      caller\n        /* \"@openzeppelin/contracts@4.9.3/utils/Context.sol\":712:729  return msg.sender */\n      swap1\n      pop\n        /* \"@openzeppelin/contracts@4.9.3/utils/Context.sol\":640:736  function _msgSender() internal view virtual returns (address) {... */\n      swap1\n      jump\t// out\n        /* \"#utility.yul\":7:82   */\n    tag_175:\n        /* \"#utility.yul\":40:46   */\n      0x00\n        /* \"#utility.yul\":73:75   */\n      0x40\n        /* \"#utility.yul\":67:76   */\n      mload\n        /* \"#utility.yul\":57:76   */\n      swap1\n      pop\n        /* \"#utility.yul\":7:82   */\n      swap1\n      jump\t// out\n        /* \"#utility.yul\":88:205   */\n    tag_176:\n        /* \"#utility.yul\":197:198   */\n      0x00\n        /* \"#utility.yul\":194:195   */\n      dup1\n        /* \"#utility.yul\":187:199   */\n      revert\n        /* \"#utility.yul\":211:328   */\n    tag_177:\n        /* \"#utility.yul\":320:321   */\n      0x00\n        /* \"#utility.yul\":317:318   */\n      dup1\n        /* \"#utility.yul\":310:322   */\n      revert\n        /* \"#utility.yul\":334:451   */\n    tag_178:\n        /* \"#utility.yul\":443:444   */\n      0x00\n        /* \"#utility.yul\":440:441   */\n      dup1\n        /* \"#utility.yul\":433:445   */\n      revert\n        /* \"#utility.yul\":457:574   */\n    tag_179:\n        /* \"#utility.yul\":566:567   */\n      0x00\n        /* \"#utility.yul\":563:564   */\n      dup1\n        /* \"#utility.yul\":556:568   */\n      revert\n        /* \"#utility.yul\":580:682   */\n    tag_180:\n        /* \"#utility.yul\":621:627   */\n      0x00\n        /* \"#utility.yul\":672:674   */\n      0x1f\n        /* \"#utility.yul\":668:675   */\n      not\n        /* \"#utility.yul\":663:665   */\n      0x1f\n        /* \"#utility.yul\":656:661   */\n      dup4\n        /* \"#utility.yul\":652:666   */\n      add\n        /* \"#utility.yul\":648:676   */\n      and\n        /* \"#utility.yul\":638:676   */\n      swap1\n      pop\n        /* \"#utility.yul\":580:682   */\n      swap2\n      swap1\n      pop\n      jump\t// out\n        /* \"#utility.yul\":688:868   */\n    tag_72:\n        /* \"#utility.yul\":736:813   */\n      0x4e487b7100000000000000000000000000000000000000000000000000000000\n        /* \"#utility.yul\":733:734   */\n      0x00\n        /* \"#utility.yul\":726:814   */\n      mstore\n        /* \"#utility.yul\":833:837   */\n      0x41\n        /* \"#utility.yul\":830:831   */\n      0x04\n        /* \"#utility.yul\":823:838   */\n      mstore\n        /* \"#utility.yul\":857:861   */\n      0x24\n        /* \"#utility.yul\":854:855   */\n      0x00\n        /* \"#utility.yul\":847:862   */\n      revert\n        /* \"#utility.yul\":874:1155   */\n    tag_181:\n        /* \"#utility.yul\":957:984   */\n      tag_237\n        /* \"#utility.yul\":979:983   */\n      dup3\n        /* \"#utility.yul\":957:984   */\n      tag_180\n      jump\t// in\n    tag_237:\n        /* \"#utility.yul\":949:955   */\n      dup2\n        /* \"#utility.yul\":945:985   */\n      add\n        /* \"#utility.yul\":1087:1093   */\n      dup2\n        /* \"#utility.yul\":1075:1085   */\n      dup2\n        /* \"#utility.yul\":1072:1094   */\n      lt\n        /* \"#utility.yul\":1051:1069   */\n      0xffffffffffffffff\n        /* \"#utility.yul\":1039:1049   */\n      dup3\n        /* \"#utility.yul\":1036:1070   */\n      gt\n        /* \"#utility.yul\":1033:1095   */\n      or\n        /* \"#utility.yul\":1030:1118   */\n      iszero\n      tag_238\n      jumpi\n        /* \"#utility.yul\":1098:1116   */\n      tag_239\n      tag_72\n      jump\t// in\n    tag_239:\n        /* \"#utility.yul\":1030:1118   */\n    tag_238:\n        /* \"#utility.yul\":1138:1148   */\n      dup1\n        /* \"#utility.yul\":1134:1136   */\n      0x40\n        /* \"#utility.yul\":1127:1149   */\n      mstore\n        /* \"#utility.yul\":917:1155   */\n      pop\n        /* \"#utility.yul\":874:1155   */\n      pop\n      pop\n      jump\t// out\n        /* \"#utility.yul\":1161:1290   */\n    tag_182:\n        /* \"#utility.yul\":1195:1201   */\n      0x00\n        /* \"#utility.yul\":1222:1242   */\n      tag_241\n      tag_175\n      jump\t// in\n    tag_241:\n        /* \"#utility.yul\":1212:1242   */\n      swap1\n      pop\n        /* \"#utility.yul\":1251:1284   */\n      tag_242\n        /* \"#utility.yul\":1279:1283   */\n      dup3\n        /* \"#utility.yul\":1271:1277   */\n      dup3\n        /* \"#utility.yul\":1251:1284   */\n      tag_181\n      jump\t// in\n    tag_242:\n        /* \"#utility.yul\":1161:1290   */\n      swap2\n      swap1\n      pop\n      jump\t// out\n        /* \"#utility.yul\":1296:1604   */\n    tag_183:\n        /* \"#utility.yul\":1358:1362   */\n      0x00\n        /* \"#utility.yul\":1448:1466   */\n      0xffffffffffffffff\n        /* \"#utility.yul\":1440:1446   */\n      dup3\n        /* \"#utility.yul\":1437:1467   */\n      gt\n        /* \"#utility.yul\":1434:1490   */\n      iszero\n      tag_244\n      jumpi\n        /* \"#utility.yul\":1470:1488   */\n      tag_245\n      tag_72\n      jump\t// in\n    tag_245:\n        /* \"#utility.yul\":1434:1490   */\n    tag_244:\n        /* \"#utility.yul\":1508:1537   */\n      tag_246\n        /* \"#utility.yul\":1530:1536   */\n      dup3\n        /* \"#utility.yul\":1508:1537   */\n      tag_180\n      jump\t// in\n    tag_246:\n        /* \"#utility.yul\":1500:1537   */\n      swap1\n      pop\n        /* \"#utility.yul\":1592:1596   */\n      0x20\n        /* \"#utility.yul\":1586:1590   */\n      dup2\n        /* \"#utility.yul\":1582:1597   */\n      add\n        /* \"#utility.yul\":1574:1597   */\n      swap1\n      pop\n        /* \"#utility.yul\":1296:1604   */\n      swap2\n      swap1\n      pop\n      jump\t// out\n        /* \"#utility.yul\":1610:1756   */\n    tag_184:\n        /* \"#utility.yul\":1707:1713   */\n      dup3\n        /* \"#utility.yul\":1702:1705   */\n      dup2\n        /* \"#utility.yul\":1697:1700   */\n      dup4\n        /* \"#utility.yul\":1684:1714   */\n      calldatacopy\n        /* \"#utility.yul\":1748:1749   */\n      0x00\n        /* \"#utility.yul\":1739:1745   */\n      dup4\n        /* \"#utility.yul\":1734:1737   */\n      dup4\n        /* \"#utility.yul\":1730:1746   */\n      add\n        /* \"#utility.yul\":1723:1750   */\n      mstore\n        /* \"#utility.yul\":1610:1756   */\n      pop\n      pop\n      pop\n      jump\t// out\n        /* \"#utility.yul\":1762:2187   */\n    tag_185:\n        /* \"#utility.yul\":1840:1845   */\n      0x00\n        /* \"#utility.yul\":1865:1931   */\n      tag_249\n        /* \"#utility.yul\":1881:1930   */\n      tag_250\n        /* \"#utility.yul\":1923:1929   */\n      dup5\n        /* \"#utility.yul\":1881:1930   */\n      tag_183\n      jump\t// in\n    tag_250:\n        /* \"#utility.yul\":1865:1931   */\n      tag_182\n      jump\t// in\n    tag_249:\n        /* \"#utility.yul\":1856:1931   */\n      swap1\n      pop\n        /* \"#utility.yul\":1954:1960   */\n      dup3\n        /* \"#utility.yul\":1947:1952   */\n      dup2\n        /* \"#utility.yul\":1940:1961   */\n      mstore\n        /* \"#utility.yul\":1992:1996   */\n      0x20\n        /* \"#utility.yul\":1985:1990   */\n      dup2\n        /* \"#utility.yul\":1981:1997   */\n      add\n        /* \"#utility.yul\":2030:2033   */\n      dup5\n        /* \"#utility.yul\":2021:2027   */\n      dup5\n        /* \"#utility.yul\":2016:2019   */\n      dup5\n        /* \"#utility.yul\":2012:2028   */\n      add\n        /* \"#utility.yul\":2009:2034   */\n      gt\n        /* \"#utility.yul\":2006:2118   */\n      iszero\n      tag_251\n      jumpi\n        /* \"#utility.yul\":2037:2116   */\n      tag_252\n      tag_179\n      jump\t// in\n    tag_252:\n        /* \"#utility.yul\":2006:2118   */\n    tag_251:\n        /* \"#utility.yul\":2127:2181   */\n      tag_253\n        /* \"#utility.yul\":2174:2180   */\n      dup5\n        /* \"#utility.yul\":2169:2172   */\n      dup3\n        /* \"#utility.yul\":2164:2167   */\n      dup6\n        /* \"#utility.yul\":2127:2181   */\n      tag_184\n      jump\t// in\n    tag_253:\n        /* \"#utility.yul\":1846:2187   */\n      pop\n        /* \"#utility.yul\":1762:2187   */\n      swap4\n      swap3\n      pop\n      pop\n      pop\n      jump\t// out\n        /* \"#utility.yul\":2207:2547   */\n    tag_186:\n        /* \"#utility.yul\":2263:2268   */\n      0x00\n        /* \"#utility.yul\":2312:2315   */\n      dup3\n        /* \"#utility.yul\":2305:2309   */\n      0x1f\n        /* \"#utility.yul\":2297:2303   */\n      dup4\n        /* \"#utility.yul\":2293:2310   */\n      add\n        /* \"#utility.yul\":2289:2316   */\n      slt\n        /* \"#utility.yul\":2279:2401   */\n      tag_255\n      jumpi\n        /* \"#utility.yul\":2320:2399   */\n      tag_256\n      tag_178\n      jump\t// in\n    tag_256:\n        /* \"#utility.yul\":2279:2401   */\n    tag_255:\n        /* \"#utility.yul\":2437:2443   */\n      dup2\n        /* \"#utility.yul\":2424:2444   */\n      calldataload\n        /* \"#utility.yul\":2462:2541   */\n      tag_257\n        /* \"#utility.yul\":2537:2540   */\n      dup5\n        /* \"#utility.yul\":2529:2535   */\n      dup3\n        /* \"#utility.yul\":2522:2526   */\n      0x20\n        /* \"#utility.yul\":2514:2520   */\n      dup7\n        /* \"#utility.yul\":2510:2527   */\n      add\n        /* \"#utility.yul\":2462:2541   */\n      tag_185\n      jump\t// in\n    tag_257:\n        /* \"#utility.yul\":2453:2541   */\n      swap2\n      pop\n        /* \"#utility.yul\":2269:2547   */\n      pop\n        /* \"#utility.yul\":2207:2547   */\n      swap3\n      swap2\n      pop\n      pop\n      jump\t// out\n        /* \"#utility.yul\":2553:3062   */\n    tag_15:\n        /* \"#utility.yul\":2622:2628   */\n      0x00\n        /* \"#utility.yul\":2671:2673   */\n      0x20\n        /* \"#utility.yul\":2659:2668   */\n      dup3\n        /* \"#utility.yul\":2650:2657   */\n      dup5\n        /* \"#utility.yul\":2646:2669   */\n      sub\n        /* \"#utility.yul\":2642:2674   */\n      slt\n        /* \"#utility.yul\":2639:2758   */\n      iszero\n      tag_259\n      jumpi\n        /* \"#utility.yul\":2677:2756   */\n      tag_260\n      tag_176\n      jump\t// in\n    tag_260:\n        /* \"#utility.yul\":2639:2758   */\n    tag_259:\n        /* \"#utility.yul\":2825:2826   */\n      0x00\n        /* \"#utility.yul\":2814:2823   */\n      dup3\n        /* \"#utility.yul\":2810:2827   */\n      add\n        /* \"#utility.yul\":2797:2828   */\n      calldataload\n        /* \"#utility.yul\":2855:2873   */\n      0xffffffffffffffff\n        /* \"#utility.yul\":2847:2853   */\n      dup2\n        /* \"#utility.yul\":2844:2874   */\n      gt\n        /* \"#utility.yul\":2841:2958   */\n      iszero\n      tag_261\n      jumpi\n        /* \"#utility.yul\":2877:2956   */\n      tag_262\n      tag_177\n      jump\t// in\n    tag_262:\n        /* \"#utility.yul\":2841:2958   */\n    tag_261:\n        /* \"#utility.yul\":2982:3045   */\n      tag_263\n        /* \"#utility.yul\":3037:3044   */\n      dup5\n        /* \"#utility.yul\":3028:3034   */\n      dup3\n        /* \"#utility.yul\":3017:3026   */\n      dup6\n        /* \"#utility.yul\":3013:3035   */\n      add\n        /* \"#utility.yul\":2982:3045   */\n      tag_186\n      jump\t// in\n    tag_263:\n        /* \"#utility.yul\":2972:3045   */\n      swap2\n      pop\n        /* \"#utility.yul\":2768:3055   */\n      pop\n        /* \"#utility.yul\":2553:3062   */\n      swap3\n      swap2\n      pop\n      pop\n      jump\t// out\n        /* \"#utility.yul\":3068:3145   */\n    tag_187:\n        /* \"#utility.yul\":3105:3112   */\n      0x00\n        /* \"#utility.yul\":3134:3139   */\n      dup2\n        /* \"#utility.yul\":3123:3139   */\n      swap1\n      pop\n        /* \"#utility.yul\":3068:3145   */\n      swap2\n      swap1\n      pop\n      jump\t// out\n        /* \"#utility.yul\":3151:3269   */\n    tag_188:\n        /* \"#utility.yul\":3238:3262   */\n      tag_266\n        /* \"#utility.yul\":3256:3261   */\n      dup2\n        /* \"#utility.yul\":3238:3262   */\n      tag_187\n      jump\t// in\n    tag_266:\n        /* \"#utility.yul\":3233:3236   */\n      dup3\n        /* \"#utility.yul\":3226:3263   */\n      mstore\n        /* \"#utility.yul\":3151:3269   */\n      pop\n      pop\n      jump\t// out\n        /* \"#utility.yul\":3275:3497   */\n    tag_18:\n        /* \"#utility.yul\":3368:3372   */\n      0x00\n        /* \"#utility.yul\":3406:3408   */\n      0x20\n        /* \"#utility.yul\":3395:3404   */\n      dup3\n        /* \"#utility.yul\":3391:3409   */\n      add\n        /* \"#utility.yul\":3383:3409   */\n      swap1\n      pop\n        /* \"#utility.yul\":3419:3490   */\n      tag_268\n        /* \"#utility.yul\":3487:3488   */\n      0x00\n        /* \"#utility.yul\":3476:3485   */\n      dup4\n        /* \"#utility.yul\":3472:3489   */\n      add\n        /* \"#utility.yul\":3463:3469   */\n      dup5\n        /* \"#utility.yul\":3419:3490   */\n      tag_188\n      jump\t// in\n    tag_268:\n        /* \"#utility.yul\":3275:3497   */\n      swap3\n      swap2\n      pop\n      pop\n      jump\t// out\n        /* \"#utility.yul\":3503:3625   */\n    tag_189:\n        /* \"#utility.yul\":3576:3600   */\n      tag_270\n        /* \"#utility.yul\":3594:3599   */\n      dup2\n        /* \"#utility.yul\":3576:3600   */\n      tag_187\n      jump\t// in\n    tag_270:\n        /* \"#utility.yul\":3569:3574   */\n      dup2\n        /* \"#utility.yul\":3566:3601   */\n      eq\n        /* \"#utility.yul\":3556:3619   */\n      tag_271\n      jumpi\n        /* \"#utility.yul\":3615:3616   */\n      0x00\n        /* \"#utility.yul\":3612:3613   */\n      dup1\n        /* \"#utility.yul\":3605:3617   */\n      revert\n        /* \"#utility.yul\":3556:3619   */\n    tag_271:\n        /* \"#utility.yul\":3503:3625   */\n      pop\n      jump\t// out\n        /* \"#utility.yul\":3631:3770   */\n    tag_190:\n        /* \"#utility.yul\":3677:3682   */\n      0x00\n        /* \"#utility.yul\":3715:3721   */\n      dup2\n        /* \"#utility.yul\":3702:3722   */\n      calldataload\n        /* \"#utility.yul\":3693:3722   */\n      swap1\n      pop\n        /* \"#utility.yul\":3731:3764   */\n      tag_273\n        /* \"#utility.yul\":3758:3763   */\n      dup2\n        /* \"#utility.yul\":3731:3764   */\n      tag_189\n      jump\t// in\n    tag_273:\n        /* \"#utility.yul\":3631:3770   */\n      swap3\n      swap2\n      pop\n      pop\n      jump\t// out\n        /* \"#utility.yul\":3776:4575   */\n    tag_21:\n        /* \"#utility.yul\":3863:3869   */\n      0x00\n        /* \"#utility.yul\":3871:3877   */\n      dup1\n        /* \"#utility.yul\":3879:3885   */\n      0x00\n        /* \"#utility.yul\":3928:3930   */\n      0x60\n        /* \"#utility.yul\":3916:3925   */\n      dup5\n        /* \"#utility.yul\":3907:3914   */\n      dup7\n        /* \"#utility.yul\":3903:3926   */\n      sub\n        /* \"#utility.yul\":3899:3931   */\n      slt\n        /* \"#utility.yul\":3896:4015   */\n      iszero\n      tag_275\n      jumpi\n        /* \"#utility.yul\":3934:4013   */\n      tag_276\n      tag_176\n      jump\t// in\n    tag_276:\n        /* \"#utility.yul\":3896:4015   */\n    tag_275:\n        /* \"#utility.yul\":4082:4083   */\n      0x00\n        /* \"#utility.yul\":4071:4080   */\n      dup5\n        /* \"#utility.yul\":4067:4084   */\n      add\n        /* \"#utility.yul\":4054:4085   */\n      calldataload\n        /* \"#utility.yul\":4112:4130   */\n      0xffffffffffffffff\n        /* \"#utility.yul\":4104:4110   */\n      dup2\n        /* \"#utility.yul\":4101:4131   */\n      gt\n        /* \"#utility.yul\":4098:4215   */\n      iszero\n      tag_277\n      jumpi\n        /* \"#utility.yul\":4134:4213   */\n      tag_278\n      tag_177\n      jump\t// in\n    tag_278:\n        /* \"#utility.yul\":4098:4215   */\n    tag_277:\n        /* \"#utility.yul\":4239:4302   */\n      tag_279\n        /* \"#utility.yul\":4294:4301   */\n      dup7\n        /* \"#utility.yul\":4285:4291   */\n      dup3\n        /* \"#utility.yul\":4274:4283   */\n      dup8\n        /* \"#utility.yul\":4270:4292   */\n      add\n        /* \"#utility.yul\":4239:4302   */\n      tag_186\n      jump\t// in\n    tag_279:\n        /* \"#utility.yul\":4229:4302   */\n      swap4\n      pop\n        /* \"#utility.yul\":4025:4312   */\n      pop\n        /* \"#utility.yul\":4351:4353   */\n      0x20\n        /* \"#utility.yul\":4377:4430   */\n      tag_280\n        /* \"#utility.yul\":4422:4429   */\n      dup7\n        /* \"#utility.yul\":4413:4419   */\n      dup3\n        /* \"#utility.yul\":4402:4411   */\n      dup8\n        /* \"#utility.yul\":4398:4420   */\n      add\n        /* \"#utility.yul\":4377:4430   */\n      tag_190\n      jump\t// in\n    tag_280:\n        /* \"#utility.yul\":4367:4430   */\n      swap3\n      pop\n        /* \"#utility.yul\":4322:4440   */\n      pop\n        /* \"#utility.yul\":4479:4481   */\n      0x40\n        /* \"#utility.yul\":4505:4558   */\n      tag_281\n        /* \"#utility.yul\":4550:4557   */\n      dup7\n        /* \"#utility.yul\":4541:4547   */\n      dup3\n        /* \"#utility.yul\":4530:4539   */\n      dup8\n        /* \"#utility.yul\":4526:4548   */\n      add\n        /* \"#utility.yul\":4505:4558   */\n      tag_190\n      jump\t// in\n    tag_281:\n        /* \"#utility.yul\":4495:4558   */\n      swap2\n      pop\n        /* \"#utility.yul\":4450:4568   */\n      pop\n        /* \"#utility.yul\":3776:4575   */\n      swap3\n      pop\n      swap3\n      pop\n      swap3\n      jump\t// out\n        /* \"#utility.yul\":4581:4680   */\n    tag_191:\n        /* \"#utility.yul\":4633:4639   */\n      0x00\n        /* \"#utility.yul\":4667:4672   */\n      dup2\n        /* \"#utility.yul\":4661:4673   */\n      mload\n        /* \"#utility.yul\":4651:4673   */\n      swap1\n      pop\n        /* \"#utility.yul\":4581:4680   */\n      swap2\n      swap1\n      pop\n      jump\t// out\n        /* \"#utility.yul\":4686:4855   */\n    tag_192:\n        /* \"#utility.yul\":4770:4781   */\n      0x00\n        /* \"#utility.yul\":4804:4810   */\n      dup3\n        /* \"#utility.yul\":4799:4802   */\n      dup3\n        /* \"#utility.yul\":4792:4811   */\n      mstore\n        /* \"#utility.yul\":4844:4848   */\n      0x20\n        /* \"#utility.yul\":4839:4842   */\n      dup3\n        /* \"#utility.yul\":4835:4849   */\n      add\n        /* \"#utility.yul\":4820:4849   */\n      swap1\n      pop\n        /* \"#utility.yul\":4686:4855   */\n      swap3\n      swap2\n      pop\n      pop\n      jump\t// out\n        /* \"#utility.yul\":4861:5107   */\n    tag_193:\n        /* \"#utility.yul\":4942:4943   */\n      0x00\n        /* \"#utility.yul\":4952:5065   */\n    tag_285:\n        /* \"#utility.yul\":4966:4972   */\n      dup4\n        /* \"#utility.yul\":4963:4964   */\n      dup2\n        /* \"#utility.yul\":4960:4973   */\n      lt\n        /* \"#utility.yul\":4952:5065   */\n      iszero\n      tag_287\n      jumpi\n        /* \"#utility.yul\":5051:5052   */\n      dup1\n        /* \"#utility.yul\":5046:5049   */\n      dup3\n        /* \"#utility.yul\":5042:5053   */\n      add\n        /* \"#utility.yul\":5036:5054   */\n      mload\n        /* \"#utility.yul\":5032:5033   */\n      dup2\n        /* \"#utility.yul\":5027:5030   */\n      dup5\n        /* \"#utility.yul\":5023:5034   */\n      add\n        /* \"#utility.yul\":5016:5055   */\n      mstore\n        /* \"#utility.yul\":4988:4990   */\n      0x20\n        /* \"#utility.yul\":4985:4986   */\n      dup2\n        /* \"#utility.yul\":4981:4991   */\n      add\n        /* \"#utility.yul\":4976:4991   */\n      swap1\n      pop\n        /* \"#utility.yul\":4952:5065   */\n      jump(tag_285)\n    tag_287:\n        /* \"#utility.yul\":5099:5100   */\n      0x00\n        /* \"#utility.yul\":5090:5096   */\n      dup5\n        /* \"#utility.yul\":5085:5088   */\n      dup5\n        /* \"#utility.yul\":5081:5097   */\n      add\n        /* \"#utility.yul\":5074:5101   */\n      mstore\n        /* \"#utility.yul\":4923:5107   */\n      pop\n        /* \"#utility.yul\":4861:5107   */\n      pop\n      pop\n      pop\n      jump\t// out\n        /* \"#utility.yul\":5113:5490   */\n    tag_194:\n        /* \"#utility.yul\":5201:5204   */\n      0x00\n        /* \"#utility.yul\":5229:5268   */\n      tag_289\n        /* \"#utility.yul\":5262:5267   */\n      dup3\n        /* \"#utility.yul\":5229:5268   */\n      tag_191\n      jump\t// in\n    tag_289:\n        /* \"#utility.yul\":5284:5355   */\n      tag_290\n        /* \"#utility.yul\":5348:5354   */\n      dup2\n        /* \"#utility.yul\":5343:5346   */\n      dup6\n        /* \"#utility.yul\":5284:5355   */\n      tag_192\n      jump\t// in\n    tag_290:\n        /* \"#utility.yul\":5277:5355   */\n      swap4\n      pop\n        /* \"#utility.yul\":5364:5429   */\n      tag_291\n        /* \"#utility.yul\":5422:5428   */\n      dup2\n        /* \"#utility.yul\":5417:5420   */\n      dup6\n        /* \"#utility.yul\":5410:5414   */\n      0x20\n        /* \"#utility.yul\":5403:5408   */\n      dup7\n        /* \"#utility.yul\":5399:5415   */\n      add\n        /* \"#utility.yul\":5364:5429   */\n      tag_193\n      jump\t// in\n    tag_291:\n        /* \"#utility.yul\":5454:5483   */\n      tag_292\n        /* \"#utility.yul\":5476:5482   */\n      dup2\n        /* \"#utility.yul\":5454:5483   */\n      tag_180\n      jump\t// in\n    tag_292:\n        /* \"#utility.yul\":5449:5452   */\n      dup5\n        /* \"#utility.yul\":5445:5484   */\n      add\n        /* \"#utility.yul\":5438:5484   */\n      swap2\n      pop\n        /* \"#utility.yul\":5205:5490   */\n      pop\n        /* \"#utility.yul\":5113:5490   */\n      swap3\n      swap2\n      pop\n      pop\n      jump\t// out\n        /* \"#utility.yul\":5496:5809   */\n    tag_24:\n        /* \"#utility.yul\":5609:5613   */\n      0x00\n        /* \"#utility.yul\":5647:5649   */\n      0x20\n        /* \"#utility.yul\":5636:5645   */\n      dup3\n        /* \"#utility.yul\":5632:5650   */\n      add\n        /* \"#utility.yul\":5624:5650   */\n      swap1\n      pop\n        /* \"#utility.yul\":5696:5705   */\n      dup2\n        /* \"#utility.yul\":5690:5694   */\n      dup2\n        /* \"#utility.yul\":5686:5706   */\n      sub\n        /* \"#utility.yul\":5682:5683   */\n      0x00\n        /* \"#utility.yul\":5671:5680   */\n      dup4\n        /* \"#utility.yul\":5667:5684   */\n      add\n        /* \"#utility.yul\":5660:5707   */\n      mstore\n        /* \"#utility.yul\":5724:5802   */\n      tag_294\n        /* \"#utility.yul\":5797:5801   */\n      dup2\n        /* \"#utility.yul\":5788:5794   */\n      dup5\n        /* \"#utility.yul\":5724:5802   */\n      tag_194\n      jump\t// in\n    tag_294:\n        /* \"#utility.yul\":5716:5802   */\n      swap1\n      pop\n        /* \"#utility.yul\":5496:5809   */\n      swap3\n      swap2\n      pop\n      pop\n      jump\t// out\n        /* \"#utility.yul\":5815:6649   */\n    tag_33:\n        /* \"#utility.yul\":5903:5909   */\n      0x00\n        /* \"#utility.yul\":5911:5917   */\n      dup1\n        /* \"#utility.yul\":5960:5962   */\n      0x40\n        /* \"#utility.yul\":5948:5957   */\n      dup4\n        /* \"#utility.yul\":5939:5946   */\n      dup6\n        /* \"#utility.yul\":5935:5958   */\n      sub\n        /* \"#utility.yul\":5931:5963   */\n      slt\n        /* \"#utility.yul\":5928:6047   */\n      iszero\n      tag_296\n      jumpi\n        /* \"#utility.yul\":5966:6045   */\n      tag_297\n      tag_176\n      jump\t// in\n    tag_297:\n        /* \"#utility.yul\":5928:6047   */\n    tag_296:\n        /* \"#utility.yul\":6114:6115   */\n      0x00\n        /* \"#utility.yul\":6103:6112   */\n      dup4\n        /* \"#utility.yul\":6099:6116   */\n      add\n        /* \"#utility.yul\":6086:6117   */\n      calldataload\n        /* \"#utility.yul\":6144:6162   */\n      0xffffffffffffffff\n        /* \"#utility.yul\":6136:6142   */\n      dup2\n        /* \"#utility.yul\":6133:6163   */\n      gt\n        /* \"#utility.yul\":6130:6247   */\n      iszero\n      tag_298\n      jumpi\n        /* \"#utility.yul\":6166:6245   */\n      tag_299\n      tag_177\n      jump\t// in\n    tag_299:\n        /* \"#utility.yul\":6130:6247   */\n    tag_298:\n        /* \"#utility.yul\":6271:6334   */\n      tag_300\n        /* \"#utility.yul\":6326:6333   */\n      dup6\n        /* \"#utility.yul\":6317:6323   */\n      dup3\n        /* \"#utility.yul\":6306:6315   */\n      dup7\n        /* \"#utility.yul\":6302:6324   */\n      add\n        /* \"#utility.yul\":6271:6334   */\n      tag_186\n      jump\t// in\n    tag_300:\n        /* \"#utility.yul\":6261:6334   */\n      swap3\n      pop\n        /* \"#utility.yul\":6057:6344   */\n      pop\n        /* \"#utility.yul\":6411:6413   */\n      0x20\n        /* \"#utility.yul\":6400:6409   */\n      dup4\n        /* \"#utility.yul\":6396:6414   */\n      add\n        /* \"#utility.yul\":6383:6415   */\n      calldataload\n        /* \"#utility.yul\":6442:6460   */\n      0xffffffffffffffff\n        /* \"#utility.yul\":6434:6440   */\n      dup2\n        /* \"#utility.yul\":6431:6461   */\n      gt\n        /* \"#utility.yul\":6428:6545   */\n      iszero\n      tag_301\n      jumpi\n        /* \"#utility.yul\":6464:6543   */\n      tag_302\n      tag_177\n      jump\t// in\n    tag_302:\n        /* \"#utility.yul\":6428:6545   */\n    tag_301:\n        /* \"#utility.yul\":6569:6632   */\n      tag_303\n        /* \"#utility.yul\":6624:6631   */\n      dup6\n        /* \"#utility.yul\":6615:6621   */\n      dup3\n        /* \"#utility.yul\":6604:6613   */\n      dup7\n        /* \"#utility.yul\":6600:6622   */\n      add\n        /* \"#utility.yul\":6569:6632   */\n      tag_186\n      jump\t// in\n    tag_303:\n        /* \"#utility.yul\":6559:6632   */\n      swap2\n      pop\n        /* \"#utility.yul\":6354:6642   */\n      pop\n        /* \"#utility.yul\":5815:6649   */\n      swap3\n      pop\n      swap3\n      swap1\n      pop\n      jump\t// out\n        /* \"#utility.yul\":6655:6781   */\n    tag_195:\n        /* \"#utility.yul\":6692:6699   */\n      0x00\n        /* \"#utility.yul\":6732:6774   */\n      0xffffffffffffffffffffffffffffffffffffffff\n        /* \"#utility.yul\":6725:6730   */\n      dup3\n        /* \"#utility.yul\":6721:6775   */\n      and\n        /* \"#utility.yul\":6710:6775   */\n      swap1\n      pop\n        /* \"#utility.yul\":6655:6781   */\n      swap2\n      swap1\n      pop\n      jump\t// out\n        /* \"#utility.yul\":6787:6883   */\n    tag_196:\n        /* \"#utility.yul\":6824:6831   */\n      0x00\n        /* \"#utility.yul\":6853:6877   */\n      tag_306\n        /* \"#utility.yul\":6871:6876   */\n      dup3\n        /* \"#utility.yul\":6853:6877   */\n      tag_195\n      jump\t// in\n    tag_306:\n        /* \"#utility.yul\":6842:6877   */\n      swap1\n      pop\n        /* \"#utility.yul\":6787:6883   */\n      swap2\n      swap1\n      pop\n      jump\t// out\n        /* \"#utility.yul\":6889:7007   */\n    tag_197:\n        /* \"#utility.yul\":6976:7000   */\n      tag_308\n        /* \"#utility.yul\":6994:6999   */\n      dup2\n        /* \"#utility.yul\":6976:7000   */\n      tag_196\n      jump\t// in\n    tag_308:\n        /* \"#utility.yul\":6971:6974   */\n      dup3\n        /* \"#utility.yul\":6964:7001   */\n      mstore\n        /* \"#utility.yul\":6889:7007   */\n      pop\n      pop\n      jump\t// out\n        /* \"#utility.yul\":7013:7235   */\n    tag_38:\n        /* \"#utility.yul\":7106:7110   */\n      0x00\n        /* \"#utility.yul\":7144:7146   */\n      0x20\n        /* \"#utility.yul\":7133:7142   */\n      dup3\n        /* \"#utility.yul\":7129:7147   */\n      add\n        /* \"#utility.yul\":7121:7147   */\n      swap1\n      pop\n        /* \"#utility.yul\":7157:7228   */\n      tag_310\n        /* \"#utility.yul\":7225:7226   */\n      0x00\n        /* \"#utility.yul\":7214:7223   */\n      dup4\n        /* \"#utility.yul\":7210:7227   */\n      add\n        /* \"#utility.yul\":7201:7207   */\n      dup5\n        /* \"#utility.yul\":7157:7228   */\n      tag_197\n      jump\t// in\n    tag_310:\n        /* \"#utility.yul\":7013:7235   */\n      swap3\n      swap2\n      pop\n      pop\n      jump\t// out\n        /* \"#utility.yul\":7241:7363   */\n    tag_198:\n        /* \"#utility.yul\":7314:7338   */\n      tag_312\n        /* \"#utility.yul\":7332:7337   */\n      dup2\n        /* \"#utility.yul\":7314:7338   */\n      tag_196\n      jump\t// in\n    tag_312:\n        /* \"#utility.yul\":7307:7312   */\n      dup2\n        /* \"#utility.yul\":7304:7339   */\n      eq\n        /* \"#utility.yul\":7294:7357   */\n      tag_313\n      jumpi\n        /* \"#utility.yul\":7353:7354   */\n      0x00\n        /* \"#utility.yul\":7350:7351   */\n      dup1\n        /* \"#utility.yul\":7343:7355   */\n      revert\n        /* \"#utility.yul\":7294:7357   */\n    tag_313:\n        /* \"#utility.yul\":7241:7363   */\n      pop\n      jump\t// out\n        /* \"#utility.yul\":7369:7508   */\n    tag_199:\n        /* \"#utility.yul\":7415:7420   */\n      0x00\n        /* \"#utility.yul\":7453:7459   */\n      dup2\n        /* \"#utility.yul\":7440:7460   */\n      calldataload\n        /* \"#utility.yul\":7431:7460   */\n      swap1\n      pop\n        /* \"#utility.yul\":7469:7502   */\n      tag_315\n        /* \"#utility.yul\":7496:7501   */\n      dup2\n        /* \"#utility.yul\":7469:7502   */\n      tag_198\n      jump\t// in\n    tag_315:\n        /* \"#utility.yul\":7369:7508   */\n      swap3\n      swap2\n      pop\n      pop\n      jump\t// out\n        /* \"#utility.yul\":7514:7843   */\n    tag_49:\n        /* \"#utility.yul\":7573:7579   */\n      0x00\n        /* \"#utility.yul\":7622:7624   */\n      0x20\n        /* \"#utility.yul\":7610:7619   */\n      dup3\n        /* \"#utility.yul\":7601:7608   */\n      dup5\n        /* \"#utility.yul\":7597:7620   */\n      sub\n        /* \"#utility.yul\":7593:7625   */\n      slt\n        /* \"#utility.yul\":7590:7709   */\n      iszero\n      tag_317\n      jumpi\n        /* \"#utility.yul\":7628:7707   */\n      tag_318\n      tag_176\n      jump\t// in\n    tag_318:\n        /* \"#utility.yul\":7590:7709   */\n    tag_317:\n        /* \"#utility.yul\":7748:7749   */\n      0x00\n        /* \"#utility.yul\":7773:7826   */\n      tag_319\n        /* \"#utility.yul\":7818:7825   */\n      dup5\n        /* \"#utility.yul\":7809:7815   */\n      dup3\n        /* \"#utility.yul\":7798:7807   */\n      dup6\n        /* \"#utility.yul\":7794:7816   */\n      add\n        /* \"#utility.yul\":7773:7826   */\n      tag_199\n      jump\t// in\n    tag_319:\n        /* \"#utility.yul\":7763:7826   */\n      swap2\n      pop\n        /* \"#utility.yul\":7719:7836   */\n      pop\n        /* \"#utility.yul\":7514:7843   */\n      swap3\n      swap2\n      pop\n      pop\n      jump\t// out\n        /* \"#utility.yul\":7849:8029   */\n    tag_57:\n        /* \"#utility.yul\":7897:7974   */\n      0x4e487b7100000000000000000000000000000000000000000000000000000000\n        /* \"#utility.yul\":7894:7895   */\n      0x00\n        /* \"#utility.yul\":7887:7975   */\n      mstore\n        /* \"#utility.yul\":7994:7998   */\n      0x32\n        /* \"#utility.yul\":7991:7992   */\n      0x04\n        /* \"#utility.yul\":7984:7999   */\n      mstore\n        /* \"#utility.yul\":8018:8022   */\n      0x24\n        /* \"#utility.yul\":8015:8016   */\n      0x00\n        /* \"#utility.yul\":8008:8023   */\n      revert\n        /* \"#utility.yul\":8035:8215   */\n    tag_200:\n        /* \"#utility.yul\":8083:8160   */\n      0x4e487b7100000000000000000000000000000000000000000000000000000000\n        /* \"#utility.yul\":8080:8081   */\n      0x00\n        /* \"#utility.yul\":8073:8161   */\n      mstore\n        /* \"#utility.yul\":8180:8184   */\n      0x11\n        /* \"#utility.yul\":8177:8178   */\n      0x04\n        /* \"#utility.yul\":8170:8185   */\n      mstore\n        /* \"#utility.yul\":8204:8208   */\n      0x24\n        /* \"#utility.yul\":8201:8202   */\n      0x00\n        /* \"#utility.yul\":8194:8209   */\n      revert\n        /* \"#utility.yul\":8221:8415   */\n    tag_61:\n        /* \"#utility.yul\":8261:8265   */\n      0x00\n        /* \"#utility.yul\":8281:8301   */\n      tag_323\n        /* \"#utility.yul\":8299:8300   */\n      dup3\n        /* \"#utility.yul\":8281:8301   */\n      tag_187\n      jump\t// in\n    tag_323:\n        /* \"#utility.yul\":8276:8301   */\n      swap2\n      pop\n        /* \"#utility.yul\":8315:8335   */\n      tag_324\n        /* \"#utility.yul\":8333:8334   */\n      dup4\n        /* \"#utility.yul\":8315:8335   */\n      tag_187\n      jump\t// in\n    tag_324:\n        /* \"#utility.yul\":8310:8335   */\n      swap3\n      pop\n        /* \"#utility.yul\":8359:8360   */\n      dup3\n        /* \"#utility.yul\":8356:8357   */\n      dup3\n        /* \"#utility.yul\":8352:8361   */\n      sub\n        /* \"#utility.yul\":8344:8361   */\n      swap1\n      pop\n        /* \"#utility.yul\":8383:8384   */\n      dup2\n        /* \"#utility.yul\":8377:8381   */\n      dup2\n        /* \"#utility.yul\":8374:8385   */\n      gt\n        /* \"#utility.yul\":8371:8408   */\n      iszero\n      tag_325\n      jumpi\n        /* \"#utility.yul\":8388:8406   */\n      tag_326\n      tag_200\n      jump\t// in\n    tag_326:\n        /* \"#utility.yul\":8371:8408   */\n    tag_325:\n        /* \"#utility.yul\":8221:8415   */\n      swap3\n      swap2\n      pop\n      pop\n      jump\t// out\n        /* \"#utility.yul\":8421:8831   */\n    tag_63:\n        /* \"#utility.yul\":8461:8468   */\n      0x00\n        /* \"#utility.yul\":8484:8504   */\n      tag_328\n        /* \"#utility.yul\":8502:8503   */\n      dup3\n        /* \"#utility.yul\":8484:8504   */\n      tag_187\n      jump\t// in\n    tag_328:\n        /* \"#utility.yul\":8479:8504   */\n      swap2\n      pop\n        /* \"#utility.yul\":8518:8538   */\n      tag_329\n        /* \"#utility.yul\":8536:8537   */\n      dup4\n        /* \"#utility.yul\":8518:8538   */\n      tag_187\n      jump\t// in\n    tag_329:\n        /* \"#utility.yul\":8513:8538   */\n      swap3\n      pop\n        /* \"#utility.yul\":8573:8574   */\n      dup3\n        /* \"#utility.yul\":8570:8571   */\n      dup3\n        /* \"#utility.yul\":8566:8575   */\n      mul\n        /* \"#utility.yul\":8595:8625   */\n      tag_330\n        /* \"#utility.yul\":8613:8624   */\n      dup2\n        /* \"#utility.yul\":8595:8625   */\n      tag_187\n      jump\t// in\n    tag_330:\n        /* \"#utility.yul\":8584:8625   */\n      swap2\n      pop\n        /* \"#utility.yul\":8774:8775   */\n      dup3\n        /* \"#utility.yul\":8765:8772   */\n      dup3\n        /* \"#utility.yul\":8761:8776   */\n      div\n        /* \"#utility.yul\":8758:8759   */\n      dup5\n        /* \"#utility.yul\":8755:8777   */\n      eq\n        /* \"#utility.yul\":8735:8736   */\n      dup4\n        /* \"#utility.yul\":8728:8737   */\n      iszero\n        /* \"#utility.yul\":8708:8791   */\n      or\n        /* \"#utility.yul\":8685:8824   */\n      tag_331\n      jumpi\n        /* \"#utility.yul\":8804:8822   */\n      tag_332\n      tag_200\n      jump\t// in\n    tag_332:\n        /* \"#utility.yul\":8685:8824   */\n    tag_331:\n        /* \"#utility.yul\":8469:8831   */\n      pop\n        /* \"#utility.yul\":8421:8831   */\n      swap3\n      swap2\n      pop\n      pop\n      jump\t// out\n        /* \"#utility.yul\":8837:9028   */\n    tag_65:\n        /* \"#utility.yul\":8877:8880   */\n      0x00\n        /* \"#utility.yul\":8896:8916   */\n      tag_334\n        /* \"#utility.yul\":8914:8915   */\n      dup3\n        /* \"#utility.yul\":8896:8916   */\n      tag_187\n      jump\t// in\n    tag_334:\n        /* \"#utility.yul\":8891:8916   */\n      swap2\n      pop\n        /* \"#utility.yul\":8930:8950   */\n      tag_335\n        /* \"#utility.yul\":8948:8949   */\n      dup4\n        /* \"#utility.yul\":8930:8950   */\n      tag_187\n      jump\t// in\n    tag_335:\n        /* \"#utility.yul\":8925:8950   */\n      swap3\n      pop\n        /* \"#utility.yul\":8973:8974   */\n      dup3\n        /* \"#utility.yul\":8970:8971   */\n      dup3\n        /* \"#utility.yul\":8966:8975   */\n      add\n        /* \"#utility.yul\":8959:8975   */\n      swap1\n      pop\n        /* \"#utility.yul\":8994:8997   */\n      dup1\n        /* \"#utility.yul\":8991:8992   */\n      dup3\n        /* \"#utility.yul\":8988:8998   */\n      gt\n        /* \"#utility.yul\":8985:9021   */\n      iszero\n      tag_336\n      jumpi\n        /* \"#utility.yul\":9001:9019   */\n      tag_337\n      tag_200\n      jump\t// in\n    tag_337:\n        /* \"#utility.yul\":8985:9021   */\n    tag_336:\n        /* \"#utility.yul\":8837:9028   */\n      swap3\n      swap2\n      pop\n      pop\n      jump\t// out\n        /* \"#utility.yul\":9034:9267   */\n    tag_67:\n        /* \"#utility.yul\":9073:9076   */\n      0x00\n        /* \"#utility.yul\":9096:9120   */\n      tag_339\n        /* \"#utility.yul\":9114:9119   */\n      dup3\n        /* \"#utility.yul\":9096:9120   */\n      tag_187\n      jump\t// in\n    tag_339:\n        /* \"#utility.yul\":9087:9120   */\n      swap2\n      pop\n        /* \"#utility.yul\":9142:9208   */\n      0xffffffffffffffffffffffffffffffffffffffffffffffffffffffffffffffff\n        /* \"#utility.yul\":9135:9140   */\n      dup3\n        /* \"#utility.yul\":9132:9209   */\n      sub\n        /* \"#utility.yul\":9129:9232   */\n      tag_340\n      jumpi\n        /* \"#utility.yul\":9212:9230   */\n      tag_341\n      tag_200\n      jump\t// in\n    tag_341:\n        /* \"#utility.yul\":9129:9232   */\n    tag_340:\n        /* \"#utility.yul\":9259:9260   */\n      0x01\n        /* \"#utility.yul\":9252:9257   */\n      dup3\n        /* \"#utility.yul\":9248:9261   */\n      add\n        /* \"#utility.yul\":9241:9261   */\n      swap1\n      pop\n        /* \"#utility.yul\":9034:9267   */\n      swap2\n      swap1\n      pop\n      jump\t// out\n        /* \"#utility.yul\":9273:9453   */\n    tag_201:\n        /* \"#utility.yul\":9321:9398   */\n      0x4e487b7100000000000000000000000000000000000000000000000000000000\n        /* \"#utility.yul\":9318:9319   */\n      0x00\n        /* \"#utility.yul\":9311:9399   */\n      mstore\n        /* \"#utility.yul\":9418:9422   */\n      0x22\n        /* \"#utility.yul\":9415:9416   */\n      0x04\n        /* \"#utility.yul\":9408:9423   */\n      mstore\n        /* \"#utility.yul\":9442:9446   */\n      0x24\n        /* \"#utility.yul\":9439:9440   */\n      0x00\n        /* \"#utility.yul\":9432:9447   */\n      revert\n        /* \"#utility.yul\":9459:9779   */\n    tag_90:\n        /* \"#utility.yul\":9503:9509   */\n      0x00\n        /* \"#utility.yul\":9540:9541   */\n      0x02\n        /* \"#utility.yul\":9534:9538   */\n      dup3\n        /* \"#utility.yul\":9530:9542   */\n      div\n        /* \"#utility.yul\":9520:9542   */\n      swap1\n      pop\n        /* \"#utility.yul\":9587:9588   */\n      0x01\n        /* \"#utility.yul\":9581:9585   */\n      dup3\n        /* \"#utility.yul\":9577:9589   */\n      and\n        /* \"#utility.yul\":9608:9626   */\n      dup1\n        /* \"#utility.yul\":9598:9679   */\n      tag_344\n      jumpi\n        /* \"#utility.yul\":9664:9668   */\n      0x7f\n        /* \"#utility.yul\":9656:9662   */\n      dup3\n        /* \"#utility.yul\":9652:9669   */\n      and\n        /* \"#utility.yul\":9642:9669   */\n      swap2\n      pop\n        /* \"#utility.yul\":9598:9679   */\n    tag_344:\n        /* \"#utility.yul\":9726:9728   */\n      0x20\n        /* \"#utility.yul\":9718:9724   */\n      dup3\n        /* \"#utility.yul\":9715:9729   */\n      lt\n        /* \"#utility.yul\":9695:9713   */\n      dup2\n        /* \"#utility.yul\":9692:9730   */\n      sub\n        /* \"#utility.yul\":9689:9773   */\n      tag_345\n      jumpi\n        /* \"#utility.yul\":9745:9763   */\n      tag_346\n      tag_201\n      jump\t// in\n    tag_346:\n        /* \"#utility.yul\":9689:9773   */\n    tag_345:\n        /* \"#utility.yul\":9510:9779   */\n      pop\n        /* \"#utility.yul\":9459:9779   */\n      swap2\n      swap1\n      pop\n      jump\t// out\n        /* \"#utility.yul\":9785:9933   */\n    tag_202:\n        /* \"#utility.yul\":9887:9898   */\n      0x00\n        /* \"#utility.yul\":9924:9927   */\n      dup2\n        /* \"#utility.yul\":9909:9927   */\n      swap1\n      pop\n        /* \"#utility.yul\":9785:9933   */\n      swap3\n      swap2\n      pop\n      pop\n      jump\t// out\n        /* \"#utility.yul\":9939:10329   */\n    tag_203:\n        /* \"#utility.yul\":10045:10048   */\n      0x00\n        /* \"#utility.yul\":10073:10112   */\n      tag_349\n        /* \"#utility.yul\":10106:10111   */\n      dup3\n        /* \"#utility.yul\":10073:10112   */\n      tag_191\n      jump\t// in\n    tag_349:\n        /* \"#utility.yul\":10128:10217   */\n      tag_350\n        /* \"#utility.yul\":10210:10216   */\n      dup2\n        /* \"#utility.yul\":10205:10208   */\n      dup6\n        /* \"#utility.yul\":10128:10217   */\n      tag_202\n      jump\t// in\n    tag_350:\n        /* \"#utility.yul\":10121:10217   */\n      swap4\n      pop\n        /* \"#utility.yul\":10226:10291   */\n      tag_351\n        /* \"#utility.yul\":10284:10290   */\n      dup2\n        /* \"#utility.yul\":10279:10282   */\n      dup6\n        /* \"#utility.yul\":10272:10276   */\n      0x20\n        /* \"#utility.yul\":10265:10270   */\n      dup7\n        /* \"#utility.yul\":10261:10277   */\n      add\n        /* \"#utility.yul\":10226:10291   */\n      tag_193\n      jump\t// in\n    tag_351:\n        /* \"#utility.yul\":10316:10322   */\n      dup1\n        /* \"#utility.yul\":10311:10314   */\n      dup5\n        /* \"#utility.yul\":10307:10323   */\n      add\n        /* \"#utility.yul\":10300:10323   */\n      swap2\n      pop\n        /* \"#utility.yul\":10049:10329   */\n      pop\n        /* \"#utility.yul\":9939:10329   */\n      swap3\n      swap2\n      pop\n      pop\n      jump\t// out\n        /* \"#utility.yul\":10335:10610   */\n    tag_97:\n        /* \"#utility.yul\":10467:10470   */\n      0x00\n        /* \"#utility.yul\":10489:10584   */\n      tag_353\n        /* \"#utility.yul\":10580:10583   */\n      dup3\n        /* \"#utility.yul\":10571:10577   */\n      dup5\n        /* \"#utility.yul\":10489:10584   */\n      tag_203\n      jump\t// in\n    tag_353:\n        /* \"#utility.yul\":10482:10584   */\n      swap2\n      pop\n        /* \"#utility.yul\":10601:10604   */\n      dup2\n        /* \"#utility.yul\":10594:10604   */\n      swap1\n      pop\n        /* \"#utility.yul\":10335:10610   */\n      swap3\n      swap2\n      pop\n      pop\n      jump\t// out\n        /* \"#utility.yul\":10616:10787   */\n    tag_204:\n        /* \"#utility.yul\":10756:10779   */\n      0x4e616d6520697320616c72656164792074616b656e0000000000000000000000\n        /* \"#utility.yul\":10752:10753   */\n      0x00\n        /* \"#utility.yul\":10744:10750   */\n      dup3\n        /* \"#utility.yul\":10740:10754   */\n      add\n        /* \"#utility.yul\":10733:10780   */\n      mstore\n        /* \"#utility.yul\":10616:10787   */\n      pop\n      jump\t// out\n        /* \"#utility.yul\":10793:11159   */\n    tag_205:\n        /* \"#utility.yul\":10935:10938   */\n      0x00\n        /* \"#utility.yul\":10956:11023   */\n      tag_356\n        /* \"#utility.yul\":11020:11022   */\n      0x15\n        /* \"#utility.yul\":11015:11018   */\n      dup4\n        /* \"#utility.yul\":10956:11023   */\n      tag_192\n      jump\t// in\n    tag_356:\n        /* \"#utility.yul\":10949:11023   */\n      swap2\n      pop\n        /* \"#utility.yul\":11032:11125   */\n      tag_357\n        /* \"#utility.yul\":11121:11124   */\n      dup3\n        /* \"#utility.yul\":11032:11125   */\n      tag_204\n      jump\t// in\n    tag_357:\n        /* \"#utility.yul\":11150:11152   */\n      0x20\n        /* \"#utility.yul\":11145:11148   */\n      dup3\n        /* \"#utility.yul\":11141:11153   */\n      add\n        /* \"#utility.yul\":11134:11153   */\n      swap1\n      pop\n        /* \"#utility.yul\":10793:11159   */\n      swap2\n      swap1\n      pop\n      jump\t// out\n        /* \"#utility.yul\":11165:11584   */\n    tag_101:\n        /* \"#utility.yul\":11331:11335   */\n      0x00\n        /* \"#utility.yul\":11369:11371   */\n      0x20\n        /* \"#utility.yul\":11358:11367   */\n      dup3\n        /* \"#utility.yul\":11354:11372   */\n      add\n        /* \"#utility.yul\":11346:11372   */\n      swap1\n      pop\n        /* \"#utility.yul\":11418:11427   */\n      dup2\n        /* \"#utility.yul\":11412:11416   */\n      dup2\n        /* \"#utility.yul\":11408:11428   */\n      sub\n        /* \"#utility.yul\":11404:11405   */\n      0x00\n        /* \"#utility.yul\":11393:11402   */\n      dup4\n        /* \"#utility.yul\":11389:11406   */\n      add\n        /* \"#utility.yul\":11382:11429   */\n      mstore\n        /* \"#utility.yul\":11446:11577   */\n      tag_359\n        /* \"#utility.yul\":11572:11576   */\n      dup2\n        /* \"#utility.yul\":11446:11577   */\n      tag_205\n      jump\t// in\n    tag_359:\n        /* \"#utility.yul\":11438:11577   */\n      swap1\n      pop\n        /* \"#utility.yul\":11165:11584   */\n      swap2\n      swap1\n      pop\n      jump\t// out\n        /* \"#utility.yul\":11590:11757   */\n    tag_206:\n        /* \"#utility.yul\":11730:11749   */\n      0x4e6f7420612076616c6964206f776e6572000000000000000000000000000000\n        /* \"#utility.yul\":11726:11727   */\n      0x00\n        /* \"#utility.yul\":11718:11724   */\n      dup3\n        /* \"#utility.yul\":11714:11728   */\n      add\n        /* \"#utility.yul\":11707:11750   */\n      mstore\n        /* \"#utility.yul\":11590:11757   */\n      pop\n      jump\t// out\n        /* \"#utility.yul\":11763:12129   */\n    tag_207:\n        /* \"#utility.yul\":11905:11908   */\n      0x00\n        /* \"#utility.yul\":11926:11993   */\n      tag_362\n        /* \"#utility.yul\":11990:11992   */\n      0x11\n        /* \"#utility.yul\":11985:11988   */\n      dup4\n        /* \"#utility.yul\":11926:11993   */\n      tag_192\n      jump\t// in\n    tag_362:\n        /* \"#utility.yul\":11919:11993   */\n      swap2\n      pop\n        /* \"#utility.yul\":12002:12095   */\n      tag_363\n        /* \"#utility.yul\":12091:12094   */\n      dup3\n        /* \"#utility.yul\":12002:12095   */\n      tag_206\n      jump\t// in\n    tag_363:\n        /* \"#utility.yul\":12120:12122   */\n      0x20\n        /* \"#utility.yul\":12115:12118   */\n      dup3\n        /* \"#utility.yul\":12111:12123   */\n      add\n        /* \"#utility.yul\":12104:12123   */\n      swap1\n      pop\n        /* \"#utility.yul\":11763:12129   */\n      swap2\n      swap1\n      pop\n      jump\t// out\n        /* \"#utility.yul\":12135:12554   */\n    tag_105:\n        /* \"#utility.yul\":12301:12305   */\n      0x00\n        /* \"#utility.yul\":12339:12341   */\n      0x20\n        /* \"#utility.yul\":12328:12337   */\n      dup3\n        /* \"#utility.yul\":12324:12342   */\n      add\n        /* \"#utility.yul\":12316:12342   */\n      swap1\n      pop\n        /* \"#utility.yul\":12388:12397   */\n      dup2\n        /* \"#utility.yul\":12382:12386   */\n      dup2\n        /* \"#utility.yul\":12378:12398   */\n      sub\n        /* \"#utility.yul\":12374:12375   */\n      0x00\n        /* \"#utility.yul\":12363:12372   */\n      dup4\n        /* \"#utility.yul\":12359:12376   */\n      add\n        /* \"#utility.yul\":12352:12399   */\n      mstore\n        /* \"#utility.yul\":12416:12547   */\n      tag_365\n        /* \"#utility.yul\":12542:12546   */\n      dup2\n        /* \"#utility.yul\":12416:12547   */\n      tag_207\n      jump\t// in\n    tag_365:\n        /* \"#utility.yul\":12408:12547   */\n      swap1\n      pop\n        /* \"#utility.yul\":12135:12554   */\n      swap2\n      swap1\n      pop\n      jump\t// out\n        /* \"#utility.yul\":12560:12701   */\n    tag_208:\n        /* \"#utility.yul\":12609:12613   */\n      0x00\n        /* \"#utility.yul\":12632:12635   */\n      dup2\n        /* \"#utility.yul\":12624:12635   */\n      swap1\n      pop\n        /* \"#utility.yul\":12655:12658   */\n      dup2\n        /* \"#utility.yul\":12652:12653   */\n      0x00\n        /* \"#utility.yul\":12645:12659   */\n      mstore\n        /* \"#utility.yul\":12689:12693   */\n      0x20\n        /* \"#utility.yul\":12686:12687   */\n      0x00\n        /* \"#utility.yul\":12676:12694   */\n      keccak256\n        /* \"#utility.yul\":12668:12694   */\n      swap1\n      pop\n        /* \"#utility.yul\":12560:12701   */\n      swap2\n      swap1\n      pop\n      jump\t// out\n        /* \"#utility.yul\":12707:12800   */\n    tag_209:\n        /* \"#utility.yul\":12744:12750   */\n      0x00\n        /* \"#utility.yul\":12791:12793   */\n      0x20\n        /* \"#utility.yul\":12786:12788   */\n      0x1f\n        /* \"#utility.yul\":12779:12784   */\n      dup4\n        /* \"#utility.yul\":12775:12789   */\n      add\n        /* \"#utility.yul\":12771:12794   */\n      div\n        /* \"#utility.yul\":12761:12794   */\n      swap1\n      pop\n        /* \"#utility.yul\":12707:12800   */\n      swap2\n      swap1\n      pop\n      jump\t// out\n        /* \"#utility.yul\":12806:12913   */\n    tag_210:\n        /* \"#utility.yul\":12850:12858   */\n      0x00\n        /* \"#utility.yul\":12900:12905   */\n      dup3\n        /* \"#utility.yul\":12894:12898   */\n      dup3\n        /* \"#utility.yul\":12890:12906   */\n      shl\n        /* \"#utility.yul\":12869:12906   */\n      swap1\n      pop\n        /* \"#utility.yul\":12806:12913   */\n      swap3\n      swap2\n      pop\n      pop\n      jump\t// out\n        /* \"#utility.yul\":12919:13312   */\n    tag_211:\n        /* \"#utility.yul\":12988:12994   */\n      0x00\n        /* \"#utility.yul\":13038:13039   */\n      0x08\n        /* \"#utility.yul\":13026:13036   */\n      dup4\n        /* \"#utility.yul\":13022:13040   */\n      mul\n        /* \"#utility.yul\":13061:13158   */\n      tag_370\n        /* \"#utility.yul\":13091:13157   */\n      0xffffffffffffffffffffffffffffffffffffffffffffffffffffffffffffffff\n        /* \"#utility.yul\":13080:13089   */\n      dup3\n        /* \"#utility.yul\":13061:13158   */\n      tag_210\n      jump\t// in\n    tag_370:\n        /* \"#utility.yul\":13179:13218   */\n      tag_371\n        /* \"#utility.yul\":13209:13217   */\n      dup7\n        /* \"#utility.yul\":13198:13207   */\n      dup4\n        /* \"#utility.yul\":13179:13218   */\n      tag_210\n      jump\t// in\n    tag_371:\n        /* \"#utility.yul\":13167:13218   */\n      swap6\n      pop\n        /* \"#utility.yul\":13251:13255   */\n      dup1\n        /* \"#utility.yul\":13247:13256   */\n      not\n        /* \"#utility.yul\":13240:13245   */\n      dup5\n        /* \"#utility.yul\":13236:13257   */\n      and\n        /* \"#utility.yul\":13227:13257   */\n      swap4\n      pop\n        /* \"#utility.yul\":13300:13304   */\n      dup1\n        /* \"#utility.yul\":13290:13298   */\n      dup7\n        /* \"#utility.yul\":13286:13305   */\n      and\n        /* \"#utility.yul\":13279:13284   */\n      dup5\n        /* \"#utility.yul\":13276:13306   */\n      or\n        /* \"#utility.yul\":13266:13306   */\n      swap3\n      pop\n        /* \"#utility.yul\":12995:13312   */\n      pop\n      pop\n        /* \"#utility.yul\":12919:13312   */\n      swap4\n      swap3\n      pop\n      pop\n      pop\n      jump\t// out\n        /* \"#utility.yul\":13318:13378   */\n    tag_212:\n        /* \"#utility.yul\":13346:13349   */\n      0x00\n        /* \"#utility.yul\":13367:13372   */\n      dup2\n        /* \"#utility.yul\":13360:13372   */\n      swap1\n      pop\n        /* \"#utility.yul\":13318:13378   */\n      swap2\n      swap1\n      pop\n      jump\t// out\n        /* \"#utility.yul\":13384:13526   */\n    tag_213:\n        /* \"#utility.yul\":13434:13443   */\n      0x00\n        /* \"#utility.yul\":13467:13520   */\n      tag_374\n        /* \"#utility.yul\":13485:13519   */\n      tag_375\n        /* \"#utility.yul\":13494:13518   */\n      tag_376\n        /* \"#utility.yul\":13512:13517   */\n      dup5\n        /* \"#utility.yul\":13494:13518   */\n      tag_187\n      jump\t// in\n    tag_376:\n        /* \"#utility.yul\":13485:13519   */\n      tag_212\n      jump\t// in\n    tag_375:\n        /* \"#utility.yul\":13467:13520   */\n      tag_187\n      jump\t// in\n    tag_374:\n        /* \"#utility.yul\":13454:13520   */\n      swap1\n      pop\n        /* \"#utility.yul\":13384:13526   */\n      swap2\n      swap1\n      pop\n      jump\t// out\n        /* \"#utility.yul\":13532:13607   */\n    tag_214:\n        /* \"#utility.yul\":13575:13578   */\n      0x00\n        /* \"#utility.yul\":13596:13601   */\n      dup2\n        /* \"#utility.yul\":13589:13601   */\n      swap1\n      pop\n        /* \"#utility.yul\":13532:13607   */\n      swap2\n      swap1\n      pop\n      jump\t// out\n        /* \"#utility.yul\":13613:13882   */\n    tag_215:\n        /* \"#utility.yul\":13723:13762   */\n      tag_379\n        /* \"#utility.yul\":13754:13761   */\n      dup4\n        /* \"#utility.yul\":13723:13762   */\n      tag_213\n      jump\t// in\n    tag_379:\n        /* \"#utility.yul\":13784:13875   */\n      tag_380\n        /* \"#utility.yul\":13833:13874   */\n      tag_381\n        /* \"#utility.yul\":13857:13873   */\n      dup3\n        /* \"#utility.yul\":13833:13874   */\n      tag_214\n      jump\t// in\n    tag_381:\n        /* \"#utility.yul\":13825:13831   */\n      dup5\n        /* \"#utility.yul\":13818:13822   */\n      dup5\n        /* \"#utility.yul\":13812:13823   */\n      sload\n        /* \"#utility.yul\":13784:13875   */\n      tag_211\n      jump\t// in\n    tag_380:\n        /* \"#utility.yul\":13778:13782   */\n      dup3\n        /* \"#utility.yul\":13771:13876   */\n      sstore\n        /* \"#utility.yul\":13689:13882   */\n      pop\n        /* \"#utility.yul\":13613:13882   */\n      pop\n      pop\n      pop\n      jump\t// out\n        /* \"#utility.yul\":13888:13961   */\n    tag_216:\n        /* \"#utility.yul\":13933:13936   */\n      0x00\n        /* \"#utility.yul\":13888:13961   */\n      swap1\n      jump\t// out\n        /* \"#utility.yul\":13967:14156   */\n    tag_217:\n        /* \"#utility.yul\":14044:14076   */\n      tag_384\n      tag_216\n      jump\t// in\n    tag_384:\n        /* \"#utility.yul\":14085:14150   */\n      tag_385\n        /* \"#utility.yul\":14143:14149   */\n      dup2\n        /* \"#utility.yul\":14135:14141   */\n      dup5\n        /* \"#utility.yul\":14129:14133   */\n      dup5\n        /* \"#utility.yul\":14085:14150   */\n      tag_215\n      jump\t// in\n    tag_385:\n        /* \"#utility.yul\":14020:14156   */\n      pop\n        /* \"#utility.yul\":13967:14156   */\n      pop\n      pop\n      jump\t// out\n        /* \"#utility.yul\":14162:14348   */\n    tag_218:\n        /* \"#utility.yul\":14222:14342   */\n    tag_387:\n        /* \"#utility.yul\":14239:14242   */\n      dup2\n        /* \"#utility.yul\":14232:14237   */\n      dup2\n        /* \"#utility.yul\":14229:14243   */\n      lt\n        /* \"#utility.yul\":14222:14342   */\n      iszero\n      tag_389\n      jumpi\n        /* \"#utility.yul\":14293:14332   */\n      tag_390\n        /* \"#utility.yul\":14330:14331   */\n      0x00\n        /* \"#utility.yul\":14323:14328   */\n      dup3\n        /* \"#utility.yul\":14293:14332   */\n      tag_217\n      jump\t// in\n    tag_390:\n        /* \"#utility.yul\":14266:14267   */\n      0x01\n        /* \"#utility.yul\":14259:14264   */\n      dup2\n        /* \"#utility.yul\":14255:14268   */\n      add\n        /* \"#utility.yul\":14246:14268   */\n      swap1\n      pop\n        /* \"#utility.yul\":14222:14342   */\n      jump(tag_387)\n    tag_389:\n        /* \"#utility.yul\":14162:14348   */\n      pop\n      pop\n      jump\t// out\n        /* \"#utility.yul\":14354:14897   */\n    tag_219:\n        /* \"#utility.yul\":14455:14457   */\n      0x1f\n        /* \"#utility.yul\":14450:14453   */\n      dup3\n        /* \"#utility.yul\":14447:14458   */\n      gt\n        /* \"#utility.yul\":14444:14890   */\n      iszero\n      tag_392\n      jumpi\n        /* \"#utility.yul\":14489:14527   */\n      tag_393\n        /* \"#utility.yul\":14521:14526   */\n      dup2\n        /* \"#utility.yul\":14489:14527   */\n      tag_208\n      jump\t// in\n    tag_393:\n        /* \"#utility.yul\":14573:14602   */\n      tag_394\n        /* \"#utility.yul\":14591:14601   */\n      dup5\n        /* \"#utility.yul\":14573:14602   */\n      tag_209\n      jump\t// in\n    tag_394:\n        /* \"#utility.yul\":14563:14571   */\n      dup2\n        /* \"#utility.yul\":14559:14603   */\n      add\n        /* \"#utility.yul\":14756:14758   */\n      0x20\n        /* \"#utility.yul\":14744:14754   */\n      dup6\n        /* \"#utility.yul\":14741:14759   */\n      lt\n        /* \"#utility.yul\":14738:14787   */\n      iszero\n      tag_395\n      jumpi\n        /* \"#utility.yul\":14777:14785   */\n      dup2\n        /* \"#utility.yul\":14762:14785   */\n      swap1\n      pop\n        /* \"#utility.yul\":14738:14787   */\n    tag_395:\n        /* \"#utility.yul\":14800:14880   */\n      tag_396\n        /* \"#utility.yul\":14856:14878   */\n      tag_397\n        /* \"#utility.yul\":14874:14877   */\n      dup6\n        /* \"#utility.yul\":14856:14878   */\n      tag_209\n      jump\t// in\n    tag_397:\n        /* \"#utility.yul\":14846:14854   */\n      dup4\n        /* \"#utility.yul\":14842:14879   */\n      add\n        /* \"#utility.yul\":14829:14840   */\n      dup3\n        /* \"#utility.yul\":14800:14880   */\n      tag_218\n      jump\t// in\n    tag_396:\n        /* \"#utility.yul\":14459:14890   */\n      pop\n      pop\n        /* \"#utility.yul\":14444:14890   */\n    tag_392:\n        /* \"#utility.yul\":14354:14897   */\n      pop\n      pop\n      pop\n      jump\t// out\n        /* \"#utility.yul\":14903:15020   */\n    tag_220:\n        /* \"#utility.yul\":14957:14965   */\n      0x00\n        /* \"#utility.yul\":15007:15012   */\n      dup3\n        /* \"#utility.yul\":15001:15005   */\n      dup3\n        /* \"#utility.yul\":14997:15013   */\n      shr\n        /* \"#utility.yul\":14976:15013   */\n      swap1\n      pop\n        /* \"#utility.yul\":14903:15020   */\n      swap3\n      swap2\n      pop\n      pop\n      jump\t// out\n        /* \"#utility.yul\":15026:15195   */\n    tag_221:\n        /* \"#utility.yul\":15070:15076   */\n      0x00\n        /* \"#utility.yul\":15103:15154   */\n      tag_400\n        /* \"#utility.yul\":15151:15152   */\n      0x00\n        /* \"#utility.yul\":15147:15153   */\n      not\n        /* \"#utility.yul\":15139:15144   */\n      dup5\n        /* \"#utility.yul\":15136:15137   */\n      0x08\n        /* \"#utility.yul\":15132:15145   */\n      mul\n        /* \"#utility.yul\":15103:15154   */\n      tag_220\n      jump\t// in\n    tag_400:\n        /* \"#utility.yul\":15099:15155   */\n      not\n        /* \"#utility.yul\":15184:15188   */\n      dup1\n        /* \"#utility.yul\":15178:15182   */\n      dup4\n        /* \"#utility.yul\":15174:15189   */\n      and\n        /* \"#utility.yul\":15164:15189   */\n      swap2\n      pop\n        /* \"#utility.yul\":15077:15195   */\n      pop\n        /* \"#utility.yul\":15026:15195   */\n      swap3\n      swap2\n      pop\n      pop\n      jump\t// out\n        /* \"#utility.yul\":15200:15495   */\n    tag_222:\n        /* \"#utility.yul\":15276:15280   */\n      0x00\n        /* \"#utility.yul\":15422:15451   */\n      tag_402\n        /* \"#utility.yul\":15447:15450   */\n      dup4\n        /* \"#utility.yul\":15441:15445   */\n      dup4\n        /* \"#utility.yul\":15422:15451   */\n      tag_221\n      jump\t// in\n    tag_402:\n        /* \"#utility.yul\":15414:15451   */\n      swap2\n      pop\n        /* \"#utility.yul\":15484:15487   */\n      dup3\n        /* \"#utility.yul\":15481:15482   */\n      0x02\n        /* \"#utility.yul\":15477:15488   */\n      mul\n        /* \"#utility.yul\":15471:15475   */\n      dup3\n        /* \"#utility.yul\":15468:15489   */\n      or\n        /* \"#utility.yul\":15460:15489   */\n      swap1\n      pop\n        /* \"#utility.yul\":15200:15495   */\n      swap3\n      swap2\n      pop\n      pop\n      jump\t// out\n        /* \"#utility.yul\":15500:16895   */\n    tag_108:\n        /* \"#utility.yul\":15617:15654   */\n      tag_404\n        /* \"#utility.yul\":15650:15653   */\n      dup3\n        /* \"#utility.yul\":15617:15654   */\n      tag_191\n      jump\t// in\n    tag_404:\n        /* \"#utility.yul\":15719:15737   */\n      0xffffffffffffffff\n        /* \"#utility.yul\":15711:15717   */\n      dup2\n        /* \"#utility.yul\":15708:15738   */\n      gt\n        /* \"#utility.yul\":15705:15761   */\n      iszero\n      tag_405\n      jumpi\n        /* \"#utility.yul\":15741:15759   */\n      tag_406\n      tag_72\n      jump\t// in\n    tag_406:\n        /* \"#utility.yul\":15705:15761   */\n    tag_405:\n        /* \"#utility.yul\":15785:15823   */\n      tag_407\n        /* \"#utility.yul\":15817:15821   */\n      dup3\n        /* \"#utility.yul\":15811:15822   */\n      sload\n        /* \"#utility.yul\":15785:15823   */\n      tag_90\n      jump\t// in\n    tag_407:\n        /* \"#utility.yul\":15870:15937   */\n      tag_408\n        /* \"#utility.yul\":15930:15936   */\n      dup3\n        /* \"#utility.yul\":15922:15928   */\n      dup3\n        /* \"#utility.yul\":15916:15920   */\n      dup6\n        /* \"#utility.yul\":15870:15937   */\n      tag_219\n      jump\t// in\n    tag_408:\n        /* \"#utility.yul\":15964:15965   */\n      0x00\n        /* \"#utility.yul\":15988:15992   */\n      0x20\n        /* \"#utility.yul\":15975:15992   */\n      swap1\n      pop\n        /* \"#utility.yul\":16020:16022   */\n      0x1f\n        /* \"#utility.yul\":16012:16018   */\n      dup4\n        /* \"#utility.yul\":16009:16023   */\n      gt\n        /* \"#utility.yul\":16037:16038   */\n      0x01\n        /* \"#utility.yul\":16032:16650   */\n      dup2\n      eq\n      tag_410\n      jumpi\n        /* \"#utility.yul\":16694:16695   */\n      0x00\n        /* \"#utility.yul\":16711:16717   */\n      dup5\n        /* \"#utility.yul\":16708:16785   */\n      iszero\n      tag_411\n      jumpi\n        /* \"#utility.yul\":16760:16769   */\n      dup3\n        /* \"#utility.yul\":16755:16758   */\n      dup8\n        /* \"#utility.yul\":16751:16770   */\n      add\n        /* \"#utility.yul\":16745:16771   */\n      mload\n        /* \"#utility.yul\":16736:16771   */\n      swap1\n      pop\n        /* \"#utility.yul\":16708:16785   */\n    tag_411:\n        /* \"#utility.yul\":16811:16878   */\n      tag_412\n        /* \"#utility.yul\":16871:16877   */\n      dup6\n        /* \"#utility.yul\":16864:16869   */\n      dup3\n        /* \"#utility.yul\":16811:16878   */\n      tag_222\n      jump\t// in\n    tag_412:\n        /* \"#utility.yul\":16805:16809   */\n      dup7\n        /* \"#utility.yul\":16798:16879   */\n      sstore\n        /* \"#utility.yul\":16667:16889   */\n      pop\n        /* \"#utility.yul\":16002:16889   */\n      jump(tag_409)\n        /* \"#utility.yul\":16032:16650   */\n    tag_410:\n        /* \"#utility.yul\":16084:16088   */\n      0x1f\n        /* \"#utility.yul\":16080:16089   */\n      not\n        /* \"#utility.yul\":16072:16078   */\n      dup5\n        /* \"#utility.yul\":16068:16090   */\n      and\n        /* \"#utility.yul\":16118:16155   */\n      tag_413\n        /* \"#utility.yul\":16150:16154   */\n      dup7\n        /* \"#utility.yul\":16118:16155   */\n      tag_208\n      jump\t// in\n    tag_413:\n        /* \"#utility.yul\":16177:16178   */\n      0x00\n        /* \"#utility.yul\":16191:16399   */\n    tag_414:\n        /* \"#utility.yul\":16205:16212   */\n      dup3\n        /* \"#utility.yul\":16202:16203   */\n      dup2\n        /* \"#utility.yul\":16199:16213   */\n      lt\n        /* \"#utility.yul\":16191:16399   */\n      iszero\n      tag_416\n      jumpi\n        /* \"#utility.yul\":16284:16293   */\n      dup5\n        /* \"#utility.yul\":16279:16282   */\n      dup10\n        /* \"#utility.yul\":16275:16294   */\n      add\n        /* \"#utility.yul\":16269:16295   */\n      mload\n        /* \"#utility.yul\":16261:16267   */\n      dup3\n        /* \"#utility.yul\":16254:16296   */\n      sstore\n        /* \"#utility.yul\":16335:16336   */\n      0x01\n        /* \"#utility.yul\":16327:16333   */\n      dup3\n        /* \"#utility.yul\":16323:16337   */\n      add\n        /* \"#utility.yul\":16313:16337   */\n      swap2\n      pop\n        /* \"#utility.yul\":16382:16384   */\n      0x20\n        /* \"#utility.yul\":16371:16380   */\n      dup6\n        /* \"#utility.yul\":16367:16385   */\n      add\n        /* \"#utility.yul\":16354:16385   */\n      swap5\n      pop\n        /* \"#utility.yul\":16228:16232   */\n      0x20\n        /* \"#utility.yul\":16225:16226   */\n      dup2\n        /* \"#utility.yul\":16221:16233   */\n      add\n        /* \"#utility.yul\":16216:16233   */\n      swap1\n      pop\n        /* \"#utility.yul\":16191:16399   */\n      jump(tag_414)\n    tag_416:\n        /* \"#utility.yul\":16427:16433   */\n      dup7\n        /* \"#utility.yul\":16418:16425   */\n      dup4\n        /* \"#utility.yul\":16415:16434   */\n      lt\n        /* \"#utility.yul\":16412:16591   */\n      iszero\n      tag_417\n      jumpi\n        /* \"#utility.yul\":16485:16494   */\n      dup5\n        /* \"#utility.yul\":16480:16483   */\n      dup10\n        /* \"#utility.yul\":16476:16495   */\n      add\n        /* \"#utility.yul\":16470:16496   */\n      mload\n        /* \"#utility.yul\":16528:16576   */\n      tag_418\n        /* \"#utility.yul\":16570:16574   */\n      0x1f\n        /* \"#utility.yul\":16562:16568   */\n      dup10\n        /* \"#utility.yul\":16558:16575   */\n      and\n        /* \"#utility.yul\":16547:16556   */\n      dup3\n        /* \"#utility.yul\":16528:16576   */\n      tag_221\n      jump\t// in\n    tag_418:\n        /* \"#utility.yul\":16520:16526   */\n      dup4\n        /* \"#utility.yul\":16513:16577   */\n      sstore\n        /* \"#utility.yul\":16435:16591   */\n      pop\n        /* \"#utility.yul\":16412:16591   */\n    tag_417:\n        /* \"#utility.yul\":16637:16638   */\n      0x01\n        /* \"#utility.yul\":16633:16634   */\n      0x02\n        /* \"#utility.yul\":16625:16631   */\n      dup9\n        /* \"#utility.yul\":16621:16635   */\n      mul\n        /* \"#utility.yul\":16617:16639   */\n      add\n        /* \"#utility.yul\":16611:16615   */\n      dup9\n        /* \"#utility.yul\":16604:16640   */\n      sstore\n        /* \"#utility.yul\":16039:16650   */\n      pop\n      pop\n      pop\n        /* \"#utility.yul\":16002:16889   */\n    tag_409:\n      pop\n        /* \"#utility.yul\":15592:16895   */\n      pop\n      pop\n      pop\n        /* \"#utility.yul\":15500:16895   */\n      pop\n      pop\n      jump\t// out\n        /* \"#utility.yul\":16901:17311   */\n    tag_115:\n        /* \"#utility.yul\":16941:16948   */\n      0x00\n        /* \"#utility.yul\":16964:16984   */\n      tag_420\n        /* \"#utility.yul\":16982:16983   */\n      dup3\n        /* \"#utility.yul\":16964:16984   */\n      tag_195\n      jump\t// in\n    tag_420:\n        /* \"#utility.yul\":16959:16984   */\n      swap2\n      pop\n        /* \"#utility.yul\":16998:17018   */\n      tag_421\n        /* \"#utility.yul\":17016:17017   */\n      dup4\n        /* \"#utility.yul\":16998:17018   */\n      tag_195\n      jump\t// in\n    tag_421:\n        /* \"#utility.yul\":16993:17018   */\n      swap3\n      pop\n        /* \"#utility.yul\":17053:17054   */\n      dup3\n        /* \"#utility.yul\":17050:17051   */\n      dup3\n        /* \"#utility.yul\":17046:17055   */\n      mul\n        /* \"#utility.yul\":17075:17105   */\n      tag_422\n        /* \"#utility.yul\":17093:17104   */\n      dup2\n        /* \"#utility.yul\":17075:17105   */\n      tag_195\n      jump\t// in\n    tag_422:\n        /* \"#utility.yul\":17064:17105   */\n      swap2\n      pop\n        /* \"#utility.yul\":17254:17255   */\n      dup3\n        /* \"#utility.yul\":17245:17252   */\n      dup3\n        /* \"#utility.yul\":17241:17256   */\n      div\n        /* \"#utility.yul\":17238:17239   */\n      dup5\n        /* \"#utility.yul\":17235:17257   */\n      eq\n        /* \"#utility.yul\":17215:17216   */\n      dup4\n        /* \"#utility.yul\":17208:17217   */\n      iszero\n        /* \"#utility.yul\":17188:17271   */\n      or\n        /* \"#utility.yul\":17165:17304   */\n      tag_423\n      jumpi\n        /* \"#utility.yul\":17284:17302   */\n      tag_424\n      tag_200\n      jump\t// in\n    tag_424:\n        /* \"#utility.yul\":17165:17304   */\n    tag_423:\n        /* \"#utility.yul\":16949:17311   */\n      pop\n        /* \"#utility.yul\":16901:17311   */\n      swap3\n      swap2\n      pop\n      pop\n      jump\t// out\n        /* \"#utility.yul\":17317:17552   */\n    tag_124:\n        /* \"#utility.yul\":17357:17361   */\n      0x00\n        /* \"#utility.yul\":17377:17397   */\n      tag_426\n        /* \"#utility.yul\":17395:17396   */\n      dup3\n        /* \"#utility.yul\":17377:17397   */\n      tag_195\n      jump\t// in\n    tag_426:\n        /* \"#utility.yul\":17372:17397   */\n      swap2\n      pop\n        /* \"#utility.yul\":17411:17431   */\n      tag_427\n        /* \"#utility.yul\":17429:17430   */\n      dup4\n        /* \"#utility.yul\":17411:17431   */\n      tag_195\n      jump\t// in\n    tag_427:\n        /* \"#utility.yul\":17406:17431   */\n      swap3\n      pop\n        /* \"#utility.yul\":17455:17456   */\n      dup3\n        /* \"#utility.yul\":17452:17453   */\n      dup3\n        /* \"#utility.yul\":17448:17457   */\n      sub\n        /* \"#utility.yul\":17440:17457   */\n      swap1\n      pop\n        /* \"#utility.yul\":17479:17521   */\n      0xffffffffffffffffffffffffffffffffffffffff\n        /* \"#utility.yul\":17473:17477   */\n      dup2\n        /* \"#utility.yul\":17470:17522   */\n      gt\n        /* \"#utility.yul\":17467:17545   */\n      iszero\n      tag_428\n      jumpi\n        /* \"#utility.yul\":17525:17543   */\n      tag_429\n      tag_200\n      jump\t// in\n    tag_429:\n        /* \"#utility.yul\":17467:17545   */\n    tag_428:\n        /* \"#utility.yul\":17317:17552   */\n      swap3\n      swap2\n      pop\n      pop\n      jump\t// out\n        /* \"#utility.yul\":17558:17790   */\n    tag_146:\n        /* \"#utility.yul\":17598:17601   */\n      0x00\n        /* \"#utility.yul\":17617:17637   */\n      tag_431\n        /* \"#utility.yul\":17635:17636   */\n      dup3\n        /* \"#utility.yul\":17617:17637   */\n      tag_195\n      jump\t// in\n    tag_431:\n        /* \"#utility.yul\":17612:17637   */\n      swap2\n      pop\n        /* \"#utility.yul\":17651:17671   */\n      tag_432\n        /* \"#utility.yul\":17669:17670   */\n      dup4\n        /* \"#utility.yul\":17651:17671   */\n      tag_195\n      jump\t// in\n    tag_432:\n        /* \"#utility.yul\":17646:17671   */\n      swap3\n      pop\n        /* \"#utility.yul\":17694:17695   */\n      dup3\n        /* \"#utility.yul\":17691:17692   */\n      dup3\n        /* \"#utility.yul\":17687:17696   */\n      add\n        /* \"#utility.yul\":17680:17696   */\n      swap1\n      pop\n        /* \"#utility.yul\":17717:17759   */\n      0xffffffffffffffffffffffffffffffffffffffff\n        /* \"#utility.yul\":17712:17715   */\n      dup2\n        /* \"#utility.yul\":17709:17760   */\n      gt\n        /* \"#utility.yul\":17706:17783   */\n      iszero\n      tag_433\n      jumpi\n        /* \"#utility.yul\":17763:17781   */\n      tag_434\n      tag_200\n      jump\t// in\n    tag_434:\n        /* \"#utility.yul\":17706:17783   */\n    tag_433:\n        /* \"#utility.yul\":17558:17790   */\n      swap3\n      swap2\n      pop\n      pop\n      jump\t// out\n        /* \"#utility.yul\":17796:17939   */\n    tag_223:\n        /* \"#utility.yul\":17853:17858   */\n      0x00\n        /* \"#utility.yul\":17884:17890   */\n      dup2\n        /* \"#utility.yul\":17878:17891   */\n      mload\n        /* \"#utility.yul\":17869:17891   */\n      swap1\n      pop\n        /* \"#utility.yul\":17900:17933   */\n      tag_436\n        /* \"#utility.yul\":17927:17932   */\n      dup2\n        /* \"#utility.yul\":17900:17933   */\n      tag_198\n      jump\t// in\n    tag_436:\n        /* \"#utility.yul\":17796:17939   */\n      swap3\n      swap2\n      pop\n      pop\n      jump\t// out\n        /* \"#utility.yul\":17945:18296   */\n    tag_158:\n        /* \"#utility.yul\":18015:18021   */\n      0x00\n        /* \"#utility.yul\":18064:18066   */\n      0x20\n        /* \"#utility.yul\":18052:18061   */\n      dup3\n        /* \"#utility.yul\":18043:18050   */\n      dup5\n        /* \"#utility.yul\":18039:18062   */\n      sub\n        /* \"#utility.yul\":18035:18067   */\n      slt\n        /* \"#utility.yul\":18032:18151   */\n      iszero\n      tag_438\n      jumpi\n        /* \"#utility.yul\":18070:18149   */\n      tag_439\n      tag_176\n      jump\t// in\n    tag_439:\n        /* \"#utility.yul\":18032:18151   */\n    tag_438:\n        /* \"#utility.yul\":18190:18191   */\n      0x00\n        /* \"#utility.yul\":18215:18279   */\n      tag_440\n        /* \"#utility.yul\":18271:18278   */\n      dup5\n        /* \"#utility.yul\":18262:18268   */\n      dup3\n        /* \"#utility.yul\":18251:18260   */\n      dup6\n        /* \"#utility.yul\":18247:18269   */\n      add\n        /* \"#utility.yul\":18215:18279   */\n      tag_223\n      jump\t// in\n    tag_440:\n        /* \"#utility.yul\":18205:18279   */\n      swap2\n      pop\n        /* \"#utility.yul\":18161:18289   */\n      pop\n        /* \"#utility.yul\":17945:18296   */\n      swap3\n      swap2\n      pop\n      pop\n      jump\t// out\n        /* \"#utility.yul\":18302:18527   */\n    tag_224:\n        /* \"#utility.yul\":18442:18476   */\n      0x4f776e61626c653a206e6577206f776e657220697320746865207a65726f2061\n        /* \"#utility.yul\":18438:18439   */\n      0x00\n        /* \"#utility.yul\":18430:18436   */\n      dup3\n        /* \"#utility.yul\":18426:18440   */\n      add\n        /* \"#utility.yul\":18419:18477   */\n      mstore\n        /* \"#utility.yul\":18511:18519   */\n      0x6464726573730000000000000000000000000000000000000000000000000000\n        /* \"#utility.yul\":18506:18508   */\n      0x20\n        /* \"#utility.yul\":18498:18504   */\n      dup3\n        /* \"#utility.yul\":18494:18509   */\n      add\n        /* \"#utility.yul\":18487:18520   */\n      mstore\n        /* \"#utility.yul\":18302:18527   */\n      pop\n      jump\t// out\n        /* \"#utility.yul\":18533:18899   */\n    tag_225:\n        /* \"#utility.yul\":18675:18678   */\n      0x00\n        /* \"#utility.yul\":18696:18763   */\n      tag_443\n        /* \"#utility.yul\":18760:18762   */\n      0x26\n        /* \"#utility.yul\":18755:18758   */\n      dup4\n        /* \"#utility.yul\":18696:18763   */\n      tag_192\n      jump\t// in\n    tag_443:\n        /* \"#utility.yul\":18689:18763   */\n      swap2\n      pop\n        /* \"#utility.yul\":18772:18865   */\n      tag_444\n        /* \"#utility.yul\":18861:18864   */\n      dup3\n        /* \"#utility.yul\":18772:18865   */\n      tag_224\n      jump\t// in\n    tag_444:\n        /* \"#utility.yul\":18890:18892   */\n      0x40\n        /* \"#utility.yul\":18885:18888   */\n      dup3\n        /* \"#utility.yul\":18881:18893   */\n      add\n        /* \"#utility.yul\":18874:18893   */\n      swap1\n      pop\n        /* \"#utility.yul\":18533:18899   */\n      swap2\n      swap1\n      pop\n      jump\t// out\n        /* \"#utility.yul\":18905:19324   */\n    tag_164:\n        /* \"#utility.yul\":19071:19075   */\n      0x00\n        /* \"#utility.yul\":19109:19111   */\n      0x20\n        /* \"#utility.yul\":19098:19107   */\n      dup3\n        /* \"#utility.yul\":19094:19112   */\n      add\n        /* \"#utility.yul\":19086:19112   */\n      swap1\n      pop\n        /* \"#utility.yul\":19158:19167   */\n      dup2\n        /* \"#utility.yul\":19152:19156   */\n      dup2\n        /* \"#utility.yul\":19148:19168   */\n      sub\n        /* \"#utility.yul\":19144:19145   */\n      0x00\n        /* \"#utility.yul\":19133:19142   */\n      dup4\n        /* \"#utility.yul\":19129:19146   */\n      add\n        /* \"#utility.yul\":19122:19169   */\n      mstore\n        /* \"#utility.yul\":19186:19317   */\n      tag_446\n        /* \"#utility.yul\":19312:19316   */\n      dup2\n        /* \"#utility.yul\":19186:19317   */\n      tag_225\n      jump\t// in\n    tag_446:\n        /* \"#utility.yul\":19178:19317   */\n      swap1\n      pop\n        /* \"#utility.yul\":18905:19324   */\n      swap2\n      swap1\n      pop\n      jump\t// out\n        /* \"#utility.yul\":19330:19512   */\n    tag_226:\n        /* \"#utility.yul\":19470:19504   */\n      0x4f776e61626c653a2063616c6c6572206973206e6f7420746865206f776e6572\n        /* \"#utility.yul\":19466:19467   */\n      0x00\n        /* \"#utility.yul\":19458:19464   */\n      dup3\n        /* \"#utility.yul\":19454:19468   */\n      add\n        /* \"#utility.yul\":19447:19505   */\n      mstore\n        /* \"#utility.yul\":19330:19512   */\n      pop\n      jump\t// out\n        /* \"#utility.yul\":19518:19884   */\n    tag_227:\n        /* \"#utility.yul\":19660:19663   */\n      0x00\n        /* \"#utility.yul\":19681:19748   */\n      tag_449\n        /* \"#utility.yul\":19745:19747   */\n      0x20\n        /* \"#utility.yul\":19740:19743   */\n      dup4\n        /* \"#utility.yul\":19681:19748   */\n      tag_192\n      jump\t// in\n    tag_449:\n        /* \"#utility.yul\":19674:19748   */\n      swap2\n      pop\n        /* \"#utility.yul\":19757:19850   */\n      tag_450\n        /* \"#utility.yul\":19846:19849   */\n      dup3\n        /* \"#utility.yul\":19757:19850   */\n      tag_226\n      jump\t// in\n    tag_450:\n        /* \"#utility.yul\":19875:19877   */\n      0x20\n        /* \"#utility.yul\":19870:19873   */\n      dup3\n        /* \"#utility.yul\":19866:19878   */\n      add\n        /* \"#utility.yul\":19859:19878   */\n      swap1\n      pop\n        /* \"#utility.yul\":19518:19884   */\n      swap2\n      swap1\n      pop\n      jump\t// out\n        /* \"#utility.yul\":19890:20309   */\n    tag_172:\n        /* \"#utility.yul\":20056:20060   */\n      0x00\n        /* \"#utility.yul\":20094:20096   */\n      0x20\n        /* \"#utility.yul\":20083:20092   */\n      dup3\n        /* \"#utility.yul\":20079:20097   */\n      add\n        /* \"#utility.yul\":20071:20097   */\n      swap1\n      pop\n        /* \"#utility.yul\":20143:20152   */\n      dup2\n        /* \"#utility.yul\":20137:20141   */\n      dup2\n        /* \"#utility.yul\":20133:20153   */\n      sub\n        /* \"#utility.yul\":20129:20130   */\n      0x00\n        /* \"#utility.yul\":20118:20127   */\n      dup4\n        /* \"#utility.yul\":20114:20131   */\n      add\n        /* \"#utility.yul\":20107:20154   */\n      mstore\n        /* \"#utility.yul\":20171:20302   */\n      tag_452\n        /* \"#utility.yul\":20297:20301   */\n      dup2\n        /* \"#utility.yul\":20171:20302   */\n      tag_227\n      jump\t// in\n    tag_452:\n        /* \"#utility.yul\":20163:20302   */\n      swap1\n      pop\n        /* \"#utility.yul\":19890:20309   */\n      swap2\n      swap1\n      pop\n      jump\t// out\n\n    auxdata: 0xa2646970667358221220cc9a37c475e0c77cd2e13e54036126203f9d70b9aaae80d9d6f4ebc14833f3a964736f6c63430008120033\n}\n",
				"bytecode": {
					"linkReferences": {},
					"object": "608060405234801561001057600080fd5b5061002d61002261003260201b60201c565b61003a60201b60201c565b6100fe565b600033905090565b60008060009054906101000a900473ffffffffffffffffffffffffffffffffffffffff169050816000806101000a81548173ffffffffffffffffffffffffffffffffffffffff021916908373ffffffffffffffffffffffffffffffffffffffff1602179055508173ffffffffffffffffffffffffffffffffffffffff168173ffffffffffffffffffffffffffffffffffffffff167f8be0079c531659141344cd1fd0a4f28419497f9722a3daafe3b4186f6b6457e060405160405180910390a35050565b6116c88061010d6000396000f3fe608060405234801561001057600080fd5b50600436106100935760003560e01c8063892d069c11610066578063892d069c146101325780638da5cb5b1461014e578063a68231891461016c578063bffd1ea91461019c578063f2fde38b146101cc57610093565b80631bd95155146100985780631dcd9b55146100c8578063715018a6146100f857806372390d1314610102575b600080fd5b6100b260048036038101906100ad9190610c41565b6101e8565b6040516100bf9190610ca3565b60405180910390f35b6100e260048036038101906100dd9190610cea565b610282565b6040516100ef9190610dd8565b60405180910390f35b61010061037e565b005b61011c60048036038101906101179190610c41565b610392565b6040516101299190610dd8565b60405180910390f35b61014c60048036038101906101479190610dfa565b610448565b005b61015661055b565b6040516101639190610eb3565b60405180910390f35b61018660048036038101906101819190610c41565b610584565b6040516101939190610eb3565b60405180910390f35b6101b660048036038101906101b19190610c41565b610852565b6040516101c39190610eb3565b60405180910390f35b6101e660048036038101906101e19190610efa565b61091a565b005b6000808290506000809250600090505b815181101561027b57600082828151811061021657610215610f27565b5b602001015160f81c60f81b60f81c60ff1690506030811015801561023b575060398111155b156102675760308161024d9190610f85565b600a8561025a9190610fb9565b6102649190610ffb565b93505b5080806102739061102f565b9150506101f8565b5050919050565b60606000849050600084846102979190610f85565b67ffffffffffffffff8111156102b0576102af610b16565b5b6040519080825280601f01601f1916602001820160405280156102e25781602001600182028036833780820191505090505b50905060008590505b848110156103715782818151811061030657610305610f27565b5b602001015160f81c60f81b82878361031e9190610f85565b8151811061032f5761032e610f27565b5b60200101907effffffffffffffffffffffffffffffffffffffffffffffffffffffffffffff1916908160001a90535080806103699061102f565b9150506102eb565b5080925050509392505050565b61038661099d565b6103906000610a1b565b565b60018180516020810182018051848252602083016020850120818352809550505050505060009150905080546103c7906110a6565b80601f01602080910402602001604051908101604052809291908181526020018280546103f3906110a6565b80156104405780601f1061041557610100808354040283529160200191610440565b820191906000526020600020905b81548152906001019060200180831161042357829003601f168201915b505050505081565b600060018260405161045a9190611113565b90815260200160405180910390208054610473906110a6565b9050146104b5576040517f08c379a00000000000000000000000000000000000000000000000000000000081526004016104ac90611176565b60405180910390fd5b3373ffffffffffffffffffffffffffffffffffffffff166104d583610852565b73ffffffffffffffffffffffffffffffffffffffff161461052b576040517f08c379a0000000000000000000000000000000000000000000000000000000008152600401610522906111e2565b60405180910390fd5b8160018260405161053c9190611113565b9081526020016040518091039020908161055691906113ae565b505050565b60008060009054906101000a900473ffffffffffffffffffffffffffffffffffffffff16905090565b600080829050600080806000600290505b602a81101561084557610100846105ac9190611480565b93508481815181106105c1576105c0610f27565b5b602001015160f81c60f81b60f81c60ff169250846001826105e29190610ffb565b815181106105f3576105f2610f27565b5b602001015160f81c60f81b60f81c60ff16915060618373ffffffffffffffffffffffffffffffffffffffff1610158015610644575060668373ffffffffffffffffffffffffffffffffffffffff1611155b1561065d5760578361065691906114c2565b9250610709565b60418373ffffffffffffffffffffffffffffffffffffffff161015801561069b575060468373ffffffffffffffffffffffffffffffffffffffff1611155b156106b4576037836106ad91906114c2565b9250610708565b60308373ffffffffffffffffffffffffffffffffffffffff16101580156106f2575060398373ffffffffffffffffffffffffffffffffffffffff1611155b156107075760308361070491906114c2565b92505b5b5b60618273ffffffffffffffffffffffffffffffffffffffff1610158015610747575060668273ffffffffffffffffffffffffffffffffffffffff1611155b156107605760578261075991906114c2565b915061080c565b60418273ffffffffffffffffffffffffffffffffffffffff161015801561079e575060468273ffffffffffffffffffffffffffffffffffffffff1611155b156107b7576037826107b091906114c2565b915061080b565b60308273ffffffffffffffffffffffffffffffffffffffff16101580156107f5575060398273ffffffffffffffffffffffffffffffffffffffff1611155b1561080a5760308261080791906114c2565b91505b5b5b8160108461081a9190611480565b610824919061150a565b8461082f919061150a565b935060028161083e9190610ffb565b9050610595565b5082945050505050919050565b600080610862836000602a610282565b9050600061087384602a8651610282565b9050600061088083610584565b9050600061088d836101e8565b905060008273ffffffffffffffffffffffffffffffffffffffff16636352211e836040518263ffffffff1660e01b81526004016108ca9190610ca3565b602060405180830381865afa1580156108e7573d6000803e3d6000fd5b505050506040513d601f19601f8201168201806040525081019061090b9190611567565b90508095505050505050919050565b61092261099d565b600073ffffffffffffffffffffffffffffffffffffffff168173ffffffffffffffffffffffffffffffffffffffff1603610991576040517f08c379a000000000000000000000000000000000000000000000000000000000815260040161098890611606565b60405180910390fd5b61099a81610a1b565b50565b6109a5610adf565b73ffffffffffffffffffffffffffffffffffffffff166109c361055b565b73ffffffffffffffffffffffffffffffffffffffff1614610a19576040517f08c379a0000000000000000000000000000000000000000000000000000000008152600401610a1090611672565b60405180910390fd5b565b60008060009054906101000a900473ffffffffffffffffffffffffffffffffffffffff169050816000806101000a81548173ffffffffffffffffffffffffffffffffffffffff021916908373ffffffffffffffffffffffffffffffffffffffff1602179055508173ffffffffffffffffffffffffffffffffffffffff168173ffffffffffffffffffffffffffffffffffffffff167f8be0079c531659141344cd1fd0a4f28419497f9722a3daafe3b4186f6b6457e060405160405180910390a35050565b600033905090565b6000604051905090565b600080fd5b600080fd5b600080fd5b600080fd5b6000601f19601f8301169050919050565b7f4e487b7100000000000000000000000000000000000000000000000000000000600052604160045260246000fd5b610b4e82610b05565b810181811067ffffffffffffffff82111715610b6d57610b6c610b16565b5b80604052505050565b6000610b80610ae7565b9050610b8c8282610b45565b919050565b600067ffffffffffffffff821115610bac57610bab610b16565b5b610bb582610b05565b9050602081019050919050565b82818337600083830152505050565b6000610be4610bdf84610b91565b610b76565b905082815260208101848484011115610c0057610bff610b00565b5b610c0b848285610bc2565b509392505050565b600082601f830112610c2857610c27610afb565b5b8135610c38848260208601610bd1565b91505092915050565b600060208284031215610c5757610c56610af1565b5b600082013567ffffffffffffffff811115610c7557610c74610af6565b5b610c8184828501610c13565b91505092915050565b6000819050919050565b610c9d81610c8a565b82525050565b6000602082019050610cb86000830184610c94565b92915050565b610cc781610c8a565b8114610cd257600080fd5b50565b600081359050610ce481610cbe565b92915050565b600080600060608486031215610d0357610d02610af1565b5b600084013567ffffffffffffffff811115610d2157610d20610af6565b5b610d2d86828701610c13565b9350506020610d3e86828701610cd5565b9250506040610d4f86828701610cd5565b9150509250925092565b600081519050919050565b600082825260208201905092915050565b60005b83811015610d93578082015181840152602081019050610d78565b60008484015250505050565b6000610daa82610d59565b610db48185610d64565b9350610dc4818560208601610d75565b610dcd81610b05565b840191505092915050565b60006020820190508181036000830152610df28184610d9f565b905092915050565b60008060408385031215610e1157610e10610af1565b5b600083013567ffffffffffffffff811115610e2f57610e2e610af6565b5b610e3b85828601610c13565b925050602083013567ffffffffffffffff811115610e5c57610e5b610af6565b5b610e6885828601610c13565b9150509250929050565b600073ffffffffffffffffffffffffffffffffffffffff82169050919050565b6000610e9d82610e72565b9050919050565b610ead81610e92565b82525050565b6000602082019050610ec86000830184610ea4565b92915050565b610ed781610e92565b8114610ee257600080fd5b50565b600081359050610ef481610ece565b92915050565b600060208284031215610f1057610f0f610af1565b5b6000610f1e84828501610ee5565b91505092915050565b7f4e487b7100000000000000000000000000000000000000000000000000000000600052603260045260246000fd5b7f4e487b7100000000000000000000000000000000000000000000000000000000600052601160045260246000fd5b6000610f9082610c8a565b9150610f9b83610c8a565b9250828203905081811115610fb357610fb2610f56565b5b92915050565b6000610fc482610c8a565b9150610fcf83610c8a565b9250828202610fdd81610c8a565b91508282048414831517610ff457610ff3610f56565b5b5092915050565b600061100682610c8a565b915061101183610c8a565b925082820190508082111561102957611028610f56565b5b92915050565b600061103a82610c8a565b91507fffffffffffffffffffffffffffffffffffffffffffffffffffffffffffffffff820361106c5761106b610f56565b5b600182019050919050565b7f4e487b7100000000000000000000000000000000000000000000000000000000600052602260045260246000fd5b600060028204905060018216806110be57607f821691505b6020821081036110d1576110d0611077565b5b50919050565b600081905092915050565b60006110ed82610d59565b6110f781856110d7565b9350611107818560208601610d75565b80840191505092915050565b600061111f82846110e2565b915081905092915050565b7f4e616d6520697320616c72656164792074616b656e0000000000000000000000600082015250565b6000611160601583610d64565b915061116b8261112a565b602082019050919050565b6000602082019050818103600083015261118f81611153565b9050919050565b7f4e6f7420612076616c6964206f776e6572000000000000000000000000000000600082015250565b60006111cc601183610d64565b91506111d782611196565b602082019050919050565b600060208201905081810360008301526111fb816111bf565b9050919050565b60008190508160005260206000209050919050565b60006020601f8301049050919050565b600082821b905092915050565b6000600883026112647fffffffffffffffffffffffffffffffffffffffffffffffffffffffffffffffff82611227565b61126e8683611227565b95508019841693508086168417925050509392505050565b6000819050919050565b60006112ab6112a66112a184610c8a565b611286565b610c8a565b9050919050565b6000819050919050565b6112c583611290565b6112d96112d1826112b2565b848454611234565b825550505050565b600090565b6112ee6112e1565b6112f98184846112bc565b505050565b5b8181101561131d576113126000826112e6565b6001810190506112ff565b5050565b601f8211156113625761133381611202565b61133c84611217565b8101602085101561134b578190505b61135f61135785611217565b8301826112fe565b50505b505050565b600082821c905092915050565b600061138560001984600802611367565b1980831691505092915050565b600061139e8383611374565b9150826002028217905092915050565b6113b782610d59565b67ffffffffffffffff8111156113d0576113cf610b16565b5b6113da82546110a6565b6113e5828285611321565b600060209050601f8311600181146114185760008415611406578287015190505b6114108582611392565b865550611478565b601f19841661142686611202565b60005b8281101561144e57848901518255600182019150602085019450602081019050611429565b8683101561146b5784890151611467601f891682611374565b8355505b6001600288020188555050505b505050505050565b600061148b82610e72565b915061149683610e72565b92508282026114a481610e72565b915082820484148315176114bb576114ba610f56565b5b5092915050565b60006114cd82610e72565b91506114d883610e72565b9250828203905073ffffffffffffffffffffffffffffffffffffffff81111561150457611503610f56565b5b92915050565b600061151582610e72565b915061152083610e72565b9250828201905073ffffffffffffffffffffffffffffffffffffffff81111561154c5761154b610f56565b5b92915050565b60008151905061156181610ece565b92915050565b60006020828403121561157d5761157c610af1565b5b600061158b84828501611552565b91505092915050565b7f4f776e61626c653a206e6577206f776e657220697320746865207a65726f206160008201527f6464726573730000000000000000000000000000000000000000000000000000602082015250565b60006115f0602683610d64565b91506115fb82611594565b604082019050919050565b6000602082019050818103600083015261161f816115e3565b9050919050565b7f4f776e61626c653a2063616c6c6572206973206e6f7420746865206f776e6572600082015250565b600061165c602083610d64565b915061166782611626565b602082019050919050565b6000602082019050818103600083015261168b8161164f565b905091905056fea2646970667358221220cc9a37c475e0c77cd2e13e54036126203f9d70b9aaae80d9d6f4ebc14833f3a964736f6c63430008120033",
					"opcodes": "PUSH1 0x80 PUSH1 0x40 MSTORE CALLVALUE DUP1 ISZERO PUSH2 0x10 JUMPI PUSH1 0x0 DUP1 REVERT JUMPDEST POP PUSH2 0x2D PUSH2 0x22 PUSH2 0x32 PUSH1 0x20 SHL PUSH1 0x20 SHR JUMP JUMPDEST PUSH2 0x3A PUSH1 0x20 SHL PUSH1 0x20 SHR JUMP JUMPDEST PUSH2 0xFE JUMP JUMPDEST PUSH1 0x0 CALLER SWAP1 POP SWAP1 JUMP JUMPDEST PUSH1 0x0 DUP1 PUSH1 0x0 SWAP1 SLOAD SWAP1 PUSH2 0x100 EXP SWAP1 DIV PUSH20 0xFFFFFFFFFFFFFFFFFFFFFFFFFFFFFFFFFFFFFFFF AND SWAP1 POP DUP2 PUSH1 0x0 DUP1 PUSH2 0x100 EXP DUP2 SLOAD DUP2 PUSH20 0xFFFFFFFFFFFFFFFFFFFFFFFFFFFFFFFFFFFFFFFF MUL NOT AND SWAP1 DUP4 PUSH20 0xFFFFFFFFFFFFFFFFFFFFFFFFFFFFFFFFFFFFFFFF AND MUL OR SWAP1 SSTORE POP DUP2 PUSH20 0xFFFFFFFFFFFFFFFFFFFFFFFFFFFFFFFFFFFFFFFF AND DUP2 PUSH20 0xFFFFFFFFFFFFFFFFFFFFFFFFFFFFFFFFFFFFFFFF AND PUSH32 0x8BE0079C531659141344CD1FD0A4F28419497F9722A3DAAFE3B4186F6B6457E0 PUSH1 0x40 MLOAD PUSH1 0x40 MLOAD DUP1 SWAP2 SUB SWAP1 LOG3 POP POP JUMP JUMPDEST PUSH2 0x16C8 DUP1 PUSH2 0x10D PUSH1 0x0 CODECOPY PUSH1 0x0 RETURN INVALID PUSH1 0x80 PUSH1 0x40 MSTORE CALLVALUE DUP1 ISZERO PUSH2 0x10 JUMPI PUSH1 0x0 DUP1 REVERT JUMPDEST POP PUSH1 0x4 CALLDATASIZE LT PUSH2 0x93 JUMPI PUSH1 0x0 CALLDATALOAD PUSH1 0xE0 SHR DUP1 PUSH4 0x892D069C GT PUSH2 0x66 JUMPI DUP1 PUSH4 0x892D069C EQ PUSH2 0x132 JUMPI DUP1 PUSH4 0x8DA5CB5B EQ PUSH2 0x14E JUMPI DUP1 PUSH4 0xA6823189 EQ PUSH2 0x16C JUMPI DUP1 PUSH4 0xBFFD1EA9 EQ PUSH2 0x19C JUMPI DUP1 PUSH4 0xF2FDE38B EQ PUSH2 0x1CC JUMPI PUSH2 0x93 JUMP JUMPDEST DUP1 PUSH4 0x1BD95155 EQ PUSH2 0x98 JUMPI DUP1 PUSH4 0x1DCD9B55 EQ PUSH2 0xC8 JUMPI DUP1 PUSH4 0x715018A6 EQ PUSH2 0xF8 JUMPI DUP1 PUSH4 0x72390D13 EQ PUSH2 0x102 JUMPI JUMPDEST PUSH1 0x0 DUP1 REVERT JUMPDEST PUSH2 0xB2 PUSH1 0x4 DUP1 CALLDATASIZE SUB DUP2 ADD SWAP1 PUSH2 0xAD SWAP2 SWAP1 PUSH2 0xC41 JUMP JUMPDEST PUSH2 0x1E8 JUMP JUMPDEST PUSH1 0x40 MLOAD PUSH2 0xBF SWAP2 SWAP1 PUSH2 0xCA3 JUMP JUMPDEST PUSH1 0x40 MLOAD DUP1 SWAP2 SUB SWAP1 RETURN JUMPDEST PUSH2 0xE2 PUSH1 0x4 DUP1 CALLDATASIZE SUB DUP2 ADD SWAP1 PUSH2 0xDD SWAP2 SWAP1 PUSH2 0xCEA JUMP JUMPDEST PUSH2 0x282 JUMP JUMPDEST PUSH1 0x40 MLOAD PUSH2 0xEF SWAP2 SWAP1 PUSH2 0xDD8 JUMP JUMPDEST PUSH1 0x40 MLOAD DUP1 SWAP2 SUB SWAP1 RETURN JUMPDEST PUSH2 0x100 PUSH2 0x37E JUMP JUMPDEST STOP JUMPDEST PUSH2 0x11C PUSH1 0x4 DUP1 CALLDATASIZE SUB DUP2 ADD SWAP1 PUSH2 0x117 SWAP2 SWAP1 PUSH2 0xC41 JUMP JUMPDEST PUSH2 0x392 JUMP JUMPDEST PUSH1 0x40 MLOAD PUSH2 0x129 SWAP2 SWAP1 PUSH2 0xDD8 JUMP JUMPDEST PUSH1 0x40 MLOAD DUP1 SWAP2 SUB SWAP1 RETURN JUMPDEST PUSH2 0x14C PUSH1 0x4 DUP1 CALLDATASIZE SUB DUP2 ADD SWAP1 PUSH2 0x147 SWAP2 SWAP1 PUSH2 0xDFA JUMP JUMPDEST PUSH2 0x448 JUMP JUMPDEST STOP JUMPDEST PUSH2 0x156 PUSH2 0x55B JUMP JUMPDEST PUSH1 0x40 MLOAD PUSH2 0x163 SWAP2 SWAP1 PUSH2 0xEB3 JUMP JUMPDEST PUSH1 0x40 MLOAD DUP1 SWAP2 SUB SWAP1 RETURN JUMPDEST PUSH2 0x186 PUSH1 0x4 DUP1 CALLDATASIZE SUB DUP2 ADD SWAP1 PUSH2 0x181 SWAP2 SWAP1 PUSH2 0xC41 JUMP JUMPDEST PUSH2 0x584 JUMP JUMPDEST PUSH1 0x40 MLOAD PUSH2 0x193 SWAP2 SWAP1 PUSH2 0xEB3 JUMP JUMPDEST PUSH1 0x40 MLOAD DUP1 SWAP2 SUB SWAP1 RETURN JUMPDEST PUSH2 0x1B6 PUSH1 0x4 DUP1 CALLDATASIZE SUB DUP2 ADD SWAP1 PUSH2 0x1B1 SWAP2 SWAP1 PUSH2 0xC41 JUMP JUMPDEST PUSH2 0x852 JUMP JUMPDEST PUSH1 0x40 MLOAD PUSH2 0x1C3 SWAP2 SWAP1 PUSH2 0xEB3 JUMP JUMPDEST PUSH1 0x40 MLOAD DUP1 SWAP2 SUB SWAP1 RETURN JUMPDEST PUSH2 0x1E6 PUSH1 0x4 DUP1 CALLDATASIZE SUB DUP2 ADD SWAP1 PUSH2 0x1E1 SWAP2 SWAP1 PUSH2 0xEFA JUMP JUMPDEST PUSH2 0x91A JUMP JUMPDEST STOP JUMPDEST PUSH1 0x0 DUP1 DUP3 SWAP1 POP PUSH1 0x0 DUP1 SWAP3 POP PUSH1 0x0 SWAP1 POP JUMPDEST DUP2 MLOAD DUP2 LT ISZERO PUSH2 0x27B JUMPI PUSH1 0x0 DUP3 DUP3 DUP2 MLOAD DUP2 LT PUSH2 0x216 JUMPI PUSH2 0x215 PUSH2 0xF27 JUMP JUMPDEST JUMPDEST PUSH1 0x20 ADD ADD MLOAD PUSH1 0xF8 SHR PUSH1 0xF8 SHL PUSH1 0xF8 SHR PUSH1 0xFF AND SWAP1 POP PUSH1 0x30 DUP2 LT ISZERO DUP1 ISZERO PUSH2 0x23B JUMPI POP PUSH1 0x39 DUP2 GT ISZERO JUMPDEST ISZERO PUSH2 0x267 JUMPI PUSH1 0x30 DUP2 PUSH2 0x24D SWAP2 SWAP1 PUSH2 0xF85 JUMP JUMPDEST PUSH1 0xA DUP6 PUSH2 0x25A SWAP2 SWAP1 PUSH2 0xFB9 JUMP JUMPDEST PUSH2 0x264 SWAP2 SWAP1 PUSH2 0xFFB JUMP JUMPDEST SWAP4 POP JUMPDEST POP DUP1 DUP1 PUSH2 0x273 SWAP1 PUSH2 0x102F JUMP JUMPDEST SWAP2 POP POP PUSH2 0x1F8 JUMP JUMPDEST POP POP SWAP2 SWAP1 POP JUMP JUMPDEST PUSH1 0x60 PUSH1 0x0 DUP5 SWAP1 POP PUSH1 0x0 DUP5 DUP5 PUSH2 0x297 SWAP2 SWAP1 PUSH2 0xF85 JUMP JUMPDEST PUSH8 0xFFFFFFFFFFFFFFFF DUP2 GT ISZERO PUSH2 0x2B0 JUMPI PUSH2 0x2AF PUSH2 0xB16 JUMP JUMPDEST JUMPDEST PUSH1 0x40 MLOAD SWAP1 DUP1 DUP3 MSTORE DUP1 PUSH1 0x1F ADD PUSH1 0x1F NOT AND PUSH1 0x20 ADD DUP3 ADD PUSH1 0x40 MSTORE DUP1 ISZERO PUSH2 0x2E2 JUMPI DUP2 PUSH1 0x20 ADD PUSH1 0x1 DUP3 MUL DUP1 CALLDATASIZE DUP4 CALLDATACOPY DUP1 DUP3 ADD SWAP2 POP POP SWAP1 POP JUMPDEST POP SWAP1 POP PUSH1 0x0 DUP6 SWAP1 POP JUMPDEST DUP5 DUP2 LT ISZERO PUSH2 0x371 JUMPI DUP3 DUP2 DUP2 MLOAD DUP2 LT PUSH2 0x306 JUMPI PUSH2 0x305 PUSH2 0xF27 JUMP JUMPDEST JUMPDEST PUSH1 0x20 ADD ADD MLOAD PUSH1 0xF8 SHR PUSH1 0xF8 SHL DUP3 DUP8 DUP4 PUSH2 0x31E SWAP2 SWAP1 PUSH2 0xF85 JUMP JUMPDEST DUP2 MLOAD DUP2 LT PUSH2 0x32F JUMPI PUSH2 0x32E PUSH2 0xF27 JUMP JUMPDEST JUMPDEST PUSH1 0x20 ADD ADD SWAP1 PUSH31 0xFFFFFFFFFFFFFFFFFFFFFFFFFFFFFFFFFFFFFFFFFFFFFFFFFFFFFFFFFFFFFF NOT AND SWAP1 DUP2 PUSH1 0x0 BYTE SWAP1 MSTORE8 POP DUP1 DUP1 PUSH2 0x369 SWAP1 PUSH2 0x102F JUMP JUMPDEST SWAP2 POP POP PUSH2 0x2EB JUMP JUMPDEST POP DUP1 SWAP3 POP POP POP SWAP4 SWAP3 POP POP POP JUMP JUMPDEST PUSH2 0x386 PUSH2 0x99D JUMP JUMPDEST PUSH2 0x390 PUSH1 0x0 PUSH2 0xA1B JUMP JUMPDEST JUMP JUMPDEST PUSH1 0x1 DUP2 DUP1 MLOAD PUSH1 0x20 DUP2 ADD DUP3 ADD DUP1 MLOAD DUP5 DUP3 MSTORE PUSH1 0x20 DUP4 ADD PUSH1 0x20 DUP6 ADD KECCAK256 DUP2 DUP4 MSTORE DUP1 SWAP6 POP POP POP POP POP POP PUSH1 0x0 SWAP2 POP SWAP1 POP DUP1 SLOAD PUSH2 0x3C7 SWAP1 PUSH2 0x10A6 JUMP JUMPDEST DUP1 PUSH1 0x1F ADD PUSH1 0x20 DUP1 SWAP2 DIV MUL PUSH1 0x20 ADD PUSH1 0x40 MLOAD SWAP1 DUP2 ADD PUSH1 0x40 MSTORE DUP1 SWAP3 SWAP2 SWAP1 DUP2 DUP2 MSTORE PUSH1 0x20 ADD DUP3 DUP1 SLOAD PUSH2 0x3F3 SWAP1 PUSH2 0x10A6 JUMP JUMPDEST DUP1 ISZERO PUSH2 0x440 JUMPI DUP1 PUSH1 0x1F LT PUSH2 0x415 JUMPI PUSH2 0x100 DUP1 DUP4 SLOAD DIV MUL DUP4 MSTORE SWAP2 PUSH1 0x20 ADD SWAP2 PUSH2 0x440 JUMP JUMPDEST DUP3 ADD SWAP2 SWAP1 PUSH1 0x0 MSTORE PUSH1 0x20 PUSH1 0x0 KECCAK256 SWAP1 JUMPDEST DUP2 SLOAD DUP2 MSTORE SWAP1 PUSH1 0x1 ADD SWAP1 PUSH1 0x20 ADD DUP1 DUP4 GT PUSH2 0x423 JUMPI DUP3 SWAP1 SUB PUSH1 0x1F AND DUP3 ADD SWAP2 JUMPDEST POP POP POP POP POP DUP2 JUMP JUMPDEST PUSH1 0x0 PUSH1 0x1 DUP3 PUSH1 0x40 MLOAD PUSH2 0x45A SWAP2 SWAP1 PUSH2 0x1113 JUMP JUMPDEST SWAP1 DUP2 MSTORE PUSH1 0x20 ADD PUSH1 0x40 MLOAD DUP1 SWAP2 SUB SWAP1 KECCAK256 DUP1 SLOAD PUSH2 0x473 SWAP1 PUSH2 0x10A6 JUMP JUMPDEST SWAP1 POP EQ PUSH2 0x4B5 JUMPI PUSH1 0x40 MLOAD PUSH32 0x8C379A000000000000000000000000000000000000000000000000000000000 DUP2 MSTORE PUSH1 0x4 ADD PUSH2 0x4AC SWAP1 PUSH2 0x1176 JUMP JUMPDEST PUSH1 0x40 MLOAD DUP1 SWAP2 SUB SWAP1 REVERT JUMPDEST CALLER PUSH20 0xFFFFFFFFFFFFFFFFFFFFFFFFFFFFFFFFFFFFFFFF AND PUSH2 0x4D5 DUP4 PUSH2 0x852 JUMP JUMPDEST PUSH20 0xFFFFFFFFFFFFFFFFFFFFFFFFFFFFFFFFFFFFFFFF AND EQ PUSH2 0x52B JUMPI PUSH1 0x40 MLOAD PUSH32 0x8C379A000000000000000000000000000000000000000000000000000000000 DUP2 MSTORE PUSH1 0x4 ADD PUSH2 0x522 SWAP1 PUSH2 0x11E2 JUMP JUMPDEST PUSH1 0x40 MLOAD DUP1 SWAP2 SUB SWAP1 REVERT JUMPDEST DUP2 PUSH1 0x1 DUP3 PUSH1 0x40 MLOAD PUSH2 0x53C SWAP2 SWAP1 PUSH2 0x1113 JUMP JUMPDEST SWAP1 DUP2 MSTORE PUSH1 0x20 ADD PUSH1 0x40 MLOAD DUP1 SWAP2 SUB SWAP1 KECCAK256 SWAP1 DUP2 PUSH2 0x556 SWAP2 SWAP1 PUSH2 0x13AE JUMP JUMPDEST POP POP POP JUMP JUMPDEST PUSH1 0x0 DUP1 PUSH1 0x0 SWAP1 SLOAD SWAP1 PUSH2 0x100 EXP SWAP1 DIV PUSH20 0xFFFFFFFFFFFFFFFFFFFFFFFFFFFFFFFFFFFFFFFF AND SWAP1 POP SWAP1 JUMP JUMPDEST PUSH1 0x0 DUP1 DUP3 SWAP1 POP PUSH1 0x0 DUP1 DUP1 PUSH1 0x0 PUSH1 0x2 SWAP1 POP JUMPDEST PUSH1 0x2A DUP2 LT ISZERO PUSH2 0x845 JUMPI PUSH2 0x100 DUP5 PUSH2 0x5AC SWAP2 SWAP1 PUSH2 0x1480 JUMP JUMPDEST SWAP4 POP DUP5 DUP2 DUP2 MLOAD DUP2 LT PUSH2 0x5C1 JUMPI PUSH2 0x5C0 PUSH2 0xF27 JUMP JUMPDEST JUMPDEST PUSH1 0x20 ADD ADD MLOAD PUSH1 0xF8 SHR PUSH1 0xF8 SHL PUSH1 0xF8 SHR PUSH1 0xFF AND SWAP3 POP DUP5 PUSH1 0x1 DUP3 PUSH2 0x5E2 SWAP2 SWAP1 PUSH2 0xFFB JUMP JUMPDEST DUP2 MLOAD DUP2 LT PUSH2 0x5F3 JUMPI PUSH2 0x5F2 PUSH2 0xF27 JUMP JUMPDEST JUMPDEST PUSH1 0x20 ADD ADD MLOAD PUSH1 0xF8 SHR PUSH1 0xF8 SHL PUSH1 0xF8 SHR PUSH1 0xFF AND SWAP2 POP PUSH1 0x61 DUP4 PUSH20 0xFFFFFFFFFFFFFFFFFFFFFFFFFFFFFFFFFFFFFFFF AND LT ISZERO DUP1 ISZERO PUSH2 0x644 JUMPI POP PUSH1 0x66 DUP4 PUSH20 0xFFFFFFFFFFFFFFFFFFFFFFFFFFFFFFFFFFFFFFFF AND GT ISZERO JUMPDEST ISZERO PUSH2 0x65D JUMPI PUSH1 0x57 DUP4 PUSH2 0x656 SWAP2 SWAP1 PUSH2 0x14C2 JUMP JUMPDEST SWAP3 POP PUSH2 0x709 JUMP JUMPDEST PUSH1 0x41 DUP4 PUSH20 0xFFFFFFFFFFFFFFFFFFFFFFFFFFFFFFFFFFFFFFFF AND LT ISZERO DUP1 ISZERO PUSH2 0x69B JUMPI POP PUSH1 0x46 DUP4 PUSH20 0xFFFFFFFFFFFFFFFFFFFFFFFFFFFFFFFFFFFFFFFF AND GT ISZERO JUMPDEST ISZERO PUSH2 0x6B4 JUMPI PUSH1 0x37 DUP4 PUSH2 0x6AD SWAP2 SWAP1 PUSH2 0x14C2 JUMP JUMPDEST SWAP3 POP PUSH2 0x708 JUMP JUMPDEST PUSH1 0x30 DUP4 PUSH20 0xFFFFFFFFFFFFFFFFFFFFFFFFFFFFFFFFFFFFFFFF AND LT ISZERO DUP1 ISZERO PUSH2 0x6F2 JUMPI POP PUSH1 0x39 DUP4 PUSH20 0xFFFFFFFFFFFFFFFFFFFFFFFFFFFFFFFFFFFFFFFF AND GT ISZERO JUMPDEST ISZERO PUSH2 0x707 JUMPI PUSH1 0x30 DUP4 PUSH2 0x704 SWAP2 SWAP1 PUSH2 0x14C2 JUMP JUMPDEST SWAP3 POP JUMPDEST JUMPDEST JUMPDEST PUSH1 0x61 DUP3 PUSH20 0xFFFFFFFFFFFFFFFFFFFFFFFFFFFFFFFFFFFFFFFF AND LT ISZERO DUP1 ISZERO PUSH2 0x747 JUMPI POP PUSH1 0x66 DUP3 PUSH20 0xFFFFFFFFFFFFFFFFFFFFFFFFFFFFFFFFFFFFFFFF AND GT ISZERO JUMPDEST ISZERO PUSH2 0x760 JUMPI PUSH1 0x57 DUP3 PUSH2 0x759 SWAP2 SWAP1 PUSH2 0x14C2 JUMP JUMPDEST SWAP2 POP PUSH2 0x80C JUMP JUMPDEST PUSH1 0x41 DUP3 PUSH20 0xFFFFFFFFFFFFFFFFFFFFFFFFFFFFFFFFFFFFFFFF AND LT ISZERO DUP1 ISZERO PUSH2 0x79E JUMPI POP PUSH1 0x46 DUP3 PUSH20 0xFFFFFFFFFFFFFFFFFFFFFFFFFFFFFFFFFFFFFFFF AND GT ISZERO JUMPDEST ISZERO PUSH2 0x7B7 JUMPI PUSH1 0x37 DUP3 PUSH2 0x7B0 SWAP2 SWAP1 PUSH2 0x14C2 JUMP JUMPDEST SWAP2 POP PUSH2 0x80B JUMP JUMPDEST PUSH1 0x30 DUP3 PUSH20 0xFFFFFFFFFFFFFFFFFFFFFFFFFFFFFFFFFFFFFFFF AND LT ISZERO DUP1 ISZERO PUSH2 0x7F5 JUMPI POP PUSH1 0x39 DUP3 PUSH20 0xFFFFFFFFFFFFFFFFFFFFFFFFFFFFFFFFFFFFFFFF AND GT ISZERO JUMPDEST ISZERO PUSH2 0x80A JUMPI PUSH1 0x30 DUP3 PUSH2 0x807 SWAP2 SWAP1 PUSH2 0x14C2 JUMP JUMPDEST SWAP2 POP JUMPDEST JUMPDEST JUMPDEST DUP2 PUSH1 0x10 DUP5 PUSH2 0x81A SWAP2 SWAP1 PUSH2 0x1480 JUMP JUMPDEST PUSH2 0x824 SWAP2 SWAP1 PUSH2 0x150A JUMP JUMPDEST DUP5 PUSH2 0x82F SWAP2 SWAP1 PUSH2 0x150A JUMP JUMPDEST SWAP4 POP PUSH1 0x2 DUP2 PUSH2 0x83E SWAP2 SWAP1 PUSH2 0xFFB JUMP JUMPDEST SWAP1 POP PUSH2 0x595 JUMP JUMPDEST POP DUP3 SWAP5 POP POP POP POP POP SWAP2 SWAP1 POP JUMP JUMPDEST PUSH1 0x0 DUP1 PUSH2 0x862 DUP4 PUSH1 0x0 PUSH1 0x2A PUSH2 0x282 JUMP JUMPDEST SWAP1 POP PUSH1 0x0 PUSH2 0x873 DUP5 PUSH1 0x2A DUP7 MLOAD PUSH2 0x282 JUMP JUMPDEST SWAP1 POP PUSH1 0x0 PUSH2 0x880 DUP4 PUSH2 0x584 JUMP JUMPDEST SWAP1 POP PUSH1 0x0 PUSH2 0x88D DUP4 PUSH2 0x1E8 JUMP JUMPDEST SWAP1 POP PUSH1 0x0 DUP3 PUSH20 0xFFFFFFFFFFFFFFFFFFFFFFFFFFFFFFFFFFFFFFFF AND PUSH4 0x6352211E DUP4 PUSH1 0x40 MLOAD DUP3 PUSH4 0xFFFFFFFF AND PUSH1 0xE0 SHL DUP2 MSTORE PUSH1 0x4 ADD PUSH2 0x8CA SWAP2 SWAP1 PUSH2 0xCA3 JUMP JUMPDEST PUSH1 0x20 PUSH1 0x40 MLOAD DUP1 DUP4 SUB DUP2 DUP7 GAS STATICCALL ISZERO DUP1 ISZERO PUSH2 0x8E7 JUMPI RETURNDATASIZE PUSH1 0x0 DUP1 RETURNDATACOPY RETURNDATASIZE PUSH1 0x0 REVERT JUMPDEST POP POP POP POP PUSH1 0x40 MLOAD RETURNDATASIZE PUSH1 0x1F NOT PUSH1 0x1F DUP3 ADD AND DUP3 ADD DUP1 PUSH1 0x40 MSTORE POP DUP2 ADD SWAP1 PUSH2 0x90B SWAP2 SWAP1 PUSH2 0x1567 JUMP JUMPDEST SWAP1 POP DUP1 SWAP6 POP POP POP POP POP POP SWAP2 SWAP1 POP JUMP JUMPDEST PUSH2 0x922 PUSH2 0x99D JUMP JUMPDEST PUSH1 0x0 PUSH20 0xFFFFFFFFFFFFFFFFFFFFFFFFFFFFFFFFFFFFFFFF AND DUP2 PUSH20 0xFFFFFFFFFFFFFFFFFFFFFFFFFFFFFFFFFFFFFFFF AND SUB PUSH2 0x991 JUMPI PUSH1 0x40 MLOAD PUSH32 0x8C379A000000000000000000000000000000000000000000000000000000000 DUP2 MSTORE PUSH1 0x4 ADD PUSH2 0x988 SWAP1 PUSH2 0x1606 JUMP JUMPDEST PUSH1 0x40 MLOAD DUP1 SWAP2 SUB SWAP1 REVERT JUMPDEST PUSH2 0x99A DUP2 PUSH2 0xA1B JUMP JUMPDEST POP JUMP JUMPDEST PUSH2 0x9A5 PUSH2 0xADF JUMP JUMPDEST PUSH20 0xFFFFFFFFFFFFFFFFFFFFFFFFFFFFFFFFFFFFFFFF AND PUSH2 0x9C3 PUSH2 0x55B JUMP JUMPDEST PUSH20 0xFFFFFFFFFFFFFFFFFFFFFFFFFFFFFFFFFFFFFFFF AND EQ PUSH2 0xA19 JUMPI PUSH1 0x40 MLOAD PUSH32 0x8C379A000000000000000000000000000000000000000000000000000000000 DUP2 MSTORE PUSH1 0x4 ADD PUSH2 0xA10 SWAP1 PUSH2 0x1672 JUMP JUMPDEST PUSH1 0x40 MLOAD DUP1 SWAP2 SUB SWAP1 REVERT JUMPDEST JUMP JUMPDEST PUSH1 0x0 DUP1 PUSH1 0x0 SWAP1 SLOAD SWAP1 PUSH2 0x100 EXP SWAP1 DIV PUSH20 0xFFFFFFFFFFFFFFFFFFFFFFFFFFFFFFFFFFFFFFFF AND SWAP1 POP DUP2 PUSH1 0x0 DUP1 PUSH2 0x100 EXP DUP2 SLOAD DUP2 PUSH20 0xFFFFFFFFFFFFFFFFFFFFFFFFFFFFFFFFFFFFFFFF MUL NOT AND SWAP1 DUP4 PUSH20 0xFFFFFFFFFFFFFFFFFFFFFFFFFFFFFFFFFFFFFFFF AND MUL OR SWAP1 SSTORE POP DUP2 PUSH20 0xFFFFFFFFFFFFFFFFFFFFFFFFFFFFFFFFFFFFFFFF AND DUP2 PUSH20 0xFFFFFFFFFFFFFFFFFFFFFFFFFFFFFFFFFFFFFFFF AND PUSH32 0x8BE0079C531659141344CD1FD0A4F28419497F9722A3DAAFE3B4186F6B6457E0 PUSH1 0x40 MLOAD PUSH1 0x40 MLOAD DUP1 SWAP2 SUB SWAP1 LOG3 POP POP JUMP JUMPDEST PUSH1 0x0 CALLER SWAP1 POP SWAP1 JUMP JUMPDEST PUSH1 0x0 PUSH1 0x40 MLOAD SWAP1 POP SWAP1 JUMP JUMPDEST PUSH1 0x0 DUP1 REVERT JUMPDEST PUSH1 0x0 DUP1 REVERT JUMPDEST PUSH1 0x0 DUP1 REVERT JUMPDEST PUSH1 0x0 DUP1 REVERT JUMPDEST PUSH1 0x0 PUSH1 0x1F NOT PUSH1 0x1F DUP4 ADD AND SWAP1 POP SWAP2 SWAP1 POP JUMP JUMPDEST PUSH32 0x4E487B7100000000000000000000000000000000000000000000000000000000 PUSH1 0x0 MSTORE PUSH1 0x41 PUSH1 0x4 MSTORE PUSH1 0x24 PUSH1 0x0 REVERT JUMPDEST PUSH2 0xB4E DUP3 PUSH2 0xB05 JUMP JUMPDEST DUP2 ADD DUP2 DUP2 LT PUSH8 0xFFFFFFFFFFFFFFFF DUP3 GT OR ISZERO PUSH2 0xB6D JUMPI PUSH2 0xB6C PUSH2 0xB16 JUMP JUMPDEST JUMPDEST DUP1 PUSH1 0x40 MSTORE POP POP POP JUMP JUMPDEST PUSH1 0x0 PUSH2 0xB80 PUSH2 0xAE7 JUMP JUMPDEST SWAP1 POP PUSH2 0xB8C DUP3 DUP3 PUSH2 0xB45 JUMP JUMPDEST SWAP2 SWAP1 POP JUMP JUMPDEST PUSH1 0x0 PUSH8 0xFFFFFFFFFFFFFFFF DUP3 GT ISZERO PUSH2 0xBAC JUMPI PUSH2 0xBAB PUSH2 0xB16 JUMP JUMPDEST JUMPDEST PUSH2 0xBB5 DUP3 PUSH2 0xB05 JUMP JUMPDEST SWAP1 POP PUSH1 0x20 DUP2 ADD SWAP1 POP SWAP2 SWAP1 POP JUMP JUMPDEST DUP3 DUP2 DUP4 CALLDATACOPY PUSH1 0x0 DUP4 DUP4 ADD MSTORE POP POP POP JUMP JUMPDEST PUSH1 0x0 PUSH2 0xBE4 PUSH2 0xBDF DUP5 PUSH2 0xB91 JUMP JUMPDEST PUSH2 0xB76 JUMP JUMPDEST SWAP1 POP DUP3 DUP2 MSTORE PUSH1 0x20 DUP2 ADD DUP5 DUP5 DUP5 ADD GT ISZERO PUSH2 0xC00 JUMPI PUSH2 0xBFF PUSH2 0xB00 JUMP JUMPDEST JUMPDEST PUSH2 0xC0B DUP5 DUP3 DUP6 PUSH2 0xBC2 JUMP JUMPDEST POP SWAP4 SWAP3 POP POP POP JUMP JUMPDEST PUSH1 0x0 DUP3 PUSH1 0x1F DUP4 ADD SLT PUSH2 0xC28 JUMPI PUSH2 0xC27 PUSH2 0xAFB JUMP JUMPDEST JUMPDEST DUP2 CALLDATALOAD PUSH2 0xC38 DUP5 DUP3 PUSH1 0x20 DUP7 ADD PUSH2 0xBD1 JUMP JUMPDEST SWAP2 POP POP SWAP3 SWAP2 POP POP JUMP JUMPDEST PUSH1 0x0 PUSH1 0x20 DUP3 DUP5 SUB SLT ISZERO PUSH2 0xC57 JUMPI PUSH2 0xC56 PUSH2 0xAF1 JUMP JUMPDEST JUMPDEST PUSH1 0x0 DUP3 ADD CALLDATALOAD PUSH8 0xFFFFFFFFFFFFFFFF DUP2 GT ISZERO PUSH2 0xC75 JUMPI PUSH2 0xC74 PUSH2 0xAF6 JUMP JUMPDEST JUMPDEST PUSH2 0xC81 DUP5 DUP3 DUP6 ADD PUSH2 0xC13 JUMP JUMPDEST SWAP2 POP POP SWAP3 SWAP2 POP POP JUMP JUMPDEST PUSH1 0x0 DUP2 SWAP1 POP SWAP2 SWAP1 POP JUMP JUMPDEST PUSH2 0xC9D DUP2 PUSH2 0xC8A JUMP JUMPDEST DUP3 MSTORE POP POP JUMP JUMPDEST PUSH1 0x0 PUSH1 0x20 DUP3 ADD SWAP1 POP PUSH2 0xCB8 PUSH1 0x0 DUP4 ADD DUP5 PUSH2 0xC94 JUMP JUMPDEST SWAP3 SWAP2 POP POP JUMP JUMPDEST PUSH2 0xCC7 DUP2 PUSH2 0xC8A JUMP JUMPDEST DUP2 EQ PUSH2 0xCD2 JUMPI PUSH1 0x0 DUP1 REVERT JUMPDEST POP JUMP JUMPDEST PUSH1 0x0 DUP2 CALLDATALOAD SWAP1 POP PUSH2 0xCE4 DUP2 PUSH2 0xCBE JUMP JUMPDEST SWAP3 SWAP2 POP POP JUMP JUMPDEST PUSH1 0x0 DUP1 PUSH1 0x0 PUSH1 0x60 DUP5 DUP7 SUB SLT ISZERO PUSH2 0xD03 JUMPI PUSH2 0xD02 PUSH2 0xAF1 JUMP JUMPDEST JUMPDEST PUSH1 0x0 DUP5 ADD CALLDATALOAD PUSH8 0xFFFFFFFFFFFFFFFF DUP2 GT ISZERO PUSH2 0xD21 JUMPI PUSH2 0xD20 PUSH2 0xAF6 JUMP JUMPDEST JUMPDEST PUSH2 0xD2D DUP7 DUP3 DUP8 ADD PUSH2 0xC13 JUMP JUMPDEST SWAP4 POP POP PUSH1 0x20 PUSH2 0xD3E DUP7 DUP3 DUP8 ADD PUSH2 0xCD5 JUMP JUMPDEST SWAP3 POP POP PUSH1 0x40 PUSH2 0xD4F DUP7 DUP3 DUP8 ADD PUSH2 0xCD5 JUMP JUMPDEST SWAP2 POP POP SWAP3 POP SWAP3 POP SWAP3 JUMP JUMPDEST PUSH1 0x0 DUP2 MLOAD SWAP1 POP SWAP2 SWAP1 POP JUMP JUMPDEST PUSH1 0x0 DUP3 DUP3 MSTORE PUSH1 0x20 DUP3 ADD SWAP1 POP SWAP3 SWAP2 POP POP JUMP JUMPDEST PUSH1 0x0 JUMPDEST DUP4 DUP2 LT ISZERO PUSH2 0xD93 JUMPI DUP1 DUP3 ADD MLOAD DUP2 DUP5 ADD MSTORE PUSH1 0x20 DUP2 ADD SWAP1 POP PUSH2 0xD78 JUMP JUMPDEST PUSH1 0x0 DUP5 DUP5 ADD MSTORE POP POP POP POP JUMP JUMPDEST PUSH1 0x0 PUSH2 0xDAA DUP3 PUSH2 0xD59 JUMP JUMPDEST PUSH2 0xDB4 DUP2 DUP6 PUSH2 0xD64 JUMP JUMPDEST SWAP4 POP PUSH2 0xDC4 DUP2 DUP6 PUSH1 0x20 DUP7 ADD PUSH2 0xD75 JUMP JUMPDEST PUSH2 0xDCD DUP2 PUSH2 0xB05 JUMP JUMPDEST DUP5 ADD SWAP2 POP POP SWAP3 SWAP2 POP POP JUMP JUMPDEST PUSH1 0x0 PUSH1 0x20 DUP3 ADD SWAP1 POP DUP2 DUP2 SUB PUSH1 0x0 DUP4 ADD MSTORE PUSH2 0xDF2 DUP2 DUP5 PUSH2 0xD9F JUMP JUMPDEST SWAP1 POP SWAP3 SWAP2 POP POP JUMP JUMPDEST PUSH1 0x0 DUP1 PUSH1 0x40 DUP4 DUP6 SUB SLT ISZERO PUSH2 0xE11 JUMPI PUSH2 0xE10 PUSH2 0xAF1 JUMP JUMPDEST JUMPDEST PUSH1 0x0 DUP4 ADD CALLDATALOAD PUSH8 0xFFFFFFFFFFFFFFFF DUP2 GT ISZERO PUSH2 0xE2F JUMPI PUSH2 0xE2E PUSH2 0xAF6 JUMP JUMPDEST JUMPDEST PUSH2 0xE3B DUP6 DUP3 DUP7 ADD PUSH2 0xC13 JUMP JUMPDEST SWAP3 POP POP PUSH1 0x20 DUP4 ADD CALLDATALOAD PUSH8 0xFFFFFFFFFFFFFFFF DUP2 GT ISZERO PUSH2 0xE5C JUMPI PUSH2 0xE5B PUSH2 0xAF6 JUMP JUMPDEST JUMPDEST PUSH2 0xE68 DUP6 DUP3 DUP7 ADD PUSH2 0xC13 JUMP JUMPDEST SWAP2 POP POP SWAP3 POP SWAP3 SWAP1 POP JUMP JUMPDEST PUSH1 0x0 PUSH20 0xFFFFFFFFFFFFFFFFFFFFFFFFFFFFFFFFFFFFFFFF DUP3 AND SWAP1 POP SWAP2 SWAP1 POP JUMP JUMPDEST PUSH1 0x0 PUSH2 0xE9D DUP3 PUSH2 0xE72 JUMP JUMPDEST SWAP1 POP SWAP2 SWAP1 POP JUMP JUMPDEST PUSH2 0xEAD DUP2 PUSH2 0xE92 JUMP JUMPDEST DUP3 MSTORE POP POP JUMP JUMPDEST PUSH1 0x0 PUSH1 0x20 DUP3 ADD SWAP1 POP PUSH2 0xEC8 PUSH1 0x0 DUP4 ADD DUP5 PUSH2 0xEA4 JUMP JUMPDEST SWAP3 SWAP2 POP POP JUMP JUMPDEST PUSH2 0xED7 DUP2 PUSH2 0xE92 JUMP JUMPDEST DUP2 EQ PUSH2 0xEE2 JUMPI PUSH1 0x0 DUP1 REVERT JUMPDEST POP JUMP JUMPDEST PUSH1 0x0 DUP2 CALLDATALOAD SWAP1 POP PUSH2 0xEF4 DUP2 PUSH2 0xECE JUMP JUMPDEST SWAP3 SWAP2 POP POP JUMP JUMPDEST PUSH1 0x0 PUSH1 0x20 DUP3 DUP5 SUB SLT ISZERO PUSH2 0xF10 JUMPI PUSH2 0xF0F PUSH2 0xAF1 JUMP JUMPDEST JUMPDEST PUSH1 0x0 PUSH2 0xF1E DUP5 DUP3 DUP6 ADD PUSH2 0xEE5 JUMP JUMPDEST SWAP2 POP POP SWAP3 SWAP2 POP POP JUMP JUMPDEST PUSH32 0x4E487B7100000000000000000000000000000000000000000000000000000000 PUSH1 0x0 MSTORE PUSH1 0x32 PUSH1 0x4 MSTORE PUSH1 0x24 PUSH1 0x0 REVERT JUMPDEST PUSH32 0x4E487B7100000000000000000000000000000000000000000000000000000000 PUSH1 0x0 MSTORE PUSH1 0x11 PUSH1 0x4 MSTORE PUSH1 0x24 PUSH1 0x0 REVERT JUMPDEST PUSH1 0x0 PUSH2 0xF90 DUP3 PUSH2 0xC8A JUMP JUMPDEST SWAP2 POP PUSH2 0xF9B DUP4 PUSH2 0xC8A JUMP JUMPDEST SWAP3 POP DUP3 DUP3 SUB SWAP1 POP DUP2 DUP2 GT ISZERO PUSH2 0xFB3 JUMPI PUSH2 0xFB2 PUSH2 0xF56 JUMP JUMPDEST JUMPDEST SWAP3 SWAP2 POP POP JUMP JUMPDEST PUSH1 0x0 PUSH2 0xFC4 DUP3 PUSH2 0xC8A JUMP JUMPDEST SWAP2 POP PUSH2 0xFCF DUP4 PUSH2 0xC8A JUMP JUMPDEST SWAP3 POP DUP3 DUP3 MUL PUSH2 0xFDD DUP2 PUSH2 0xC8A JUMP JUMPDEST SWAP2 POP DUP3 DUP3 DIV DUP5 EQ DUP4 ISZERO OR PUSH2 0xFF4 JUMPI PUSH2 0xFF3 PUSH2 0xF56 JUMP JUMPDEST JUMPDEST POP SWAP3 SWAP2 POP POP JUMP JUMPDEST PUSH1 0x0 PUSH2 0x1006 DUP3 PUSH2 0xC8A JUMP JUMPDEST SWAP2 POP PUSH2 0x1011 DUP4 PUSH2 0xC8A JUMP JUMPDEST SWAP3 POP DUP3 DUP3 ADD SWAP1 POP DUP1 DUP3 GT ISZERO PUSH2 0x1029 JUMPI PUSH2 0x1028 PUSH2 0xF56 JUMP JUMPDEST JUMPDEST SWAP3 SWAP2 POP POP JUMP JUMPDEST PUSH1 0x0 PUSH2 0x103A DUP3 PUSH2 0xC8A JUMP JUMPDEST SWAP2 POP PUSH32 0xFFFFFFFFFFFFFFFFFFFFFFFFFFFFFFFFFFFFFFFFFFFFFFFFFFFFFFFFFFFFFFFF DUP3 SUB PUSH2 0x106C JUMPI PUSH2 0x106B PUSH2 0xF56 JUMP JUMPDEST JUMPDEST PUSH1 0x1 DUP3 ADD SWAP1 POP SWAP2 SWAP1 POP JUMP JUMPDEST PUSH32 0x4E487B7100000000000000000000000000000000000000000000000000000000 PUSH1 0x0 MSTORE PUSH1 0x22 PUSH1 0x4 MSTORE PUSH1 0x24 PUSH1 0x0 REVERT JUMPDEST PUSH1 0x0 PUSH1 0x2 DUP3 DIV SWAP1 POP PUSH1 0x1 DUP3 AND DUP1 PUSH2 0x10BE JUMPI PUSH1 0x7F DUP3 AND SWAP2 POP JUMPDEST PUSH1 0x20 DUP3 LT DUP2 SUB PUSH2 0x10D1 JUMPI PUSH2 0x10D0 PUSH2 0x1077 JUMP JUMPDEST JUMPDEST POP SWAP2 SWAP1 POP JUMP JUMPDEST PUSH1 0x0 DUP2 SWAP1 POP SWAP3 SWAP2 POP POP JUMP JUMPDEST PUSH1 0x0 PUSH2 0x10ED DUP3 PUSH2 0xD59 JUMP JUMPDEST PUSH2 0x10F7 DUP2 DUP6 PUSH2 0x10D7 JUMP JUMPDEST SWAP4 POP PUSH2 0x1107 DUP2 DUP6 PUSH1 0x20 DUP7 ADD PUSH2 0xD75 JUMP JUMPDEST DUP1 DUP5 ADD SWAP2 POP POP SWAP3 SWAP2 POP POP JUMP JUMPDEST PUSH1 0x0 PUSH2 0x111F DUP3 DUP5 PUSH2 0x10E2 JUMP JUMPDEST SWAP2 POP DUP2 SWAP1 POP SWAP3 SWAP2 POP POP JUMP JUMPDEST PUSH32 0x4E616D6520697320616C72656164792074616B656E0000000000000000000000 PUSH1 0x0 DUP3 ADD MSTORE POP JUMP JUMPDEST PUSH1 0x0 PUSH2 0x1160 PUSH1 0x15 DUP4 PUSH2 0xD64 JUMP JUMPDEST SWAP2 POP PUSH2 0x116B DUP3 PUSH2 0x112A JUMP JUMPDEST PUSH1 0x20 DUP3 ADD SWAP1 POP SWAP2 SWAP1 POP JUMP JUMPDEST PUSH1 0x0 PUSH1 0x20 DUP3 ADD SWAP1 POP DUP2 DUP2 SUB PUSH1 0x0 DUP4 ADD MSTORE PUSH2 0x118F DUP2 PUSH2 0x1153 JUMP JUMPDEST SWAP1 POP SWAP2 SWAP1 POP JUMP JUMPDEST PUSH32 0x4E6F7420612076616C6964206F776E6572000000000000000000000000000000 PUSH1 0x0 DUP3 ADD MSTORE POP JUMP JUMPDEST PUSH1 0x0 PUSH2 0x11CC PUSH1 0x11 DUP4 PUSH2 0xD64 JUMP JUMPDEST SWAP2 POP PUSH2 0x11D7 DUP3 PUSH2 0x1196 JUMP JUMPDEST PUSH1 0x20 DUP3 ADD SWAP1 POP SWAP2 SWAP1 POP JUMP JUMPDEST PUSH1 0x0 PUSH1 0x20 DUP3 ADD SWAP1 POP DUP2 DUP2 SUB PUSH1 0x0 DUP4 ADD MSTORE PUSH2 0x11FB DUP2 PUSH2 0x11BF JUMP JUMPDEST SWAP1 POP SWAP2 SWAP1 POP JUMP JUMPDEST PUSH1 0x0 DUP2 SWAP1 POP DUP2 PUSH1 0x0 MSTORE PUSH1 0x20 PUSH1 0x0 KECCAK256 SWAP1 POP SWAP2 SWAP1 POP JUMP JUMPDEST PUSH1 0x0 PUSH1 0x20 PUSH1 0x1F DUP4 ADD DIV SWAP1 POP SWAP2 SWAP1 POP JUMP JUMPDEST PUSH1 0x0 DUP3 DUP3 SHL SWAP1 POP SWAP3 SWAP2 POP POP JUMP JUMPDEST PUSH1 0x0 PUSH1 0x8 DUP4 MUL PUSH2 0x1264 PUSH32 0xFFFFFFFFFFFFFFFFFFFFFFFFFFFFFFFFFFFFFFFFFFFFFFFFFFFFFFFFFFFFFFFF DUP3 PUSH2 0x1227 JUMP JUMPDEST PUSH2 0x126E DUP7 DUP4 PUSH2 0x1227 JUMP JUMPDEST SWAP6 POP DUP1 NOT DUP5 AND SWAP4 POP DUP1 DUP7 AND DUP5 OR SWAP3 POP POP POP SWAP4 SWAP3 POP POP POP JUMP JUMPDEST PUSH1 0x0 DUP2 SWAP1 POP SWAP2 SWAP1 POP JUMP JUMPDEST PUSH1 0x0 PUSH2 0x12AB PUSH2 0x12A6 PUSH2 0x12A1 DUP5 PUSH2 0xC8A JUMP JUMPDEST PUSH2 0x1286 JUMP JUMPDEST PUSH2 0xC8A JUMP JUMPDEST SWAP1 POP SWAP2 SWAP1 POP JUMP JUMPDEST PUSH1 0x0 DUP2 SWAP1 POP SWAP2 SWAP1 POP JUMP JUMPDEST PUSH2 0x12C5 DUP4 PUSH2 0x1290 JUMP JUMPDEST PUSH2 0x12D9 PUSH2 0x12D1 DUP3 PUSH2 0x12B2 JUMP JUMPDEST DUP5 DUP5 SLOAD PUSH2 0x1234 JUMP JUMPDEST DUP3 SSTORE POP POP POP POP JUMP JUMPDEST PUSH1 0x0 SWAP1 JUMP JUMPDEST PUSH2 0x12EE PUSH2 0x12E1 JUMP JUMPDEST PUSH2 0x12F9 DUP2 DUP5 DUP5 PUSH2 0x12BC JUMP JUMPDEST POP POP POP JUMP JUMPDEST JUMPDEST DUP2 DUP2 LT ISZERO PUSH2 0x131D JUMPI PUSH2 0x1312 PUSH1 0x0 DUP3 PUSH2 0x12E6 JUMP JUMPDEST PUSH1 0x1 DUP2 ADD SWAP1 POP PUSH2 0x12FF JUMP JUMPDEST POP POP JUMP JUMPDEST PUSH1 0x1F DUP3 GT ISZERO PUSH2 0x1362 JUMPI PUSH2 0x1333 DUP2 PUSH2 0x1202 JUMP JUMPDEST PUSH2 0x133C DUP5 PUSH2 0x1217 JUMP JUMPDEST DUP2 ADD PUSH1 0x20 DUP6 LT ISZERO PUSH2 0x134B JUMPI DUP2 SWAP1 POP JUMPDEST PUSH2 0x135F PUSH2 0x1357 DUP6 PUSH2 0x1217 JUMP JUMPDEST DUP4 ADD DUP3 PUSH2 0x12FE JUMP JUMPDEST POP POP JUMPDEST POP POP POP JUMP JUMPDEST PUSH1 0x0 DUP3 DUP3 SHR SWAP1 POP SWAP3 SWAP2 POP POP JUMP JUMPDEST PUSH1 0x0 PUSH2 0x1385 PUSH1 0x0 NOT DUP5 PUSH1 0x8 MUL PUSH2 0x1367 JUMP JUMPDEST NOT DUP1 DUP4 AND SWAP2 POP POP SWAP3 SWAP2 POP POP JUMP JUMPDEST PUSH1 0x0 PUSH2 0x139E DUP4 DUP4 PUSH2 0x1374 JUMP JUMPDEST SWAP2 POP DUP3 PUSH1 0x2 MUL DUP3 OR SWAP1 POP SWAP3 SWAP2 POP POP JUMP JUMPDEST PUSH2 0x13B7 DUP3 PUSH2 0xD59 JUMP JUMPDEST PUSH8 0xFFFFFFFFFFFFFFFF DUP2 GT ISZERO PUSH2 0x13D0 JUMPI PUSH2 0x13CF PUSH2 0xB16 JUMP JUMPDEST JUMPDEST PUSH2 0x13DA DUP3 SLOAD PUSH2 0x10A6 JUMP JUMPDEST PUSH2 0x13E5 DUP3 DUP3 DUP6 PUSH2 0x1321 JUMP JUMPDEST PUSH1 0x0 PUSH1 0x20 SWAP1 POP PUSH1 0x1F DUP4 GT PUSH1 0x1 DUP2 EQ PUSH2 0x1418 JUMPI PUSH1 0x0 DUP5 ISZERO PUSH2 0x1406 JUMPI DUP3 DUP8 ADD MLOAD SWAP1 POP JUMPDEST PUSH2 0x1410 DUP6 DUP3 PUSH2 0x1392 JUMP JUMPDEST DUP7 SSTORE POP PUSH2 0x1478 JUMP JUMPDEST PUSH1 0x1F NOT DUP5 AND PUSH2 0x1426 DUP7 PUSH2 0x1202 JUMP JUMPDEST PUSH1 0x0 JUMPDEST DUP3 DUP2 LT ISZERO PUSH2 0x144E JUMPI DUP5 DUP10 ADD MLOAD DUP3 SSTORE PUSH1 0x1 DUP3 ADD SWAP2 POP PUSH1 0x20 DUP6 ADD SWAP5 POP PUSH1 0x20 DUP2 ADD SWAP1 POP PUSH2 0x1429 JUMP JUMPDEST DUP7 DUP4 LT ISZERO PUSH2 0x146B JUMPI DUP5 DUP10 ADD MLOAD PUSH2 0x1467 PUSH1 0x1F DUP10 AND DUP3 PUSH2 0x1374 JUMP JUMPDEST DUP4 SSTORE POP JUMPDEST PUSH1 0x1 PUSH1 0x2 DUP9 MUL ADD DUP9 SSTORE POP POP POP JUMPDEST POP POP POP POP POP POP JUMP JUMPDEST PUSH1 0x0 PUSH2 0x148B DUP3 PUSH2 0xE72 JUMP JUMPDEST SWAP2 POP PUSH2 0x1496 DUP4 PUSH2 0xE72 JUMP JUMPDEST SWAP3 POP DUP3 DUP3 MUL PUSH2 0x14A4 DUP2 PUSH2 0xE72 JUMP JUMPDEST SWAP2 POP DUP3 DUP3 DIV DUP5 EQ DUP4 ISZERO OR PUSH2 0x14BB JUMPI PUSH2 0x14BA PUSH2 0xF56 JUMP JUMPDEST JUMPDEST POP SWAP3 SWAP2 POP POP JUMP JUMPDEST PUSH1 0x0 PUSH2 0x14CD DUP3 PUSH2 0xE72 JUMP JUMPDEST SWAP2 POP PUSH2 0x14D8 DUP4 PUSH2 0xE72 JUMP JUMPDEST SWAP3 POP DUP3 DUP3 SUB SWAP1 POP PUSH20 0xFFFFFFFFFFFFFFFFFFFFFFFFFFFFFFFFFFFFFFFF DUP2 GT ISZERO PUSH2 0x1504 JUMPI PUSH2 0x1503 PUSH2 0xF56 JUMP JUMPDEST JUMPDEST SWAP3 SWAP2 POP POP JUMP JUMPDEST PUSH1 0x0 PUSH2 0x1515 DUP3 PUSH2 0xE72 JUMP JUMPDEST SWAP2 POP PUSH2 0x1520 DUP4 PUSH2 0xE72 JUMP JUMPDEST SWAP3 POP DUP3 DUP3 ADD SWAP1 POP PUSH20 0xFFFFFFFFFFFFFFFFFFFFFFFFFFFFFFFFFFFFFFFF DUP2 GT ISZERO PUSH2 0x154C JUMPI PUSH2 0x154B PUSH2 0xF56 JUMP JUMPDEST JUMPDEST SWAP3 SWAP2 POP POP JUMP JUMPDEST PUSH1 0x0 DUP2 MLOAD SWAP1 POP PUSH2 0x1561 DUP2 PUSH2 0xECE JUMP JUMPDEST SWAP3 SWAP2 POP POP JUMP JUMPDEST PUSH1 0x0 PUSH1 0x20 DUP3 DUP5 SUB SLT ISZERO PUSH2 0x157D JUMPI PUSH2 0x157C PUSH2 0xAF1 JUMP JUMPDEST JUMPDEST PUSH1 0x0 PUSH2 0x158B DUP5 DUP3 DUP6 ADD PUSH2 0x1552 JUMP JUMPDEST SWAP2 POP POP SWAP3 SWAP2 POP POP JUMP JUMPDEST PUSH32 0x4F776E61626C653A206E6577206F776E657220697320746865207A65726F2061 PUSH1 0x0 DUP3 ADD MSTORE PUSH32 0x6464726573730000000000000000000000000000000000000000000000000000 PUSH1 0x20 DUP3 ADD MSTORE POP JUMP JUMPDEST PUSH1 0x0 PUSH2 0x15F0 PUSH1 0x26 DUP4 PUSH2 0xD64 JUMP JUMPDEST SWAP2 POP PUSH2 0x15FB DUP3 PUSH2 0x1594 JUMP JUMPDEST PUSH1 0x40 DUP3 ADD SWAP1 POP SWAP2 SWAP1 POP JUMP JUMPDEST PUSH1 0x0 PUSH1 0x20 DUP3 ADD SWAP1 POP DUP2 DUP2 SUB PUSH1 0x0 DUP4 ADD MSTORE PUSH2 0x161F DUP2 PUSH2 0x15E3 JUMP JUMPDEST SWAP1 POP SWAP2 SWAP1 POP JUMP JUMPDEST PUSH32 0x4F776E61626C653A2063616C6C6572206973206E6F7420746865206F776E6572 PUSH1 0x0 DUP3 ADD MSTORE POP JUMP JUMPDEST PUSH1 0x0 PUSH2 0x165C PUSH1 0x20 DUP4 PUSH2 0xD64 JUMP JUMPDEST SWAP2 POP PUSH2 0x1667 DUP3 PUSH2 0x1626 JUMP JUMPDEST PUSH1 0x20 DUP3 ADD SWAP1 POP SWAP2 SWAP1 POP JUMP JUMPDEST PUSH1 0x0 PUSH1 0x20 DUP3 ADD SWAP1 POP DUP2 DUP2 SUB PUSH1 0x0 DUP4 ADD MSTORE PUSH2 0x168B DUP2 PUSH2 0x164F JUMP JUMPDEST SWAP1 POP SWAP2 SWAP1 POP JUMP INVALID LOG2 PUSH5 0x6970667358 0x22 SLT KECCAK256 0xCC SWAP11 CALLDATACOPY 0xC4 PUSH22 0xE0C77CD2E13E54036126203F9D70B9AAAE80D9D6F4EB 0xC1 BASEFEE CALLER RETURN 0xA9 PUSH5 0x736F6C6343 STOP ADDMOD SLT STOP CALLER "
				},
				"gasEstimates": {
					"creation": {
						"codeDepositCost": "1166400",
						"executionCost": "infinite",
						"totalCost": "infinite"
					},
					"external": {
						"checkOwnership(string)": "infinite",
						"kamaToID(string)": "infinite",
						"owner()": "2544",
						"parseAddr(string)": "infinite",
						"renounceOwnership()": "30443",
						"stringToUint(string)": "infinite",
						"substring(string,uint256,uint256)": "infinite",
						"transferOwnership(address)": "30832",
						"updateUsername(string,string)": "infinite"
					}
				},
				"methodIdentifiers": {
					"checkOwnership(string)": "bffd1ea9",
					"kamaToID(string)": "72390d13",
					"owner()": "8da5cb5b",
					"parseAddr(string)": "a6823189",
					"renounceOwnership()": "715018a6",
					"stringToUint(string)": "1bd95155",
					"substring(string,uint256,uint256)": "1dcd9b55",
					"transferOwnership(address)": "f2fde38b",
					"updateUsername(string,string)": "892d069c"
				}
			},
			"storageLayout": {
				"storage": [
					{
						"astId": 2314,
						"contract": "Arnacon/AyalaKamailio.sol:AyalaKamailio",
						"label": "_owner",
						"offset": 0,
						"slot": "0",
						"type": "t_address"
					},
					{
						"astId": 2456,
						"contract": "Arnacon/AyalaKamailio.sol:AyalaKamailio",
						"label": "kamaToID",
						"offset": 0,
						"slot": "1",
						"type": "t_mapping(t_string_memory_ptr,t_string_storage)"
					}
				],
				"types": {
					"t_address": {
						"encoding": "inplace",
						"label": "address",
						"numberOfBytes": "20"
					},
					"t_mapping(t_string_memory_ptr,t_string_storage)": {
						"encoding": "mapping",
						"key": "t_string_memory_ptr",
						"label": "mapping(string => string)",
						"numberOfBytes": "32",
						"value": "t_string_storage"
					},
					"t_string_memory_ptr": {
						"encoding": "bytes",
						"label": "string",
						"numberOfBytes": "32"
					},
					"t_string_storage": {
						"encoding": "bytes",
						"label": "string",
						"numberOfBytes": "32"
					}
				}
			},
			"userdoc": {
				"kind": "user",
				"methods": {},
				"version": 1
			}
		}
	}
}