{
	"data": {
		"bytecode": {
			"linkReferences": {},
			"object": "608060405234801561001057600080fd5b5061002d61002261003260201b60201c565b61003a60201b60201c565b6100fe565b600033905090565b60008060009054906101000a900473ffffffffffffffffffffffffffffffffffffffff169050816000806101000a81548173ffffffffffffffffffffffffffffffffffffffff021916908373ffffffffffffffffffffffffffffffffffffffff1602179055508173ffffffffffffffffffffffffffffffffffffffff168173ffffffffffffffffffffffffffffffffffffffff167f8be0079c531659141344cd1fd0a4f28419497f9722a3daafe3b4186f6b6457e060405160405180910390a35050565b6116c88061010d6000396000f3fe608060405234801561001057600080fd5b50600436106100935760003560e01c8063892d069c11610066578063892d069c146101325780638da5cb5b1461014e578063a68231891461016c578063bffd1ea91461019c578063f2fde38b146101cc57610093565b80631bd95155146100985780631dcd9b55146100c8578063715018a6146100f857806372390d1314610102575b600080fd5b6100b260048036038101906100ad9190610c41565b6101e8565b6040516100bf9190610ca3565b60405180910390f35b6100e260048036038101906100dd9190610cea565b610282565b6040516100ef9190610dd8565b60405180910390f35b61010061037e565b005b61011c60048036038101906101179190610c41565b610392565b6040516101299190610dd8565b60405180910390f35b61014c60048036038101906101479190610dfa565b610448565b005b61015661055b565b6040516101639190610eb3565b60405180910390f35b61018660048036038101906101819190610c41565b610584565b6040516101939190610eb3565b60405180910390f35b6101b660048036038101906101b19190610c41565b610852565b6040516101c39190610eb3565b60405180910390f35b6101e660048036038101906101e19190610efa565b61091a565b005b6000808290506000809250600090505b815181101561027b57600082828151811061021657610215610f27565b5b602001015160f81c60f81b60f81c60ff1690506030811015801561023b575060398111155b156102675760308161024d9190610f85565b600a8561025a9190610fb9565b6102649190610ffb565b93505b5080806102739061102f565b9150506101f8565b5050919050565b60606000849050600084846102979190610f85565b67ffffffffffffffff8111156102b0576102af610b16565b5b6040519080825280601f01601f1916602001820160405280156102e25781602001600182028036833780820191505090505b50905060008590505b848110156103715782818151811061030657610305610f27565b5b602001015160f81c60f81b82878361031e9190610f85565b8151811061032f5761032e610f27565b5b60200101907effffffffffffffffffffffffffffffffffffffffffffffffffffffffffffff1916908160001a90535080806103699061102f565b9150506102eb565b5080925050509392505050565b61038661099d565b6103906000610a1b565b565b60018180516020810182018051848252602083016020850120818352809550505050505060009150905080546103c7906110a6565b80601f01602080910402602001604051908101604052809291908181526020018280546103f3906110a6565b80156104405780601f1061041557610100808354040283529160200191610440565b820191906000526020600020905b81548152906001019060200180831161042357829003601f168201915b505050505081565b600060018260405161045a9190611113565b90815260200160405180910390208054610473906110a6565b9050146104b5576040517f08c379a00000000000000000000000000000000000000000000000000000000081526004016104ac90611176565b60405180910390fd5b3373ffffffffffffffffffffffffffffffffffffffff166104d583610852565b73ffffffffffffffffffffffffffffffffffffffff161461052b576040517f08c379a0000000000000000000000000000000000000000000000000000000008152600401610522906111e2565b60405180910390fd5b8160018260405161053c9190611113565b9081526020016040518091039020908161055691906113ae565b505050565b60008060009054906101000a900473ffffffffffffffffffffffffffffffffffffffff16905090565b600080829050600080806000600290505b602a81101561084557610100846105ac9190611480565b93508481815181106105c1576105c0610f27565b5b602001015160f81c60f81b60f81c60ff169250846001826105e29190610ffb565b815181106105f3576105f2610f27565b5b602001015160f81c60f81b60f81c60ff16915060618373ffffffffffffffffffffffffffffffffffffffff1610158015610644575060668373ffffffffffffffffffffffffffffffffffffffff1611155b1561065d5760578361065691906114c2565b9250610709565b60418373ffffffffffffffffffffffffffffffffffffffff161015801561069b575060468373ffffffffffffffffffffffffffffffffffffffff1611155b156106b4576037836106ad91906114c2565b9250610708565b60308373ffffffffffffffffffffffffffffffffffffffff16101580156106f2575060398373ffffffffffffffffffffffffffffffffffffffff1611155b156107075760308361070491906114c2565b92505b5b5b60618273ffffffffffffffffffffffffffffffffffffffff1610158015610747575060668273ffffffffffffffffffffffffffffffffffffffff1611155b156107605760578261075991906114c2565b915061080c565b60418273ffffffffffffffffffffffffffffffffffffffff161015801561079e575060468273ffffffffffffffffffffffffffffffffffffffff1611155b156107b7576037826107b091906114c2565b915061080b565b60308273ffffffffffffffffffffffffffffffffffffffff16101580156107f5575060398273ffffffffffffffffffffffffffffffffffffffff1611155b1561080a5760308261080791906114c2565b91505b5b5b8160108461081a9190611480565b610824919061150a565b8461082f919061150a565b935060028161083e9190610ffb565b9050610595565b5082945050505050919050565b600080610862836000602a610282565b9050600061087384602a8651610282565b9050600061088083610584565b9050600061088d836101e8565b905060008273ffffffffffffffffffffffffffffffffffffffff16636352211e836040518263ffffffff1660e01b81526004016108ca9190610ca3565b602060405180830381865afa1580156108e7573d6000803e3d6000fd5b505050506040513d601f19601f8201168201806040525081019061090b9190611567565b90508095505050505050919050565b61092261099d565b600073ffffffffffffffffffffffffffffffffffffffff168173ffffffffffffffffffffffffffffffffffffffff1603610991576040517f08c379a000000000000000000000000000000000000000000000000000000000815260040161098890611606565b60405180910390fd5b61099a81610a1b565b50565b6109a5610adf565b73ffffffffffffffffffffffffffffffffffffffff166109c361055b565b73ffffffffffffffffffffffffffffffffffffffff1614610a19576040517f08c379a0000000000000000000000000000000000000000000000000000000008152600401610a1090611672565b60405180910390fd5b565b60008060009054906101000a900473ffffffffffffffffffffffffffffffffffffffff169050816000806101000a81548173ffffffffffffffffffffffffffffffffffffffff021916908373ffffffffffffffffffffffffffffffffffffffff1602179055508173ffffffffffffffffffffffffffffffffffffffff168173ffffffffffffffffffffffffffffffffffffffff167f8be0079c531659141344cd1fd0a4f28419497f9722a3daafe3b4186f6b6457e060405160405180910390a35050565b600033905090565b6000604051905090565b600080fd5b600080fd5b600080fd5b600080fd5b6000601f19601f8301169050919050565b7f4e487b7100000000000000000000000000000000000000000000000000000000600052604160045260246000fd5b610b4e82610b05565b810181811067ffffffffffffffff82111715610b6d57610b6c610b16565b5b80604052505050565b6000610b80610ae7565b9050610b8c8282610b45565b919050565b600067ffffffffffffffff821115610bac57610bab610b16565b5b610bb582610b05565b9050602081019050919050565b82818337600083830152505050565b6000610be4610bdf84610b91565b610b76565b905082815260208101848484011115610c0057610bff610b00565b5b610c0b848285610bc2565b509392505050565b600082601f830112610c2857610c27610afb565b5b8135610c38848260208601610bd1565b91505092915050565b600060208284031215610c5757610c56610af1565b5b600082013567ffffffffffffffff811115610c7557610c74610af6565b5b610c8184828501610c13565b91505092915050565b6000819050919050565b610c9d81610c8a565b82525050565b6000602082019050610cb86000830184610c94565b92915050565b610cc781610c8a565b8114610cd257600080fd5b50565b600081359050610ce481610cbe565b92915050565b600080600060608486031215610d0357610d02610af1565b5b600084013567ffffffffffffffff811115610d2157610d20610af6565b5b610d2d86828701610c13565b9350506020610d3e86828701610cd5565b9250506040610d4f86828701610cd5565b9150509250925092565b600081519050919050565b600082825260208201905092915050565b60005b83811015610d93578082015181840152602081019050610d78565b60008484015250505050565b6000610daa82610d59565b610db48185610d64565b9350610dc4818560208601610d75565b610dcd81610b05565b840191505092915050565b60006020820190508181036000830152610df28184610d9f565b905092915050565b60008060408385031215610e1157610e10610af1565b5b600083013567ffffffffffffffff811115610e2f57610e2e610af6565b5b610e3b85828601610c13565b925050602083013567ffffffffffffffff811115610e5c57610e5b610af6565b5b610e6885828601610c13565b9150509250929050565b600073ffffffffffffffffffffffffffffffffffffffff82169050919050565b6000610e9d82610e72565b9050919050565b610ead81610e92565b82525050565b6000602082019050610ec86000830184610ea4565b92915050565b610ed781610e92565b8114610ee257600080fd5b50565b600081359050610ef481610ece565b92915050565b600060208284031215610f1057610f0f610af1565b5b6000610f1e84828501610ee5565b91505092915050565b7f4e487b7100000000000000000000000000000000000000000000000000000000600052603260045260246000fd5b7f4e487b7100000000000000000000000000000000000000000000000000000000600052601160045260246000fd5b6000610f9082610c8a565b9150610f9b83610c8a565b9250828203905081811115610fb357610fb2610f56565b5b92915050565b6000610fc482610c8a565b9150610fcf83610c8a565b9250828202610fdd81610c8a565b91508282048414831517610ff457610ff3610f56565b5b5092915050565b600061100682610c8a565b915061101183610c8a565b925082820190508082111561102957611028610f56565b5b92915050565b600061103a82610c8a565b91507fffffffffffffffffffffffffffffffffffffffffffffffffffffffffffffffff820361106c5761106b610f56565b5b600182019050919050565b7f4e487b7100000000000000000000000000000000000000000000000000000000600052602260045260246000fd5b600060028204905060018216806110be57607f821691505b6020821081036110d1576110d0611077565b5b50919050565b600081905092915050565b60006110ed82610d59565b6110f781856110d7565b9350611107818560208601610d75565b80840191505092915050565b600061111f82846110e2565b915081905092915050565b7f4e616d6520697320616c72656164792074616b656e0000000000000000000000600082015250565b6000611160601583610d64565b915061116b8261112a565b602082019050919050565b6000602082019050818103600083015261118f81611153565b9050919050565b7f4e6f7420612076616c6964206f776e6572000000000000000000000000000000600082015250565b60006111cc601183610d64565b91506111d782611196565b602082019050919050565b600060208201905081810360008301526111fb816111bf565b9050919050565b60008190508160005260206000209050919050565b60006020601f8301049050919050565b600082821b905092915050565b6000600883026112647fffffffffffffffffffffffffffffffffffffffffffffffffffffffffffffffff82611227565b61126e8683611227565b95508019841693508086168417925050509392505050565b6000819050919050565b60006112ab6112a66112a184610c8a565b611286565b610c8a565b9050919050565b6000819050919050565b6112c583611290565b6112d96112d1826112b2565b848454611234565b825550505050565b600090565b6112ee6112e1565b6112f98184846112bc565b505050565b5b8181101561131d576113126000826112e6565b6001810190506112ff565b5050565b601f8211156113625761133381611202565b61133c84611217565b8101602085101561134b578190505b61135f61135785611217565b8301826112fe565b50505b505050565b600082821c905092915050565b600061138560001984600802611367565b1980831691505092915050565b600061139e8383611374565b9150826002028217905092915050565b6113b782610d59565b67ffffffffffffffff8111156113d0576113cf610b16565b5b6113da82546110a6565b6113e5828285611321565b600060209050601f8311600181146114185760008415611406578287015190505b6114108582611392565b865550611478565b601f19841661142686611202565b60005b8281101561144e57848901518255600182019150602085019450602081019050611429565b8683101561146b5784890151611467601f891682611374565b8355505b6001600288020188555050505b505050505050565b600061148b82610e72565b915061149683610e72565b92508282026114a481610e72565b915082820484148315176114bb576114ba610f56565b5b5092915050565b60006114cd82610e72565b91506114d883610e72565b9250828203905073ffffffffffffffffffffffffffffffffffffffff81111561150457611503610f56565b5b92915050565b600061151582610e72565b915061152083610e72565b9250828201905073ffffffffffffffffffffffffffffffffffffffff81111561154c5761154b610f56565b5b92915050565b60008151905061156181610ece565b92915050565b60006020828403121561157d5761157c610af1565b5b600061158b84828501611552565b91505092915050565b7f4f776e61626c653a206e6577206f776e657220697320746865207a65726f206160008201527f6464726573730000000000000000000000000000000000000000000000000000602082015250565b60006115f0602683610d64565b91506115fb82611594565b604082019050919050565b6000602082019050818103600083015261161f816115e3565b9050919050565b7f4f776e61626c653a2063616c6c6572206973206e6f7420746865206f776e6572600082015250565b600061165c602083610d64565b915061166782611626565b602082019050919050565b6000602082019050818103600083015261168b8161164f565b905091905056fea2646970667358221220cc9a37c475e0c77cd2e13e54036126203f9d70b9aaae80d9d6f4ebc14833f3a964736f6c63430008120033",
			"opcodes": "PUSH1 0x80 PUSH1 0x40 MSTORE CALLVALUE DUP1 ISZERO PUSH2 0x10 JUMPI PUSH1 0x0 DUP1 REVERT JUMPDEST POP PUSH2 0x2D PUSH2 0x22 PUSH2 0x32 PUSH1 0x20 SHL PUSH1 0x20 SHR JUMP JUMPDEST PUSH2 0x3A PUSH1 0x20 SHL PUSH1 0x20 SHR JUMP JUMPDEST PUSH2 0xFE JUMP JUMPDEST PUSH1 0x0 CALLER SWAP1 POP SWAP1 JUMP JUMPDEST PUSH1 0x0 DUP1 PUSH1 0x0 SWAP1 SLOAD SWAP1 PUSH2 0x100 EXP SWAP1 DIV PUSH20 0xFFFFFFFFFFFFFFFFFFFFFFFFFFFFFFFFFFFFFFFF AND SWAP1 POP DUP2 PUSH1 0x0 DUP1 PUSH2 0x100 EXP DUP2 SLOAD DUP2 PUSH20 0xFFFFFFFFFFFFFFFFFFFFFFFFFFFFFFFFFFFFFFFF MUL NOT AND SWAP1 DUP4 PUSH20 0xFFFFFFFFFFFFFFFFFFFFFFFFFFFFFFFFFFFFFFFF AND MUL OR SWAP1 SSTORE POP DUP2 PUSH20 0xFFFFFFFFFFFFFFFFFFFFFFFFFFFFFFFFFFFFFFFF AND DUP2 PUSH20 0xFFFFFFFFFFFFFFFFFFFFFFFFFFFFFFFFFFFFFFFF AND PUSH32 0x8BE0079C531659141344CD1FD0A4F28419497F9722A3DAAFE3B4186F6B6457E0 PUSH1 0x40 MLOAD PUSH1 0x40 MLOAD DUP1 SWAP2 SUB SWAP1 LOG3 POP POP JUMP JUMPDEST PUSH2 0x16C8 DUP1 PUSH2 0x10D PUSH1 0x0 CODECOPY PUSH1 0x0 RETURN INVALID PUSH1 0x80 PUSH1 0x40 MSTORE CALLVALUE DUP1 ISZERO PUSH2 0x10 JUMPI PUSH1 0x0 DUP1 REVERT JUMPDEST POP PUSH1 0x4 CALLDATASIZE LT PUSH2 0x93 JUMPI PUSH1 0x0 CALLDATALOAD PUSH1 0xE0 SHR DUP1 PUSH4 0x892D069C GT PUSH2 0x66 JUMPI DUP1 PUSH4 0x892D069C EQ PUSH2 0x132 JUMPI DUP1 PUSH4 0x8DA5CB5B EQ PUSH2 0x14E JUMPI DUP1 PUSH4 0xA6823189 EQ PUSH2 0x16C JUMPI DUP1 PUSH4 0xBFFD1EA9 EQ PUSH2 0x19C JUMPI DUP1 PUSH4 0xF2FDE38B EQ PUSH2 0x1CC JUMPI PUSH2 0x93 JUMP JUMPDEST DUP1 PUSH4 0x1BD95155 EQ PUSH2 0x98 JUMPI DUP1 PUSH4 0x1DCD9B55 EQ PUSH2 0xC8 JUMPI DUP1 PUSH4 0x715018A6 EQ PUSH2 0xF8 JUMPI DUP1 PUSH4 0x72390D13 EQ PUSH2 0x102 JUMPI JUMPDEST PUSH1 0x0 DUP1 REVERT JUMPDEST PUSH2 0xB2 PUSH1 0x4 DUP1 CALLDATASIZE SUB DUP2 ADD SWAP1 PUSH2 0xAD SWAP2 SWAP1 PUSH2 0xC41 JUMP JUMPDEST PUSH2 0x1E8 JUMP JUMPDEST PUSH1 0x40 MLOAD PUSH2 0xBF SWAP2 SWAP1 PUSH2 0xCA3 JUMP JUMPDEST PUSH1 0x40 MLOAD DUP1 SWAP2 SUB SWAP1 RETURN JUMPDEST PUSH2 0xE2 PUSH1 0x4 DUP1 CALLDATASIZE SUB DUP2 ADD SWAP1 PUSH2 0xDD SWAP2 SWAP1 PUSH2 0xCEA JUMP JUMPDEST PUSH2 0x282 JUMP JUMPDEST PUSH1 0x40 MLOAD PUSH2 0xEF SWAP2 SWAP1 PUSH2 0xDD8 JUMP JUMPDEST PUSH1 0x40 MLOAD DUP1 SWAP2 SUB SWAP1 RETURN JUMPDEST PUSH2 0x100 PUSH2 0x37E JUMP JUMPDEST STOP JUMPDEST PUSH2 0x11C PUSH1 0x4 DUP1 CALLDATASIZE SUB DUP2 ADD SWAP1 PUSH2 0x117 SWAP2 SWAP1 PUSH2 0xC41 JUMP JUMPDEST PUSH2 0x392 JUMP JUMPDEST PUSH1 0x40 MLOAD PUSH2 0x129 SWAP2 SWAP1 PUSH2 0xDD8 JUMP JUMPDEST PUSH1 0x40 MLOAD DUP1 SWAP2 SUB SWAP1 RETURN JUMPDEST PUSH2 0x14C PUSH1 0x4 DUP1 CALLDATASIZE SUB DUP2 ADD SWAP1 PUSH2 0x147 SWAP2 SWAP1 PUSH2 0xDFA JUMP JUMPDEST PUSH2 0x448 JUMP JUMPDEST STOP JUMPDEST PUSH2 0x156 PUSH2 0x55B JUMP JUMPDEST PUSH1 0x40 MLOAD PUSH2 0x163 SWAP2 SWAP1 PUSH2 0xEB3 JUMP JUMPDEST PUSH1 0x40 MLOAD DUP1 SWAP2 SUB SWAP1 RETURN JUMPDEST PUSH2 0x186 PUSH1 0x4 DUP1 CALLDATASIZE SUB DUP2 ADD SWAP1 PUSH2 0x181 SWAP2 SWAP1 PUSH2 0xC41 JUMP JUMPDEST PUSH2 0x584 JUMP JUMPDEST PUSH1 0x40 MLOAD PUSH2 0x193 SWAP2 SWAP1 PUSH2 0xEB3 JUMP JUMPDEST PUSH1 0x40 MLOAD DUP1 SWAP2 SUB SWAP1 RETURN JUMPDEST PUSH2 0x1B6 PUSH1 0x4 DUP1 CALLDATASIZE SUB DUP2 ADD SWAP1 PUSH2 0x1B1 SWAP2 SWAP1 PUSH2 0xC41 JUMP JUMPDEST PUSH2 0x852 JUMP JUMPDEST PUSH1 0x40 MLOAD PUSH2 0x1C3 SWAP2 SWAP1 PUSH2 0xEB3 JUMP JUMPDEST PUSH1 0x40 MLOAD DUP1 SWAP2 SUB SWAP1 RETURN JUMPDEST PUSH2 0x1E6 PUSH1 0x4 DUP1 CALLDATASIZE SUB DUP2 ADD SWAP1 PUSH2 0x1E1 SWAP2 SWAP1 PUSH2 0xEFA JUMP JUMPDEST PUSH2 0x91A JUMP JUMPDEST STOP JUMPDEST PUSH1 0x0 DUP1 DUP3 SWAP1 POP PUSH1 0x0 DUP1 SWAP3 POP PUSH1 0x0 SWAP1 POP JUMPDEST DUP2 MLOAD DUP2 LT ISZERO PUSH2 0x27B JUMPI PUSH1 0x0 DUP3 DUP3 DUP2 MLOAD DUP2 LT PUSH2 0x216 JUMPI PUSH2 0x215 PUSH2 0xF27 JUMP JUMPDEST JUMPDEST PUSH1 0x20 ADD ADD MLOAD PUSH1 0xF8 SHR PUSH1 0xF8 SHL PUSH1 0xF8 SHR PUSH1 0xFF AND SWAP1 POP PUSH1 0x30 DUP2 LT ISZERO DUP1 ISZERO PUSH2 0x23B JUMPI POP PUSH1 0x39 DUP2 GT ISZERO JUMPDEST ISZERO PUSH2 0x267 JUMPI PUSH1 0x30 DUP2 PUSH2 0x24D SWAP2 SWAP1 PUSH2 0xF85 JUMP JUMPDEST PUSH1 0xA DUP6 PUSH2 0x25A SWAP2 SWAP1 PUSH2 0xFB9 JUMP JUMPDEST PUSH2 0x264 SWAP2 SWAP1 PUSH2 0xFFB JUMP JUMPDEST SWAP4 POP JUMPDEST POP DUP1 DUP1 PUSH2 0x273 SWAP1 PUSH2 0x102F JUMP JUMPDEST SWAP2 POP POP PUSH2 0x1F8 JUMP JUMPDEST POP POP SWAP2 SWAP1 POP JUMP JUMPDEST PUSH1 0x60 PUSH1 0x0 DUP5 SWAP1 POP PUSH1 0x0 DUP5 DUP5 PUSH2 0x297 SWAP2 SWAP1 PUSH2 0xF85 JUMP JUMPDEST PUSH8 0xFFFFFFFFFFFFFFFF DUP2 GT ISZERO PUSH2 0x2B0 JUMPI PUSH2 0x2AF PUSH2 0xB16 JUMP JUMPDEST JUMPDEST PUSH1 0x40 MLOAD SWAP1 DUP1 DUP3 MSTORE DUP1 PUSH1 0x1F ADD PUSH1 0x1F NOT AND PUSH1 0x20 ADD DUP3 ADD PUSH1 0x40 MSTORE DUP1 ISZERO PUSH2 0x2E2 JUMPI DUP2 PUSH1 0x20 ADD PUSH1 0x1 DUP3 MUL DUP1 CALLDATASIZE DUP4 CALLDATACOPY DUP1 DUP3 ADD SWAP2 POP POP SWAP1 POP JUMPDEST POP SWAP1 POP PUSH1 0x0 DUP6 SWAP1 POP JUMPDEST DUP5 DUP2 LT ISZERO PUSH2 0x371 JUMPI DUP3 DUP2 DUP2 MLOAD DUP2 LT PUSH2 0x306 JUMPI PUSH2 0x305 PUSH2 0xF27 JUMP JUMPDEST JUMPDEST PUSH1 0x20 ADD ADD MLOAD PUSH1 0xF8 SHR PUSH1 0xF8 SHL DUP3 DUP8 DUP4 PUSH2 0x31E SWAP2 SWAP1 PUSH2 0xF85 JUMP JUMPDEST DUP2 MLOAD DUP2 LT PUSH2 0x32F JUMPI PUSH2 0x32E PUSH2 0xF27 JUMP JUMPDEST JUMPDEST PUSH1 0x20 ADD ADD SWAP1 PUSH31 0xFFFFFFFFFFFFFFFFFFFFFFFFFFFFFFFFFFFFFFFFFFFFFFFFFFFFFFFFFFFFFF NOT AND SWAP1 DUP2 PUSH1 0x0 BYTE SWAP1 MSTORE8 POP DUP1 DUP1 PUSH2 0x369 SWAP1 PUSH2 0x102F JUMP JUMPDEST SWAP2 POP POP PUSH2 0x2EB JUMP JUMPDEST POP DUP1 SWAP3 POP POP POP SWAP4 SWAP3 POP POP POP JUMP JUMPDEST PUSH2 0x386 PUSH2 0x99D JUMP JUMPDEST PUSH2 0x390 PUSH1 0x0 PUSH2 0xA1B JUMP JUMPDEST JUMP JUMPDEST PUSH1 0x1 DUP2 DUP1 MLOAD PUSH1 0x20 DUP2 ADD DUP3 ADD DUP1 MLOAD DUP5 DUP3 MSTORE PUSH1 0x20 DUP4 ADD PUSH1 0x20 DUP6 ADD KECCAK256 DUP2 DUP4 MSTORE DUP1 SWAP6 POP POP POP POP POP POP PUSH1 0x0 SWAP2 POP SWAP1 POP DUP1 SLOAD PUSH2 0x3C7 SWAP1 PUSH2 0x10A6 JUMP JUMPDEST DUP1 PUSH1 0x1F ADD PUSH1 0x20 DUP1 SWAP2 DIV MUL PUSH1 0x20 ADD PUSH1 0x40 MLOAD SWAP1 DUP2 ADD PUSH1 0x40 MSTORE DUP1 SWAP3 SWAP2 SWAP1 DUP2 DUP2 MSTORE PUSH1 0x20 ADD DUP3 DUP1 SLOAD PUSH2 0x3F3 SWAP1 PUSH2 0x10A6 JUMP JUMPDEST DUP1 ISZERO PUSH2 0x440 JUMPI DUP1 PUSH1 0x1F LT PUSH2 0x415 JUMPI PUSH2 0x100 DUP1 DUP4 SLOAD DIV MUL DUP4 MSTORE SWAP2 PUSH1 0x20 ADD SWAP2 PUSH2 0x440 JUMP JUMPDEST DUP3 ADD SWAP2 SWAP1 PUSH1 0x0 MSTORE PUSH1 0x20 PUSH1 0x0 KECCAK256 SWAP1 JUMPDEST DUP2 SLOAD DUP2 MSTORE SWAP1 PUSH1 0x1 ADD SWAP1 PUSH1 0x20 ADD DUP1 DUP4 GT PUSH2 0x423 JUMPI DUP3 SWAP1 SUB PUSH1 0x1F AND DUP3 ADD SWAP2 JUMPDEST POP POP POP POP POP DUP2 JUMP JUMPDEST PUSH1 0x0 PUSH1 0x1 DUP3 PUSH1 0x40 MLOAD PUSH2 0x45A SWAP2 SWAP1 PUSH2 0x1113 JUMP JUMPDEST SWAP1 DUP2 MSTORE PUSH1 0x20 ADD PUSH1 0x40 MLOAD DUP1 SWAP2 SUB SWAP1 KECCAK256 DUP1 SLOAD PUSH2 0x473 SWAP1 PUSH2 0x10A6 JUMP JUMPDEST SWAP1 POP EQ PUSH2 0x4B5 JUMPI PUSH1 0x40 MLOAD PUSH32 0x8C379A000000000000000000000000000000000000000000000000000000000 DUP2 MSTORE PUSH1 0x4 ADD PUSH2 0x4AC SWAP1 PUSH2 0x1176 JUMP JUMPDEST PUSH1 0x40 MLOAD DUP1 SWAP2 SUB SWAP1 REVERT JUMPDEST CALLER PUSH20 0xFFFFFFFFFFFFFFFFFFFFFFFFFFFFFFFFFFFFFFFF AND PUSH2 0x4D5 DUP4 PUSH2 0x852 JUMP JUMPDEST PUSH20 0xFFFFFFFFFFFFFFFFFFFFFFFFFFFFFFFFFFFFFFFF AND EQ PUSH2 0x52B JUMPI PUSH1 0x40 MLOAD PUSH32 0x8C379A000000000000000000000000000000000000000000000000000000000 DUP2 MSTORE PUSH1 0x4 ADD PUSH2 0x522 SWAP1 PUSH2 0x11E2 JUMP JUMPDEST PUSH1 0x40 MLOAD DUP1 SWAP2 SUB SWAP1 REVERT JUMPDEST DUP2 PUSH1 0x1 DUP3 PUSH1 0x40 MLOAD PUSH2 0x53C SWAP2 SWAP1 PUSH2 0x1113 JUMP JUMPDEST SWAP1 DUP2 MSTORE PUSH1 0x20 ADD PUSH1 0x40 MLOAD DUP1 SWAP2 SUB SWAP1 KECCAK256 SWAP1 DUP2 PUSH2 0x556 SWAP2 SWAP1 PUSH2 0x13AE JUMP JUMPDEST POP POP POP JUMP JUMPDEST PUSH1 0x0 DUP1 PUSH1 0x0 SWAP1 SLOAD SWAP1 PUSH2 0x100 EXP SWAP1 DIV PUSH20 0xFFFFFFFFFFFFFFFFFFFFFFFFFFFFFFFFFFFFFFFF AND SWAP1 POP SWAP1 JUMP JUMPDEST PUSH1 0x0 DUP1 DUP3 SWAP1 POP PUSH1 0x0 DUP1 DUP1 PUSH1 0x0 PUSH1 0x2 SWAP1 POP JUMPDEST PUSH1 0x2A DUP2 LT ISZERO PUSH2 0x845 JUMPI PUSH2 0x100 DUP5 PUSH2 0x5AC SWAP2 SWAP1 PUSH2 0x1480 JUMP JUMPDEST SWAP4 POP DUP5 DUP2 DUP2 MLOAD DUP2 LT PUSH2 0x5C1 JUMPI PUSH2 0x5C0 PUSH2 0xF27 JUMP JUMPDEST JUMPDEST PUSH1 0x20 ADD ADD MLOAD PUSH1 0xF8 SHR PUSH1 0xF8 SHL PUSH1 0xF8 SHR PUSH1 0xFF AND SWAP3 POP DUP5 PUSH1 0x1 DUP3 PUSH2 0x5E2 SWAP2 SWAP1 PUSH2 0xFFB JUMP JUMPDEST DUP2 MLOAD DUP2 LT PUSH2 0x5F3 JUMPI PUSH2 0x5F2 PUSH2 0xF27 JUMP JUMPDEST JUMPDEST PUSH1 0x20 ADD ADD MLOAD PUSH1 0xF8 SHR PUSH1 0xF8 SHL PUSH1 0xF8 SHR PUSH1 0xFF AND SWAP2 POP PUSH1 0x61 DUP4 PUSH20 0xFFFFFFFFFFFFFFFFFFFFFFFFFFFFFFFFFFFFFFFF AND LT ISZERO DUP1 ISZERO PUSH2 0x644 JUMPI POP PUSH1 0x66 DUP4 PUSH20 0xFFFFFFFFFFFFFFFFFFFFFFFFFFFFFFFFFFFFFFFF AND GT ISZERO JUMPDEST ISZERO PUSH2 0x65D JUMPI PUSH1 0x57 DUP4 PUSH2 0x656 SWAP2 SWAP1 PUSH2 0x14C2 JUMP JUMPDEST SWAP3 POP PUSH2 0x709 JUMP JUMPDEST PUSH1 0x41 DUP4 PUSH20 0xFFFFFFFFFFFFFFFFFFFFFFFFFFFFFFFFFFFFFFFF AND LT ISZERO DUP1 ISZERO PUSH2 0x69B JUMPI POP PUSH1 0x46 DUP4 PUSH20 0xFFFFFFFFFFFFFFFFFFFFFFFFFFFFFFFFFFFFFFFF AND GT ISZERO JUMPDEST ISZERO PUSH2 0x6B4 JUMPI PUSH1 0x37 DUP4 PUSH2 0x6AD SWAP2 SWAP1 PUSH2 0x14C2 JUMP JUMPDEST SWAP3 POP PUSH2 0x708 JUMP JUMPDEST PUSH1 0x30 DUP4 PUSH20 0xFFFFFFFFFFFFFFFFFFFFFFFFFFFFFFFFFFFFFFFF AND LT ISZERO DUP1 ISZERO PUSH2 0x6F2 JUMPI POP PUSH1 0x39 DUP4 PUSH20 0xFFFFFFFFFFFFFFFFFFFFFFFFFFFFFFFFFFFFFFFF AND GT ISZERO JUMPDEST ISZERO PUSH2 0x707 JUMPI PUSH1 0x30 DUP4 PUSH2 0x704 SWAP2 SWAP1 PUSH2 0x14C2 JUMP JUMPDEST SWAP3 POP JUMPDEST JUMPDEST JUMPDEST PUSH1 0x61 DUP3 PUSH20 0xFFFFFFFFFFFFFFFFFFFFFFFFFFFFFFFFFFFFFFFF AND LT ISZERO DUP1 ISZERO PUSH2 0x747 JUMPI POP PUSH1 0x66 DUP3 PUSH20 0xFFFFFFFFFFFFFFFFFFFFFFFFFFFFFFFFFFFFFFFF AND GT ISZERO JUMPDEST ISZERO PUSH2 0x760 JUMPI PUSH1 0x57 DUP3 PUSH2 0x759 SWAP2 SWAP1 PUSH2 0x14C2 JUMP JUMPDEST SWAP2 POP PUSH2 0x80C JUMP JUMPDEST PUSH1 0x41 DUP3 PUSH20 0xFFFFFFFFFFFFFFFFFFFFFFFFFFFFFFFFFFFFFFFF AND LT ISZERO DUP1 ISZERO PUSH2 0x79E JUMPI POP PUSH1 0x46 DUP3 PUSH20 0xFFFFFFFFFFFFFFFFFFFFFFFFFFFFFFFFFFFFFFFF AND GT ISZERO JUMPDEST ISZERO PUSH2 0x7B7 JUMPI PUSH1 0x37 DUP3 PUSH2 0x7B0 SWAP2 SWAP1 PUSH2 0x14C2 JUMP JUMPDEST SWAP2 POP PUSH2 0x80B JUMP JUMPDEST PUSH1 0x30 DUP3 PUSH20 0xFFFFFFFFFFFFFFFFFFFFFFFFFFFFFFFFFFFFFFFF AND LT ISZERO DUP1 ISZERO PUSH2 0x7F5 JUMPI POP PUSH1 0x39 DUP3 PUSH20 0xFFFFFFFFFFFFFFFFFFFFFFFFFFFFFFFFFFFFFFFF AND GT ISZERO JUMPDEST ISZERO PUSH2 0x80A JUMPI PUSH1 0x30 DUP3 PUSH2 0x807 SWAP2 SWAP1 PUSH2 0x14C2 JUMP JUMPDEST SWAP2 POP JUMPDEST JUMPDEST JUMPDEST DUP2 PUSH1 0x10 DUP5 PUSH2 0x81A SWAP2 SWAP1 PUSH2 0x1480 JUMP JUMPDEST PUSH2 0x824 SWAP2 SWAP1 PUSH2 0x150A JUMP JUMPDEST DUP5 PUSH2 0x82F SWAP2 SWAP1 PUSH2 0x150A JUMP JUMPDEST SWAP4 POP PUSH1 0x2 DUP2 PUSH2 0x83E SWAP2 SWAP1 PUSH2 0xFFB JUMP JUMPDEST SWAP1 POP PUSH2 0x595 JUMP JUMPDEST POP DUP3 SWAP5 POP POP POP POP POP SWAP2 SWAP1 POP JUMP JUMPDEST PUSH1 0x0 DUP1 PUSH2 0x862 DUP4 PUSH1 0x0 PUSH1 0x2A PUSH2 0x282 JUMP JUMPDEST SWAP1 POP PUSH1 0x0 PUSH2 0x873 DUP5 PUSH1 0x2A DUP7 MLOAD PUSH2 0x282 JUMP JUMPDEST SWAP1 POP PUSH1 0x0 PUSH2 0x880 DUP4 PUSH2 0x584 JUMP JUMPDEST SWAP1 POP PUSH1 0x0 PUSH2 0x88D DUP4 PUSH2 0x1E8 JUMP JUMPDEST SWAP1 POP PUSH1 0x0 DUP3 PUSH20 0xFFFFFFFFFFFFFFFFFFFFFFFFFFFFFFFFFFFFFFFF AND PUSH4 0x6352211E DUP4 PUSH1 0x40 MLOAD DUP3 PUSH4 0xFFFFFFFF AND PUSH1 0xE0 SHL DUP2 MSTORE PUSH1 0x4 ADD PUSH2 0x8CA SWAP2 SWAP1 PUSH2 0xCA3 JUMP JUMPDEST PUSH1 0x20 PUSH1 0x40 MLOAD DUP1 DUP4 SUB DUP2 DUP7 GAS STATICCALL ISZERO DUP1 ISZERO PUSH2 0x8E7 JUMPI RETURNDATASIZE PUSH1 0x0 DUP1 RETURNDATACOPY RETURNDATASIZE PUSH1 0x0 REVERT JUMPDEST POP POP POP POP PUSH1 0x40 MLOAD RETURNDATASIZE PUSH1 0x1F NOT PUSH1 0x1F DUP3 ADD AND DUP3 ADD DUP1 PUSH1 0x40 MSTORE POP DUP2 ADD SWAP1 PUSH2 0x90B SWAP2 SWAP1 PUSH2 0x1567 JUMP JUMPDEST SWAP1 POP DUP1 SWAP6 POP POP POP POP POP POP SWAP2 SWAP1 POP JUMP JUMPDEST PUSH2 0x922 PUSH2 0x99D JUMP JUMPDEST PUSH1 0x0 PUSH20 0xFFFFFFFFFFFFFFFFFFFFFFFFFFFFFFFFFFFFFFFF AND DUP2 PUSH20 0xFFFFFFFFFFFFFFFFFFFFFFFFFFFFFFFFFFFFFFFF AND SUB PUSH2 0x991 JUMPI PUSH1 0x40 MLOAD PUSH32 0x8C379A000000000000000000000000000000000000000000000000000000000 DUP2 MSTORE PUSH1 0x4 ADD PUSH2 0x988 SWAP1 PUSH2 0x1606 JUMP JUMPDEST PUSH1 0x40 MLOAD DUP1 SWAP2 SUB SWAP1 REVERT JUMPDEST PUSH2 0x99A DUP2 PUSH2 0xA1B JUMP JUMPDEST POP JUMP JUMPDEST PUSH2 0x9A5 PUSH2 0xADF JUMP JUMPDEST PUSH20 0xFFFFFFFFFFFFFFFFFFFFFFFFFFFFFFFFFFFFFFFF AND PUSH2 0x9C3 PUSH2 0x55B JUMP JUMPDEST PUSH20 0xFFFFFFFFFFFFFFFFFFFFFFFFFFFFFFFFFFFFFFFF AND EQ PUSH2 0xA19 JUMPI PUSH1 0x40 MLOAD PUSH32 0x8C379A000000000000000000000000000000000000000000000000000000000 DUP2 MSTORE PUSH1 0x4 ADD PUSH2 0xA10 SWAP1 PUSH2 0x1672 JUMP JUMPDEST PUSH1 0x40 MLOAD DUP1 SWAP2 SUB SWAP1 REVERT JUMPDEST JUMP JUMPDEST PUSH1 0x0 DUP1 PUSH1 0x0 SWAP1 SLOAD SWAP1 PUSH2 0x100 EXP SWAP1 DIV PUSH20 0xFFFFFFFFFFFFFFFFFFFFFFFFFFFFFFFFFFFFFFFF AND SWAP1 POP DUP2 PUSH1 0x0 DUP1 PUSH2 0x100 EXP DUP2 SLOAD DUP2 PUSH20 0xFFFFFFFFFFFFFFFFFFFFFFFFFFFFFFFFFFFFFFFF MUL NOT AND SWAP1 DUP4 PUSH20 0xFFFFFFFFFFFFFFFFFFFFFFFFFFFFFFFFFFFFFFFF AND MUL OR SWAP1 SSTORE POP DUP2 PUSH20 0xFFFFFFFFFFFFFFFFFFFFFFFFFFFFFFFFFFFFFFFF AND DUP2 PUSH20 0xFFFFFFFFFFFFFFFFFFFFFFFFFFFFFFFFFFFFFFFF AND PUSH32 0x8BE0079C531659141344CD1FD0A4F28419497F9722A3DAAFE3B4186F6B6457E0 PUSH1 0x40 MLOAD PUSH1 0x40 MLOAD DUP1 SWAP2 SUB SWAP1 LOG3 POP POP JUMP JUMPDEST PUSH1 0x0 CALLER SWAP1 POP SWAP1 JUMP JUMPDEST PUSH1 0x0 PUSH1 0x40 MLOAD SWAP1 POP SWAP1 JUMP JUMPDEST PUSH1 0x0 DUP1 REVERT JUMPDEST PUSH1 0x0 DUP1 REVERT JUMPDEST PUSH1 0x0 DUP1 REVERT JUMPDEST PUSH1 0x0 DUP1 REVERT JUMPDEST PUSH1 0x0 PUSH1 0x1F NOT PUSH1 0x1F DUP4 ADD AND SWAP1 POP SWAP2 SWAP1 POP JUMP JUMPDEST PUSH32 0x4E487B7100000000000000000000000000000000000000000000000000000000 PUSH1 0x0 MSTORE PUSH1 0x41 PUSH1 0x4 MSTORE PUSH1 0x24 PUSH1 0x0 REVERT JUMPDEST PUSH2 0xB4E DUP3 PUSH2 0xB05 JUMP JUMPDEST DUP2 ADD DUP2 DUP2 LT PUSH8 0xFFFFFFFFFFFFFFFF DUP3 GT OR ISZERO PUSH2 0xB6D JUMPI PUSH2 0xB6C PUSH2 0xB16 JUMP JUMPDEST JUMPDEST DUP1 PUSH1 0x40 MSTORE POP POP POP JUMP JUMPDEST PUSH1 0x0 PUSH2 0xB80 PUSH2 0xAE7 JUMP JUMPDEST SWAP1 POP PUSH2 0xB8C DUP3 DUP3 PUSH2 0xB45 JUMP JUMPDEST SWAP2 SWAP1 POP JUMP JUMPDEST PUSH1 0x0 PUSH8 0xFFFFFFFFFFFFFFFF DUP3 GT ISZERO PUSH2 0xBAC JUMPI PUSH2 0xBAB PUSH2 0xB16 JUMP JUMPDEST JUMPDEST PUSH2 0xBB5 DUP3 PUSH2 0xB05 JUMP JUMPDEST SWAP1 POP PUSH1 0x20 DUP2 ADD SWAP1 POP SWAP2 SWAP1 POP JUMP JUMPDEST DUP3 DUP2 DUP4 CALLDATACOPY PUSH1 0x0 DUP4 DUP4 ADD MSTORE POP POP POP JUMP JUMPDEST PUSH1 0x0 PUSH2 0xBE4 PUSH2 0xBDF DUP5 PUSH2 0xB91 JUMP JUMPDEST PUSH2 0xB76 JUMP JUMPDEST SWAP1 POP DUP3 DUP2 MSTORE PUSH1 0x20 DUP2 ADD DUP5 DUP5 DUP5 ADD GT ISZERO PUSH2 0xC00 JUMPI PUSH2 0xBFF PUSH2 0xB00 JUMP JUMPDEST JUMPDEST PUSH2 0xC0B DUP5 DUP3 DUP6 PUSH2 0xBC2 JUMP JUMPDEST POP SWAP4 SWAP3 POP POP POP JUMP JUMPDEST PUSH1 0x0 DUP3 PUSH1 0x1F DUP4 ADD SLT PUSH2 0xC28 JUMPI PUSH2 0xC27 PUSH2 0xAFB JUMP JUMPDEST JUMPDEST DUP2 CALLDATALOAD PUSH2 0xC38 DUP5 DUP3 PUSH1 0x20 DUP7 ADD PUSH2 0xBD1 JUMP JUMPDEST SWAP2 POP POP SWAP3 SWAP2 POP POP JUMP JUMPDEST PUSH1 0x0 PUSH1 0x20 DUP3 DUP5 SUB SLT ISZERO PUSH2 0xC57 JUMPI PUSH2 0xC56 PUSH2 0xAF1 JUMP JUMPDEST JUMPDEST PUSH1 0x0 DUP3 ADD CALLDATALOAD PUSH8 0xFFFFFFFFFFFFFFFF DUP2 GT ISZERO PUSH2 0xC75 JUMPI PUSH2 0xC74 PUSH2 0xAF6 JUMP JUMPDEST JUMPDEST PUSH2 0xC81 DUP5 DUP3 DUP6 ADD PUSH2 0xC13 JUMP JUMPDEST SWAP2 POP POP SWAP3 SWAP2 POP POP JUMP JUMPDEST PUSH1 0x0 DUP2 SWAP1 POP SWAP2 SWAP1 POP JUMP JUMPDEST PUSH2 0xC9D DUP2 PUSH2 0xC8A JUMP JUMPDEST DUP3 MSTORE POP POP JUMP JUMPDEST PUSH1 0x0 PUSH1 0x20 DUP3 ADD SWAP1 POP PUSH2 0xCB8 PUSH1 0x0 DUP4 ADD DUP5 PUSH2 0xC94 JUMP JUMPDEST SWAP3 SWAP2 POP POP JUMP JUMPDEST PUSH2 0xCC7 DUP2 PUSH2 0xC8A JUMP JUMPDEST DUP2 EQ PUSH2 0xCD2 JUMPI PUSH1 0x0 DUP1 REVERT JUMPDEST POP JUMP JUMPDEST PUSH1 0x0 DUP2 CALLDATALOAD SWAP1 POP PUSH2 0xCE4 DUP2 PUSH2 0xCBE JUMP JUMPDEST SWAP3 SWAP2 POP POP JUMP JUMPDEST PUSH1 0x0 DUP1 PUSH1 0x0 PUSH1 0x60 DUP5 DUP7 SUB SLT ISZERO PUSH2 0xD03 JUMPI PUSH2 0xD02 PUSH2 0xAF1 JUMP JUMPDEST JUMPDEST PUSH1 0x0 DUP5 ADD CALLDATALOAD PUSH8 0xFFFFFFFFFFFFFFFF DUP2 GT ISZERO PUSH2 0xD21 JUMPI PUSH2 0xD20 PUSH2 0xAF6 JUMP JUMPDEST JUMPDEST PUSH2 0xD2D DUP7 DUP3 DUP8 ADD PUSH2 0xC13 JUMP JUMPDEST SWAP4 POP POP PUSH1 0x20 PUSH2 0xD3E DUP7 DUP3 DUP8 ADD PUSH2 0xCD5 JUMP JUMPDEST SWAP3 POP POP PUSH1 0x40 PUSH2 0xD4F DUP7 DUP3 DUP8 ADD PUSH2 0xCD5 JUMP JUMPDEST SWAP2 POP POP SWAP3 POP SWAP3 POP SWAP3 JUMP JUMPDEST PUSH1 0x0 DUP2 MLOAD SWAP1 POP SWAP2 SWAP1 POP JUMP JUMPDEST PUSH1 0x0 DUP3 DUP3 MSTORE PUSH1 0x20 DUP3 ADD SWAP1 POP SWAP3 SWAP2 POP POP JUMP JUMPDEST PUSH1 0x0 JUMPDEST DUP4 DUP2 LT ISZERO PUSH2 0xD93 JUMPI DUP1 DUP3 ADD MLOAD DUP2 DUP5 ADD MSTORE PUSH1 0x20 DUP2 ADD SWAP1 POP PUSH2 0xD78 JUMP JUMPDEST PUSH1 0x0 DUP5 DUP5 ADD MSTORE POP POP POP POP JUMP JUMPDEST PUSH1 0x0 PUSH2 0xDAA DUP3 PUSH2 0xD59 JUMP JUMPDEST PUSH2 0xDB4 DUP2 DUP6 PUSH2 0xD64 JUMP JUMPDEST SWAP4 POP PUSH2 0xDC4 DUP2 DUP6 PUSH1 0x20 DUP7 ADD PUSH2 0xD75 JUMP JUMPDEST PUSH2 0xDCD DUP2 PUSH2 0xB05 JUMP JUMPDEST DUP5 ADD SWAP2 POP POP SWAP3 SWAP2 POP POP JUMP JUMPDEST PUSH1 0x0 PUSH1 0x20 DUP3 ADD SWAP1 POP DUP2 DUP2 SUB PUSH1 0x0 DUP4 ADD MSTORE PUSH2 0xDF2 DUP2 DUP5 PUSH2 0xD9F JUMP JUMPDEST SWAP1 POP SWAP3 SWAP2 POP POP JUMP JUMPDEST PUSH1 0x0 DUP1 PUSH1 0x40 DUP4 DUP6 SUB SLT ISZERO PUSH2 0xE11 JUMPI PUSH2 0xE10 PUSH2 0xAF1 JUMP JUMPDEST JUMPDEST PUSH1 0x0 DUP4 ADD CALLDATALOAD PUSH8 0xFFFFFFFFFFFFFFFF DUP2 GT ISZERO PUSH2 0xE2F JUMPI PUSH2 0xE2E PUSH2 0xAF6 JUMP JUMPDEST JUMPDEST PUSH2 0xE3B DUP6 DUP3 DUP7 ADD PUSH2 0xC13 JUMP JUMPDEST SWAP3 POP POP PUSH1 0x20 DUP4 ADD CALLDATALOAD PUSH8 0xFFFFFFFFFFFFFFFF DUP2 GT ISZERO PUSH2 0xE5C JUMPI PUSH2 0xE5B PUSH2 0xAF6 JUMP JUMPDEST JUMPDEST PUSH2 0xE68 DUP6 DUP3 DUP7 ADD PUSH2 0xC13 JUMP JUMPDEST SWAP2 POP POP SWAP3 POP SWAP3 SWAP1 POP JUMP JUMPDEST PUSH1 0x0 PUSH20 0xFFFFFFFFFFFFFFFFFFFFFFFFFFFFFFFFFFFFFFFF DUP3 AND SWAP1 POP SWAP2 SWAP1 POP JUMP JUMPDEST PUSH1 0x0 PUSH2 0xE9D DUP3 PUSH2 0xE72 JUMP JUMPDEST SWAP1 POP SWAP2 SWAP1 POP JUMP JUMPDEST PUSH2 0xEAD DUP2 PUSH2 0xE92 JUMP JUMPDEST DUP3 MSTORE POP POP JUMP JUMPDEST PUSH1 0x0 PUSH1 0x20 DUP3 ADD SWAP1 POP PUSH2 0xEC8 PUSH1 0x0 DUP4 ADD DUP5 PUSH2 0xEA4 JUMP JUMPDEST SWAP3 SWAP2 POP POP JUMP JUMPDEST PUSH2 0xED7 DUP2 PUSH2 0xE92 JUMP JUMPDEST DUP2 EQ PUSH2 0xEE2 JUMPI PUSH1 0x0 DUP1 REVERT JUMPDEST POP JUMP JUMPDEST PUSH1 0x0 DUP2 CALLDATALOAD SWAP1 POP PUSH2 0xEF4 DUP2 PUSH2 0xECE JUMP JUMPDEST SWAP3 SWAP2 POP POP JUMP JUMPDEST PUSH1 0x0 PUSH1 0x20 DUP3 DUP5 SUB SLT ISZERO PUSH2 0xF10 JUMPI PUSH2 0xF0F PUSH2 0xAF1 JUMP JUMPDEST JUMPDEST PUSH1 0x0 PUSH2 0xF1E DUP5 DUP3 DUP6 ADD PUSH2 0xEE5 JUMP JUMPDEST SWAP2 POP POP SWAP3 SWAP2 POP POP JUMP JUMPDEST PUSH32 0x4E487B7100000000000000000000000000000000000000000000000000000000 PUSH1 0x0 MSTORE PUSH1 0x32 PUSH1 0x4 MSTORE PUSH1 0x24 PUSH1 0x0 REVERT JUMPDEST PUSH32 0x4E487B7100000000000000000000000000000000000000000000000000000000 PUSH1 0x0 MSTORE PUSH1 0x11 PUSH1 0x4 MSTORE PUSH1 0x24 PUSH1 0x0 REVERT JUMPDEST PUSH1 0x0 PUSH2 0xF90 DUP3 PUSH2 0xC8A JUMP JUMPDEST SWAP2 POP PUSH2 0xF9B DUP4 PUSH2 0xC8A JUMP JUMPDEST SWAP3 POP DUP3 DUP3 SUB SWAP1 POP DUP2 DUP2 GT ISZERO PUSH2 0xFB3 JUMPI PUSH2 0xFB2 PUSH2 0xF56 JUMP JUMPDEST JUMPDEST SWAP3 SWAP2 POP POP JUMP JUMPDEST PUSH1 0x0 PUSH2 0xFC4 DUP3 PUSH2 0xC8A JUMP JUMPDEST SWAP2 POP PUSH2 0xFCF DUP4 PUSH2 0xC8A JUMP JUMPDEST SWAP3 POP DUP3 DUP3 MUL PUSH2 0xFDD DUP2 PUSH2 0xC8A JUMP JUMPDEST SWAP2 POP DUP3 DUP3 DIV DUP5 EQ DUP4 ISZERO OR PUSH2 0xFF4 JUMPI PUSH2 0xFF3 PUSH2 0xF56 JUMP JUMPDEST JUMPDEST POP SWAP3 SWAP2 POP POP JUMP JUMPDEST PUSH1 0x0 PUSH2 0x1006 DUP3 PUSH2 0xC8A JUMP JUMPDEST SWAP2 POP PUSH2 0x1011 DUP4 PUSH2 0xC8A JUMP JUMPDEST SWAP3 POP DUP3 DUP3 ADD SWAP1 POP DUP1 DUP3 GT ISZERO PUSH2 0x1029 JUMPI PUSH2 0x1028 PUSH2 0xF56 JUMP JUMPDEST JUMPDEST SWAP3 SWAP2 POP POP JUMP JUMPDEST PUSH1 0x0 PUSH2 0x103A DUP3 PUSH2 0xC8A JUMP JUMPDEST SWAP2 POP PUSH32 0xFFFFFFFFFFFFFFFFFFFFFFFFFFFFFFFFFFFFFFFFFFFFFFFFFFFFFFFFFFFFFFFF DUP3 SUB PUSH2 0x106C JUMPI PUSH2 0x106B PUSH2 0xF56 JUMP JUMPDEST JUMPDEST PUSH1 0x1 DUP3 ADD SWAP1 POP SWAP2 SWAP1 POP JUMP JUMPDEST PUSH32 0x4E487B7100000000000000000000000000000000000000000000000000000000 PUSH1 0x0 MSTORE PUSH1 0x22 PUSH1 0x4 MSTORE PUSH1 0x24 PUSH1 0x0 REVERT JUMPDEST PUSH1 0x0 PUSH1 0x2 DUP3 DIV SWAP1 POP PUSH1 0x1 DUP3 AND DUP1 PUSH2 0x10BE JUMPI PUSH1 0x7F DUP3 AND SWAP2 POP JUMPDEST PUSH1 0x20 DUP3 LT DUP2 SUB PUSH2 0x10D1 JUMPI PUSH2 0x10D0 PUSH2 0x1077 JUMP JUMPDEST JUMPDEST POP SWAP2 SWAP1 POP JUMP JUMPDEST PUSH1 0x0 DUP2 SWAP1 POP SWAP3 SWAP2 POP POP JUMP JUMPDEST PUSH1 0x0 PUSH2 0x10ED DUP3 PUSH2 0xD59 JUMP JUMPDEST PUSH2 0x10F7 DUP2 DUP6 PUSH2 0x10D7 JUMP JUMPDEST SWAP4 POP PUSH2 0x1107 DUP2 DUP6 PUSH1 0x20 DUP7 ADD PUSH2 0xD75 JUMP JUMPDEST DUP1 DUP5 ADD SWAP2 POP POP SWAP3 SWAP2 POP POP JUMP JUMPDEST PUSH1 0x0 PUSH2 0x111F DUP3 DUP5 PUSH2 0x10E2 JUMP JUMPDEST SWAP2 POP DUP2 SWAP1 POP SWAP3 SWAP2 POP POP JUMP JUMPDEST PUSH32 0x4E616D6520697320616C72656164792074616B656E0000000000000000000000 PUSH1 0x0 DUP3 ADD MSTORE POP JUMP JUMPDEST PUSH1 0x0 PUSH2 0x1160 PUSH1 0x15 DUP4 PUSH2 0xD64 JUMP JUMPDEST SWAP2 POP PUSH2 0x116B DUP3 PUSH2 0x112A JUMP JUMPDEST PUSH1 0x20 DUP3 ADD SWAP1 POP SWAP2 SWAP1 POP JUMP JUMPDEST PUSH1 0x0 PUSH1 0x20 DUP3 ADD SWAP1 POP DUP2 DUP2 SUB PUSH1 0x0 DUP4 ADD MSTORE PUSH2 0x118F DUP2 PUSH2 0x1153 JUMP JUMPDEST SWAP1 POP SWAP2 SWAP1 POP JUMP JUMPDEST PUSH32 0x4E6F7420612076616C6964206F776E6572000000000000000000000000000000 PUSH1 0x0 DUP3 ADD MSTORE POP JUMP JUMPDEST PUSH1 0x0 PUSH2 0x11CC PUSH1 0x11 DUP4 PUSH2 0xD64 JUMP JUMPDEST SWAP2 POP PUSH2 0x11D7 DUP3 PUSH2 0x1196 JUMP JUMPDEST PUSH1 0x20 DUP3 ADD SWAP1 POP SWAP2 SWAP1 POP JUMP JUMPDEST PUSH1 0x0 PUSH1 0x20 DUP3 ADD SWAP1 POP DUP2 DUP2 SUB PUSH1 0x0 DUP4 ADD MSTORE PUSH2 0x11FB DUP2 PUSH2 0x11BF JUMP JUMPDEST SWAP1 POP SWAP2 SWAP1 POP JUMP JUMPDEST PUSH1 0x0 DUP2 SWAP1 POP DUP2 PUSH1 0x0 MSTORE PUSH1 0x20 PUSH1 0x0 KECCAK256 SWAP1 POP SWAP2 SWAP1 POP JUMP JUMPDEST PUSH1 0x0 PUSH1 0x20 PUSH1 0x1F DUP4 ADD DIV SWAP1 POP SWAP2 SWAP1 POP JUMP JUMPDEST PUSH1 0x0 DUP3 DUP3 SHL SWAP1 POP SWAP3 SWAP2 POP POP JUMP JUMPDEST PUSH1 0x0 PUSH1 0x8 DUP4 MUL PUSH2 0x1264 PUSH32 0xFFFFFFFFFFFFFFFFFFFFFFFFFFFFFFFFFFFFFFFFFFFFFFFFFFFFFFFFFFFFFFFF DUP3 PUSH2 0x1227 JUMP JUMPDEST PUSH2 0x126E DUP7 DUP4 PUSH2 0x1227 JUMP JUMPDEST SWAP6 POP DUP1 NOT DUP5 AND SWAP4 POP DUP1 DUP7 AND DUP5 OR SWAP3 POP POP POP SWAP4 SWAP3 POP POP POP JUMP JUMPDEST PUSH1 0x0 DUP2 SWAP1 POP SWAP2 SWAP1 POP JUMP JUMPDEST PUSH1 0x0 PUSH2 0x12AB PUSH2 0x12A6 PUSH2 0x12A1 DUP5 PUSH2 0xC8A JUMP JUMPDEST PUSH2 0x1286 JUMP JUMPDEST PUSH2 0xC8A JUMP JUMPDEST SWAP1 POP SWAP2 SWAP1 POP JUMP JUMPDEST PUSH1 0x0 DUP2 SWAP1 POP SWAP2 SWAP1 POP JUMP JUMPDEST PUSH2 0x12C5 DUP4 PUSH2 0x1290 JUMP JUMPDEST PUSH2 0x12D9 PUSH2 0x12D1 DUP3 PUSH2 0x12B2 JUMP JUMPDEST DUP5 DUP5 SLOAD PUSH2 0x1234 JUMP JUMPDEST DUP3 SSTORE POP POP POP POP JUMP JUMPDEST PUSH1 0x0 SWAP1 JUMP JUMPDEST PUSH2 0x12EE PUSH2 0x12E1 JUMP JUMPDEST PUSH2 0x12F9 DUP2 DUP5 DUP5 PUSH2 0x12BC JUMP JUMPDEST POP POP POP JUMP JUMPDEST JUMPDEST DUP2 DUP2 LT ISZERO PUSH2 0x131D JUMPI PUSH2 0x1312 PUSH1 0x0 DUP3 PUSH2 0x12E6 JUMP JUMPDEST PUSH1 0x1 DUP2 ADD SWAP1 POP PUSH2 0x12FF JUMP JUMPDEST POP POP JUMP JUMPDEST PUSH1 0x1F DUP3 GT ISZERO PUSH2 0x1362 JUMPI PUSH2 0x1333 DUP2 PUSH2 0x1202 JUMP JUMPDEST PUSH2 0x133C DUP5 PUSH2 0x1217 JUMP JUMPDEST DUP2 ADD PUSH1 0x20 DUP6 LT ISZERO PUSH2 0x134B JUMPI DUP2 SWAP1 POP JUMPDEST PUSH2 0x135F PUSH2 0x1357 DUP6 PUSH2 0x1217 JUMP JUMPDEST DUP4 ADD DUP3 PUSH2 0x12FE JUMP JUMPDEST POP POP JUMPDEST POP POP POP JUMP JUMPDEST PUSH1 0x0 DUP3 DUP3 SHR SWAP1 POP SWAP3 SWAP2 POP POP JUMP JUMPDEST PUSH1 0x0 PUSH2 0x1385 PUSH1 0x0 NOT DUP5 PUSH1 0x8 MUL PUSH2 0x1367 JUMP JUMPDEST NOT DUP1 DUP4 AND SWAP2 POP POP SWAP3 SWAP2 POP POP JUMP JUMPDEST PUSH1 0x0 PUSH2 0x139E DUP4 DUP4 PUSH2 0x1374 JUMP JUMPDEST SWAP2 POP DUP3 PUSH1 0x2 MUL DUP3 OR SWAP1 POP SWAP3 SWAP2 POP POP JUMP JUMPDEST PUSH2 0x13B7 DUP3 PUSH2 0xD59 JUMP JUMPDEST PUSH8 0xFFFFFFFFFFFFFFFF DUP2 GT ISZERO PUSH2 0x13D0 JUMPI PUSH2 0x13CF PUSH2 0xB16 JUMP JUMPDEST JUMPDEST PUSH2 0x13DA DUP3 SLOAD PUSH2 0x10A6 JUMP JUMPDEST PUSH2 0x13E5 DUP3 DUP3 DUP6 PUSH2 0x1321 JUMP JUMPDEST PUSH1 0x0 PUSH1 0x20 SWAP1 POP PUSH1 0x1F DUP4 GT PUSH1 0x1 DUP2 EQ PUSH2 0x1418 JUMPI PUSH1 0x0 DUP5 ISZERO PUSH2 0x1406 JUMPI DUP3 DUP8 ADD MLOAD SWAP1 POP JUMPDEST PUSH2 0x1410 DUP6 DUP3 PUSH2 0x1392 JUMP JUMPDEST DUP7 SSTORE POP PUSH2 0x1478 JUMP JUMPDEST PUSH1 0x1F NOT DUP5 AND PUSH2 0x1426 DUP7 PUSH2 0x1202 JUMP JUMPDEST PUSH1 0x0 JUMPDEST DUP3 DUP2 LT ISZERO PUSH2 0x144E JUMPI DUP5 DUP10 ADD MLOAD DUP3 SSTORE PUSH1 0x1 DUP3 ADD SWAP2 POP PUSH1 0x20 DUP6 ADD SWAP5 POP PUSH1 0x20 DUP2 ADD SWAP1 POP PUSH2 0x1429 JUMP JUMPDEST DUP7 DUP4 LT ISZERO PUSH2 0x146B JUMPI DUP5 DUP10 ADD MLOAD PUSH2 0x1467 PUSH1 0x1F DUP10 AND DUP3 PUSH2 0x1374 JUMP JUMPDEST DUP4 SSTORE POP JUMPDEST PUSH1 0x1 PUSH1 0x2 DUP9 MUL ADD DUP9 SSTORE POP POP POP JUMPDEST POP POP POP POP POP POP JUMP JUMPDEST PUSH1 0x0 PUSH2 0x148B DUP3 PUSH2 0xE72 JUMP JUMPDEST SWAP2 POP PUSH2 0x1496 DUP4 PUSH2 0xE72 JUMP JUMPDEST SWAP3 POP DUP3 DUP3 MUL PUSH2 0x14A4 DUP2 PUSH2 0xE72 JUMP JUMPDEST SWAP2 POP DUP3 DUP3 DIV DUP5 EQ DUP4 ISZERO OR PUSH2 0x14BB JUMPI PUSH2 0x14BA PUSH2 0xF56 JUMP JUMPDEST JUMPDEST POP SWAP3 SWAP2 POP POP JUMP JUMPDEST PUSH1 0x0 PUSH2 0x14CD DUP3 PUSH2 0xE72 JUMP JUMPDEST SWAP2 POP PUSH2 0x14D8 DUP4 PUSH2 0xE72 JUMP JUMPDEST SWAP3 POP DUP3 DUP3 SUB SWAP1 POP PUSH20 0xFFFFFFFFFFFFFFFFFFFFFFFFFFFFFFFFFFFFFFFF DUP2 GT ISZERO PUSH2 0x1504 JUMPI PUSH2 0x1503 PUSH2 0xF56 JUMP JUMPDEST JUMPDEST SWAP3 SWAP2 POP POP JUMP JUMPDEST PUSH1 0x0 PUSH2 0x1515 DUP3 PUSH2 0xE72 JUMP JUMPDEST SWAP2 POP PUSH2 0x1520 DUP4 PUSH2 0xE72 JUMP JUMPDEST SWAP3 POP DUP3 DUP3 ADD SWAP1 POP PUSH20 0xFFFFFFFFFFFFFFFFFFFFFFFFFFFFFFFFFFFFFFFF DUP2 GT ISZERO PUSH2 0x154C JUMPI PUSH2 0x154B PUSH2 0xF56 JUMP JUMPDEST JUMPDEST SWAP3 SWAP2 POP POP JUMP JUMPDEST PUSH1 0x0 DUP2 MLOAD SWAP1 POP PUSH2 0x1561 DUP2 PUSH2 0xECE JUMP JUMPDEST SWAP3 SWAP2 POP POP JUMP JUMPDEST PUSH1 0x0 PUSH1 0x20 DUP3 DUP5 SUB SLT ISZERO PUSH2 0x157D JUMPI PUSH2 0x157C PUSH2 0xAF1 JUMP JUMPDEST JUMPDEST PUSH1 0x0 PUSH2 0x158B DUP5 DUP3 DUP6 ADD PUSH2 0x1552 JUMP JUMPDEST SWAP2 POP POP SWAP3 SWAP2 POP POP JUMP JUMPDEST PUSH32 0x4F776E61626C653A206E6577206F776E657220697320746865207A65726F2061 PUSH1 0x0 DUP3 ADD MSTORE PUSH32 0x6464726573730000000000000000000000000000000000000000000000000000 PUSH1 0x20 DUP3 ADD MSTORE POP JUMP JUMPDEST PUSH1 0x0 PUSH2 0x15F0 PUSH1 0x26 DUP4 PUSH2 0xD64 JUMP JUMPDEST SWAP2 POP PUSH2 0x15FB DUP3 PUSH2 0x1594 JUMP JUMPDEST PUSH1 0x40 DUP3 ADD SWAP1 POP SWAP2 SWAP1 POP JUMP JUMPDEST PUSH1 0x0 PUSH1 0x20 DUP3 ADD SWAP1 POP DUP2 DUP2 SUB PUSH1 0x0 DUP4 ADD MSTORE PUSH2 0x161F DUP2 PUSH2 0x15E3 JUMP JUMPDEST SWAP1 POP SWAP2 SWAP1 POP JUMP JUMPDEST PUSH32 0x4F776E61626C653A2063616C6C6572206973206E6F7420746865206F776E6572 PUSH1 0x0 DUP3 ADD MSTORE POP JUMP JUMPDEST PUSH1 0x0 PUSH2 0x165C PUSH1 0x20 DUP4 PUSH2 0xD64 JUMP JUMPDEST SWAP2 POP PUSH2 0x1667 DUP3 PUSH2 0x1626 JUMP JUMPDEST PUSH1 0x20 DUP3 ADD SWAP1 POP SWAP2 SWAP1 POP JUMP JUMPDEST PUSH1 0x0 PUSH1 0x20 DUP3 ADD SWAP1 POP DUP2 DUP2 SUB PUSH1 0x0 DUP4 ADD MSTORE PUSH2 0x168B DUP2 PUSH2 0x164F JUMP JUMPDEST SWAP1 POP SWAP2 SWAP1 POP JUMP INVALID LOG2 PUSH5 0x6970667358 0x22 SLT KECCAK256 0xCC SWAP11 CALLDATACOPY 0xC4 PUSH22 0xE0C77CD2E13E54036126203F9D70B9AAAE80D9D6F4EB 0xC1 BASEFEE CALLER RETURN 0xA9 PUSH5 0x736F6C6343 STOP ADDMOD SLT STOP CALLER "
		},
		"gasEstimates": {
			"creation": {
				"codeDepositCost": "1166400",
				"executionCost": "infinite",
				"totalCost": "infinite"
			},
			"external": {
				"checkOwnership(string)": "infinite",
				"kamaToID(string)": "infinite",
				"owner()": "2544",
				"parseAddr(string)": "infinite",
				"renounceOwnership()": "30443",
				"stringToUint(string)": "infinite",
				"substring(string,uint256,uint256)": "infinite",
				"transferOwnership(address)": "30832",
				"updateUsername(string,string)": "infinite"
			}
		},
		"methodIdentifiers": {
			"checkOwnership(string)": "bffd1ea9",
			"kamaToID(string)": "72390d13",
			"owner()": "8da5cb5b",
			"parseAddr(string)": "a6823189",
			"renounceOwnership()": "715018a6",
			"stringToUint(string)": "1bd95155",
			"substring(string,uint256,uint256)": "1dcd9b55",
			"transferOwnership(address)": "f2fde38b",
			"updateUsername(string,string)": "892d069c"
		}
	},
	"abi": [
		{
			"inputs": [],
			"stateMutability": "nonpayable",
			"type": "constructor"
		},
		{
			"anonymous": false,
			"inputs": [
				{
					"indexed": true,
					"internalType": "address",
					"name": "previousOwner",
					"type": "address"
				},
				{
					"indexed": true,
					"internalType": "address",
					"name": "newOwner",
					"type": "address"
				}
			],
			"name": "OwnershipTransferred",
			"type": "event"
		},
		{
			"inputs": [
				{
					"internalType": "string",
					"name": "concatenated",
					"type": "string"
				}
			],
			"name": "checkOwnership",
			"outputs": [
				{
					"internalType": "address",
					"name": "",
					"type": "address"
				}
			],
			"stateMutability": "view",
			"type": "function"
		},
		{
			"inputs": [
				{
					"internalType": "string",
					"name": "",
					"type": "string"
				}
			],
			"name": "kamaToID",
			"outputs": [
				{
					"internalType": "string",
					"name": "",
					"type": "string"
				}
			],
			"stateMutability": "view",
			"type": "function"
		},
		{
			"inputs": [],
			"name": "owner",
			"outputs": [
				{
					"internalType": "address",
					"name": "",
					"type": "address"
				}
			],
			"stateMutability": "view",
			"type": "function"
		},
		{
			"inputs": [
				{
					"internalType": "string",
					"name": "_a",
					"type": "string"
				}
			],
			"name": "parseAddr",
			"outputs": [
				{
					"internalType": "address",
					"name": "_parsedAddress",
					"type": "address"
				}
			],
			"stateMutability": "pure",
			"type": "function"
		},
		{
			"inputs": [],
			"name": "renounceOwnership",
			"outputs": [],
			"stateMutability": "nonpayable",
			"type": "function"
		},
		{
			"inputs": [
				{
					"internalType": "string",
					"name": "s",
					"type": "string"
				}
			],
			"name": "stringToUint",
			"outputs": [
				{
					"internalType": "uint256",
					"name": "result",
					"type": "uint256"
				}
			],
			"stateMutability": "pure",
			"type": "function"
		},
		{
			"inputs": [
				{
					"internalType": "string",
					"name": "str",
					"type": "string"
				},
				{
					"internalType": "uint256",
					"name": "startIndex",
					"type": "uint256"
				},
				{
					"internalType": "uint256",
					"name": "endIndex",
					"type": "uint256"
				}
			],
			"name": "substring",
			"outputs": [
				{
					"internalType": "string",
					"name": "",
					"type": "string"
				}
			],
			"stateMutability": "pure",
			"type": "function"
		},
		{
			"inputs": [
				{
					"internalType": "address",
					"name": "newOwner",
					"type": "address"
				}
			],
			"name": "transferOwnership",
			"outputs": [],
			"stateMutability": "nonpayable",
			"type": "function"
		},
		{
			"inputs": [
				{
					"internalType": "string",
					"name": "_identityNumber",
					"type": "string"
				},
				{
					"internalType": "string",
					"name": "_usernameOfKamailio",
					"type": "string"
				}
			],
			"name": "updateUsername",
			"outputs": [],
			"stateMutability": "nonpayable",
			"type": "function"
		}
	]
}